{
  "_format": "hh-sol-artifact-1",
  "contractName": "BalancerPairOracle",
  "sourceName": "contracts/oracle/BalancerPairOracle.sol",
  "abi": [
    {
      "inputs": [
        {
          "internalType": "contract IBaseOracle",
          "name": "_base",
          "type": "address"
        }
      ],
      "stateMutability": "nonpayable",
      "type": "constructor"
    },
    {
      "inputs": [],
      "name": "BONE",
      "outputs": [
        {
          "internalType": "uint256",
          "name": "",
          "type": "uint256"
        }
      ],
      "stateMutability": "view",
      "type": "function"
    },
    {
      "inputs": [],
      "name": "BPOW_PRECISION",
      "outputs": [
        {
          "internalType": "uint256",
          "name": "",
          "type": "uint256"
        }
      ],
      "stateMutability": "view",
      "type": "function"
    },
    {
      "inputs": [],
      "name": "EXIT_FEE",
      "outputs": [
        {
          "internalType": "uint256",
          "name": "",
          "type": "uint256"
        }
      ],
      "stateMutability": "view",
      "type": "function"
    },
    {
      "inputs": [],
      "name": "INIT_POOL_SUPPLY",
      "outputs": [
        {
          "internalType": "uint256",
          "name": "",
          "type": "uint256"
        }
      ],
      "stateMutability": "view",
      "type": "function"
    },
    {
      "inputs": [],
      "name": "MAX_BOUND_TOKENS",
      "outputs": [
        {
          "internalType": "uint256",
          "name": "",
          "type": "uint256"
        }
      ],
      "stateMutability": "view",
      "type": "function"
    },
    {
      "inputs": [],
      "name": "MAX_BPOW_BASE",
      "outputs": [
        {
          "internalType": "uint256",
          "name": "",
          "type": "uint256"
        }
      ],
      "stateMutability": "view",
      "type": "function"
    },
    {
      "inputs": [],
      "name": "MAX_FEE",
      "outputs": [
        {
          "internalType": "uint256",
          "name": "",
          "type": "uint256"
        }
      ],
      "stateMutability": "view",
      "type": "function"
    },
    {
      "inputs": [],
      "name": "MAX_IN_RATIO",
      "outputs": [
        {
          "internalType": "uint256",
          "name": "",
          "type": "uint256"
        }
      ],
      "stateMutability": "view",
      "type": "function"
    },
    {
      "inputs": [],
      "name": "MAX_OUT_RATIO",
      "outputs": [
        {
          "internalType": "uint256",
          "name": "",
          "type": "uint256"
        }
      ],
      "stateMutability": "view",
      "type": "function"
    },
    {
      "inputs": [],
      "name": "MAX_TOTAL_WEIGHT",
      "outputs": [
        {
          "internalType": "uint256",
          "name": "",
          "type": "uint256"
        }
      ],
      "stateMutability": "view",
      "type": "function"
    },
    {
      "inputs": [],
      "name": "MAX_WEIGHT",
      "outputs": [
        {
          "internalType": "uint256",
          "name": "",
          "type": "uint256"
        }
      ],
      "stateMutability": "view",
      "type": "function"
    },
    {
      "inputs": [],
      "name": "MIN_BALANCE",
      "outputs": [
        {
          "internalType": "uint256",
          "name": "",
          "type": "uint256"
        }
      ],
      "stateMutability": "view",
      "type": "function"
    },
    {
      "inputs": [],
      "name": "MIN_BOUND_TOKENS",
      "outputs": [
        {
          "internalType": "uint256",
          "name": "",
          "type": "uint256"
        }
      ],
      "stateMutability": "view",
      "type": "function"
    },
    {
      "inputs": [],
      "name": "MIN_BPOW_BASE",
      "outputs": [
        {
          "internalType": "uint256",
          "name": "",
          "type": "uint256"
        }
      ],
      "stateMutability": "view",
      "type": "function"
    },
    {
      "inputs": [],
      "name": "MIN_FEE",
      "outputs": [
        {
          "internalType": "uint256",
          "name": "",
          "type": "uint256"
        }
      ],
      "stateMutability": "view",
      "type": "function"
    },
    {
      "inputs": [],
      "name": "MIN_WEIGHT",
      "outputs": [
        {
          "internalType": "uint256",
          "name": "",
          "type": "uint256"
        }
      ],
      "stateMutability": "view",
      "type": "function"
    },
    {
      "inputs": [],
      "name": "base",
      "outputs": [
        {
          "internalType": "contract IBaseOracle",
          "name": "",
          "type": "address"
        }
      ],
      "stateMutability": "view",
      "type": "function"
    },
    {
      "inputs": [
        {
          "internalType": "address",
          "name": "token",
          "type": "address"
        }
      ],
      "name": "getETHPx",
      "outputs": [
        {
          "internalType": "uint256",
          "name": "",
          "type": "uint256"
        }
      ],
      "stateMutability": "view",
      "type": "function"
    }
  ],
  "bytecode": "0x60a060405234801561001057600080fd5b5060405161118b38038061118b83398101604081905261002f91610044565b60601b6001600160601b031916608052610072565b600060208284031215610055578081fd5b81516001600160a01b038116811461006b578182fd5b9392505050565b60805160601c6110ed61009e600039600081816101e4015281816103d9015261047901526110ed6000f3fe608060405234801561001057600080fd5b50600436106100f65760003560e01c8063b0e0d13611610092578063b0e0d13614610171578063b7b800a414610179578063ba019dab14610181578063bc063e1a14610189578063bc694ea214610191578063c36596a614610121578063c6580d1214610199578063e4a28a52146100fb578063ec093021146101a1576100f6565b806309a3bbe4146100fb578063189d00ca14610119578063218b5382146101215780635001f3b51461012957806376c7a3c71461013e578063867378c5146101465780639381cd2b1461014e578063992e2a9214610156578063ab9aadfe1461015e575b600080fd5b6101036101a9565b6040516101109190610fc3565b60405180910390f35b6101036101bf565b6101036101d6565b6101316101e2565b6040516101109190610e53565b610103610206565b61010361021b565b610103610232565b610103610245565b61010361016c366004610d5e565b610263565b6101036107bd565b6101036107c2565b6101036107c7565b6101036107cc565b6101036107df565b6101036107fe565b610103610803565b6101bc670de0b6b3a76400006032610ff8565b81565b6101bc6402540be400670de0b6b3a7640000610fe4565b670de0b6b3a764000081565b7f000000000000000000000000000000000000000000000000000000000000000081565b6101bc620f4240670de0b6b3a7640000610fe4565b6101bc64e8d4a51000670de0b6b3a7640000610fe4565b6101bc670de0b6b3a76400006064610ff8565b6102586003670de0b6b3a7640000610fe4565b6101bc906001610fcc565b600080829050806001600160a01b031663cd2ed8fb6040518163ffffffff1660e01b815260040160206040518083038186803b1580156102a257600080fd5b505afa1580156102b6573d6000803e3d6000fd5b505050506040513d601f19601f820116820180604052508101906102da9190610e3b565b6002146103025760405162461bcd60e51b81526004016102f990610e91565b60405180910390fd5b6000816001600160a01b031663be3bbd2e6040518163ffffffff1660e01b815260040160006040518083038186803b15801561033d57600080fd5b505afa158015610351573d6000803e3d6000fd5b505050506040513d6000823e601f3d908101601f191682016040526103799190810190610d7a565b905060008160008151811061039e57634e487b7160e01b600052603260045260246000fd5b602002602001015190506000826001815181106103cb57634e487b7160e01b600052603260045260246000fd5b6020026020010151905060007f00000000000000000000000000000000000000000000000000000000000000006001600160a01b031663ab9aadfe846040518263ffffffff1660e01b81526004016104239190610e53565b60206040518083038186803b15801561043b57600080fd5b505afa15801561044f573d6000803e3d6000fd5b505050506040513d601f19601f820116820180604052508101906104739190610e3b565b905060007f00000000000000000000000000000000000000000000000000000000000000006001600160a01b031663ab9aadfe846040518263ffffffff1660e01b81526004016104c39190610e53565b60206040518083038186803b1580156104db57600080fd5b505afa1580156104ef573d6000803e3d6000fd5b505050506040513d601f19601f820116820180604052508101906105139190610e3b565b9050600080610712886001600160a01b031663f8b2cb4f886040518263ffffffff1660e01b81526004016105479190610e53565b60206040518083038186803b15801561055f57600080fd5b505afa158015610573573d6000803e3d6000fd5b505050506040513d601f19601f820116820180604052508101906105979190610e3b565b60405163f8b2cb4f60e01b81526001600160a01b038b169063f8b2cb4f906105c3908a90600401610e53565b60206040518083038186803b1580156105db57600080fd5b505afa1580156105ef573d6000803e3d6000fd5b505050506040513d601f19601f820116820180604052508101906106139190610e3b565b60405163f1b8a9b760e01b81526001600160a01b038c169063f1b8a9b79061063f908c90600401610e53565b60206040518083038186803b15801561065757600080fd5b505afa15801561066b573d6000803e3d6000fd5b505050506040513d601f19601f8201168201806040525081019061068f9190610e3b565b60405163f1b8a9b760e01b81526001600160a01b038d169063f1b8a9b7906106bb908c90600401610e53565b60206040518083038186803b1580156106d357600080fd5b505afa1580156106e7573d6000803e3d6000fd5b505050506040513d601f19601f8201168201806040525081019061070b9190610e3b565b8888610816565b915091506107ad886001600160a01b03166318160ddd6040518163ffffffff1660e01b815260040160206040518083038186803b15801561075257600080fd5b505afa158015610766573d6000803e3d6000fd5b505050506040513d601f19601f8201168201806040525081019061078a9190610e3b565b6107a761079784876108c5565b6107a186896108c5565b906108da565b906108e6565b985050505050505050505b919050565b600881565b600281565b600181565b6101bc600a670de0b6b3a7640000610fe4565b60016107f4670de0b6b3a76400006002610ff8565b6101bc9190611017565b600081565b6101bc6002670de0b6b3a7640000610fe4565b600080600061082589896108f2565b9050600061084561083689876109af565b61084089896109af565b6108f2565b90508082111561088857600061085b82846108f2565b90506108708b61086b838b610a44565b6109af565b94506108808a610840838c610a44565b9350506108b8565b600061089483836108f2565b90506108a48b610840838b610a44565b94506108b48a61086b838c610a44565b9350505b5050965096945050505050565b60006108d18284610ff8565b90505b92915050565b60006108d18284610fcc565b60006108d18284610fe4565b6000816109115760405162461bcd60e51b81526004016102f990610ee9565b6000610925670de0b6b3a764000085610ff8565b90508315806109445750670de0b6b3a76400006109428583610fe4565b145b6109605760405162461bcd60e51b81526004016102f990610e67565b600061096d600285610fe4565b6109779083610fcc565b9050818110156109995760405162461bcd60e51b81526004016102f990610e67565b60006109a58583610fe4565b9695505050505050565b6000806109bc8385610ff8565b90508315806109d35750826109d18583610fe4565b145b6109ef5760405162461bcd60e51b81526004016102f990610ebf565b6000610a046002670de0b6b3a7640000610fe4565b610a0e9083610fcc565b905081811015610a305760405162461bcd60e51b81526004016102f990610ebf565b60006109a5670de0b6b3a764000083610fe4565b60006001831015610a675760405162461bcd60e51b81526004016102f990610f0f565b6001610a7c670de0b6b3a76400006002610ff8565b610a869190611017565b831115610aa55760405162461bcd60e51b81526004016102f990610f93565b6000610ab083610b1f565b90506000610abe8483610b3d565b90506000610ad486610acf85610b76565b610b8a565b905081610ae55792506108d4915050565b6000610b088784610b036402540be400670de0b6b3a7640000610fe4565b610bfd565b9050610b1482826109af565b979650505050505050565b6000670de0b6b3a7640000610b3383610b76565b6108d49190610ff8565b6000806000610b4c8585610ced565b915091508015610b6e5760405162461bcd60e51b81526004016102f990610f3e565b509392505050565b60006108d4670de0b6b3a764000083610fe4565b600080610b98600284611049565b610baa57670de0b6b3a7640000610bac565b835b9050610bb9600284610fe4565b92505b82156108d157610bcc84856109af565b9350610bd9600284611049565b15610beb57610be881856109af565b90505b610bf6600284610fe4565b9250610bbc565b6000828180610c1487670de0b6b3a7640000610ced565b9092509050670de0b6b3a764000080600060015b888410610cde576000610c43670de0b6b3a764000083610ff8565b9050600080610c638a610c5e85670de0b6b3a7640000610b3d565b610ced565b91509150610c758761086b848c6109af565b9650610c8187846108f2565b965086610c9057505050610cde565b8715610c9a579315935b8015610ca4579315935b8415610cbb57610cb48688610b3d565b9550610cc8565b610cc58688610d24565b95505b5050508080610cd69061102e565b915050610c28565b50909998505050505050505050565b600080828410610d0c57610d018385611017565b600091509150610d1d565b610d168484611017565b6001915091505b9250929050565b600080610d318385610fcc565b9050838110156108d15760405162461bcd60e51b81526004016102f990610f69565b80516107b88161109f565b600060208284031215610d6f578081fd5b81356108d18161109f565b60006020808385031215610d8c578182fd5b825167ffffffffffffffff80821115610da3578384fd5b818501915085601f830112610db6578384fd5b815181811115610dc857610dc8611089565b83810260405185828201018181108582111715610de757610de7611089565b604052828152858101935084860182860187018a1015610e05578788fd5b8795505b83861015610e2e57610e1a81610d53565b855260019590950194938601938601610e09565b5098975050505050505050565b600060208284031215610e4c578081fd5b5051919050565b6001600160a01b0391909116815260200190565b60208082526010908201526f11549497d1125597d25395115493905360821b604082015260600190565b602080825260149082015273373ab6903a37b5b2b7399036bab9ba103132901960611b604082015260600190565b60208082526010908201526f4552525f4d554c5f4f564552464c4f5760801b604082015260600190565b6020808252600c908201526b4552525f4449565f5a45524f60a01b604082015260600190565b6020808252601590820152744552525f42504f575f424153455f544f4f5f4c4f5760581b604082015260600190565b6020808252601190820152704552525f5355425f554e444552464c4f5760781b604082015260600190565b60208082526010908201526f4552525f4144445f4f564552464c4f5760801b604082015260600190565b60208082526016908201527508aa4a4be84a09eaebe8482a68abea89e9ebe90928e960531b604082015260600190565b90815260200190565b60008219821115610fdf57610fdf61105d565b500190565b600082610ff357610ff3611073565b500490565b60008160001904831182151516156110125761101261105d565b500290565b6000828210156110295761102961105d565b500390565b60006000198214156110425761104261105d565b5060010190565b60008261105857611058611073565b500690565b634e487b7160e01b600052601160045260246000fd5b634e487b7160e01b600052601260045260246000fd5b634e487b7160e01b600052604160045260246000fd5b6001600160a01b03811681146110b457600080fd5b5056fea2646970667358221220e2d4c063d581483b9ce12619c7023f3f84ad4e437db4525851fa99197cf8da6864736f6c63430008000033",
  "linkReferences": {},
  "deployedLinkReferences": {}
}