{
  "_format": "hh-sol-artifact-1",
  "contractName": "UsingBaseOracle",
  "sourceName": "contracts/oracle/UsingBaseOracle.sol",
  "abi": [
    {
      "inputs": [
        {
          "internalType": "contract IBaseOracle",
          "name": "_base",
          "type": "address"
        }
      ],
      "stateMutability": "nonpayable",
      "type": "constructor"
    },
    {
      "inputs": [],
      "name": "base",
      "outputs": [
        {
          "internalType": "contract IBaseOracle",
          "name": "",
          "type": "address"
        }
      ],
      "stateMutability": "view",
      "type": "function"
    }
  ],
  "bytecode": "0x60a060405234801561001057600080fd5b5060405161014238038061014283398101604081905261002f91610044565b60601b6001600160601b031916608052610072565b600060208284031215610055578081fd5b81516001600160a01b038116811461006b578182fd5b9392505050565b60805160601c60b561008d60003960006049015260b56000f3fe6080604052348015600f57600080fd5b506004361060285760003560e01c80635001f3b514602d575b600080fd5b60336047565b604051603e9190606b565b60405180910390f35b7f000000000000000000000000000000000000000000000000000000000000000081565b6001600160a01b039190911681526020019056fea26469706673582212207207dc1ac7d65f40e19363175a2e708c0fdbdfbd20575f713e070f363e4d0d5664736f6c63430008000033",
  "linkReferences": {},
  "deployedLinkReferences": {}
}