{
  "_format": "hh-sol-artifact-1",
  "contractName": "WStakingRewards",
  "sourceName": "contracts/wrapper/WStakingRewards.sol",
  "abi": [
    {
      "inputs": [
        {
          "internalType": "address",
          "name": "_staking",
          "type": "address"
        },
        {
          "internalType": "address",
          "name": "_underlying",
          "type": "address"
        },
        {
          "internalType": "address",
          "name": "_reward",
          "type": "address"
        }
      ],
      "stateMutability": "nonpayable",
      "type": "constructor"
    },
    {
      "anonymous": false,
      "inputs": [
        {
          "indexed": true,
          "internalType": "address",
          "name": "account",
          "type": "address"
        },
        {
          "indexed": true,
          "internalType": "address",
          "name": "operator",
          "type": "address"
        },
        {
          "indexed": false,
          "internalType": "bool",
          "name": "approved",
          "type": "bool"
        }
      ],
      "name": "ApprovalForAll",
      "type": "event"
    },
    {
      "anonymous": false,
      "inputs": [
        {
          "indexed": true,
          "internalType": "address",
          "name": "operator",
          "type": "address"
        },
        {
          "indexed": true,
          "internalType": "address",
          "name": "from",
          "type": "address"
        },
        {
          "indexed": true,
          "internalType": "address",
          "name": "to",
          "type": "address"
        },
        {
          "indexed": false,
          "internalType": "uint256[]",
          "name": "ids",
          "type": "uint256[]"
        },
        {
          "indexed": false,
          "internalType": "uint256[]",
          "name": "values",
          "type": "uint256[]"
        }
      ],
      "name": "TransferBatch",
      "type": "event"
    },
    {
      "anonymous": false,
      "inputs": [
        {
          "indexed": true,
          "internalType": "address",
          "name": "operator",
          "type": "address"
        },
        {
          "indexed": true,
          "internalType": "address",
          "name": "from",
          "type": "address"
        },
        {
          "indexed": true,
          "internalType": "address",
          "name": "to",
          "type": "address"
        },
        {
          "indexed": false,
          "internalType": "uint256",
          "name": "id",
          "type": "uint256"
        },
        {
          "indexed": false,
          "internalType": "uint256",
          "name": "value",
          "type": "uint256"
        }
      ],
      "name": "TransferSingle",
      "type": "event"
    },
    {
      "anonymous": false,
      "inputs": [
        {
          "indexed": false,
          "internalType": "string",
          "name": "value",
          "type": "string"
        },
        {
          "indexed": true,
          "internalType": "uint256",
          "name": "id",
          "type": "uint256"
        }
      ],
      "name": "URI",
      "type": "event"
    },
    {
      "inputs": [
        {
          "internalType": "address",
          "name": "account",
          "type": "address"
        },
        {
          "internalType": "uint256",
          "name": "id",
          "type": "uint256"
        }
      ],
      "name": "balanceOf",
      "outputs": [
        {
          "internalType": "uint256",
          "name": "",
          "type": "uint256"
        }
      ],
      "stateMutability": "view",
      "type": "function"
    },
    {
      "inputs": [
        {
          "internalType": "address[]",
          "name": "accounts",
          "type": "address[]"
        },
        {
          "internalType": "uint256[]",
          "name": "ids",
          "type": "uint256[]"
        }
      ],
      "name": "balanceOfBatch",
      "outputs": [
        {
          "internalType": "uint256[]",
          "name": "",
          "type": "uint256[]"
        }
      ],
      "stateMutability": "view",
      "type": "function"
    },
    {
      "inputs": [
        {
          "internalType": "uint256",
          "name": "id",
          "type": "uint256"
        },
        {
          "internalType": "uint256",
          "name": "amount",
          "type": "uint256"
        }
      ],
      "name": "burn",
      "outputs": [
        {
          "internalType": "uint256",
          "name": "",
          "type": "uint256"
        }
      ],
      "stateMutability": "nonpayable",
      "type": "function"
    },
    {
      "inputs": [
        {
          "internalType": "uint256",
          "name": "",
          "type": "uint256"
        }
      ],
      "name": "getUnderlyingRate",
      "outputs": [
        {
          "internalType": "uint256",
          "name": "",
          "type": "uint256"
        }
      ],
      "stateMutability": "view",
      "type": "function"
    },
    {
      "inputs": [
        {
          "internalType": "uint256",
          "name": "",
          "type": "uint256"
        }
      ],
      "name": "getUnderlyingToken",
      "outputs": [
        {
          "internalType": "address",
          "name": "",
          "type": "address"
        }
      ],
      "stateMutability": "view",
      "type": "function"
    },
    {
      "inputs": [
        {
          "internalType": "address",
          "name": "account",
          "type": "address"
        },
        {
          "internalType": "address",
          "name": "operator",
          "type": "address"
        }
      ],
      "name": "isApprovedForAll",
      "outputs": [
        {
          "internalType": "bool",
          "name": "",
          "type": "bool"
        }
      ],
      "stateMutability": "view",
      "type": "function"
    },
    {
      "inputs": [
        {
          "internalType": "uint256",
          "name": "amount",
          "type": "uint256"
        }
      ],
      "name": "mint",
      "outputs": [
        {
          "internalType": "uint256",
          "name": "",
          "type": "uint256"
        }
      ],
      "stateMutability": "nonpayable",
      "type": "function"
    },
    {
      "inputs": [],
      "name": "reward",
      "outputs": [
        {
          "internalType": "address",
          "name": "",
          "type": "address"
        }
      ],
      "stateMutability": "view",
      "type": "function"
    },
    {
      "inputs": [
        {
          "internalType": "address",
          "name": "from",
          "type": "address"
        },
        {
          "internalType": "address",
          "name": "to",
          "type": "address"
        },
        {
          "internalType": "uint256[]",
          "name": "ids",
          "type": "uint256[]"
        },
        {
          "internalType": "uint256[]",
          "name": "amounts",
          "type": "uint256[]"
        },
        {
          "internalType": "bytes",
          "name": "data",
          "type": "bytes"
        }
      ],
      "name": "safeBatchTransferFrom",
      "outputs": [],
      "stateMutability": "nonpayable",
      "type": "function"
    },
    {
      "inputs": [
        {
          "internalType": "address",
          "name": "from",
          "type": "address"
        },
        {
          "internalType": "address",
          "name": "to",
          "type": "address"
        },
        {
          "internalType": "uint256",
          "name": "id",
          "type": "uint256"
        },
        {
          "internalType": "uint256",
          "name": "amount",
          "type": "uint256"
        },
        {
          "internalType": "bytes",
          "name": "data",
          "type": "bytes"
        }
      ],
      "name": "safeTransferFrom",
      "outputs": [],
      "stateMutability": "nonpayable",
      "type": "function"
    },
    {
      "inputs": [
        {
          "internalType": "address",
          "name": "operator",
          "type": "address"
        },
        {
          "internalType": "bool",
          "name": "approved",
          "type": "bool"
        }
      ],
      "name": "setApprovalForAll",
      "outputs": [],
      "stateMutability": "nonpayable",
      "type": "function"
    },
    {
      "inputs": [],
      "name": "staking",
      "outputs": [
        {
          "internalType": "address",
          "name": "",
          "type": "address"
        }
      ],
      "stateMutability": "view",
      "type": "function"
    },
    {
      "inputs": [
        {
          "internalType": "bytes4",
          "name": "interfaceId",
          "type": "bytes4"
        }
      ],
      "name": "supportsInterface",
      "outputs": [
        {
          "internalType": "bool",
          "name": "",
          "type": "bool"
        }
      ],
      "stateMutability": "view",
      "type": "function"
    },
    {
      "inputs": [],
      "name": "underlying",
      "outputs": [
        {
          "internalType": "address",
          "name": "",
          "type": "address"
        }
      ],
      "stateMutability": "view",
      "type": "function"
    },
    {
      "inputs": [
        {
          "internalType": "uint256",
          "name": "",
          "type": "uint256"
        }
      ],
      "name": "uri",
      "outputs": [
        {
          "internalType": "string",
          "name": "",
          "type": "string"
        }
      ],
      "stateMutability": "view",
      "type": "function"
    }
  ],
  "bytecode": "0x60e06040523480156200001157600080fd5b5060405162002a6038038062002a60833981016040819052620000349162000478565b60408051808201909152600f81526e575374616b696e675265776172647360881b60208201526200006581620000bc565b506001600355606083811b6001600160601b031990811660805283821b811660a0529082901b1660c052620000b36001600160a01b03831684600019620000d5602090811b62000af917901c565b50505062000716565b8051620000d1906002906020840190620003ba565b5050565b801580620001645750604051636eb1769f60e11b81526001600160a01b0384169063dd62ed3e906200010e90309086906004016200051a565b60206040518083038186803b1580156200012757600080fd5b505afa1580156200013c573d6000803e3d6000fd5b505050506040513d601f19601f82011682018060405250810190620001629190620004e3565b155b6200018c5760405162461bcd60e51b8152600401620001839062000649565b60405180910390fd5b620001e78363095ea7b360e01b8484604051602401620001ae92919062000534565b60408051808303601f190181529190526020810180516001600160e01b0319939093166001600160e01b0393841617905290620001ec16565b505050565b600062000248826040518060400160405280602081526020017f5361666545524332303a206c6f772d6c6576656c2063616c6c206661696c6564815250856001600160a01b03166200028860201b62000bf8179092919060201c565b805190915015620001e75780806020019051810190620002699190620004c1565b620001e75760405162461bcd60e51b81526004016200018390620005ff565b6060620002998484600085620002a3565b90505b9392505050565b606082471015620002c85760405162461bcd60e51b8152600401620001839062000582565b620002d38562000372565b620002f25760405162461bcd60e51b81526004016200018390620005c8565b600080866001600160a01b03168587604051620003109190620004fc565b60006040518083038185875af1925050503d80600081146200034f576040519150601f19603f3d011682016040523d82523d6000602084013e62000354565b606091505b509092509050620003678282866200037c565b979650505050505050565b803b15155b919050565b606083156200038d5750816200029c565b8251156200039e5782518084602001fd5b8160405162461bcd60e51b81526004016200018391906200054d565b828054620003c890620006d9565b90600052602060002090601f016020900481019282620003ec576000855562000437565b82601f106200040757805160ff191683800117855562000437565b8280016001018555821562000437579182015b82811115620004375782518255916020019190600101906200041a565b506200044592915062000449565b5090565b5b808211156200044557600081556001016200044a565b80516001600160a01b03811681146200037757600080fd5b6000806000606084860312156200048d578283fd5b620004988462000460565b9250620004a86020850162000460565b9150620004b86040850162000460565b90509250925092565b600060208284031215620004d3578081fd5b815180151581146200029c578182fd5b600060208284031215620004f5578081fd5b5051919050565b6000825162000510818460208701620006a6565b9190910192915050565b6001600160a01b0392831681529116602082015260400190565b6001600160a01b03929092168252602082015260400190565b60006020825282518060208401526200056e816040850160208701620006a6565b601f01601f19169190910160400192915050565b60208082526026908201527f416464726573733a20696e73756666696369656e742062616c616e636520666f6040820152651c8818d85b1b60d21b606082015260800190565b6020808252601d908201527f416464726573733a2063616c6c20746f206e6f6e2d636f6e7472616374000000604082015260600190565b6020808252602a908201527f5361666545524332303a204552433230206f7065726174696f6e20646964206e6040820152691bdd081cdd58d8d9595960b21b606082015260800190565b60208082526036908201527f5361666545524332303a20617070726f76652066726f6d206e6f6e2d7a65726f60408201527f20746f206e6f6e2d7a65726f20616c6c6f77616e636500000000000000000000606082015260800190565b60005b83811015620006c3578181015183820152602001620006a9565b83811115620006d3576000848401525b50505050565b600281046001821680620006ee57607f821691505b602082108114156200071057634e487b7160e01b600052602260045260246000fd5b50919050565b60805160601c60a05160601c60c05160601c6122d26200078e600039600081816103560152610a3e01526000818161051b01528181610574015281816107a6015261091b0152600081816103d8015281816105b30152818161061e015281816108340152818161089d015261094d01526122d26000f3fe608060405234801561001057600080fd5b50600436106100d45760003560e01c80636f307dc3116100875780636f307dc314610194578063a0712d681461019c578063a22cb465146101af578063a4775772146101c2578063af8002df146101d5578063b390c0ab146101e8578063e985e9c5146101fb578063f242432a1461020e576100d4565b8062fdd58e146100d957806301ffc9a7146101025780630e89341c14610122578063228cb733146101425780632eb2c2d6146101575780634cf088d91461016c5780634e1273f414610174575b600080fd5b6100ec6100e73660046117b6565b610221565b6040516100f9919061202c565b60405180910390f35b6101156101103660046118b8565b610278565b6040516100f99190611b07565b6101356101303660046118f0565b6102c0565b6040516100f99190611b12565b61014a610354565b6040516100f991906119c3565b61016a610165366004611679565b610378565b005b61014a6103d6565b6101876101823660046117df565b6103fa565b6040516100f99190611ac6565b61014a610519565b6100ec6101aa3660046118f0565b61053d565b61016a6101bd366004611780565b6106d5565b61014a6101d03660046118f0565b6107a3565b6100ec6101e33660046118f0565b6107c8565b6100ec6101f6366004611920565b6107d1565b610115610209366004611647565b610a74565b61016a61021c36600461171e565b610aa2565b60006001600160a01b0383166102525760405162461bcd60e51b815260040161024990611bc1565b60405180910390fd5b506000908152602081815260408083206001600160a01b03949094168352929052205490565b60006001600160e01b03198216636cdb3d1360e11b14806102a957506001600160e01b031982166303a24d0760e21b145b806102b857506102b882610c11565b90505b919050565b6060600280546102cf90612129565b80601f01602080910402602001604051908101604052809291908181526020018280546102fb90612129565b80156103485780601f1061031d57610100808354040283529160200191610348565b820191906000526020600020905b81548152906001019060200180831161032b57829003601f168201915b50505050509050919050565b7f000000000000000000000000000000000000000000000000000000000000000081565b610380610c2a565b6001600160a01b0316856001600160a01b031614806103a657506103a685610209610c2a565b6103c25760405162461bcd60e51b815260040161024990611d24565b6103cf8585858585610c2f565b5050505050565b7f000000000000000000000000000000000000000000000000000000000000000081565b6060815183511461041d5760405162461bcd60e51b815260040161024990611ecd565b600083516001600160401b0381111561044657634e487b7160e01b600052604160045260246000fd5b60405190808252806020026020018201604052801561046f578160200160208202803683370190505b50905060005b8451811015610511576104d68582815181106104a157634e487b7160e01b600052603260045260246000fd5b60200260200101518583815181106104c957634e487b7160e01b600052603260045260246000fd5b6020026020010151610221565b8282815181106104f657634e487b7160e01b600052603260045260246000fd5b602090810291909101015261050a81612164565b9050610475565b509392505050565b7f000000000000000000000000000000000000000000000000000000000000000081565b6000600260035414156105625760405162461bcd60e51b815260040161024990611f9f565b600260035561059c6001600160a01b037f000000000000000000000000000000000000000000000000000000000000000016333085610e00565b60405163534a7e1d60e11b81526001600160a01b037f0000000000000000000000000000000000000000000000000000000000000000169063a694fc3a906105e890859060040161202c565b600060405180830381600087803b15801561060257600080fd5b505af1158015610616573d6000803e3d6000fd5b5050505060007f00000000000000000000000000000000000000000000000000000000000000006001600160a01b031663cd3daf9d6040518163ffffffff1660e01b815260040160206040518083038186803b15801561067557600080fd5b505afa158015610689573d6000803e3d6000fd5b505050506040513d601f19601f820116820180604052508101906106ad9190611908565b90506106ca33828560405180602001604052806000815250610e27565b600160035592915050565b816001600160a01b03166106e7610c2a565b6001600160a01b0316141561070e5760405162461bcd60e51b815260040161024990611e3a565b806001600061071b610c2a565b6001600160a01b03908116825260208083019390935260409182016000908120918716808252919093529120805460ff19169215159290921790915561075f610c2a565b6001600160a01b03167f17307eab39ab6107e8899845ad3d59bd9653f200f220920489ca2b5937696c31836040516107979190611b07565b60405180910390a35050565b507f000000000000000000000000000000000000000000000000000000000000000090565b50600160701b90565b6000600260035414156107f65760405162461bcd60e51b815260040161024990611f9f565b60026003556000198214156108125761080f3384610221565b91505b61081d338484610f04565b604051632e1a7d4d60e01b81526001600160a01b037f00000000000000000000000000000000000000000000000000000000000000001690632e1a7d4d9061086990859060040161202c565b600060405180830381600087803b15801561088357600080fd5b505af1158015610897573d6000803e3d6000fd5b505050507f00000000000000000000000000000000000000000000000000000000000000006001600160a01b0316633d18b9126040518163ffffffff1660e01b8152600401600060405180830381600087803b1580156108f657600080fd5b505af115801561090a573d6000803e3d6000fd5b506109449250506001600160a01b037f00000000000000000000000000000000000000000000000000000000000000001690503384611001565b600083905060007f00000000000000000000000000000000000000000000000000000000000000006001600160a01b031663cd3daf9d6040518163ffffffff1660e01b815260040160206040518083038186803b1580156109a457600080fd5b505afa1580156109b8573d6000803e3d6000fd5b505050506040513d601f19601f820116820180604052508101906109dc9190611908565b905060006109fc670de0b6b3a76400006109f68588611020565b9061102c565b90506000610a1c670de0b6b3a7640000610a168589611020565b9061104e565b905081811115610a6557610a6533610a34838561105a565b6001600160a01b037f0000000000000000000000000000000000000000000000000000000000000000169190611001565b50506001600355949350505050565b6001600160a01b03918216600090815260016020908152604080832093909416825291909152205460ff1690565b610aaa610c2a565b6001600160a01b0316856001600160a01b03161480610ad05750610ad085610209610c2a565b610aec5760405162461bcd60e51b815260040161024990611c50565b6103cf8585858585611066565b801580610b815750604051636eb1769f60e11b81526001600160a01b0384169063dd62ed3e90610b2f90309086906004016119d7565b60206040518083038186803b158015610b4757600080fd5b505afa158015610b5b573d6000803e3d6000fd5b505050506040513d601f19601f82011682018060405250810190610b7f9190611908565b155b610b9d5760405162461bcd60e51b815260040161024990611fd6565b610bf38363095ea7b360e01b8484604051602401610bbc929190611aad565b60408051601f198184030181529190526020810180516001600160e01b03166001600160e01b031990931692909217909152611188565b505050565b6060610c078484600085611217565b90505b9392505050565b6001600160e01b031981166301ffc9a760e01b14919050565b335b90565b8151835114610c505760405162461bcd60e51b815260040161024990611f16565b6001600160a01b038416610c765760405162461bcd60e51b815260040161024990611cdf565b6000610c80610c2a565b9050610c90818787878787610df8565b60005b8451811015610d92576000858281518110610cbe57634e487b7160e01b600052603260045260246000fd5b602002602001015190506000858381518110610cea57634e487b7160e01b600052603260045260246000fd5b602090810291909101810151600084815280835260408082206001600160a01b038e168352909352919091205490915081811015610d3a5760405162461bcd60e51b815260040161024990611db9565b6000838152602081815260408083206001600160a01b038e8116855292528083208585039055908b16825281208054849290610d7790849061208f565b9250508190555050505080610d8b90612164565b9050610c93565b50846001600160a01b0316866001600160a01b0316826001600160a01b03167f4a39dc06d4c0dbc64b70af90fd698a233a518aa5d07e595d983b8c0526c8f7fb8787604051610de2929190611ad9565b60405180910390a4610df88187878787876112d7565b505050505050565b610e21846323b872dd60e01b858585604051602401610bbc93929190611a4f565b50505050565b6001600160a01b038416610e4d5760405162461bcd60e51b815260040161024990611f5e565b6000610e57610c2a565b9050610e7881600087610e69886113e5565b610e72886113e5565b87610df8565b6000848152602081815260408083206001600160a01b038916845290915281208054859290610ea890849061208f565b92505081905550846001600160a01b031660006001600160a01b0316826001600160a01b031660008051602061227d8339815191528787604051610eed929190612035565b60405180910390a46103cf8160008787878761143e565b6001600160a01b038316610f2a5760405162461bcd60e51b815260040161024990611d76565b6000610f34610c2a565b9050610f6481856000610f46876113e5565b610f4f876113e5565b60405180602001604052806000815250610df8565b6000838152602081815260408083206001600160a01b038816845290915290205482811015610fa55760405162461bcd60e51b815260040161024990611c0c565b6000848152602081815260408083206001600160a01b03808a168086529190935281842087860390559051909185169060008051602061227d83398151915290610ff29089908990612035565b60405180910390a45050505050565b610bf38363a9059cbb60e01b8484604051602401610bbc929190611aad565b6000610c0a82846120c7565b600081611044600161103e868461150f565b9061105a565b610c0a91906120a7565b6000610c0a82846120a7565b6000610c0a82846120e6565b6001600160a01b03841661108c5760405162461bcd60e51b815260040161024990611cdf565b6000611096610c2a565b90506110a7818787610e69886113e5565b6000848152602081815260408083206001600160a01b038a168452909152902054838110156110e85760405162461bcd60e51b815260040161024990611db9565b6000858152602081815260408083206001600160a01b038b811685529252808320878503905590881682528120805486929061112590849061208f565b92505081905550856001600160a01b0316876001600160a01b0316836001600160a01b031660008051602061227d8339815191528888604051611169929190612035565b60405180910390a461117f82888888888861143e565b50505050505050565b60006111dd826040518060400160405280602081526020017f5361666545524332303a206c6f772d6c6576656c2063616c6c206661696c6564815250856001600160a01b0316610bf89092919063ffffffff16565b805190915015610bf357808060200190518101906111fb919061189c565b610bf35760405162461bcd60e51b815260040161024990611e83565b6060824710156112395760405162461bcd60e51b815260040161024990611c99565b6112428561151b565b61125e5760405162461bcd60e51b815260040161024990611e03565b600080866001600160a01b0316858760405161127a91906119a7565b60006040518083038185875af1925050503d80600081146112b7576040519150601f19603f3d011682016040523d82523d6000602084013e6112bc565b606091505b50915091506112cc828286611521565b979650505050505050565b6112e9846001600160a01b031661151b565b15610df85760405163bc197c8160e01b81526001600160a01b0385169063bc197c819061132290899089908890889088906004016119f1565b602060405180830381600087803b15801561133c57600080fd5b505af192505050801561136c575060408051601f3d908101601f19168201909252611369918101906118d4565b60015b6113b5576113786121b1565b80611383575061139d565b8060405162461bcd60e51b81526004016102499190611b12565b60405162461bcd60e51b815260040161024990611b25565b6001600160e01b0319811663bc197c8160e01b1461117f5760405162461bcd60e51b815260040161024990611b79565b6040805160018082528183019092526060916000919060208083019080368337019050509050828160008151811061142d57634e487b7160e01b600052603260045260246000fd5b602090810291909101015292915050565b611450846001600160a01b031661151b565b15610df85760405163f23a6e6160e01b81526001600160a01b0385169063f23a6e61906114899089908990889088908890600401611a73565b602060405180830381600087803b1580156114a357600080fd5b505af19250505080156114d3575060408051601f3d908101601f191682019092526114d0918101906118d4565b60015b6114df576113786121b1565b6001600160e01b0319811663f23a6e6160e01b1461117f5760405162461bcd60e51b815260040161024990611b79565b6000610c0a828461208f565b3b151590565b60608315611530575081610c0a565b8251156115405782518084602001fd5b8160405162461bcd60e51b81526004016102499190611b12565b80356001600160a01b03811681146102bb57600080fd5b600082601f830112611581578081fd5b813560206115966115918361206c565b612043565b82815281810190858301838502870184018810156115b2578586fd5b855b858110156115d0578135845292840192908401906001016115b4565b5090979650505050505050565b600082601f8301126115ed578081fd5b81356001600160401b0381111561160657611606612195565b611619601f8201601f1916602001612043565b81815284602083860101111561162d578283fd5b816020850160208301379081016020019190915292915050565b60008060408385031215611659578182fd5b6116628361155a565b91506116706020840161155a565b90509250929050565b600080600080600060a08688031215611690578081fd5b6116998661155a565b94506116a76020870161155a565b935060408601356001600160401b03808211156116c2578283fd5b6116ce89838a01611571565b945060608801359150808211156116e3578283fd5b6116ef89838a01611571565b93506080880135915080821115611704578283fd5b50611711888289016115dd565b9150509295509295909350565b600080600080600060a08688031215611735578081fd5b61173e8661155a565b945061174c6020870161155a565b9350604086013592506060860135915060808601356001600160401b03811115611774578182fd5b611711888289016115dd565b60008060408385031215611792578182fd5b61179b8361155a565b915060208301356117ab81612255565b809150509250929050565b600080604083850312156117c8578182fd5b6117d18361155a565b946020939093013593505050565b600080604083850312156117f1578182fd5b82356001600160401b0380821115611807578384fd5b818501915085601f83011261181a578384fd5b8135602061182a6115918361206c565b82815281810190858301838502870184018b1015611846578889fd5b8896505b8487101561186f5761185b8161155a565b83526001969096019591830191830161184a565b5096505086013592505080821115611885578283fd5b5061189285828601611571565b9150509250929050565b6000602082840312156118ad578081fd5b8151610c0a81612255565b6000602082840312156118c9578081fd5b8135610c0a81612266565b6000602082840312156118e5578081fd5b8151610c0a81612266565b600060208284031215611901578081fd5b5035919050565b600060208284031215611919578081fd5b5051919050565b60008060408385031215611932578182fd5b50508035926020909101359150565b6000815180845260208085019450808401835b8381101561197057815187529582019590820190600101611954565b509495945050505050565b600081518084526119938160208601602086016120fd565b601f01601f19169290920160200192915050565b600082516119b98184602087016120fd565b9190910192915050565b6001600160a01b0391909116815260200190565b6001600160a01b0392831681529116602082015260400190565b6001600160a01b0386811682528516602082015260a060408201819052600090611a1d90830186611941565b8281036060840152611a2f8186611941565b90508281036080840152611a43818561197b565b98975050505050505050565b6001600160a01b039384168152919092166020820152604081019190915260600190565b6001600160a01b03868116825285166020820152604081018490526060810183905260a0608082018190526000906112cc9083018461197b565b6001600160a01b03929092168252602082015260400190565b600060208252610c0a6020830184611941565b600060408252611aec6040830185611941565b8281036020840152611afe8185611941565b95945050505050565b901515815260200190565b600060208252610c0a602083018461197b565b60208082526034908201527f455243313135353a207472616e7366657220746f206e6f6e20455243313135356040820152732932b1b2b4bb32b91034b6b83632b6b2b73a32b960611b606082015260800190565b60208082526028908201527f455243313135353a204552433131353552656365697665722072656a656374656040820152676420746f6b656e7360c01b606082015260800190565b6020808252602b908201527f455243313135353a2062616c616e636520717565727920666f7220746865207a60408201526a65726f206164647265737360a81b606082015260800190565b60208082526024908201527f455243313135353a206275726e20616d6f756e7420657863656564732062616c604082015263616e636560e01b606082015260800190565b60208082526029908201527f455243313135353a2063616c6c6572206973206e6f74206f776e6572206e6f7260408201526808185c1c1c9bdd995960ba1b606082015260800190565b60208082526026908201527f416464726573733a20696e73756666696369656e742062616c616e636520666f6040820152651c8818d85b1b60d21b606082015260800190565b60208082526025908201527f455243313135353a207472616e7366657220746f20746865207a65726f206164604082015264647265737360d81b606082015260800190565b60208082526032908201527f455243313135353a207472616e736665722063616c6c6572206973206e6f74206040820152711bdddb995c881b9bdc88185c1c1c9bdd995960721b606082015260800190565b60208082526023908201527f455243313135353a206275726e2066726f6d20746865207a65726f206164647260408201526265737360e81b606082015260800190565b6020808252602a908201527f455243313135353a20696e73756666696369656e742062616c616e636520666f60408201526939103a3930b739b332b960b11b606082015260800190565b6020808252601d908201527f416464726573733a2063616c6c20746f206e6f6e2d636f6e7472616374000000604082015260600190565b60208082526029908201527f455243313135353a2073657474696e6720617070726f76616c20737461747573604082015268103337b91039b2b63360b91b606082015260800190565b6020808252602a908201527f5361666545524332303a204552433230206f7065726174696f6e20646964206e6040820152691bdd081cdd58d8d9595960b21b606082015260800190565b60208082526029908201527f455243313135353a206163636f756e747320616e6420696473206c656e677468604082015268040dad2e6dac2e8c6d60bb1b606082015260800190565b60208082526028908201527f455243313135353a2069647320616e6420616d6f756e7473206c656e677468206040820152670dad2e6dac2e8c6d60c31b606082015260800190565b60208082526021908201527f455243313135353a206d696e7420746f20746865207a65726f206164647265736040820152607360f81b606082015260800190565b6020808252601f908201527f5265656e7472616e637947756172643a207265656e7472616e742063616c6c00604082015260600190565b60208082526036908201527f5361666545524332303a20617070726f76652066726f6d206e6f6e2d7a65726f60408201527520746f206e6f6e2d7a65726f20616c6c6f77616e636560501b606082015260800190565b90815260200190565b918252602082015260400190565b6040518181016001600160401b038111828210171561206457612064612195565b604052919050565b60006001600160401b0382111561208557612085612195565b5060209081020190565b600082198211156120a2576120a261217f565b500190565b6000826120c257634e487b7160e01b81526012600452602481fd5b500490565b60008160001904831182151516156120e1576120e161217f565b500290565b6000828210156120f8576120f861217f565b500390565b60005b83811015612118578181015183820152602001612100565b83811115610e215750506000910152565b60028104600182168061213d57607f821691505b6020821081141561215e57634e487b7160e01b600052602260045260246000fd5b50919050565b60006000198214156121785761217861217f565b5060010190565b634e487b7160e01b600052601160045260246000fd5b634e487b7160e01b600052604160045260246000fd5b60e01c90565b600060443d10156121c157610c2c565b600481823e6308c379a06121d582516121ab565b146121df57610c2c565b6040513d600319016004823e80513d6001600160401b03816024840111818411171561220e5750505050610c2c565b828401925082519150808211156122285750505050610c2c565b503d8301602082840101111561224057505050610c2c565b601f01601f1916810160200160405291505090565b801515811461226357600080fd5b50565b6001600160e01b03198116811461226357600080fdfec3d58168c5ae7397731d063d5bbf3d657854427343f4c083240f7aacaa2d0f62a26469706673582212202a84b35a248c61d831e8b210c7d1f52a876c4becbb520cdbd840367dec19c28664736f6c63430008000033",
  "linkReferences": {},
  "deployedLinkReferences": {}
}