{
  "_format": "hh-sol-artifact-1",
  "contractName": "WERC20",
  "sourceName": "contracts/wrapper/WERC20.sol",
  "abi": [
    {
      "anonymous": false,
      "inputs": [
        {
          "indexed": true,
          "internalType": "address",
          "name": "account",
          "type": "address"
        },
        {
          "indexed": true,
          "internalType": "address",
          "name": "operator",
          "type": "address"
        },
        {
          "indexed": false,
          "internalType": "bool",
          "name": "approved",
          "type": "bool"
        }
      ],
      "name": "ApprovalForAll",
      "type": "event"
    },
    {
      "anonymous": false,
      "inputs": [
        {
          "indexed": true,
          "internalType": "address",
          "name": "operator",
          "type": "address"
        },
        {
          "indexed": true,
          "internalType": "address",
          "name": "from",
          "type": "address"
        },
        {
          "indexed": true,
          "internalType": "address",
          "name": "to",
          "type": "address"
        },
        {
          "indexed": false,
          "internalType": "uint256[]",
          "name": "ids",
          "type": "uint256[]"
        },
        {
          "indexed": false,
          "internalType": "uint256[]",
          "name": "values",
          "type": "uint256[]"
        }
      ],
      "name": "TransferBatch",
      "type": "event"
    },
    {
      "anonymous": false,
      "inputs": [
        {
          "indexed": true,
          "internalType": "address",
          "name": "operator",
          "type": "address"
        },
        {
          "indexed": true,
          "internalType": "address",
          "name": "from",
          "type": "address"
        },
        {
          "indexed": true,
          "internalType": "address",
          "name": "to",
          "type": "address"
        },
        {
          "indexed": false,
          "internalType": "uint256",
          "name": "id",
          "type": "uint256"
        },
        {
          "indexed": false,
          "internalType": "uint256",
          "name": "value",
          "type": "uint256"
        }
      ],
      "name": "TransferSingle",
      "type": "event"
    },
    {
      "anonymous": false,
      "inputs": [
        {
          "indexed": false,
          "internalType": "string",
          "name": "value",
          "type": "string"
        },
        {
          "indexed": true,
          "internalType": "uint256",
          "name": "id",
          "type": "uint256"
        }
      ],
      "name": "URI",
      "type": "event"
    },
    {
      "inputs": [
        {
          "internalType": "address",
          "name": "account",
          "type": "address"
        },
        {
          "internalType": "uint256",
          "name": "id",
          "type": "uint256"
        }
      ],
      "name": "balanceOf",
      "outputs": [
        {
          "internalType": "uint256",
          "name": "",
          "type": "uint256"
        }
      ],
      "stateMutability": "view",
      "type": "function"
    },
    {
      "inputs": [
        {
          "internalType": "address[]",
          "name": "accounts",
          "type": "address[]"
        },
        {
          "internalType": "uint256[]",
          "name": "ids",
          "type": "uint256[]"
        }
      ],
      "name": "balanceOfBatch",
      "outputs": [
        {
          "internalType": "uint256[]",
          "name": "",
          "type": "uint256[]"
        }
      ],
      "stateMutability": "view",
      "type": "function"
    },
    {
      "inputs": [
        {
          "internalType": "address",
          "name": "token",
          "type": "address"
        },
        {
          "internalType": "address",
          "name": "user",
          "type": "address"
        }
      ],
      "name": "balanceOfERC20",
      "outputs": [
        {
          "internalType": "uint256",
          "name": "",
          "type": "uint256"
        }
      ],
      "stateMutability": "view",
      "type": "function"
    },
    {
      "inputs": [
        {
          "internalType": "address",
          "name": "token",
          "type": "address"
        },
        {
          "internalType": "uint256",
          "name": "amount",
          "type": "uint256"
        }
      ],
      "name": "burn",
      "outputs": [],
      "stateMutability": "nonpayable",
      "type": "function"
    },
    {
      "inputs": [
        {
          "internalType": "uint256",
          "name": "",
          "type": "uint256"
        }
      ],
      "name": "getUnderlyingRate",
      "outputs": [
        {
          "internalType": "uint256",
          "name": "",
          "type": "uint256"
        }
      ],
      "stateMutability": "view",
      "type": "function"
    },
    {
      "inputs": [
        {
          "internalType": "uint256",
          "name": "id",
          "type": "uint256"
        }
      ],
      "name": "getUnderlyingToken",
      "outputs": [
        {
          "internalType": "address",
          "name": "",
          "type": "address"
        }
      ],
      "stateMutability": "view",
      "type": "function"
    },
    {
      "inputs": [
        {
          "internalType": "address",
          "name": "account",
          "type": "address"
        },
        {
          "internalType": "address",
          "name": "operator",
          "type": "address"
        }
      ],
      "name": "isApprovedForAll",
      "outputs": [
        {
          "internalType": "bool",
          "name": "",
          "type": "bool"
        }
      ],
      "stateMutability": "view",
      "type": "function"
    },
    {
      "inputs": [
        {
          "internalType": "address",
          "name": "token",
          "type": "address"
        },
        {
          "internalType": "uint256",
          "name": "amount",
          "type": "uint256"
        }
      ],
      "name": "mint",
      "outputs": [],
      "stateMutability": "nonpayable",
      "type": "function"
    },
    {
      "inputs": [
        {
          "internalType": "address",
          "name": "from",
          "type": "address"
        },
        {
          "internalType": "address",
          "name": "to",
          "type": "address"
        },
        {
          "internalType": "uint256[]",
          "name": "ids",
          "type": "uint256[]"
        },
        {
          "internalType": "uint256[]",
          "name": "amounts",
          "type": "uint256[]"
        },
        {
          "internalType": "bytes",
          "name": "data",
          "type": "bytes"
        }
      ],
      "name": "safeBatchTransferFrom",
      "outputs": [],
      "stateMutability": "nonpayable",
      "type": "function"
    },
    {
      "inputs": [
        {
          "internalType": "address",
          "name": "from",
          "type": "address"
        },
        {
          "internalType": "address",
          "name": "to",
          "type": "address"
        },
        {
          "internalType": "uint256",
          "name": "id",
          "type": "uint256"
        },
        {
          "internalType": "uint256",
          "name": "amount",
          "type": "uint256"
        },
        {
          "internalType": "bytes",
          "name": "data",
          "type": "bytes"
        }
      ],
      "name": "safeTransferFrom",
      "outputs": [],
      "stateMutability": "nonpayable",
      "type": "function"
    },
    {
      "inputs": [
        {
          "internalType": "address",
          "name": "operator",
          "type": "address"
        },
        {
          "internalType": "bool",
          "name": "approved",
          "type": "bool"
        }
      ],
      "name": "setApprovalForAll",
      "outputs": [],
      "stateMutability": "nonpayable",
      "type": "function"
    },
    {
      "inputs": [
        {
          "internalType": "bytes4",
          "name": "interfaceId",
          "type": "bytes4"
        }
      ],
      "name": "supportsInterface",
      "outputs": [
        {
          "internalType": "bool",
          "name": "",
          "type": "bool"
        }
      ],
      "stateMutability": "view",
      "type": "function"
    },
    {
      "inputs": [
        {
          "internalType": "uint256",
          "name": "",
          "type": "uint256"
        }
      ],
      "name": "uri",
      "outputs": [
        {
          "internalType": "string",
          "name": "",
          "type": "string"
        }
      ],
      "stateMutability": "view",
      "type": "function"
    }
  ],
  "bytecode": "0x60806040523480156200001157600080fd5b5060408051808201909152600681526505745524332360d41b60208201526200003a8162000046565b50600160035562000142565b80516200005b9060029060208401906200005f565b5050565b8280546200006d9062000105565b90600052602060002090601f016020900481019282620000915760008555620000dc565b82601f10620000ac57805160ff1916838001178555620000dc565b82800160010185558215620000dc579182015b82811115620000dc578251825591602001919060010190620000bf565b50620000ea929150620000ee565b5090565b5b80821115620000ea5760008155600101620000ef565b6002810460018216806200011a57607f821691505b602082108114156200013c57634e487b7160e01b600052602260045260246000fd5b50919050565b611e4c80620001526000396000f3fe608060405234801561001057600080fd5b50600436106100be5760003560e01c80637e50205e1161007c5780637e50205e146101745780639dc29fac14610187578063a22cb4651461019a578063a4775772146101ad578063af8002df146101cd578063e985e9c5146101e0578063f242432a146101f3576100be565b8062fdd58e146100c357806301ffc9a7146100ec5780630e89341c1461010c5780632eb2c2d61461012c57806340c10f19146101415780634e1273f414610154575b600080fd5b6100d66100d13660046113db565b610206565b6040516100e39190611be5565b60405180910390f35b6100ff6100fa3660046114dd565b61025d565b6040516100e391906116f1565b61011f61011a366004611515565b6102a5565b6040516100e391906116fc565b61013f61013a36600461129e565b610339565b005b61013f61014f3660046113db565b610397565b610167610162366004611404565b61050e565b6040516100e391906116b0565b6100d661018236600461126c565b61062d565b61013f6101953660046113db565b610649565b61013f6101a83660046113a5565b6106a2565b6101c06101bb366004611515565b610770565b6040516100e391906115c7565b6100d66101db366004611515565b61079b565b6100ff6101ee36600461126c565b6107a4565b61013f610201366004611343565b6107d2565b60006001600160a01b0383166102375760405162461bcd60e51b815260040161022e906117d0565b60405180910390fd5b506000908152602081815260408083206001600160a01b03949094168352929052205490565b60006001600160e01b03198216636cdb3d1360e11b148061028e57506001600160e01b031982166303a24d0760e21b145b8061029d575061029d82610829565b90505b919050565b6060600280546102b490611ca3565b80601f01602080910402602001604051908101604052809291908181526020018280546102e090611ca3565b801561032d5780601f106103025761010080835404028352916020019161032d565b820191906000526020600020905b81548152906001019060200180831161031057829003601f168201915b50505050509050919050565b610341610842565b6001600160a01b0316856001600160a01b031614806103675750610367856101ee610842565b6103835760405162461bcd60e51b815260040161022e90611933565b6103908585858585610847565b5050505050565b600260035414156103ba5760405162461bcd60e51b815260040161022e90611bae565b60026003556040516370a0823160e01b81526000906001600160a01b038416906370a08231906103ee9030906004016115c7565b60206040518083038186803b15801561040657600080fd5b505afa15801561041a573d6000803e3d6000fd5b505050506040513d601f19601f8201168201806040525081019061043e919061152d565b90506104556001600160a01b038416333085610a18565b6040516370a0823160e01b81526000906001600160a01b038516906370a08231906104849030906004016115c7565b60206040518083038186803b15801561049c57600080fd5b505afa1580156104b0573d6000803e3d6000fd5b505050506040513d601f19601f820116820180604052508101906104d4919061152d565b9050610503336001600160a01b0386166104ee8486610a76565b60405180602001604052806000815250610a82565b505060016003555050565b606081518351146105315760405162461bcd60e51b815260040161022e90611adc565b600083516001600160401b0381111561055a57634e487b7160e01b600052604160045260246000fd5b604051908082528060200260200182016040528015610583578160200160208202803683370190505b50905060005b8451811015610625576105ea8582815181106105b557634e487b7160e01b600052603260045260246000fd5b60200260200101518583815181106105dd57634e487b7160e01b600052603260045260246000fd5b6020026020010151610206565b82828151811061060a57634e487b7160e01b600052603260045260246000fd5b602090810291909101015261061e81611cde565b9050610589565b509392505050565b600061064282846001600160a01b0316610206565b9392505050565b6002600354141561066c5760405162461bcd60e51b815260040161022e90611bae565b6002600355610685336001600160a01b03841683610b5f565b6106996001600160a01b0383163383610c5c565b50506001600355565b816001600160a01b03166106b4610842565b6001600160a01b031614156106db5760405162461bcd60e51b815260040161022e90611a49565b80600160006106e8610842565b6001600160a01b03908116825260208083019390935260409182016000908120918716808252919093529120805460ff19169215159290921790915561072c610842565b6001600160a01b03167f17307eab39ab6107e8899845ad3d59bd9653f200f220920489ca2b5937696c318360405161076491906116f1565b60405180910390a35050565b6000816001600160a01b038116811461029d5760405162461bcd60e51b815260040161022e90611763565b50600160701b90565b6001600160a01b03918216600090815260016020908152604080832093909416825291909152205460ff1690565b6107da610842565b6001600160a01b0316856001600160a01b031614806108005750610800856101ee610842565b61081c5760405162461bcd60e51b815260040161022e9061185f565b6103908585858585610c80565b6001600160e01b031981166301ffc9a760e01b14919050565b335b90565b81518351146108685760405162461bcd60e51b815260040161022e90611b25565b6001600160a01b03841661088e5760405162461bcd60e51b815260040161022e906118ee565b6000610898610842565b90506108a8818787878787610a10565b60005b84518110156109aa5760008582815181106108d657634e487b7160e01b600052603260045260246000fd5b60200260200101519050600085838151811061090257634e487b7160e01b600052603260045260246000fd5b602090810291909101810151600084815280835260408082206001600160a01b038e1683529093529190912054909150818110156109525760405162461bcd60e51b815260040161022e906119c8565b6000838152602081815260408083206001600160a01b038e8116855292528083208585039055908b1682528120805484929061098f908490611c48565b92505081905550505050806109a390611cde565b90506108ab565b50846001600160a01b0316866001600160a01b0316826001600160a01b03167f4a39dc06d4c0dbc64b70af90fd698a233a518aa5d07e595d983b8c0526c8f7fb87876040516109fa9291906116c3565b60405180910390a4610a10818787878787610da2565b505050505050565b610a70846323b872dd60e01b858585604051602401610a3993929190611639565b60408051601f198184030181529190526020810180516001600160e01b03166001600160e01b031990931692909217909152610eb0565b50505050565b60006106428284611c60565b6001600160a01b038416610aa85760405162461bcd60e51b815260040161022e90611b6d565b6000610ab2610842565b9050610ad381600087610ac488610f3f565b610acd88610f3f565b87610a10565b6000848152602081815260408083206001600160a01b038916845290915281208054859290610b03908490611c48565b92505081905550846001600160a01b031660006001600160a01b0316826001600160a01b0316600080516020611df78339815191528787604051610b48929190611bee565b60405180910390a461039081600087878787610f98565b6001600160a01b038316610b855760405162461bcd60e51b815260040161022e90611985565b6000610b8f610842565b9050610bbf81856000610ba187610f3f565b610baa87610f3f565b60405180602001604052806000815250610a10565b6000838152602081815260408083206001600160a01b038816845290915290205482811015610c005760405162461bcd60e51b815260040161022e9061181b565b6000848152602081815260408083206001600160a01b03808a1680865291909352818420878603905590519091851690600080516020611df783398151915290610c4d9089908990611bee565b60405180910390a45050505050565b610c7b8363a9059cbb60e01b8484604051602401610a39929190611697565b505050565b6001600160a01b038416610ca65760405162461bcd60e51b815260040161022e906118ee565b6000610cb0610842565b9050610cc1818787610ac488610f3f565b6000848152602081815260408083206001600160a01b038a16845290915290205483811015610d025760405162461bcd60e51b815260040161022e906119c8565b6000858152602081815260408083206001600160a01b038b8116855292528083208785039055908816825281208054869290610d3f908490611c48565b92505081905550856001600160a01b0316876001600160a01b0316836001600160a01b0316600080516020611df78339815191528888604051610d83929190611bee565b60405180910390a4610d99828888888888610f98565b50505050505050565b610db4846001600160a01b0316611069565b15610a105760405163bc197c8160e01b81526001600160a01b0385169063bc197c8190610ded90899089908890889088906004016115db565b602060405180830381600087803b158015610e0757600080fd5b505af1925050508015610e37575060408051601f3d908101601f19168201909252610e34918101906114f9565b60015b610e8057610e43611d2b565b80610e4e5750610e68565b8060405162461bcd60e51b815260040161022e91906116fc565b60405162461bcd60e51b815260040161022e9061170f565b6001600160e01b0319811663bc197c8160e01b14610d995760405162461bcd60e51b815260040161022e90611788565b6000610f05826040518060400160405280602081526020017f5361666545524332303a206c6f772d6c6576656c2063616c6c206661696c6564815250856001600160a01b031661106f9092919063ffffffff16565b805190915015610c7b5780806020019051810190610f2391906114c1565b610c7b5760405162461bcd60e51b815260040161022e90611a92565b60408051600180825281830190925260609160009190602080830190803683370190505090508281600081518110610f8757634e487b7160e01b600052603260045260246000fd5b602090810291909101015292915050565b610faa846001600160a01b0316611069565b15610a105760405163f23a6e6160e01b81526001600160a01b0385169063f23a6e6190610fe3908990899088908890889060040161165d565b602060405180830381600087803b158015610ffd57600080fd5b505af192505050801561102d575060408051601f3d908101601f1916820190925261102a918101906114f9565b60015b61103957610e43611d2b565b6001600160e01b0319811663f23a6e6160e01b14610d995760405162461bcd60e51b815260040161022e90611788565b3b151590565b606061107e8484600085611086565b949350505050565b6060824710156110a85760405162461bcd60e51b815260040161022e906118a8565b6110b185611069565b6110cd5760405162461bcd60e51b815260040161022e90611a12565b600080866001600160a01b031685876040516110e991906115ab565b60006040518083038185875af1925050503d8060008114611126576040519150601f19603f3d011682016040523d82523d6000602084013e61112b565b606091505b509150915061113b828286611146565b979650505050505050565b60608315611155575081610642565b8251156111655782518084602001fd5b8160405162461bcd60e51b815260040161022e91906116fc565b80356001600160a01b03811681146102a057600080fd5b600082601f8301126111a6578081fd5b813560206111bb6111b683611c25565b611bfc565b82815281810190858301838502870184018810156111d7578586fd5b855b858110156111f5578135845292840192908401906001016111d9565b5090979650505050505050565b600082601f830112611212578081fd5b81356001600160401b0381111561122b5761122b611d0f565b61123e601f8201601f1916602001611bfc565b818152846020838601011115611252578283fd5b816020850160208301379081016020019190915292915050565b6000806040838503121561127e578182fd5b6112878361117f565b91506112956020840161117f565b90509250929050565b600080600080600060a086880312156112b5578081fd5b6112be8661117f565b94506112cc6020870161117f565b935060408601356001600160401b03808211156112e7578283fd5b6112f389838a01611196565b94506060880135915080821115611308578283fd5b61131489838a01611196565b93506080880135915080821115611329578283fd5b5061133688828901611202565b9150509295509295909350565b600080600080600060a0868803121561135a578081fd5b6113638661117f565b94506113716020870161117f565b9350604086013592506060860135915060808601356001600160401b03811115611399578182fd5b61133688828901611202565b600080604083850312156113b7578182fd5b6113c08361117f565b915060208301356113d081611dcf565b809150509250929050565b600080604083850312156113ed578182fd5b6113f68361117f565b946020939093013593505050565b60008060408385031215611416578182fd5b82356001600160401b038082111561142c578384fd5b818501915085601f83011261143f578384fd5b8135602061144f6111b683611c25565b82815281810190858301838502870184018b101561146b578889fd5b8896505b84871015611494576114808161117f565b83526001969096019591830191830161146f565b50965050860135925050808211156114aa578283fd5b506114b785828601611196565b9150509250929050565b6000602082840312156114d2578081fd5b815161064281611dcf565b6000602082840312156114ee578081fd5b813561064281611de0565b60006020828403121561150a578081fd5b815161064281611de0565b600060208284031215611526578081fd5b5035919050565b60006020828403121561153e578081fd5b5051919050565b6000815180845260208085019450808401835b8381101561157457815187529582019590820190600101611558565b509495945050505050565b60008151808452611597816020860160208601611c77565b601f01601f19169290920160200192915050565b600082516115bd818460208701611c77565b9190910192915050565b6001600160a01b0391909116815260200190565b6001600160a01b0386811682528516602082015260a06040820181905260009061160790830186611545565b82810360608401526116198186611545565b9050828103608084015261162d818561157f565b98975050505050505050565b6001600160a01b039384168152919092166020820152604081019190915260600190565b6001600160a01b03868116825285166020820152604081018490526060810183905260a06080820181905260009061113b9083018461157f565b6001600160a01b03929092168252602082015260400190565b6000602082526106426020830184611545565b6000604082526116d66040830185611545565b82810360208401526116e88185611545565b95945050505050565b901515815260200190565b600060208252610642602083018461157f565b60208082526034908201527f455243313135353a207472616e7366657220746f206e6f6e20455243313135356040820152732932b1b2b4bb32b91034b6b83632b6b2b73a32b960611b606082015260800190565b6020808252600b908201526a6964206f766572666c6f7760a81b604082015260600190565b60208082526028908201527f455243313135353a204552433131353552656365697665722072656a656374656040820152676420746f6b656e7360c01b606082015260800190565b6020808252602b908201527f455243313135353a2062616c616e636520717565727920666f7220746865207a60408201526a65726f206164647265737360a81b606082015260800190565b60208082526024908201527f455243313135353a206275726e20616d6f756e7420657863656564732062616c604082015263616e636560e01b606082015260800190565b60208082526029908201527f455243313135353a2063616c6c6572206973206e6f74206f776e6572206e6f7260408201526808185c1c1c9bdd995960ba1b606082015260800190565b60208082526026908201527f416464726573733a20696e73756666696369656e742062616c616e636520666f6040820152651c8818d85b1b60d21b606082015260800190565b60208082526025908201527f455243313135353a207472616e7366657220746f20746865207a65726f206164604082015264647265737360d81b606082015260800190565b60208082526032908201527f455243313135353a207472616e736665722063616c6c6572206973206e6f74206040820152711bdddb995c881b9bdc88185c1c1c9bdd995960721b606082015260800190565b60208082526023908201527f455243313135353a206275726e2066726f6d20746865207a65726f206164647260408201526265737360e81b606082015260800190565b6020808252602a908201527f455243313135353a20696e73756666696369656e742062616c616e636520666f60408201526939103a3930b739b332b960b11b606082015260800190565b6020808252601d908201527f416464726573733a2063616c6c20746f206e6f6e2d636f6e7472616374000000604082015260600190565b60208082526029908201527f455243313135353a2073657474696e6720617070726f76616c20737461747573604082015268103337b91039b2b63360b91b606082015260800190565b6020808252602a908201527f5361666545524332303a204552433230206f7065726174696f6e20646964206e6040820152691bdd081cdd58d8d9595960b21b606082015260800190565b60208082526029908201527f455243313135353a206163636f756e747320616e6420696473206c656e677468604082015268040dad2e6dac2e8c6d60bb1b606082015260800190565b60208082526028908201527f455243313135353a2069647320616e6420616d6f756e7473206c656e677468206040820152670dad2e6dac2e8c6d60c31b606082015260800190565b60208082526021908201527f455243313135353a206d696e7420746f20746865207a65726f206164647265736040820152607360f81b606082015260800190565b6020808252601f908201527f5265656e7472616e637947756172643a207265656e7472616e742063616c6c00604082015260600190565b90815260200190565b918252602082015260400190565b6040518181016001600160401b0381118282101715611c1d57611c1d611d0f565b604052919050565b60006001600160401b03821115611c3e57611c3e611d0f565b5060209081020190565b60008219821115611c5b57611c5b611cf9565b500190565b600082821015611c7257611c72611cf9565b500390565b60005b83811015611c92578181015183820152602001611c7a565b83811115610a705750506000910152565b600281046001821680611cb757607f821691505b60208210811415611cd857634e487b7160e01b600052602260045260246000fd5b50919050565b6000600019821415611cf257611cf2611cf9565b5060010190565b634e487b7160e01b600052601160045260246000fd5b634e487b7160e01b600052604160045260246000fd5b60e01c90565b600060443d1015611d3b57610844565b600481823e6308c379a0611d4f8251611d25565b14611d5957610844565b6040513d600319016004823e80513d6001600160401b038160248401118184111715611d885750505050610844565b82840192508251915080821115611da25750505050610844565b503d83016020828401011115611dba57505050610844565b601f01601f1916810160200160405291505090565b8015158114611ddd57600080fd5b50565b6001600160e01b031981168114611ddd57600080fdfec3d58168c5ae7397731d063d5bbf3d657854427343f4c083240f7aacaa2d0f62a2646970667358221220fc07c931babe4d517d9dc0f64781fd33760a3f6c274af3465fa61260642cc98e64736f6c63430008000033",
  "linkReferences": {},
  "deployedLinkReferences": {}
}