{
  "_format": "hh-sol-artifact-1",
  "contractName": "IbETHRouterV2",
  "sourceName": "contracts/IbETHRouterV2.sol",
  "abi": [
    {
      "inputs": [
        {
          "internalType": "contract IERC20",
          "name": "_alpha",
          "type": "address"
        },
        {
          "internalType": "contract IbETHRouterV2IbETHv2",
          "name": "_ibETHv2",
          "type": "address"
        },
        {
          "internalType": "contract IbETHRouterV2UniswapRouter",
          "name": "_router",
          "type": "address"
        }
      ],
      "stateMutability": "nonpayable",
      "type": "constructor"
    },
    {
      "inputs": [
        {
          "internalType": "uint256",
          "name": "amountAlpha",
          "type": "uint256"
        },
        {
          "internalType": "uint256",
          "name": "minLp",
          "type": "uint256"
        },
        {
          "internalType": "address",
          "name": "to",
          "type": "address"
        },
        {
          "internalType": "uint256",
          "name": "deadline",
          "type": "uint256"
        }
      ],
      "name": "addLiquidityETHAlphaOptimal",
      "outputs": [],
      "stateMutability": "payable",
      "type": "function"
    },
    {
      "inputs": [
        {
          "internalType": "uint256",
          "name": "amountIbETHv2",
          "type": "uint256"
        },
        {
          "internalType": "uint256",
          "name": "amountAlpha",
          "type": "uint256"
        },
        {
          "internalType": "uint256",
          "name": "minLp",
          "type": "uint256"
        },
        {
          "internalType": "address",
          "name": "to",
          "type": "address"
        },
        {
          "internalType": "uint256",
          "name": "deadline",
          "type": "uint256"
        }
      ],
      "name": "addLiquidityIbETHv2AlphaOptimal",
      "outputs": [],
      "stateMutability": "nonpayable",
      "type": "function"
    },
    {
      "inputs": [],
      "name": "alpha",
      "outputs": [
        {
          "internalType": "contract IERC20",
          "name": "",
          "type": "address"
        }
      ],
      "stateMutability": "view",
      "type": "function"
    },
    {
      "inputs": [],
      "name": "ibETHv2",
      "outputs": [
        {
          "internalType": "contract IbETHRouterV2IbETHv2",
          "name": "",
          "type": "address"
        }
      ],
      "stateMutability": "view",
      "type": "function"
    },
    {
      "inputs": [],
      "name": "lpToken",
      "outputs": [
        {
          "internalType": "contract IbETHRouterV2UniswapPair",
          "name": "",
          "type": "address"
        }
      ],
      "stateMutability": "view",
      "type": "function"
    },
    {
      "inputs": [
        {
          "internalType": "uint256",
          "name": "liquidity",
          "type": "uint256"
        },
        {
          "internalType": "uint256",
          "name": "minAlpha",
          "type": "uint256"
        },
        {
          "internalType": "address",
          "name": "to",
          "type": "address"
        },
        {
          "internalType": "uint256",
          "name": "deadline",
          "type": "uint256"
        }
      ],
      "name": "removeLiquidityAlphaOnly",
      "outputs": [],
      "stateMutability": "nonpayable",
      "type": "function"
    },
    {
      "inputs": [
        {
          "internalType": "uint256",
          "name": "liquidity",
          "type": "uint256"
        },
        {
          "internalType": "uint256",
          "name": "minETH",
          "type": "uint256"
        },
        {
          "internalType": "uint256",
          "name": "minAlpha",
          "type": "uint256"
        },
        {
          "internalType": "address",
          "name": "to",
          "type": "address"
        },
        {
          "internalType": "uint256",
          "name": "deadline",
          "type": "uint256"
        }
      ],
      "name": "removeLiquidityETHAlpha",
      "outputs": [],
      "stateMutability": "nonpayable",
      "type": "function"
    },
    {
      "inputs": [],
      "name": "router",
      "outputs": [
        {
          "internalType": "contract IbETHRouterV2UniswapRouter",
          "name": "",
          "type": "address"
        }
      ],
      "stateMutability": "view",
      "type": "function"
    },
    {
      "inputs": [
        {
          "internalType": "uint256",
          "name": "amountIn",
          "type": "uint256"
        },
        {
          "internalType": "uint256",
          "name": "amountOutMin",
          "type": "uint256"
        },
        {
          "internalType": "address",
          "name": "to",
          "type": "address"
        },
        {
          "internalType": "uint256",
          "name": "deadline",
          "type": "uint256"
        }
      ],
      "name": "swapExactAlphaToETH",
      "outputs": [],
      "stateMutability": "nonpayable",
      "type": "function"
    },
    {
      "inputs": [
        {
          "internalType": "uint256",
          "name": "amountOutMin",
          "type": "uint256"
        },
        {
          "internalType": "address",
          "name": "to",
          "type": "address"
        },
        {
          "internalType": "uint256",
          "name": "deadline",
          "type": "uint256"
        }
      ],
      "name": "swapExactETHToAlpha",
      "outputs": [],
      "stateMutability": "payable",
      "type": "function"
    },
    {
      "stateMutability": "payable",
      "type": "receive"
    }
  ],
  "bytecode": "0x6101006040523480156200001257600080fd5b5060405162003628380380620036288339810160408190526200003591620004fb565b6000816001600160a01b031663c45a01556040518163ffffffff1660e01b815260040160206040518083038186803b1580156200007157600080fd5b505afa15801562000086573d6000803e3d6000fd5b505050506040513d601f19601f82011682018060405250810190620000ac9190620004ba565b6001600160a01b031663e6a4390585856040518363ffffffff1660e01b8152600401620000db92919062000585565b60206040518083038186803b158015620000f457600080fd5b505afa15801562000109573d6000803e3d6000fd5b505050506040513d601f19601f820116820180604052508101906200012f9190620004ba565b606085811b6001600160601b031990811660805285821b811660a05282821b811660c0529084901b1660e0529050620001816001600160a01b03851683600019620001d9602090811b6200204617901c565b620001a882600019856001600160a01b0316620001d960201b62002046179092919060201c565b620001cf82600019836001600160a01b0316620001d960201b62002046179092919060201c565b505050506200075d565b801580620002685750604051636eb1769f60e11b81526001600160a01b0384169063dd62ed3e9062000212903090869060040162000585565b60206040518083038186803b1580156200022b57600080fd5b505afa15801562000240573d6000803e3d6000fd5b505050506040513d601f19601f820116820180604052508101906200026691906200054e565b155b620002905760405162461bcd60e51b81526004016200028790620006b4565b60405180910390fd5b620002eb8363095ea7b360e01b8484604051602401620002b29291906200059f565b60408051808303601f190181529190526020810180516001600160e01b0319939093166001600160e01b0393841617905290620002f016565b505050565b60006200034c826040518060400160405280602081526020017f5361666545524332303a206c6f772d6c6576656c2063616c6c206661696c6564815250856001600160a01b03166200038c60201b62002145179092919060201c565b805190915015620002eb57808060200190518101906200036d9190620004d9565b620002eb5760405162461bcd60e51b815260040162000287906200066a565b60606200039d8484600085620003a7565b90505b9392505050565b606082471015620003cc5760405162461bcd60e51b81526004016200028790620005ed565b620003d78562000476565b620003f65760405162461bcd60e51b8152600401620002879062000633565b600080866001600160a01b0316858760405162000414919062000567565b60006040518083038185875af1925050503d806000811462000453576040519150601f19603f3d011682016040523d82523d6000602084013e62000458565b606091505b5090925090506200046b8282866200047c565b979650505050505050565b3b151590565b606083156200048d575081620003a0565b8251156200049e5782518084602001fd5b8160405162461bcd60e51b8152600401620002879190620005b8565b600060208284031215620004cc578081fd5b8151620003a08162000744565b600060208284031215620004eb578081fd5b81518015158114620003a0578182fd5b60008060006060848603121562000510578182fd5b83516200051d8162000744565b6020850151909350620005308162000744565b6040850151909250620005438162000744565b809150509250925092565b60006020828403121562000560578081fd5b5051919050565b600082516200057b81846020870162000711565b9190910192915050565b6001600160a01b0392831681529116602082015260400190565b6001600160a01b03929092168252602082015260400190565b6000602082528251806020840152620005d981604085016020870162000711565b601f01601f19169190910160400192915050565b60208082526026908201527f416464726573733a20696e73756666696369656e742062616c616e636520666f6040820152651c8818d85b1b60d21b606082015260800190565b6020808252601d908201527f416464726573733a2063616c6c20746f206e6f6e2d636f6e7472616374000000604082015260600190565b6020808252602a908201527f5361666545524332303a204552433230206f7065726174696f6e20646964206e6040820152691bdd081cdd58d8d9595960b21b606082015260800190565b60208082526036908201527f5361666545524332303a20617070726f76652066726f6d206e6f6e2d7a65726f60408201527f20746f206e6f6e2d7a65726f20616c6c6f77616e636500000000000000000000606082015260800190565b60005b838110156200072e57818101518382015260200162000714565b838111156200073e576000848401525b50505050565b6001600160a01b03811681146200075a57600080fd5b50565b60805160601c60a05160601c60c05160601c60e05160601c612cf062000938600039600081816103bf015281816105ab0152818161076a01528181610e7701528181610f14015281816112f00152818161197401528181611a1101528181611d1001526120240152600081816102040152818161050801528181610bc801528181610c8b015281816116c5015281816117880152611c6d01526000818160a5015281816102280152818161024c015281816102f8015281816103e9015281816105fa015281816106a30152818161079401528181610aad01528181610b3701528181610c6101528181610d7b01528181610de301528181610f64015281816110360152818161128b0152818161139e015281816116300152818161175e01528181611878015281816118e001528181611a6101528181611b3301528181611d5f0152611f1201526000818161035a015281816105d801528181610705015281816108b10152818161096f01528181610a1e01528181610d9c01528181610dc201528181610f4301528181610f850152818161117a01528181611229015281816115470152818161158601528181611899015281816118bf01528181611a4001528181611a8201528181611d3d0152611dfc0152612cf06000f3fe6080604052600436106100955760003560e01c8063b9d95ee211610059578063b9d95ee214610178578063db1d0fd514610198578063e52bc129146101ad578063e9d39990146101cd578063f887ea40146101ed576100ed565b80635fcbd285146100f257806371d5bd101461011d57806384b8b37a146101325780639fe8c24c14610145578063b057e45714610165576100ed565b366100ed57336001600160a01b037f000000000000000000000000000000000000000000000000000000000000000016146100eb5760405162461bcd60e51b81526004016100e290612a16565b60405180910390fd5b005b600080fd5b3480156100fe57600080fd5b50610107610202565b6040516101149190612862565b60405180910390f35b34801561012957600080fd5b50610107610226565b6100eb6101403660046126f6565b61024a565b34801561015157600080fd5b506100eb610160366004612750565b6104f1565b6100eb610173366004612750565b610a01565b34801561018457600080fd5b506100eb610193366004612750565b611163565b3480156101a457600080fd5b50610107611545565b3480156101b957600080fd5b506100eb6101c83660046127bb565b611569565b3480156101d957600080fd5b506100eb6101e83660046127bb565b611c56565b3480156101f957600080fd5b50610107612022565b7f000000000000000000000000000000000000000000000000000000000000000081565b7f000000000000000000000000000000000000000000000000000000000000000081565b7f00000000000000000000000000000000000000000000000000000000000000006001600160a01b031663d0e30db0346040518263ffffffff1660e01b81526004016000604051808303818588803b1580156102a557600080fd5b505af11580156102b9573d6000803e3d6000fd5b5060009350600292506102ca915050565b6040519080825280602002602001820160405280156102f3578160200160208202803683370190505b5090507f00000000000000000000000000000000000000000000000000000000000000008160008151811061033857634e487b7160e01b600052603260045260246000fd5b60200260200101906001600160a01b031690816001600160a01b0316815250507f00000000000000000000000000000000000000000000000000000000000000008160018151811061039a57634e487b7160e01b600052603260045260246000fd5b6001600160a01b0392831660209182029290920101526040516370a0823160e01b81527f00000000000000000000000000000000000000000000000000000000000000008216916338ed1739917f0000000000000000000000000000000000000000000000000000000000000000909116906370a0823190610420903090600401612862565b60206040518083038186803b15801561043857600080fd5b505afa15801561044c573d6000803e3d6000fd5b505050506040513d601f19601f8201168201806040525081019061047091906126de565b868487876040518663ffffffff1660e01b8152600401610494959493929190612b9c565b600060405180830381600087803b1580156104ae57600080fd5b505af11580156104c2573d6000803e3d6000fd5b505050506040513d6000823e601f3d908101601f191682016040526104ea9190810190612604565b5050505050565b6040516323b872dd60e01b81526001600160a01b037f000000000000000000000000000000000000000000000000000000000000000016906323b872dd9061054190339030908990600401612890565b602060405180830381600087803b15801561055b57600080fd5b505af115801561056f573d6000803e3d6000fd5b505050506040513d601f19601f8201168201806040525081019061059391906126be565b50604051635d5155ef60e11b81526001600160a01b037f0000000000000000000000000000000000000000000000000000000000000000169063baa2abde9061062d907f0000000000000000000000000000000000000000000000000000000000000000907f0000000000000000000000000000000000000000000000000000000000000000908990600090819030908a906004016128b4565b6040805180830381600087803b15801561064657600080fd5b505af115801561065a573d6000803e3d6000fd5b505050506040513d601f19601f8201168201806040525081019061067e919061272d565b50506040805160028082526060820183526000926020830190803683370190505090507f0000000000000000000000000000000000000000000000000000000000000000816000815181106106e357634e487b7160e01b600052603260045260246000fd5b60200260200101906001600160a01b031690816001600160a01b0316815250507f00000000000000000000000000000000000000000000000000000000000000008160018151811061074557634e487b7160e01b600052603260045260246000fd5b6001600160a01b0392831660209182029290920101526040516370a0823160e01b81527f00000000000000000000000000000000000000000000000000000000000000008216916338ed1739917f0000000000000000000000000000000000000000000000000000000000000000909116906370a08231906107cb903090600401612862565b60206040518083038186803b1580156107e357600080fd5b505afa1580156107f7573d6000803e3d6000fd5b505050506040513d601f19601f8201168201806040525081019061081b91906126de565b60008430876040518663ffffffff1660e01b8152600401610840959493929190612b9c565b600060405180830381600087803b15801561085a57600080fd5b505af115801561086e573d6000803e3d6000fd5b505050506040513d6000823e601f3d908101601f191682016040526108969190810190612604565b506040516370a0823160e01b81526000906001600160a01b037f000000000000000000000000000000000000000000000000000000000000000016906370a08231906108e6903090600401612862565b60206040518083038186803b1580156108fe57600080fd5b505afa158015610912573d6000803e3d6000fd5b505050506040513d601f19601f8201168201806040525081019061093691906126de565b9050848110156109585760405162461bcd60e51b81526004016100e290612b1a565b60405163a9059cbb60e01b81526001600160a01b037f0000000000000000000000000000000000000000000000000000000000000000169063a9059cbb906109a6908790859060040161293d565b602060405180830381600087803b1580156109c057600080fd5b505af11580156109d4573d6000803e3d6000fd5b505050506040513d601f19601f820116820180604052508101906109f891906126be565b50505050505050565b8315610aab576040516323b872dd60e01b81526001600160a01b037f000000000000000000000000000000000000000000000000000000000000000016906323b872dd90610a5790339030908990600401612890565b602060405180830381600087803b158015610a7157600080fd5b505af1158015610a85573d6000803e3d6000fd5b505050506040513d601f19601f82011682018060405250810190610aa991906126be565b505b7f00000000000000000000000000000000000000000000000000000000000000006001600160a01b031663d0e30db0346040518263ffffffff1660e01b81526004016000604051808303818588803b158015610b0657600080fd5b505af1158015610b1a573d6000803e3d6000fd5b50506040516370a0823160e01b8152600093506001600160a01b037f00000000000000000000000000000000000000000000000000000000000000001692506370a082319150610b6e903090600401612862565b60206040518083038186803b158015610b8657600080fd5b505afa158015610b9a573d6000803e3d6000fd5b505050506040513d601f19601f82011682018060405250810190610bbe91906126de565b90506000806000807f00000000000000000000000000000000000000000000000000000000000000006001600160a01b0316630902f1ac6040518163ffffffff1660e01b815260040160606040518083038186803b158015610c1f57600080fd5b505afa158015610c33573d6000803e3d6000fd5b505050506040513d601f19601f82011682018060405250810190610c57919061278e565b50915091506000807f00000000000000000000000000000000000000000000000000000000000000006001600160a01b03167f00000000000000000000000000000000000000000000000000000000000000006001600160a01b0316630dfe16816040518163ffffffff1660e01b815260040160206040518083038186803b158015610ce257600080fd5b505afa158015610cf6573d6000803e3d6000fd5b505050506040513d601f19601f82011682018060405250810190610d1a91906125e8565b6001600160a01b031614610d2f578284610d32565b83835b91509150610d42878c848461215e565b90965094505084159250610f109150505760408051600280825260608201835260009260208301908036833701905050905081610dc0577f00000000000000000000000000000000000000000000000000000000000000007f0000000000000000000000000000000000000000000000000000000000000000610e03565b7f00000000000000000000000000000000000000000000000000000000000000007f00000000000000000000000000000000000000000000000000000000000000005b82600081518110610e2457634e487b7160e01b600052603260045260246000fd5b6020026020010183600181518110610e4c57634e487b7160e01b600052603260045260246000fd5b6001600160a01b0393841660209182029290920101529181169091526040516338ed173960e01b81527f0000000000000000000000000000000000000000000000000000000000000000909116906338ed173990610eb7908690600090869030908c90600401612b9c565b600060405180830381600087803b158015610ed157600080fd5b505af1158015610ee5573d6000803e3d6000fd5b505050506040513d6000823e601f3d908101601f19168201604052610f0d9190810190612604565b50505b60007f00000000000000000000000000000000000000000000000000000000000000006001600160a01b031663e8e337007f00000000000000000000000000000000000000000000000000000000000000007f00000000000000000000000000000000000000000000000000000000000000007f00000000000000000000000000000000000000000000000000000000000000006001600160a01b03166370a08231306040518263ffffffff1660e01b8152600401610fcf9190612862565b60206040518083038186803b158015610fe757600080fd5b505afa158015610ffb573d6000803e3d6000fd5b505050506040513d601f19601f8201168201806040525081019061101f91906126de565b6040516370a0823160e01b81526001600160a01b037f000000000000000000000000000000000000000000000000000000000000000016906370a082319061106b903090600401612862565b60206040518083038186803b15801561108357600080fd5b505afa158015611097573d6000803e3d6000fd5b505050506040513d601f19601f820116820180604052508101906110bb91906126de565b6000808d8d6040518963ffffffff1660e01b81526004016110e39897969594939291906128f4565b606060405180830381600087803b1580156110fd57600080fd5b505af1158015611111573d6000803e3d6000fd5b505050506040513d601f19601f82011682018060405250810190611135919061278e565b92505050868110156111595760405162461bcd60e51b81526004016100e2906129b0565b5050505050505050565b6040516323b872dd60e01b81526001600160a01b037f000000000000000000000000000000000000000000000000000000000000000016906323b872dd906111b390339030908990600401612890565b602060405180830381600087803b1580156111cd57600080fd5b505af11580156111e1573d6000803e3d6000fd5b505050506040513d601f19601f8201168201806040525081019061120591906126be565b506040805160028082526060820183526000926020830190803683370190505090507f00000000000000000000000000000000000000000000000000000000000000008160008151811061126957634e487b7160e01b600052603260045260246000fd5b60200260200101906001600160a01b031690816001600160a01b0316815250507f0000000000000000000000000000000000000000000000000000000000000000816001815181106112cb57634e487b7160e01b600052603260045260246000fd5b6001600160a01b0392831660209182029290920101526040516338ed173960e01b81527f0000000000000000000000000000000000000000000000000000000000000000909116906338ed173990611330908890600090869030908990600401612b9c565b600060405180830381600087803b15801561134a57600080fd5b505af115801561135e573d6000803e3d6000fd5b505050506040513d6000823e601f3d908101601f191682016040526113869190810190612604565b506040516370a0823160e01b81526001600160a01b037f00000000000000000000000000000000000000000000000000000000000000001690632e1a7d4d9082906370a08231906113db903090600401612862565b60206040518083038186803b1580156113f357600080fd5b505afa158015611407573d6000803e3d6000fd5b505050506040513d601f19601f8201168201806040525081019061142b91906126de565b6040518263ffffffff1660e01b81526004016114479190612b93565b600060405180830381600087803b15801561146157600080fd5b505af1158015611475573d6000803e3d6000fd5b5047925050508481101561149b5760405162461bcd60e51b81526004016100e290612989565b60006001600160a01b03851682825b6040519080825280601f01601f1916602001820160405280156114d4576020820181803683370190505b506040516114e29190612846565b60006040518083038185875af1925050503d806000811461151f576040519150601f19603f3d011682016040523d82523d6000602084013e611524565b606091505b50509050806109f85760405162461bcd60e51b81526004016100e290612a7b565b7f000000000000000000000000000000000000000000000000000000000000000081565b8315611613576040516323b872dd60e01b81526001600160a01b037f000000000000000000000000000000000000000000000000000000000000000016906323b872dd906115bf90339030908990600401612890565b602060405180830381600087803b1580156115d957600080fd5b505af11580156115ed573d6000803e3d6000fd5b505050506040513d601f19601f8201168201806040525081019061161191906126be565b505b84156116bd576040516323b872dd60e01b81526001600160a01b037f000000000000000000000000000000000000000000000000000000000000000016906323b872dd9061166990339030908a90600401612890565b602060405180830381600087803b15801561168357600080fd5b505af1158015611697573d6000803e3d6000fd5b505050506040513d601f19601f820116820180604052508101906116bb91906126be565b505b6000806000807f00000000000000000000000000000000000000000000000000000000000000006001600160a01b0316630902f1ac6040518163ffffffff1660e01b815260040160606040518083038186803b15801561171c57600080fd5b505afa158015611730573d6000803e3d6000fd5b505050506040513d601f19601f82011682018060405250810190611754919061278e565b50915091506000807f00000000000000000000000000000000000000000000000000000000000000006001600160a01b03167f00000000000000000000000000000000000000000000000000000000000000006001600160a01b0316630dfe16816040518163ffffffff1660e01b815260040160206040518083038186803b1580156117df57600080fd5b505afa1580156117f3573d6000803e3d6000fd5b505050506040513d601f19601f8201168201806040525081019061181791906125e8565b6001600160a01b03161461182c57828461182f565b83835b9150915061183f8b8b848461215e565b90965094505084159250611a0d91505057604080516002808252606082018352600092602083019080368337019050509050816118bd577f00000000000000000000000000000000000000000000000000000000000000007f0000000000000000000000000000000000000000000000000000000000000000611900565b7f00000000000000000000000000000000000000000000000000000000000000007f00000000000000000000000000000000000000000000000000000000000000005b8260008151811061192157634e487b7160e01b600052603260045260246000fd5b602002602001018360018151811061194957634e487b7160e01b600052603260045260246000fd5b6001600160a01b0393841660209182029290920101529181169091526040516338ed173960e01b81527f0000000000000000000000000000000000000000000000000000000000000000909116906338ed1739906119b4908690600090869030908b90600401612b9c565b600060405180830381600087803b1580156119ce57600080fd5b505af11580156119e2573d6000803e3d6000fd5b505050506040513d6000823e601f3d908101601f19168201604052611a0a9190810190612604565b50505b60007f00000000000000000000000000000000000000000000000000000000000000006001600160a01b031663e8e337007f00000000000000000000000000000000000000000000000000000000000000007f00000000000000000000000000000000000000000000000000000000000000007f00000000000000000000000000000000000000000000000000000000000000006001600160a01b03166370a08231306040518263ffffffff1660e01b8152600401611acc9190612862565b60206040518083038186803b158015611ae457600080fd5b505afa158015611af8573d6000803e3d6000fd5b505050506040513d601f19601f82011682018060405250810190611b1c91906126de565b6040516370a0823160e01b81526001600160a01b037f000000000000000000000000000000000000000000000000000000000000000016906370a0823190611b68903090600401612862565b60206040518083038186803b158015611b8057600080fd5b505afa158015611b94573d6000803e3d6000fd5b505050506040513d601f19601f82011682018060405250810190611bb891906126de565b6000808c8c6040518963ffffffff1660e01b8152600401611be09897969594939291906128f4565b606060405180830381600087803b158015611bfa57600080fd5b505af1158015611c0e573d6000803e3d6000fd5b505050506040513d601f19601f82011682018060405250810190611c32919061278e565b92505050858110156111595760405162461bcd60e51b81526004016100e2906129b0565b6040516323b872dd60e01b81526001600160a01b037f000000000000000000000000000000000000000000000000000000000000000016906323b872dd90611ca690339030908a90600401612890565b602060405180830381600087803b158015611cc057600080fd5b505af1158015611cd4573d6000803e3d6000fd5b505050506040513d601f19601f82011682018060405250810190611cf891906126be565b50604051635d5155ef60e11b81526001600160a01b037f0000000000000000000000000000000000000000000000000000000000000000169063baa2abde90611d92907f0000000000000000000000000000000000000000000000000000000000000000907f0000000000000000000000000000000000000000000000000000000000000000908a90899060009030908a906004016128b4565b6040805180830381600087803b158015611dab57600080fd5b505af1158015611dbf573d6000803e3d6000fd5b505050506040513d601f19601f82011682018060405250810190611de3919061272d565b50506040516370a0823160e01b81526001600160a01b037f0000000000000000000000000000000000000000000000000000000000000000169063a9059cbb90339083906370a0823190611e3b903090600401612862565b60206040518083038186803b158015611e5357600080fd5b505afa158015611e67573d6000803e3d6000fd5b505050506040513d601f19601f82011682018060405250810190611e8b91906126de565b6040518363ffffffff1660e01b8152600401611ea892919061293d565b602060405180830381600087803b158015611ec257600080fd5b505af1158015611ed6573d6000803e3d6000fd5b505050506040513d601f19601f82011682018060405250810190611efa91906126be565b506040516370a0823160e01b81526001600160a01b037f00000000000000000000000000000000000000000000000000000000000000001690632e1a7d4d9082906370a0823190611f4f903090600401612862565b60206040518083038186803b158015611f6757600080fd5b505afa158015611f7b573d6000803e3d6000fd5b505050506040513d601f19601f82011682018060405250810190611f9f91906126de565b6040518263ffffffff1660e01b8152600401611fbb9190612b93565b600060405180830381600087803b158015611fd557600080fd5b505af1158015611fe9573d6000803e3d6000fd5b5047925050508481101561200f5760405162461bcd60e51b81526004016100e290612a38565b60006001600160a01b03841682826114aa565b7f000000000000000000000000000000000000000000000000000000000000000081565b8015806120ce5750604051636eb1769f60e11b81526001600160a01b0384169063dd62ed3e9061207c9030908690600401612876565b60206040518083038186803b15801561209457600080fd5b505afa1580156120a8573d6000803e3d6000fd5b505050506040513d601f19601f820116820180604052508101906120cc91906126de565b155b6120ea5760405162461bcd60e51b81526004016100e290612b3d565b6121408363095ea7b360e01b848460405160240161210992919061293d565b60408051601f198184030181529190526020810180516001600160e01b03166001600160e01b0319909316929092179091526121ad565b505050565b6060612154848460008561223c565b90505b9392505050565b60008061216b85856122fc565b61217587856122fc565b106121915761218686868686612308565b9150600090506121a4565b61219d85878587612308565b9150600190505b94509492505050565b6000612202826040518060400160405280602081526020017f5361666545524332303a206c6f772d6c6576656c2063616c6c206661696c6564815250856001600160a01b03166121459092919063ffffffff16565b805190915015612140578080602001905181019061222091906126be565b6121405760405162461bcd60e51b81526004016100e290612ad0565b60608247101561225e5760405162461bcd60e51b81526004016100e2906129d0565b61226785612408565b6122835760405162461bcd60e51b81526004016100e290612a99565b600080866001600160a01b0316858760405161229f9190612846565b60006040518083038185875af1925050503d80600081146122dc576040519150601f19603f3d011682016040523d82523d6000602084013e6122e1565b606091505b50915091506122f1828286612412565b979650505050505050565b60006121578284612c10565b600061231484846122fc565b61231e86846122fc565b101561233c5760405162461bcd60e51b81526004016100e290612a59565b6103e5600061234d6107cd866122fc565b9050600061236e61235e88886122fc565b6123688a886122fc565b9061244b565b9050600061239b876123956123838b8a612457565b61238f866103e86122fc565b90612463565b906122fc565b905060006123ae600461239587856122fc565b905060006123ce6123c9836123c388806122fc565b90612457565b61246f565b905060006123dc828761244b565b905060006123eb8860026122fc565b90506123f78282612463565b9d9c50505050505050505050505050565b803b15155b919050565b60608315612421575081612157565b8251156124315782518084602001fd5b8160405162461bcd60e51b81526004016100e29190612956565b60006121578284612c2f565b60006121578284612bd8565b60006121578284612bf0565b60008161247e5750600061240d565b816001600160801b82106124975760809190911c9060401b5b600160401b82106124ad5760409190911c9060201b5b64010000000082106124c45760209190911c9060101b5b6201000082106124d95760109190911c9060081b5b61010082106124ed5760089190911c9060041b5b601082106125005760049190911c9060021b5b6008821061250c5760011b5b60016125188286612bf0565b6125229083612bd8565b901c905060016125328286612bf0565b61253c9083612bd8565b901c9050600161254c8286612bf0565b6125569083612bd8565b901c905060016125668286612bf0565b6125709083612bd8565b901c905060016125808286612bf0565b61258a9083612bd8565b901c9050600161259a8286612bf0565b6125a49083612bd8565b901c905060016125b48286612bf0565b6125be9083612bd8565b901c905060006125ce8286612bf0565b90508082106125dd57806125df565b815b95945050505050565b6000602082840312156125f9578081fd5b815161215781612ca2565b60006020808385031215612616578182fd5b825167ffffffffffffffff8082111561262d578384fd5b818501915085601f830112612640578384fd5b81518181111561265257612652612c8c565b8381026040518582820101818110858211171561267157612671612c8c565b604052828152858101935084860182860187018a101561268f578788fd5b8795505b838610156126b1578051855260019590950194938601938601612693565b5098975050505050505050565b6000602082840312156126cf578081fd5b81518015158114612157578182fd5b6000602082840312156126ef578081fd5b5051919050565b60008060006060848603121561270a578182fd5b83359250602084013561271c81612ca2565b929592945050506040919091013590565b6000806040838503121561273f578182fd5b505080516020909101519092909150565b60008060008060808587031215612765578081fd5b8435935060208501359250604085013561277e81612ca2565b9396929550929360600135925050565b6000806000606084860312156127a2578283fd5b8351925060208401519150604084015190509250925092565b600080600080600060a086880312156127d2578081fd5b85359450602086013593506040860135925060608601356127f281612ca2565b949793965091946080013592915050565b6000815180845260208085019450808401835b8381101561283b5781516001600160a01b031687529582019590820190600101612816565b509495945050505050565b60008251612858818460208701612c46565b9190910192915050565b6001600160a01b0391909116815260200190565b6001600160a01b0392831681529116602082015260400190565b6001600160a01b039384168152919092166020820152604081019190915260600190565b6001600160a01b039788168152958716602087015260408601949094526060850192909252608084015290921660a082015260c081019190915260e00190565b6001600160a01b039889168152968816602088015260408701959095526060860193909352608085019190915260a084015290921660c082015260e08101919091526101000190565b6001600160a01b03929092168252602082015260400190565b6000602082528251806020840152612975816040850160208701612c46565b601f01601f19169190910160400192915050565b6020808252600d908201526c10b0b6b7bab73a27baba26b4b760991b604082015260600190565b6020808252600690820152650216d696e4c560d41b604082015260600190565b60208082526026908201527f416464726573733a20696e73756666696369656e742062616c616e636520666f6040820152651c8818d85b1b60d21b606082015260800190565b60208082526008908201526710b4b122aa243b1960c11b604082015260600190565b602080825260079082015266042dad2dc8aa8960cb1b604082015260600190565b60208082526008908201526714995d995c9cd95960c21b604082015260600190565b602080825260049082015263042cae8d60e31b604082015260600190565b6020808252601d908201527f416464726573733a2063616c6c20746f206e6f6e2d636f6e7472616374000000604082015260600190565b6020808252602a908201527f5361666545524332303a204552433230206f7065726174696f6e20646964206e6040820152691bdd081cdd58d8d9595960b21b606082015260800190565b602080825260099082015268216d696e416c70686160b81b604082015260600190565b60208082526036908201527f5361666545524332303a20617070726f76652066726f6d206e6f6e2d7a65726f60408201527520746f206e6f6e2d7a65726f20616c6c6f77616e636560501b606082015260800190565b90815260200190565b600086825285602083015260a06040830152612bbb60a0830186612803565b6001600160a01b0394909416606083015250608001529392505050565b60008219821115612beb57612beb612c76565b500190565b600082612c0b57634e487b7160e01b81526012600452602481fd5b500490565b6000816000190483118215151615612c2a57612c2a612c76565b500290565b600082821015612c4157612c41612c76565b500390565b60005b83811015612c61578181015183820152602001612c49565b83811115612c70576000848401525b50505050565b634e487b7160e01b600052601160045260246000fd5b634e487b7160e01b600052604160045260246000fd5b6001600160a01b0381168114612cb757600080fd5b5056fea26469706673582212208b7cbe2208db4e69c82a000f96b5290037a30c88a39a35e8307ba0771e9f5dfe64736f6c63430008000033",
  "linkReferences": {},
  "deployedLinkReferences": {}
}