{
  "_format": "hh-sol-artifact-1",
  "contractName": "BalancerSpellV1",
  "sourceName": "contracts/spell/BalancerSpellV1.sol",
  "abi": [
    {
      "inputs": [
        {
          "internalType": "contract IBank",
          "name": "_bank",
          "type": "address"
        },
        {
          "internalType": "address",
          "name": "_werc20",
          "type": "address"
        },
        {
          "internalType": "address",
          "name": "_weth",
          "type": "address"
        }
      ],
      "stateMutability": "nonpayable",
      "type": "constructor"
    },
    {
      "anonymous": false,
      "inputs": [
        {
          "indexed": false,
          "internalType": "address",
          "name": "governor",
          "type": "address"
        }
      ],
      "name": "AcceptGovernor",
      "type": "event"
    },
    {
      "anonymous": false,
      "inputs": [
        {
          "indexed": false,
          "internalType": "address",
          "name": "governor",
          "type": "address"
        }
      ],
      "name": "SetGovernor",
      "type": "event"
    },
    {
      "anonymous": false,
      "inputs": [
        {
          "indexed": false,
          "internalType": "address",
          "name": "pendingGovernor",
          "type": "address"
        }
      ],
      "name": "SetPendingGovernor",
      "type": "event"
    },
    {
      "inputs": [],
      "name": "acceptGovernor",
      "outputs": [],
      "stateMutability": "nonpayable",
      "type": "function"
    },
    {
      "inputs": [
        {
          "internalType": "address",
          "name": "lp",
          "type": "address"
        },
        {
          "components": [
            {
              "internalType": "uint256",
              "name": "amtAUser",
              "type": "uint256"
            },
            {
              "internalType": "uint256",
              "name": "amtBUser",
              "type": "uint256"
            },
            {
              "internalType": "uint256",
              "name": "amtLPUser",
              "type": "uint256"
            },
            {
              "internalType": "uint256",
              "name": "amtABorrow",
              "type": "uint256"
            },
            {
              "internalType": "uint256",
              "name": "amtBBorrow",
              "type": "uint256"
            },
            {
              "internalType": "uint256",
              "name": "amtLPBorrow",
              "type": "uint256"
            },
            {
              "internalType": "uint256",
              "name": "amtLPDesired",
              "type": "uint256"
            }
          ],
          "internalType": "struct BalancerSpellV1.Amounts",
          "name": "amt",
          "type": "tuple"
        }
      ],
      "name": "addLiquidityWERC20",
      "outputs": [],
      "stateMutability": "payable",
      "type": "function"
    },
    {
      "inputs": [
        {
          "internalType": "address",
          "name": "lp",
          "type": "address"
        },
        {
          "components": [
            {
              "internalType": "uint256",
              "name": "amtAUser",
              "type": "uint256"
            },
            {
              "internalType": "uint256",
              "name": "amtBUser",
              "type": "uint256"
            },
            {
              "internalType": "uint256",
              "name": "amtLPUser",
              "type": "uint256"
            },
            {
              "internalType": "uint256",
              "name": "amtABorrow",
              "type": "uint256"
            },
            {
              "internalType": "uint256",
              "name": "amtBBorrow",
              "type": "uint256"
            },
            {
              "internalType": "uint256",
              "name": "amtLPBorrow",
              "type": "uint256"
            },
            {
              "internalType": "uint256",
              "name": "amtLPDesired",
              "type": "uint256"
            }
          ],
          "internalType": "struct BalancerSpellV1.Amounts",
          "name": "amt",
          "type": "tuple"
        },
        {
          "internalType": "address",
          "name": "wstaking",
          "type": "address"
        }
      ],
      "name": "addLiquidityWStakingRewards",
      "outputs": [],
      "stateMutability": "payable",
      "type": "function"
    },
    {
      "inputs": [
        {
          "internalType": "address",
          "name": "",
          "type": "address"
        },
        {
          "internalType": "address",
          "name": "",
          "type": "address"
        }
      ],
      "name": "approved",
      "outputs": [
        {
          "internalType": "bool",
          "name": "",
          "type": "bool"
        }
      ],
      "stateMutability": "view",
      "type": "function"
    },
    {
      "inputs": [],
      "name": "bank",
      "outputs": [
        {
          "internalType": "contract IBank",
          "name": "",
          "type": "address"
        }
      ],
      "stateMutability": "view",
      "type": "function"
    },
    {
      "inputs": [
        {
          "internalType": "address",
          "name": "token",
          "type": "address"
        },
        {
          "internalType": "uint256",
          "name": "amount",
          "type": "uint256"
        }
      ],
      "name": "doPutCollateral",
      "outputs": [],
      "stateMutability": "nonpayable",
      "type": "function"
    },
    {
      "inputs": [
        {
          "internalType": "address",
          "name": "lp",
          "type": "address"
        }
      ],
      "name": "getAndApprovePair",
      "outputs": [
        {
          "internalType": "address",
          "name": "",
          "type": "address"
        },
        {
          "internalType": "address",
          "name": "",
          "type": "address"
        }
      ],
      "stateMutability": "nonpayable",
      "type": "function"
    },
    {
      "inputs": [],
      "name": "governor",
      "outputs": [
        {
          "internalType": "address",
          "name": "",
          "type": "address"
        }
      ],
      "stateMutability": "view",
      "type": "function"
    },
    {
      "inputs": [
        {
          "internalType": "address",
          "name": "wstaking",
          "type": "address"
        }
      ],
      "name": "harvestWStakingRewards",
      "outputs": [],
      "stateMutability": "nonpayable",
      "type": "function"
    },
    {
      "inputs": [
        {
          "internalType": "address",
          "name": "",
          "type": "address"
        },
        {
          "internalType": "address",
          "name": "",
          "type": "address"
        },
        {
          "internalType": "uint256[]",
          "name": "",
          "type": "uint256[]"
        },
        {
          "internalType": "uint256[]",
          "name": "",
          "type": "uint256[]"
        },
        {
          "internalType": "bytes",
          "name": "",
          "type": "bytes"
        }
      ],
      "name": "onERC1155BatchReceived",
      "outputs": [
        {
          "internalType": "bytes4",
          "name": "",
          "type": "bytes4"
        }
      ],
      "stateMutability": "nonpayable",
      "type": "function"
    },
    {
      "inputs": [
        {
          "internalType": "address",
          "name": "",
          "type": "address"
        },
        {
          "internalType": "address",
          "name": "",
          "type": "address"
        },
        {
          "internalType": "uint256",
          "name": "",
          "type": "uint256"
        },
        {
          "internalType": "uint256",
          "name": "",
          "type": "uint256"
        },
        {
          "internalType": "bytes",
          "name": "",
          "type": "bytes"
        }
      ],
      "name": "onERC1155Received",
      "outputs": [
        {
          "internalType": "bytes4",
          "name": "",
          "type": "bytes4"
        }
      ],
      "stateMutability": "nonpayable",
      "type": "function"
    },
    {
      "inputs": [
        {
          "internalType": "address",
          "name": "",
          "type": "address"
        },
        {
          "internalType": "uint256",
          "name": "",
          "type": "uint256"
        }
      ],
      "name": "pairs",
      "outputs": [
        {
          "internalType": "address",
          "name": "",
          "type": "address"
        }
      ],
      "stateMutability": "view",
      "type": "function"
    },
    {
      "inputs": [],
      "name": "pendingGovernor",
      "outputs": [
        {
          "internalType": "address",
          "name": "",
          "type": "address"
        }
      ],
      "stateMutability": "view",
      "type": "function"
    },
    {
      "inputs": [
        {
          "internalType": "address",
          "name": "lp",
          "type": "address"
        },
        {
          "components": [
            {
              "internalType": "uint256",
              "name": "amtLPTake",
              "type": "uint256"
            },
            {
              "internalType": "uint256",
              "name": "amtLPWithdraw",
              "type": "uint256"
            },
            {
              "internalType": "uint256",
              "name": "amtARepay",
              "type": "uint256"
            },
            {
              "internalType": "uint256",
              "name": "amtBRepay",
              "type": "uint256"
            },
            {
              "internalType": "uint256",
              "name": "amtLPRepay",
              "type": "uint256"
            },
            {
              "internalType": "uint256",
              "name": "amtAMin",
              "type": "uint256"
            },
            {
              "internalType": "uint256",
              "name": "amtBMin",
              "type": "uint256"
            }
          ],
          "internalType": "struct BalancerSpellV1.RepayAmounts",
          "name": "amt",
          "type": "tuple"
        }
      ],
      "name": "removeLiquidityWERC20",
      "outputs": [],
      "stateMutability": "nonpayable",
      "type": "function"
    },
    {
      "inputs": [
        {
          "internalType": "address",
          "name": "lp",
          "type": "address"
        },
        {
          "components": [
            {
              "internalType": "uint256",
              "name": "amtLPTake",
              "type": "uint256"
            },
            {
              "internalType": "uint256",
              "name": "amtLPWithdraw",
              "type": "uint256"
            },
            {
              "internalType": "uint256",
              "name": "amtARepay",
              "type": "uint256"
            },
            {
              "internalType": "uint256",
              "name": "amtBRepay",
              "type": "uint256"
            },
            {
              "internalType": "uint256",
              "name": "amtLPRepay",
              "type": "uint256"
            },
            {
              "internalType": "uint256",
              "name": "amtAMin",
              "type": "uint256"
            },
            {
              "internalType": "uint256",
              "name": "amtBMin",
              "type": "uint256"
            }
          ],
          "internalType": "struct BalancerSpellV1.RepayAmounts",
          "name": "amt",
          "type": "tuple"
        },
        {
          "internalType": "address",
          "name": "wstaking",
          "type": "address"
        }
      ],
      "name": "removeLiquidityWStakingRewards",
      "outputs": [],
      "stateMutability": "nonpayable",
      "type": "function"
    },
    {
      "inputs": [
        {
          "internalType": "address",
          "name": "_pendingGovernor",
          "type": "address"
        }
      ],
      "name": "setPendingGovernor",
      "outputs": [],
      "stateMutability": "nonpayable",
      "type": "function"
    },
    {
      "inputs": [
        {
          "internalType": "address[]",
          "name": "lpTokens",
          "type": "address[]"
        },
        {
          "internalType": "bool[]",
          "name": "statuses",
          "type": "bool[]"
        }
      ],
      "name": "setWhitelistLPTokens",
      "outputs": [],
      "stateMutability": "nonpayable",
      "type": "function"
    },
    {
      "inputs": [
        {
          "internalType": "bytes4",
          "name": "interfaceId",
          "type": "bytes4"
        }
      ],
      "name": "supportsInterface",
      "outputs": [
        {
          "internalType": "bool",
          "name": "",
          "type": "bool"
        }
      ],
      "stateMutability": "view",
      "type": "function"
    },
    {
      "inputs": [],
      "name": "werc20",
      "outputs": [
        {
          "internalType": "contract IWERC20",
          "name": "",
          "type": "address"
        }
      ],
      "stateMutability": "view",
      "type": "function"
    },
    {
      "inputs": [],
      "name": "weth",
      "outputs": [
        {
          "internalType": "address",
          "name": "",
          "type": "address"
        }
      ],
      "stateMutability": "view",
      "type": "function"
    },
    {
      "inputs": [
        {
          "internalType": "address",
          "name": "",
          "type": "address"
        }
      ],
      "name": "whitelistedLpTokens",
      "outputs": [
        {
          "internalType": "bool",
          "name": "",
          "type": "bool"
        }
      ],
      "stateMutability": "view",
      "type": "function"
    },
    {
      "stateMutability": "payable",
      "type": "receive"
    }
  ],
  "bytecode": "0x60e06040523480156200001157600080fd5b50604051620048eb380380620048eb833981016040819052620000349162000558565b6001600160601b0319606084811b821660805283811b821660a05282901b1660c052828282828282620000688184620000ec565b60405163a22cb46560e01b81526001600160a01b0383169063a22cb465906200009990869060019060040162000610565b600060405180830381600087803b158015620000b457600080fd5b505af1158015620000c9573d6000803e3d6000fd5b50505050505050620000e06200017460201b60201c565b50505050505062000834565b6001600160a01b03808316600090815260406020818152818320938516835292909252205460ff1662000170576200014081600019846001600160a01b03166200025e60201b620019a9179092919060201c565b6001600160a01b0380831660009081526040602081815281832093851683529290925220805460ff191660011790555b5050565b604154610100900460ff16806200018e575060415460ff16155b620001b65760405162461bcd60e51b8152600401620001ad90620006bf565b60405180910390fd5b604154610100900460ff16158015620001e2576041805460ff1961ff0019909116610100171660011790555b6041805462010000600160b01b0319163362010000810291909117909155604280546001600160a01b03191690556040517fbce074c8369e26e70e1ae2f14fc944da352cfe6f52e2de9572f0c9942a24b7fc916200024091620005e2565b60405180910390a180156200025b576041805461ff00191690555b50565b801580620002ed5750604051636eb1769f60e11b81526001600160a01b0384169063dd62ed3e90620002979030908690600401620005f6565b60206040518083038186803b158015620002b057600080fd5b505afa158015620002c5573d6000803e3d6000fd5b505050506040513d601f19601f82011682018060405250810190620002eb9190620005ab565b155b6200030c5760405162461bcd60e51b8152600401620001ad906200078e565b620003678363095ea7b360e01b84846040516024016200032e9291906200062b565b60408051808303601f190181529190526020810180516001600160e01b0319939093166001600160e01b03938416179052906200036c16565b505050565b6000620003c8826040518060400160405280602081526020017f5361666545524332303a206c6f772d6c6576656c2063616c6c206661696c6564815250856001600160a01b03166200040860201b62001aa8179092919060201c565b805190915015620003675780806020019051810190620003e9919062000536565b620003675760405162461bcd60e51b8152600401620001ad9062000744565b606062000419848460008562000423565b90505b9392505050565b606082471015620004485760405162461bcd60e51b8152600401620001ad9062000679565b6200045385620004f2565b620004725760405162461bcd60e51b8152600401620001ad906200070d565b600080866001600160a01b03168587604051620004909190620005c4565b60006040518083038185875af1925050503d8060008114620004cf576040519150601f19603f3d011682016040523d82523d6000602084013e620004d4565b606091505b509092509050620004e7828286620004f8565b979650505050505050565b3b151590565b60608315620005095750816200041c565b8251156200051a5782518084602001fd5b8160405162461bcd60e51b8152600401620001ad919062000644565b60006020828403121562000548578081fd5b815180151581146200041c578182fd5b6000806000606084860312156200056d578182fd5b83516200057a816200081e565b60208501519093506200058d816200081e565b6040850151909250620005a0816200081e565b809150509250925092565b600060208284031215620005bd578081fd5b5051919050565b60008251620005d8818460208701620007eb565b9190910192915050565b6001600160a01b0391909116815260200190565b6001600160a01b0392831681529116602082015260400190565b6001600160a01b039290921682521515602082015260400190565b6001600160a01b03929092168252602082015260400190565b600060208252825180602084015262000665816040850160208701620007eb565b601f01601f19169190910160400192915050565b60208082526026908201527f416464726573733a20696e73756666696369656e742062616c616e636520666f6040820152651c8818d85b1b60d21b606082015260800190565b6020808252602e908201527f496e697469616c697a61626c653a20636f6e747261637420697320616c72656160408201526d191e481a5b9a5d1a585b1a5e995960921b606082015260800190565b6020808252601d908201527f416464726573733a2063616c6c20746f206e6f6e2d636f6e7472616374000000604082015260600190565b6020808252602a908201527f5361666545524332303a204552433230206f7065726174696f6e20646964206e6040820152691bdd081cdd58d8d9595960b21b606082015260800190565b60208082526036908201527f5361666545524332303a20617070726f76652066726f6d206e6f6e2d7a65726f60408201527f20746f206e6f6e2d7a65726f20616c6c6f77616e636500000000000000000000606082015260800190565b60005b8381101562000808578181015183820152602001620007ee565b8381111562000818576000848401525b50505050565b6001600160a01b03811681146200025b57600080fd5b60805160601c60a05160601c60c05160601c613f97620009546000396000818161013e0152818161082901528181612c9801528181612d3e015261326c0152600081816106da01528181610715015281816107c301528181610fc401528181612fb3015261302701526000818161079301528181610850015281816109e601528181610bfc01528181610cfc01528181610e8501528181610fe80152818161101c015281816111ad015281816113ce0152818161146e015281816114e30152818161176201528181611bdb01528181611ce201528181611d9401528181611e4101528181611eee01528181612da901528181612ed901528181612f85015281816131f20152818161322d015281816132f8015261334c0152613f976000f3fe60806040526004361061012e5760003560e01c806376cdb03b116100ab578063e3056a341161006f578063e3056a3414610363578063e58bb63914610378578063ee42c6f41461038d578063f235757f146103ad578063f23a6e61146103cd578063f4b16045146103ed57610186565b806376cdb03b146102db57806377e902b3146102f0578063a6a4258c14610303578063a9afb57014610323578063bc197c811461033657610186565b80633fc8cef3116100f25780633fc8cef31461025157806345174f18146102665780634bab09f6146102865780634f6d7dab146102a65780635741229c146102c657610186565b806301ffc9a71461018b57806303d40513146101c1578063061ff4c4146101ee5780630c340a241461021c5780631a37e2fc1461023157610186565b3661018657336001600160a01b037f000000000000000000000000000000000000000000000000000000000000000016146101845760405162461bcd60e51b815260040161017b90613c4b565b60405180910390fd5b005b600080fd5b34801561019757600080fd5b506101ab6101a6366004613901565b61040d565b6040516101b89190613a37565b60405180910390f35b3480156101cd57600080fd5b506101e16101dc366004613774565b61043a565b6040516101b89190613980565b3480156101fa57600080fd5b5061020e6102093660046134f2565b610468565b6040516101b8929190613994565b34801561022857600080fd5b506101e16106b9565b34801561023d57600080fd5b5061018461024c366004613774565b6106ce565b34801561025d57600080fd5b506101e1610827565b34801561027257600080fd5b506101846102813660046134f2565b61084b565b34801561029257600080fd5b506101ab6102a13660046134f2565b610ce2565b3480156102b257600080fd5b506101846102c136600461375f565b610cf7565b3480156102d257600080fd5b506101e1610fc2565b3480156102e757600080fd5b506101e1610fe6565b6101846102fe366004613714565b61100a565b34801561030f57600080fd5b5061018461031e3660046136de565b6115c2565b6101846103313660046136de565b6115d7565b34801561034257600080fd5b50610356610351366004613562565b611619565b6040516101b89190613a42565b34801561036f57600080fd5b506101e161162d565b34801561038457600080fd5b5061018461163c565b34801561039957600080fd5b506101846103a836600461379f565b6116cc565b3480156103b957600080fd5b506101846103c83660046134f2565b6118f4565b3480156103d957600080fd5b506103566103e8366004613664565b61197a565b3480156103f957600080fd5b506101ab61040836600461352a565b61198c565b60006001600160e01b03198216630271189760e51b1480610432575061043282611ac1565b90505b919050565b6084602052816000526040600020816002811061045657600080fd5b01546001600160a01b03169150829050565b6001600160a01b038116600090815260846020526040808220815180830192839052839283929060029082845b81546001600160a01b03168152600190910190602001808311610495575050505050905060006001600160a01b0316816000600281106104e557634e487b7160e01b600052603260045260246000fd5b60200201516001600160a01b0316148061050a575060208101516001600160a01b0316155b156106a7576000846001600160a01b031663be3bbd2e6040518163ffffffff1660e01b815260040160006040518083038186803b15801561054a57600080fd5b505afa15801561055e573d6000803e3d6000fd5b505050506040513d6000823e601f3d908101601f191682016040526105869190810190613808565b905080516002146105a95760405162461bcd60e51b815260040161017b90613c7c565b806000815181106105ca57634e487b7160e01b600052603260045260246000fd5b6020026020010151826000600281106105f357634e487b7160e01b600052603260045260246000fd5b6001600160a01b03909216602092909202015280518190600190811061062957634e487b7160e01b600052603260045260246000fd5b60200260200101518260016002811061065257634e487b7160e01b600052603260045260246000fd5b6001600160a01b03928316602091820292909201919091529086166000908152608490915260409020610687908360026133da565b5061069a8260005b602002015186611ada565b6106a582600161068f565b505b80516020909101519094909350915050565b6041546201000090046001600160a01b031681565b8015610823576106fe827f0000000000000000000000000000000000000000000000000000000000000000611ada565b6040516340c10f1960e01b81526001600160a01b037f000000000000000000000000000000000000000000000000000000000000000016906340c10f199061074c90859085906004016139c9565b600060405180830381600087803b15801561076657600080fd5b505af115801561077a573d6000803e3d6000fd5b505060405163314568d960e01b81526001600160a01b037f00000000000000000000000000000000000000000000000000000000000000008116935063314568d992506107f0917f0000000000000000000000000000000000000000000000000000000000000000918716908690600401613a16565b600060405180830381600087803b15801561080a57600080fd5b505af115801561081e573d6000803e3d6000fd5b505050505b5050565b7f000000000000000000000000000000000000000000000000000000000000000081565b6000807f00000000000000000000000000000000000000000000000000000000000000006001600160a01b031663f70aedd96040518163ffffffff1660e01b815260040160806040518083038186803b1580156108a757600080fd5b505afa1580156108bb573d6000803e3d6000fd5b505050506040513d601f19601f820116820180604052508101906108df919061361d565b5092509250506000836001600160a01b031663a4775772836040518263ffffffff1660e01b81526004016109139190613dde565b60206040518083038186803b15801561092b57600080fd5b505afa15801561093f573d6000803e3d6000fd5b505050506040513d601f19601f82011682018060405250810190610963919061350e565b6001600160a01b03811660009081526083602052604090205490915060ff1661099e5760405162461bcd60e51b815260040161017b90613c19565b836001600160a01b0316836001600160a01b0316146109cf5760405162461bcd60e51b815260040161017b90613ab5565b604051630d1d697560e31b81526001600160a01b037f000000000000000000000000000000000000000000000000000000000000000016906368eb4ba890610a21908790869060001990600401613a16565b600060405180830381600087803b158015610a3b57600080fd5b505af1158015610a4f573d6000803e3d6000fd5b505060405163b390c0ab60e01b81526001600160a01b038716925063b390c0ab9150610a8390859060001990600401613e4b565b602060405180830381600087803b158015610a9d57600080fd5b505af1158015610ab1573d6000803e3d6000fd5b505050506040513d601f19601f82011682018060405250810190610ad59190613929565b506040516370a0823160e01b81526000906001600160a01b038316906370a0823190610b05903090600401613980565b60206040518083038186803b158015610b1d57600080fd5b505afa158015610b31573d6000803e3d6000fd5b505050506040513d601f19601f82011682018060405250810190610b559190613929565b9050610b618286611ada565b60405163140e25ad60e31b81526000906001600160a01b0387169063a0712d6890610b90908590600401613dde565b602060405180830381600087803b158015610baa57600080fd5b505af1158015610bbe573d6000803e3d6000fd5b505050506040513d601f19601f82011682018060405250810190610be29190613929565b60405163314568d960e01b81529091506001600160a01b037f0000000000000000000000000000000000000000000000000000000000000000169063314568d990610c3590899085908790600401613a16565b600060405180830381600087803b158015610c4f57600080fd5b505af1158015610c63573d6000803e3d6000fd5b5050505061081e866001600160a01b031663228cb7336040518163ffffffff1660e01b8152600401602060405180830381600087803b158015610ca557600080fd5b505af1158015610cb9573d6000803e3d6000fd5b505050506040513d601f19601f82011682018060405250810190610cdd919061350e565b611b4f565b60836020526000908152604090205460ff1681565b6000807f00000000000000000000000000000000000000000000000000000000000000006001600160a01b031663f70aedd96040518163ffffffff1660e01b815260040160806040518083038186803b158015610d5357600080fd5b505afa158015610d67573d6000803e3d6000fd5b505050506040513d601f19601f82011682018060405250810190610d8b919061361d565b509250925050846001600160a01b0316826001600160a01b031663a4775772836040518263ffffffff1660e01b8152600401610dc79190613dde565b60206040518083038186803b158015610ddf57600080fd5b505afa158015610df3573d6000803e3d6000fd5b505050506040513d601f19601f82011682018060405250810190610e17919061350e565b6001600160a01b031614610e3d5760405162461bcd60e51b815260040161017b90613ce4565b826001600160a01b0316826001600160a01b031614610e6e5760405162461bcd60e51b815260040161017b90613ab5565b604051630d1d697560e31b81526001600160a01b037f000000000000000000000000000000000000000000000000000000000000000016906368eb4ba890610ebf9086908590893590600401613a16565b600060405180830381600087803b158015610ed957600080fd5b505af1158015610eed573d6000803e3d6000fd5b505060405163b390c0ab60e01b81526001600160a01b038616925063b390c0ab9150610f20908490883590600401613e4b565b602060405180830381600087803b158015610f3a57600080fd5b505af1158015610f4e573d6000803e3d6000fd5b505050506040513d601f19601f82011682018060405250810190610f729190613929565b50610f7d8585611c7b565b610fbb836001600160a01b031663228cb7336040518163ffffffff1660e01b8152600401602060405180830381600087803b158015610ca557600080fd5b5050505050565b7f000000000000000000000000000000000000000000000000000000000000000081565b7f000000000000000000000000000000000000000000000000000000000000000081565b611014838361250e565b5060008060007f00000000000000000000000000000000000000000000000000000000000000006001600160a01b031663f70aedd96040518163ffffffff1660e01b815260040160806040518083038186803b15801561107357600080fd5b505afa158015611087573d6000803e3d6000fd5b505050506040513d601f19601f820116820180604052508101906110ab919061361d565b9195509350915050801561129a57856001600160a01b0316836001600160a01b031663a4775772846040518263ffffffff1660e01b81526004016110ef9190613dde565b60206040518083038186803b15801561110757600080fd5b505afa15801561111b573d6000803e3d6000fd5b505050506040513d601f19601f8201168201806040525081019061113f919061350e565b6001600160a01b0316146111655760405162461bcd60e51b815260040161017b90613ce4565b836001600160a01b0316836001600160a01b0316146111965760405162461bcd60e51b815260040161017b90613ab5565b604051630d1d697560e31b81526001600160a01b037f000000000000000000000000000000000000000000000000000000000000000016906368eb4ba8906111e690879086908690600401613a16565b600060405180830381600087803b15801561120057600080fd5b505af1158015611214573d6000803e3d6000fd5b505060405163b390c0ab60e01b81526001600160a01b038716925063b390c0ab91506112469085908590600401613e4b565b602060405180830381600087803b15801561126057600080fd5b505af1158015611274573d6000803e3d6000fd5b505050506040513d601f19601f820116820180604052508101906112989190613929565b505b6112a48685611ada565b6040516370a0823160e01b81526000906001600160a01b038816906370a08231906112d3903090600401613980565b60206040518083038186803b1580156112eb57600080fd5b505afa1580156112ff573d6000803e3d6000fd5b505050506040513d601f19601f820116820180604052508101906113239190613929565b90506000856001600160a01b031663a0712d68836040518263ffffffff1660e01b81526004016113539190613dde565b602060405180830381600087803b15801561136d57600080fd5b505af1158015611381573d6000803e3d6000fd5b505050506040513d601f19601f820116820180604052508101906113a59190613929565b60405163e985e9c560e01b81529091506001600160a01b0387169063e985e9c5906113f69030907f000000000000000000000000000000000000000000000000000000000000000090600401613994565b60206040518083038186803b15801561140e57600080fd5b505afa158015611422573d6000803e3d6000fd5b505050506040513d601f19601f8201168201806040525081019061144691906138e5565b6114cc5760405163a22cb46560e01b81526001600160a01b0387169063a22cb46590611499907f0000000000000000000000000000000000000000000000000000000000000000906001906004016139ae565b600060405180830381600087803b1580156114b357600080fd5b505af11580156114c7573d6000803e3d6000fd5b505050505b60405163314568d960e01b81526001600160a01b037f0000000000000000000000000000000000000000000000000000000000000000169063314568d99061151c90899085908790600401613a16565b600060405180830381600087803b15801561153657600080fd5b505af115801561154a573d6000803e3d6000fd5b5050505060008061155a8a610468565b91509150611566612c7e565b61156f82611b4f565b61157881611b4f565b6115b6886001600160a01b031663228cb7336040518163ffffffff1660e01b8152600401602060405180830381600087803b158015610ca557600080fd5b50505050505050505050565b6115cd828235612ec7565b6108238282611c7b565b60006115e3838361250e565b90506115ef83826106ce565b6000806115fb85610468565b91509150611607612c7e565b61161082611b4f565b610fbb81611b4f565b63bc197c8160e01b98975050505050505050565b6042546001600160a01b031681565b6042546001600160a01b031633146116665760405162461bcd60e51b815260040161017b90613afb565b604280546001600160a01b03191690556041805462010000600160b01b03191633620100008102919091179091556040517fd345d81ce68c70b119a17eee79dc1421700bd9cb21ca148a62dc90983964e82f916116c291613980565b60405180910390a1565b6041546201000090046001600160a01b031633146116fc5760405162461bcd60e51b815260040161017b90613baa565b82811461171b5760405162461bcd60e51b815260040161017b90613bd4565b60005b83811015610fbb5782828281811061174657634e487b7160e01b600052603260045260246000fd5b905060200201602081019061175b91906138c9565b1561184c577f00000000000000000000000000000000000000000000000000000000000000006001600160a01b031663e660cc088686848181106117af57634e487b7160e01b600052603260045260246000fd5b90506020020160208101906117c491906134f2565b6040518263ffffffff1660e01b81526004016117e09190613980565b60206040518083038186803b1580156117f857600080fd5b505afa15801561180c573d6000803e3d6000fd5b505050506040513d601f19601f8201168201806040525081019061183091906138e5565b61184c5760405162461bcd60e51b815260040161017b90613b2d565b82828281811061186c57634e487b7160e01b600052603260045260246000fd5b905060200201602081019061188191906138c9565b608360008787858181106118a557634e487b7160e01b600052603260045260246000fd5b90506020020160208101906118ba91906134f2565b6001600160a01b031681526020810191909152604001600020805460ff1916911515919091179055806118ec81613ef7565b91505061171e565b6041546201000090046001600160a01b031633146119245760405162461bcd60e51b815260040161017b90613baa565b604280546001600160a01b0319166001600160a01b0383161790556040517f964dea888b00b2ab53f13dfe7ca334b46e99338c222ae232d98547a1da019f609061196f908390613980565b60405180910390a150565b63f23a6e6160e01b9695505050505050565b604060208181526000938452818420905290825290205460ff1681565b801580611a315750604051636eb1769f60e11b81526001600160a01b0384169063dd62ed3e906119df9030908690600401613994565b60206040518083038186803b1580156119f757600080fd5b505afa158015611a0b573d6000803e3d6000fd5b505050506040513d601f19601f82011682018060405250810190611a2f9190613929565b155b611a4d5760405162461bcd60e51b815260040161017b90613d88565b611aa38363095ea7b360e01b8484604051602401611a6c9291906139c9565b60408051601f198184030181529190526020810180516001600160e01b03166001600160e01b031990931692909217909152613060565b505050565b6060611ab784846000856130ef565b90505b9392505050565b6001600160e01b031981166301ffc9a760e01b14919050565b6001600160a01b03808316600090815260406020818152818320938516835292909252205460ff1661082357611b1c6001600160a01b038316826000196119a9565b6001600160a01b0380831660009081526040602081815281832093851683529290925220805460ff191660011790555050565b6040516370a0823160e01b81526000906001600160a01b038316906370a0823190611b7e903090600401613980565b60206040518083038186803b158015611b9657600080fd5b505afa158015611baa573d6000803e3d6000fd5b505050506040513d601f19601f82011682018060405250810190611bce9190613929565b90508015610823576108237f00000000000000000000000000000000000000000000000000000000000000006001600160a01b031663630dc7cb6040518163ffffffff1660e01b815260040160206040518083038186803b158015611c3257600080fd5b505afa158015611c46573d6000803e3d6000fd5b505050506040513d601f19601f82011682018060405250810190611c6a919061350e565b6001600160a01b03841690836131af565b6001600160a01b03821660009081526083602052604090205460ff16611cb35760405162461bcd60e51b815260040161017b90613c19565b600080611cbf84610468565b9150915060008360400135905060008460600135905060008560800135905060007f00000000000000000000000000000000000000000000000000000000000000006001600160a01b031663d7ac71ff6040518163ffffffff1660e01b815260040160206040518083038186803b158015611d3957600080fd5b505afa158015611d4d573d6000803e3d6000fd5b505050506040513d601f19601f82011682018060405250810190611d719190613929565b9050600019841415611e20576040516320a8bee760e21b81526001600160a01b037f000000000000000000000000000000000000000000000000000000000000000016906382a2fb9c90611dcb9084908a90600401613de7565b602060405180830381600087803b158015611de557600080fd5b505af1158015611df9573d6000803e3d6000fd5b505050506040513d601f19601f82011682018060405250810190611e1d9190613929565b93505b600019831415611ecd576040516320a8bee760e21b81526001600160a01b037f000000000000000000000000000000000000000000000000000000000000000016906382a2fb9c90611e789084908990600401613de7565b602060405180830381600087803b158015611e9257600080fd5b505af1158015611ea6573d6000803e3d6000fd5b505050506040513d601f19601f82011682018060405250810190611eca9190613929565b92505b600019821415611f7a576040516320a8bee760e21b81526001600160a01b037f000000000000000000000000000000000000000000000000000000000000000016906382a2fb9c90611f259084908c90600401613de7565b602060405180830381600087803b158015611f3f57600080fd5b505af1158015611f53573d6000803e3d6000fd5b505050506040513d601f19601f82011682018060405250810190611f779190613929565b91505b5060006120078760200135896001600160a01b03166370a08231306040518263ffffffff1660e01b8152600401611fb19190613980565b60206040518083038186803b158015611fc957600080fd5b505afa158015611fdd573d6000803e3d6000fd5b505050506040513d601f19601f820116820180604052508101906120019190613929565b906131ce565b9050801561209257604080516002808252606082018352600092602083019080368337505060405163b02f0b7360e01b8152919250506001600160a01b038a169063b02f0b739061205e9085908590600401613dfe565b600060405180830381600087803b15801561207857600080fd5b505af115801561208c573d6000803e3d6000fd5b50505050505b60006120a28560a08a01356131da565b905060006120b48560c08b01356131da565b90506000886001600160a01b03166370a08231306040518263ffffffff1660e01b81526004016120e49190613980565b60206040518083038186803b1580156120fc57600080fd5b505afa158015612110573d6000803e3d6000fd5b505050506040513d601f19601f820116820180604052508101906121349190613929565b90506000886001600160a01b03166370a08231306040518263ffffffff1660e01b81526004016121649190613980565b60206040518083038186803b15801561217c57600080fd5b505afa158015612190573d6000803e3d6000fd5b505050506040513d601f19601f820116820180604052508101906121b49190613929565b905083821080156121c457508281115b15612269576001600160a01b038c16637c5e9ea48a6121e384876131ce565b8d6121ee89886131ce565b6000196040518663ffffffff1660e01b81526004016122119594939291906139e2565b6040805180830381600087803b15801561222a57600080fd5b505af115801561223e573d6000803e3d6000fd5b505050506040513d601f19601f820116820180604052508101906122629190613941565b5050612318565b838211801561227757508281105b15612318576001600160a01b038c16637c5e9ea48b61229685886131ce565b8c6122a188876131ce565b6000196040518663ffffffff1660e01b81526004016122c49594939291906139e2565b6040805180830381600087803b1580156122dd57600080fd5b505af11580156122f1573d6000803e3d6000fd5b505050506040513d601f19601f820116820180604052508101906123159190613941565b50505b6123228a896131e6565b61232c89886131e6565b6123368c876131e6565b6040516370a0823160e01b815260a08c0135906001600160a01b038c16906370a0823190612368903090600401613980565b60206040518083038186803b15801561238057600080fd5b505afa158015612394573d6000803e3d6000fd5b505050506040513d601f19601f820116820180604052508101906123b89190613929565b10156123c357600080fd5b6040516370a0823160e01b815260c08c0135906001600160a01b038b16906370a08231906123f5903090600401613980565b60206040518083038186803b15801561240d57600080fd5b505afa158015612421573d6000803e3d6000fd5b505050506040513d601f19601f820116820180604052508101906124459190613929565b101561245057600080fd5b6040516370a0823160e01b815260208c0135906001600160a01b038e16906370a0823190612482903090600401613980565b60206040518083038186803b15801561249a57600080fd5b505afa1580156124ae573d6000803e3d6000fd5b505050506040513d601f19601f820116820180604052508101906124d29190613929565b10156124dd57600080fd5b6124e5612c7e565b6124ee8a611b4f565b6124f789611b4f565b6125008c611b4f565b505050505050505050505050565b6001600160a01b03821660009081526083602052604081205460ff166125465760405162461bcd60e51b815260040161017b90613c19565b60008061255285610468565b9150915061255e613264565b6125698285356132db565b6125778185602001356132db565b6125858585604001356132db565b61259382856060013561332f565b6125a181856080013561332f565b6125af858560a0013561332f565b60408051600280825260608201835260009260208301908036833750506040516370a0823160e01b8152919250506001600160a01b038416906370a08231906125fc903090600401613980565b60206040518083038186803b15801561261457600080fd5b505afa158015612628573d6000803e3d6000fd5b505050506040513d601f19601f8201168201806040525081019061264c9190613929565b8160008151811061266d57634e487b7160e01b600052603260045260246000fd5b60209081029190910101526040516370a0823160e01b81526001600160a01b038316906370a08231906126a4903090600401613980565b60206040518083038186803b1580156126bc57600080fd5b505afa1580156126d0573d6000803e3d6000fd5b505050506040513d601f19601f820116820180604052508101906126f49190613929565b8160018151811061271557634e487b7160e01b600052603260045260246000fd5b6020026020010181815250506000866001600160a01b03166318160ddd6040518163ffffffff1660e01b815260040160206040518083038186803b15801561275c57600080fd5b505afa158015612770573d6000803e3d6000fd5b505050506040513d601f19601f820116820180604052508101906127949190613929565b90506000612876670de0b6b3a764000061286a846128708c6001600160a01b031663f8b2cb4f8b6040518263ffffffff1660e01b81526004016127d79190613980565b60206040518083038186803b1580156127ef57600080fd5b505afa158015612803573d6000803e3d6000fd5b505050506040513d601f19601f820116820180604052508101906128279190613929565b61286a670de0b6b3a76400008a60008151811061285457634e487b7160e01b600052603260045260246000fd5b602002602001015161338390919063ffffffff16565b9061338f565b90613383565b90506000612936670de0b6b3a764000061286a856128708d6001600160a01b031663f8b2cb4f8b6040518263ffffffff1660e01b81526004016128b99190613980565b60206040518083038186803b1580156128d157600080fd5b505afa1580156128e5573d6000803e3d6000fd5b505050506040513d601f19601f820116820180604052508101906129099190613929565b61286a670de0b6b3a76400008b60018151811061285457634e487b7160e01b600052603260045260246000fd5b905060008183116129475782612949565b815b905080156129b2576040516313da703560e21b81526001600160a01b038b1690634f69c0d49061297f9084908990600401613dfe565b600060405180830381600087803b15801561299957600080fd5b505af11580156129ad573d6000803e3d6000fd5b505050505b6040516370a0823160e01b81526000906001600160a01b038916906370a08231906129e1903090600401613980565b60206040518083038186803b1580156129f957600080fd5b505afa158015612a0d573d6000803e3d6000fd5b505050506040513d601f19601f82011682018060405250810190612a319190613929565b90506000876001600160a01b03166370a08231306040518263ffffffff1660e01b8152600401612a619190613980565b60206040518083038186803b158015612a7957600080fd5b505afa158015612a8d573d6000803e3d6000fd5b505050506040513d601f19601f82011682018060405250810190612ab19190613929565b90508115612b3e57604051635db3427760e01b81526001600160a01b038d1690635db3427790612aea908c908690600090600401613a16565b602060405180830381600087803b158015612b0457600080fd5b505af1158015612b18573d6000803e3d6000fd5b505050506040513d601f19601f82011682018060405250810190612b3c9190613929565b505b8015612bc957604051635db3427760e01b81526001600160a01b038d1690635db3427790612b75908b908590600090600401613a16565b602060405180830381600087803b158015612b8f57600080fd5b505af1158015612ba3573d6000803e3d6000fd5b505050506040513d601f19601f82011682018060405250810190612bc79190613929565b505b6040516370a0823160e01b81526000906001600160a01b038e16906370a0823190612bf8903090600401613980565b60206040518083038186803b158015612c1057600080fd5b505afa158015612c24573d6000803e3d6000fd5b505050506040513d601f19601f82011682018060405250810190612c489190613929565b90508b60c00135811015612c6e5760405162461bcd60e51b815260040161017b90613d12565b9c9b505050505050505050505050565b6040516370a0823160e01b81526000906001600160a01b037f000000000000000000000000000000000000000000000000000000000000000016906370a0823190612ccd903090600401613980565b602060405180830381600087803b158015612ce757600080fd5b505af1158015612cfb573d6000803e3d6000fd5b505050506040513d601f19601f82011682018060405250810190612d1f9190613929565b90508015612ec457604051632e1a7d4d60e01b81526001600160a01b037f00000000000000000000000000000000000000000000000000000000000000001690632e1a7d4d90612d73908490600401613dde565b600060405180830381600087803b158015612d8d57600080fd5b505af1158015612da1573d6000803e3d6000fd5b5050505060007f00000000000000000000000000000000000000000000000000000000000000006001600160a01b031663630dc7cb6040518163ffffffff1660e01b815260040160206040518083038186803b158015612e0057600080fd5b505afa158015612e14573d6000803e3d6000fd5b505050506040513d601f19601f82011682018060405250810190612e38919061350e565b604080516000815260208101918290526001600160a01b0392909216918491612e619190613964565b60006040518083038185875af1925050503d8060008114612e9e576040519150601f19603f3d011682016040523d82523d6000602084013e612ea3565b606091505b50509050806108235760405162461bcd60e51b815260040161017b90613a8a565b50565b801561082357600019811415612f6e577f00000000000000000000000000000000000000000000000000000000000000006001600160a01b031663f70aedd96040518163ffffffff1660e01b815260040160806040518083038186803b158015612f3057600080fd5b505afa158015612f44573d6000803e3d6000fd5b505050506040513d601f19601f82011682018060405250810190612f68919061361d565b93505050505b604051630d1d697560e31b81526001600160a01b037f00000000000000000000000000000000000000000000000000000000000000008116916368eb4ba891612fe0917f0000000000000000000000000000000000000000000000000000000000000000918716908690600401613a16565b600060405180830381600087803b158015612ffa57600080fd5b505af115801561300e573d6000803e3d6000fd5b5050604051632770a7eb60e21b81526001600160a01b037f0000000000000000000000000000000000000000000000000000000000000000169250639dc29fac91506107f090859085906004016139c9565b60006130b5826040518060400160405280602081526020017f5361666545524332303a206c6f772d6c6576656c2063616c6c206661696c6564815250856001600160a01b0316611aa89092919063ffffffff16565b805190915015611aa357808060200190518101906130d391906138e5565b611aa35760405162461bcd60e51b815260040161017b90613d3e565b6060824710156131115760405162461bcd60e51b815260040161017b90613b64565b61311a8561339b565b6131365760405162461bcd60e51b815260040161017b90613cad565b600080866001600160a01b031685876040516131529190613964565b60006040518083038185875af1925050503d806000811461318f576040519150601f19603f3d011682016040523d82523d6000602084013e613194565b606091505b50915091506131a48282866133a1565b979650505050505050565b611aa38363a9059cbb60e01b8484604051602401611a6c9291906139c9565b6000611aba8284613eb0565b6000611aba8284613e59565b801561082357613216827f0000000000000000000000000000000000000000000000000000000000000000611ada565b604051630450cfaf60e31b81526001600160a01b037f000000000000000000000000000000000000000000000000000000000000000016906322867d78906107f090859085906004016139c9565b34156132d9577f00000000000000000000000000000000000000000000000000000000000000006001600160a01b031663d0e30db0346040518263ffffffff1660e01b81526004016000604051808303818588803b1580156132c557600080fd5b505af1158015610fbb573d6000803e3d6000fd5b565b80156108235760405163246b5de160e11b81526001600160a01b037f000000000000000000000000000000000000000000000000000000000000000016906348d6bbc2906107f090859085906004016139c9565b801561082357604051634b8a352960e01b81526001600160a01b037f00000000000000000000000000000000000000000000000000000000000000001690634b8a3529906107f090859085906004016139c9565b6000611aba8284613e91565b6000611aba8284613e71565b3b151590565b606083156133b0575081611aba565b8251156133c05782518084602001fd5b8160405162461bcd60e51b815260040161017b9190613a57565b8260028101928215613422579160200282015b8281111561342257825182546001600160a01b0319166001600160a01b039091161782556020909201916001909101906133ed565b5061342e929150613432565b5090565b5b8082111561342e5760008155600101613433565b805161043581613f3e565b60008083601f840112613463578081fd5b50813567ffffffffffffffff81111561347a578182fd5b602083019150836020808302850101111561349457600080fd5b9250929050565b60008083601f8401126134ac578182fd5b50813567ffffffffffffffff8111156134c3578182fd5b60208301915083602082850101111561349457600080fd5b600060e082840312156134ec578081fd5b50919050565b600060208284031215613503578081fd5b8135611aba81613f3e565b60006020828403121561351f578081fd5b8151611aba81613f3e565b6000806040838503121561353c578081fd5b823561354781613f3e565b9150602083013561355781613f3e565b809150509250929050565b60008060008060008060008060a0898b03121561357d578384fd5b883561358881613f3e565b9750602089013561359881613f3e565b9650604089013567ffffffffffffffff808211156135b4578586fd5b6135c08c838d01613452565b909850965060608b01359150808211156135d8578586fd5b6135e48c838d01613452565b909650945060808b01359150808211156135fc578384fd5b506136098b828c0161349b565b999c989b5096995094979396929594505050565b60008060008060808587031215613632578384fd5b845161363d81613f3e565b602086015190945061364e81613f3e565b6040860151606090960151949790965092505050565b60008060008060008060a0878903121561367c578182fd5b863561368781613f3e565b9550602087013561369781613f3e565b94506040870135935060608701359250608087013567ffffffffffffffff8111156136c0578283fd5b6136cc89828a0161349b565b979a9699509497509295939492505050565b60008061010083850312156136f1578182fd5b82356136fc81613f3e565b915061370b84602085016134db565b90509250929050565b60008060006101208486031215613729578283fd5b833561373481613f3e565b925061374385602086016134db565b915061010084013561375481613f3e565b809150509250925092565b60008060006101208486031215613729578081fd5b60008060408385031215613786578182fd5b823561379181613f3e565b946020939093013593505050565b600080600080604085870312156137b4578182fd5b843567ffffffffffffffff808211156137cb578384fd5b6137d788838901613452565b909650945060208701359150808211156137ef578384fd5b506137fc87828801613452565b95989497509550505050565b6000602080838503121561381a578182fd5b825167ffffffffffffffff80821115613831578384fd5b818501915085601f830112613844578384fd5b81518181111561385657613856613f28565b8381026040518582820101818110858211171561387557613875613f28565b604052828152858101935084860182860187018a1015613893578788fd5b8795505b838610156138bc576138a881613447565b855260019590950194938601938601613897565b5098975050505050505050565b6000602082840312156138da578081fd5b8135611aba81613f53565b6000602082840312156138f6578081fd5b8151611aba81613f53565b600060208284031215613912578081fd5b81356001600160e01b031981168114611aba578182fd5b60006020828403121561393a578081fd5b5051919050565b60008060408385031215613953578182fd5b505080516020909101519092909150565b60008251613976818460208701613ec7565b9190910192915050565b6001600160a01b0391909116815260200190565b6001600160a01b0392831681529116602082015260400190565b6001600160a01b039290921682521515602082015260400190565b6001600160a01b03929092168252602082015260400190565b6001600160a01b03958616815260208101949094529190931660408301526060820192909252608081019190915260a00190565b6001600160a01b039390931683526020830191909152604082015260600190565b901515815260200190565b6001600160e01b031991909116815260200190565b6000602082528251806020840152613a76816040850160208701613ec7565b601f01601f19169190910160400192915050565b6020808252601190820152701c99599d5b99081155120819985a5b1959607a1b604082015260600190565b60208082526026908201527f636f6c6c61746572616c20746f6b656e202620777374616b696e67206d69736d604082015265185d18da195960d21b606082015260800190565b6020808252601890820152773737ba103a3432903832b73234b7339033b7bb32b93737b960411b604082015260600190565b6020808252601b908201527f6f7261636c65206e6f7420737570706f7274206c7020746f6b656e0000000000604082015260600190565b60208082526026908201527f416464726573733a20696e73756666696369656e742062616c616e636520666f6040820152651c8818d85b1b60d21b606082015260800190565b60208082526010908201526f3737ba103a34329033b7bb32b93737b960811b604082015260600190565b60208082526025908201527f6c70546f6b656e732026207374617475736573206c656e677468206d69736d616040820152641d18da195960da1b606082015260800190565b6020808252601890820152771b1c081d1bdad95b881b9bdd081dda1a5d195b1a5cdd195960421b604082015260600190565b60208082526017908201527608aa89040daeae6e840c6dedaca40cce4deda40ae8aa89604b1b604082015260600190565b6020808252601790820152763ab73232b9363cb4b733903a37b5b2b739903737ba101960491b604082015260600190565b6020808252601d908201527f416464726573733a2063616c6c20746f206e6f6e2d636f6e7472616374000000604082015260600190565b602080825260149082015273696e636f727265637420756e6465726c79696e6760601b604082015260600190565b6020808252601290820152711b1c0819195cda5c9959081b9bdd081b595d60721b604082015260600190565b6020808252602a908201527f5361666545524332303a204552433230206f7065726174696f6e20646964206e6040820152691bdd081cdd58d8d9595960b21b606082015260800190565b60208082526036908201527f5361666545524332303a20617070726f76652066726f6d206e6f6e2d7a65726f60408201527520746f206e6f6e2d7a65726f20616c6c6f77616e636560501b606082015260800190565b90815260200190565b9182526001600160a01b0316602082015260400190565b60006040820184835260206040818501528185518084526060860191508287019350845b81811015613e3e57845183529383019391830191600101613e22565b5090979650505050505050565b918252602082015260400190565b60008219821115613e6c57613e6c613f12565b500190565b600082613e8c57634e487b7160e01b81526012600452602481fd5b500490565b6000816000190483118215151615613eab57613eab613f12565b500290565b600082821015613ec257613ec2613f12565b500390565b60005b83811015613ee2578181015183820152602001613eca565b83811115613ef1576000848401525b50505050565b6000600019821415613f0b57613f0b613f12565b5060010190565b634e487b7160e01b600052601160045260246000fd5b634e487b7160e01b600052604160045260246000fd5b6001600160a01b0381168114612ec457600080fd5b8015158114612ec457600080fdfea2646970667358221220015e450314f27615c844106b6bcf05fc9d812c685248983e7d30058f2da84df864736f6c63430008000033",
  "linkReferences": {},
  "deployedLinkReferences": {}
}