{
  "_format": "hh-sol-artifact-1",
  "contractName": "BaseKP3ROracle",
  "sourceName": "contracts/oracle/BaseKP3ROracle.sol",
  "abi": [
    {
      "inputs": [
        {
          "internalType": "contract IKeep3rV1Oracle",
          "name": "_kp3r",
          "type": "address"
        }
      ],
      "stateMutability": "nonpayable",
      "type": "constructor"
    },
    {
      "inputs": [],
      "name": "MAX_TWAP_TIME",
      "outputs": [
        {
          "internalType": "uint256",
          "name": "",
          "type": "uint256"
        }
      ],
      "stateMutability": "view",
      "type": "function"
    },
    {
      "inputs": [],
      "name": "MIN_TWAP_TIME",
      "outputs": [
        {
          "internalType": "uint256",
          "name": "",
          "type": "uint256"
        }
      ],
      "stateMutability": "view",
      "type": "function"
    },
    {
      "inputs": [
        {
          "internalType": "address",
          "name": "pair",
          "type": "address"
        }
      ],
      "name": "currentPx0Cumu",
      "outputs": [
        {
          "internalType": "uint256",
          "name": "px0Cumu",
          "type": "uint256"
        }
      ],
      "stateMutability": "view",
      "type": "function"
    },
    {
      "inputs": [
        {
          "internalType": "address",
          "name": "pair",
          "type": "address"
        }
      ],
      "name": "currentPx1Cumu",
      "outputs": [
        {
          "internalType": "uint256",
          "name": "px1Cumu",
          "type": "uint256"
        }
      ],
      "stateMutability": "view",
      "type": "function"
    },
    {
      "inputs": [],
      "name": "factory",
      "outputs": [
        {
          "internalType": "address",
          "name": "",
          "type": "address"
        }
      ],
      "stateMutability": "view",
      "type": "function"
    },
    {
      "inputs": [],
      "name": "kp3r",
      "outputs": [
        {
          "internalType": "contract IKeep3rV1Oracle",
          "name": "",
          "type": "address"
        }
      ],
      "stateMutability": "view",
      "type": "function"
    },
    {
      "inputs": [
        {
          "internalType": "address",
          "name": "pair",
          "type": "address"
        }
      ],
      "name": "price0TWAP",
      "outputs": [
        {
          "internalType": "uint256",
          "name": "",
          "type": "uint256"
        }
      ],
      "stateMutability": "view",
      "type": "function"
    },
    {
      "inputs": [
        {
          "internalType": "address",
          "name": "pair",
          "type": "address"
        }
      ],
      "name": "price1TWAP",
      "outputs": [
        {
          "internalType": "uint256",
          "name": "",
          "type": "uint256"
        }
      ],
      "stateMutability": "view",
      "type": "function"
    },
    {
      "inputs": [],
      "name": "weth",
      "outputs": [
        {
          "internalType": "address",
          "name": "",
          "type": "address"
        }
      ],
      "stateMutability": "view",
      "type": "function"
    }
  ],
  "bytecode": "0x60e060405234801561001057600080fd5b50604051610e09380380610e0983398101604081905261002f91610160565b806001600160a01b03166080816001600160a01b031660601b81525050806001600160a01b031663c45a01556040518163ffffffff1660e01b815260040160206040518083038186803b15801561008557600080fd5b505afa158015610099573d6000803e3d6000fd5b505050506040513d601f19601f820116820180604052508101906100bd9190610160565b6001600160a01b031660a0816001600160a01b031660601b81525050806001600160a01b031663ad5c46486040518163ffffffff1660e01b815260040160206040518083038186803b15801561011257600080fd5b505afa158015610126573d6000803e3d6000fd5b505050506040513d601f19601f8201168201806040525081019061014a9190610160565b60601b6001600160601b03191660c0525061019b565b600060208284031215610171578081fd5b815161017c81610183565b9392505050565b6001600160a01b038116811461019857600080fd5b50565b60805160601c60a05160601c60c05160601c610c0c6101fd60003960006103fc0152600061083701526000818161012a015281816101fc015281816102de01528181610420015281816104470152818161051001526105f10152610c0c6000f3fe608060405234801561001057600080fd5b50600436106100835760003560e01c806309cd510e146100885780630bbfeedd146100a65780633fc8cef3146100b957806359e25a94146100ce578063990ae00f146100d6578063a09c8404146100e9578063af8a9ba5146100fc578063c45a015514610104578063eb84b2f61461010c575b600080fd5b61009061011f565b60405161009d9190610b24565b60405180910390f35b6100906100b43660046109ad565b610125565b6100c16103fa565b60405161009d9190610a6e565b6100c161041e565b6100906100e43660046109ad565b610442565b6100906100f73660046109ad565b6106db565b61009061082f565b6100c1610835565b61009061011a3660046109ad565b610859565b610e1081565b6000807f00000000000000000000000000000000000000000000000000000000000000006001600160a01b03166381bfb885846040518263ffffffff1660e01b81526004016101749190610a6e565b60206040518083038186803b15801561018c57600080fd5b505afa1580156101a0573d6000803e3d6000fd5b505050506040513d601f19601f820116820180604052508101906101c49190610a29565b9050600081116101ef5760405162461bcd60e51b81526004016101e690610af3565b60405180910390fd5b6000806001600160a01b037f00000000000000000000000000000000000000000000000000000000000000001663024599668661022d600187610b84565b6040518363ffffffff1660e01b815260040161024a929190610a82565b60606040518083038186803b15801561026257600080fd5b505afa158015610276573d6000803e3d6000fd5b505050506040513d601f19601f8201168201806040525081019061029a9190610a41565b9250509150610384426102ad9190610b84565b82111561038457600183116102d45760405162461bcd60e51b81526004016101e690610ac2565b6001600160a01b037f00000000000000000000000000000000000000000000000000000000000000001663024599668661030f600287610b84565b6040518363ffffffff1660e01b815260040161032c929190610a82565b60606040518083038186803b15801561034457600080fd5b505afa158015610358573d6000803e3d6000fd5b505050506040513d601f19601f8201168201806040525081019061037c9190610a41565b919350909150505b60006103908342610b84565b905061038481101580156103a65750610e108111155b6103c25760405162461bcd60e51b81526004016101e690610a9b565b60006103cd87610859565b90506103d98442610b84565b6103e38483610b84565b6103ed9190610b45565b955050505050505b919050565b7f000000000000000000000000000000000000000000000000000000000000000081565b7f000000000000000000000000000000000000000000000000000000000000000081565b6000807f00000000000000000000000000000000000000000000000000000000000000006001600160a01b03166381bfb885846040518263ffffffff1660e01b81526004016104919190610a6e565b60206040518083038186803b1580156104a957600080fd5b505afa1580156104bd573d6000803e3d6000fd5b505050506040513d601f19601f820116820180604052508101906104e19190610a29565b9050600081116105035760405162461bcd60e51b81526004016101e690610af3565b6000806001600160a01b037f000000000000000000000000000000000000000000000000000000000000000016630245996686610541600187610b84565b6040518363ffffffff1660e01b815260040161055e929190610a82565b60606040518083038186803b15801561057657600080fd5b505afa15801561058a573d6000803e3d6000fd5b505050506040513d601f19601f820116820180604052508101906105ae9190610a41565b5090925090506105c061038442610b84565b82111561069657600183116105e75760405162461bcd60e51b81526004016101e690610ac2565b6001600160a01b037f000000000000000000000000000000000000000000000000000000000000000016630245996686610622600287610b84565b6040518363ffffffff1660e01b815260040161063f929190610a82565b60606040518083038186803b15801561065757600080fd5b505afa15801561066b573d6000803e3d6000fd5b505050506040513d601f19601f8201168201806040525081019061068f9190610a41565b5090925090505b60006106a28342610b84565b905061038481101580156106b85750610e108111155b6106d45760405162461bcd60e51b81526004016101e690610a9b565b60006103cd875b600080429050826001600160a01b0316635909c0d56040518163ffffffff1660e01b815260040160206040518083038186803b15801561071a57600080fd5b505afa15801561072e573d6000803e3d6000fd5b505050506040513d601f19601f820116820180604052508101906107529190610a29565b91506000806000856001600160a01b0316630902f1ac6040518163ffffffff1660e01b815260040160606040518083038186803b15801561079257600080fd5b505afa1580156107a6573d6000803e3d6000fd5b505050506040513d601f19601f820116820180604052508101906107ca91906109db565b92506001600160701b031692506001600160701b03169250428163ffffffff16146108265760006107fb8286610b9b565b905063ffffffff811661081285607086901b610b45565b61081c9190610b65565b6103ed9087610b2d565b50505050919050565b61038481565b7f000000000000000000000000000000000000000000000000000000000000000081565b600080429050826001600160a01b0316635a3d54936040518163ffffffff1660e01b815260040160206040518083038186803b15801561089857600080fd5b505afa1580156108ac573d6000803e3d6000fd5b505050506040513d601f19601f820116820180604052508101906108d09190610a29565b91506000806000856001600160a01b0316630902f1ac6040518163ffffffff1660e01b815260040160606040518083038186803b15801561091057600080fd5b505afa158015610924573d6000803e3d6000fd5b505050506040513d601f19601f8201168201806040525081019061094891906109db565b92506001600160701b031692506001600160701b031692508363ffffffff168163ffffffff161461082657600061097f8286610b9b565b905063ffffffff811661081284607087901b610b45565b80516001600160701b03811681146103f557600080fd5b6000602082840312156109be578081fd5b81356001600160a01b03811681146109d4578182fd5b9392505050565b6000806000606084860312156109ef578182fd5b6109f884610996565b9250610a0660208501610996565b9150604084015163ffffffff81168114610a1e578182fd5b809150509250925092565b600060208284031215610a3a578081fd5b5051919050565b600080600060608486031215610a55578283fd5b8351925060208401519150604084015190509250925092565b6001600160a01b0391909116815260200190565b6001600160a01b03929092168252602082015260400190565b6020808252600d908201526c62616420545741502074696d6560981b604082015260600190565b6020808252601790820152763737903632b733ba3416991037b139b2b93b30ba34b7b760491b604082015260600190565b6020808252601790820152763737903632b733ba3416989037b139b2b93b30ba34b7b760491b604082015260600190565b90815260200190565b60008219821115610b4057610b40610bc0565b500190565b600082610b6057634e487b7160e01b81526012600452602481fd5b500490565b6000816000190483118215151615610b7f57610b7f610bc0565b500290565b600082821015610b9657610b96610bc0565b500390565b600063ffffffff83811690831681811015610bb857610bb8610bc0565b039392505050565b634e487b7160e01b600052601160045260246000fdfea264697066735822122077239af493d83f9dca1eedaac600ad7ad4c4970853cef310b03d9ca64d6740e164736f6c63430008000033",
  "linkReferences": {},
  "deployedLinkReferences": {}
}