{
  "_format": "hh-sol-artifact-1",
  "contractName": "ChainlinkAdapterOracle",
  "sourceName": "contracts/oracle/ChainlinkAdapterOracle.sol",
  "abi": [
    {
      "inputs": [],
      "stateMutability": "nonpayable",
      "type": "constructor"
    },
    {
      "anonymous": false,
      "inputs": [
        {
          "indexed": false,
          "internalType": "address",
          "name": "governor",
          "type": "address"
        }
      ],
      "name": "AcceptGovernor",
      "type": "event"
    },
    {
      "anonymous": false,
      "inputs": [
        {
          "indexed": false,
          "internalType": "address",
          "name": "governor",
          "type": "address"
        }
      ],
      "name": "SetGovernor",
      "type": "event"
    },
    {
      "anonymous": false,
      "inputs": [
        {
          "indexed": false,
          "internalType": "address",
          "name": "token",
          "type": "address"
        },
        {
          "indexed": false,
          "internalType": "uint256",
          "name": "maxDelayTime",
          "type": "uint256"
        }
      ],
      "name": "SetMaxDelayTime",
      "type": "event"
    },
    {
      "anonymous": false,
      "inputs": [
        {
          "indexed": false,
          "internalType": "address",
          "name": "pendingGovernor",
          "type": "address"
        }
      ],
      "name": "SetPendingGovernor",
      "type": "event"
    },
    {
      "anonymous": false,
      "inputs": [
        {
          "indexed": false,
          "internalType": "address",
          "name": "token",
          "type": "address"
        },
        {
          "indexed": false,
          "internalType": "address",
          "name": "ref",
          "type": "address"
        }
      ],
      "name": "SetRefETH",
      "type": "event"
    },
    {
      "anonymous": false,
      "inputs": [
        {
          "indexed": false,
          "internalType": "address",
          "name": "ref",
          "type": "address"
        }
      ],
      "name": "SetRefETHUSD",
      "type": "event"
    },
    {
      "anonymous": false,
      "inputs": [
        {
          "indexed": false,
          "internalType": "address",
          "name": "token",
          "type": "address"
        },
        {
          "indexed": false,
          "internalType": "address",
          "name": "ref",
          "type": "address"
        }
      ],
      "name": "SetRefUSD",
      "type": "event"
    },
    {
      "inputs": [],
      "name": "WETH",
      "outputs": [
        {
          "internalType": "address",
          "name": "",
          "type": "address"
        }
      ],
      "stateMutability": "view",
      "type": "function"
    },
    {
      "inputs": [],
      "name": "acceptGovernor",
      "outputs": [],
      "stateMutability": "nonpayable",
      "type": "function"
    },
    {
      "inputs": [
        {
          "internalType": "address",
          "name": "token",
          "type": "address"
        }
      ],
      "name": "getETHPx",
      "outputs": [
        {
          "internalType": "uint256",
          "name": "",
          "type": "uint256"
        }
      ],
      "stateMutability": "view",
      "type": "function"
    },
    {
      "inputs": [],
      "name": "governor",
      "outputs": [
        {
          "internalType": "address",
          "name": "",
          "type": "address"
        }
      ],
      "stateMutability": "view",
      "type": "function"
    },
    {
      "inputs": [
        {
          "internalType": "address",
          "name": "",
          "type": "address"
        }
      ],
      "name": "maxDelayTimes",
      "outputs": [
        {
          "internalType": "uint256",
          "name": "",
          "type": "uint256"
        }
      ],
      "stateMutability": "view",
      "type": "function"
    },
    {
      "inputs": [],
      "name": "pendingGovernor",
      "outputs": [
        {
          "internalType": "address",
          "name": "",
          "type": "address"
        }
      ],
      "stateMutability": "view",
      "type": "function"
    },
    {
      "inputs": [],
      "name": "refETHUSD",
      "outputs": [
        {
          "internalType": "address",
          "name": "",
          "type": "address"
        }
      ],
      "stateMutability": "view",
      "type": "function"
    },
    {
      "inputs": [
        {
          "internalType": "address",
          "name": "",
          "type": "address"
        }
      ],
      "name": "refsETH",
      "outputs": [
        {
          "internalType": "address",
          "name": "",
          "type": "address"
        }
      ],
      "stateMutability": "view",
      "type": "function"
    },
    {
      "inputs": [
        {
          "internalType": "address",
          "name": "",
          "type": "address"
        }
      ],
      "name": "refsUSD",
      "outputs": [
        {
          "internalType": "address",
          "name": "",
          "type": "address"
        }
      ],
      "stateMutability": "view",
      "type": "function"
    },
    {
      "inputs": [
        {
          "internalType": "address[]",
          "name": "tokens",
          "type": "address[]"
        },
        {
          "internalType": "uint256[]",
          "name": "maxDelays",
          "type": "uint256[]"
        }
      ],
      "name": "setMaxDelayTimes",
      "outputs": [],
      "stateMutability": "nonpayable",
      "type": "function"
    },
    {
      "inputs": [
        {
          "internalType": "address",
          "name": "_pendingGovernor",
          "type": "address"
        }
      ],
      "name": "setPendingGovernor",
      "outputs": [],
      "stateMutability": "nonpayable",
      "type": "function"
    },
    {
      "inputs": [
        {
          "internalType": "address",
          "name": "_refETHUSD",
          "type": "address"
        }
      ],
      "name": "setRefETHUSD",
      "outputs": [],
      "stateMutability": "nonpayable",
      "type": "function"
    },
    {
      "inputs": [
        {
          "internalType": "address[]",
          "name": "tokens",
          "type": "address[]"
        },
        {
          "internalType": "address[]",
          "name": "refs",
          "type": "address[]"
        }
      ],
      "name": "setRefsETH",
      "outputs": [],
      "stateMutability": "nonpayable",
      "type": "function"
    },
    {
      "inputs": [
        {
          "internalType": "address[]",
          "name": "tokens",
          "type": "address[]"
        },
        {
          "internalType": "address[]",
          "name": "refs",
          "type": "address[]"
        }
      ],
      "name": "setRefsUSD",
      "outputs": [],
      "stateMutability": "nonpayable",
      "type": "function"
    }
  ],
  "bytecode": "0x6080604052604280546001600160a01b031916730715a7794a1dc8e42615f059dd6e406a6594651a17905534801561003657600080fd5b5061003f610044565b610188565b600054610100900460ff168061005d575060005460ff16155b6100825760405162461bcd60e51b81526004016100799061013a565b60405180910390fd5b600054610100900460ff161580156100ad576000805460ff1961ff0019909116610100171660011790555b6000805462010000600160b01b0319163362010000810291909117909155600180546001600160a01b03191690556040517fbce074c8369e26e70e1ae2f14fc944da352cfe6f52e2de9572f0c9942a24b7fc9161010991610126565b60405180910390a18015610123576000805461ff00191690555b50565b6001600160a01b0391909116815260200190565b6020808252602e908201527f496e697469616c697a61626c653a20636f6e747261637420697320616c72656160408201526d191e481a5b9a5d1a585b1a5e995960921b606082015260800190565b611234806101976000396000f3fe608060405234801561001057600080fd5b50600436106100ca5760003560e01c8063bc5da4a81161007c578063bc5da4a814610163578063d66e6dd31461016b578063d87053651461017e578063e11ca34514610191578063e3056a34146101a4578063e58bb639146101ac578063f235757f146101b4576100ca565b80630c340a24146100cf57806313b4b912146100ed57806315bbf486146101025780637a8ee0d114610115578063ab9aadfe14610128578063ad5c464814610148578063ae23e6c714610150575b600080fd5b6100d76101c7565b6040516100e49190610e66565b60405180910390f35b6101006100fb366004610dca565b6101dc565b005b610100610110366004610d3a565b610365565b610100610123366004610d61565b6103eb565b61013b610136366004610d3a565b610597565b6040516100e4919061105a565b6100d7610977565b61013b61015e366004610d3a565b61098f565b6100d76109a1565b6100d7610179366004610d3a565b6109b0565b61010061018c366004610d61565b6109cb565b6100d761019f366004610d3a565b610b77565b6100d7610b92565b610100610ba1565b6101006101c2366004610d3a565b610c31565b6000546201000090046001600160a01b031681565b6000546201000090046001600160a01b031633146102155760405162461bcd60e51b815260040161020c90610f43565b60405180910390fd5b8281146102345760405162461bcd60e51b815260040161020c90610f9d565b60005b8381101561035e5782828281811061025f57634e487b7160e01b600052603260045260246000fd5b905060200201356045600087878581811061028a57634e487b7160e01b600052603260045260246000fd5b905060200201602081019061029f9190610d3a565b6001600160a01b031681526020810191909152604001600020557f5fe358b614d2e3423b34c6ee8a708b2784b1d624ebe8376e9154e9154667aea98585838181106102fa57634e487b7160e01b600052603260045260246000fd5b905060200201602081019061030f9190610d3a565b84848481811061032f57634e487b7160e01b600052603260045260246000fd5b90506020020135604051610344929190610e94565b60405180910390a180610356816111cd565b915050610237565b5050505050565b6000546201000090046001600160a01b031633146103955760405162461bcd60e51b815260040161020c90610f43565b604280546001600160a01b0319166001600160a01b0383161790556040517f43615bc2ab4aade0e9b2548b58f57efef1a52d6edab989c0a31da40736221fef906103e0908390610e66565b60405180910390a150565b6000546201000090046001600160a01b0316331461041b5760405162461bcd60e51b815260040161020c90610f43565b82811461043a5760405162461bcd60e51b815260040161020c90610fe1565b60005b8381101561035e5782828281811061046557634e487b7160e01b600052603260045260246000fd5b905060200201602081019061047a9190610d3a565b6044600087878581811061049e57634e487b7160e01b600052603260045260246000fd5b90506020020160208101906104b39190610d3a565b6001600160a01b039081168252602082019290925260400160002080546001600160a01b031916929091169190911790557f46bbbfcfc64c70ad5e1c16de2a245567c8c7590478fe1c4b9a2e3e2ab80b51cf85858381811061052557634e487b7160e01b600052603260045260246000fd5b905060200201602081019061053a9190610d3a565b84848481811061055a57634e487b7160e01b600052603260045260246000fd5b905060200201602081019061056f9190610d3a565b60405161057d929190610e7a565b60405180910390a18061058f816111cd565b91505061043d565b60006001600160a01b038216734dfae612aacb5b448c12a591cd0879bfa2e51d6214806105e0575073eeeeeeeeeeeeeeeeeeeeeeeeeeeeeeeeeeeeeeee6001600160a01b038316145b156105f05750600160701b610972565b6000826001600160a01b031663313ce5676040518163ffffffff1660e01b815260040160206040518083038186803b15801561062b57600080fd5b505afa15801561063f573d6000803e3d6000fd5b505050506040513d601f19601f820116820180604052508101906106639190610e45565b6001600160a01b03841660009081526045602052604090205460ff919091169150806106a15760405162461bcd60e51b815260040161020c90610f6d565b6001600160a01b0380851660009081526043602052604090205416801561079d57600080826001600160a01b031663feaf968c6040518163ffffffff1660e01b815260040160a06040518083038186803b1580156106fe57600080fd5b505afa158015610712573d6000803e3d6000fd5b505050506040513d601f19601f820116820180604052508101906107369190610df6565b509350509250506107508442610cac90919063ffffffff16565b81101561076f5760405162461bcd60e51b815260040161020c90610f16565b61079161077d86600a6110c9565b61078b84600160701b610cbf565b90610ccb565b95505050505050610972565b6001600160a01b0380861660009081526044602052604090205416801561095a57600080826001600160a01b031663feaf968c6040518163ffffffff1660e01b815260040160a06040518083038186803b1580156107fa57600080fd5b505afa15801561080e573d6000803e3d6000fd5b505050506040513d601f19601f820116820180604052508101906108329190610df6565b5093505092505061084c8542610cac90919063ffffffff16565b81101561086b5760405162461bcd60e51b815260040161020c90610f16565b600080604260009054906101000a90046001600160a01b03166001600160a01b031663feaf968c6040518163ffffffff1660e01b815260040160a06040518083038186803b1580156108bc57600080fd5b505afa1580156108d0573d6000803e3d6000fd5b505050506040513d601f19601f820116820180604052508101906108f49190610df6565b5093505092505061090e8742610cac90919063ffffffff16565b81101561092d5760405162461bcd60e51b815260040161020c90610ead565b61094b61093b89600a6110c9565b61078b848188600160701b610cbf565b98505050505050505050610972565b60405162461bcd60e51b815260040161020c90611018565b919050565b734dfae612aacb5b448c12a591cd0879bfa2e51d6281565b60456020526000908152604090205481565b6042546001600160a01b031681565b6043602052600090815260409020546001600160a01b031681565b6000546201000090046001600160a01b031633146109fb5760405162461bcd60e51b815260040161020c90610f43565b828114610a1a5760405162461bcd60e51b815260040161020c90610fe1565b60005b8381101561035e57828282818110610a4557634e487b7160e01b600052603260045260246000fd5b9050602002016020810190610a5a9190610d3a565b60436000878785818110610a7e57634e487b7160e01b600052603260045260246000fd5b9050602002016020810190610a939190610d3a565b6001600160a01b039081168252602082019290925260400160002080546001600160a01b031916929091169190911790557f51cebb267ae585eca2addd0058e2ebe47f31057e50eeb80feedde090622f1e88858583818110610b0557634e487b7160e01b600052603260045260246000fd5b9050602002016020810190610b1a9190610d3a565b848484818110610b3a57634e487b7160e01b600052603260045260246000fd5b9050602002016020810190610b4f9190610d3a565b604051610b5d929190610e7a565b60405180910390a180610b6f816111cd565b915050610a1d565b6044602052600090815260409020546001600160a01b031681565b6001546001600160a01b031681565b6001546001600160a01b03163314610bcb5760405162461bcd60e51b815260040161020c90610ee4565b600180546001600160a01b03191690556000805462010000600160b01b03191633620100008102919091179091556040517fd345d81ce68c70b119a17eee79dc1421700bd9cb21ca148a62dc90983964e82f91610c2791610e66565b60405180910390a1565b6000546201000090046001600160a01b03163314610c615760405162461bcd60e51b815260040161020c90610f43565b600180546001600160a01b0319166001600160a01b0383161790556040517f964dea888b00b2ab53f13dfe7ca334b46e99338c222ae232d98547a1da019f60906103e0908390610e66565b6000610cb882846111b6565b9392505050565b6000610cb88284611197565b6000610cb88284611063565b60008083601f840112610ce8578182fd5b50813567ffffffffffffffff811115610cff578182fd5b6020830191508360208083028501011115610d1957600080fd5b9250929050565b805169ffffffffffffffffffff8116811461097257600080fd5b600060208284031215610d4b578081fd5b81356001600160a01b0381168114610cb8578182fd5b60008060008060408587031215610d76578283fd5b843567ffffffffffffffff80821115610d8d578485fd5b610d9988838901610cd7565b90965094506020870135915080821115610db1578384fd5b50610dbe87828801610cd7565b95989497509550505050565b60008060008060408587031215610ddf578384fd5b843567ffffffffffffffff80821115610d8d578586fd5b600080600080600060a08688031215610e0d578081fd5b610e1686610d20565b9450602086015193506040860151925060608601519150610e3960808701610d20565b90509295509295909350565b600060208284031215610e56578081fd5b815160ff81168114610cb8578182fd5b6001600160a01b0391909116815260200190565b6001600160a01b0392831681529116602082015260400190565b6001600160a01b03929092168252602082015260400190565b6020808252601b908201527f64656c61796564206574682d757364207570646174652074696d650000000000604082015260600190565b6020808252601890820152773737ba103a3432903832b73234b7339033b7bb32b93737b960411b604082015260600190565b60208082526013908201527264656c61796564207570646174652074696d6560681b604082015260600190565b60208082526010908201526f3737ba103a34329033b7bb32b93737b960811b604082015260600190565b6020808252601690820152751b585e0819195b185e481d1a5b59481b9bdd081cd95d60521b604082015260600190565b60208082526024908201527f746f6b656e732026206d617844656c617973206c656e677468206d69736d617460408201526318da195960e21b606082015260800190565b6020808252601f908201527f746f6b656e7320262072656673206c656e677468206d69736d61746368656400604082015260600190565b60208082526022908201527f6e6f2076616c6964207072696365207265666572656e636520666f7220746f6b60408201526132b760f11b606082015260800190565b90815260200190565b60008261107e57634e487b7160e01b81526012600452602481fd5b500490565b80825b600180861161109557506110c0565b8187048211156110a7576110a76111e8565b808616156110b457918102915b9490941c938002611086565b94509492505050565b6000610cb860001984846000826110e257506001610cb8565b816110ef57506000610cb8565b8160018114611105576002811461110f5761113c565b6001915050610cb8565b60ff841115611120576111206111e8565b6001841b915084821115611136576111366111e8565b50610cb8565b5060208310610133831016604e8410600b841016171561116f575081810a8381111561116a5761116a6111e8565b610cb8565b61117c8484846001611083565b80860482111561118e5761118e6111e8565b02949350505050565b60008160001904831182151516156111b1576111b16111e8565b500290565b6000828210156111c8576111c86111e8565b500390565b60006000198214156111e1576111e16111e8565b5060010190565b634e487b7160e01b600052601160045260246000fdfea2646970667358221220ceee168e7839942b31c2fd1bb2620b742f6c15ea47c61f7d5f73bd5936a7f7ad64736f6c63430008000033",
  "linkReferences": {},
  "deployedLinkReferences": {}
}