{
  "_format": "hh-sol-artifact-1",
  "contractName": "MockCErc20",
  "sourceName": "contracts/mock/MockCErc20.sol",
  "abi": [
    {
      "inputs": [
        {
          "internalType": "contract IERC20",
          "name": "_token",
          "type": "address"
        }
      ],
      "stateMutability": "nonpayable",
      "type": "constructor"
    },
    {
      "inputs": [
        {
          "internalType": "address",
          "name": "user",
          "type": "address"
        }
      ],
      "name": "balanceOf",
      "outputs": [
        {
          "internalType": "uint256",
          "name": "",
          "type": "uint256"
        }
      ],
      "stateMutability": "view",
      "type": "function"
    },
    {
      "inputs": [
        {
          "internalType": "uint256",
          "name": "borrowAmount",
          "type": "uint256"
        }
      ],
      "name": "borrow",
      "outputs": [
        {
          "internalType": "uint256",
          "name": "",
          "type": "uint256"
        }
      ],
      "stateMutability": "nonpayable",
      "type": "function"
    },
    {
      "inputs": [
        {
          "internalType": "address",
          "name": "account",
          "type": "address"
        }
      ],
      "name": "borrowBalanceCurrent",
      "outputs": [
        {
          "internalType": "uint256",
          "name": "",
          "type": "uint256"
        }
      ],
      "stateMutability": "nonpayable",
      "type": "function"
    },
    {
      "inputs": [
        {
          "internalType": "address",
          "name": "account",
          "type": "address"
        }
      ],
      "name": "borrowBalanceStored",
      "outputs": [
        {
          "internalType": "uint256",
          "name": "",
          "type": "uint256"
        }
      ],
      "stateMutability": "view",
      "type": "function"
    },
    {
      "inputs": [
        {
          "internalType": "address",
          "name": "",
          "type": "address"
        }
      ],
      "name": "borrows",
      "outputs": [
        {
          "internalType": "uint256",
          "name": "",
          "type": "uint256"
        }
      ],
      "stateMutability": "view",
      "type": "function"
    },
    {
      "inputs": [],
      "name": "decimals",
      "outputs": [
        {
          "internalType": "uint8",
          "name": "",
          "type": "uint8"
        }
      ],
      "stateMutability": "nonpayable",
      "type": "function"
    },
    {
      "inputs": [],
      "name": "interestPerYear",
      "outputs": [
        {
          "internalType": "uint256",
          "name": "",
          "type": "uint256"
        }
      ],
      "stateMutability": "view",
      "type": "function"
    },
    {
      "inputs": [
        {
          "internalType": "address",
          "name": "",
          "type": "address"
        }
      ],
      "name": "lastBlock",
      "outputs": [
        {
          "internalType": "uint256",
          "name": "",
          "type": "uint256"
        }
      ],
      "stateMutability": "view",
      "type": "function"
    },
    {
      "inputs": [
        {
          "internalType": "uint256",
          "name": "mintAmount",
          "type": "uint256"
        }
      ],
      "name": "mint",
      "outputs": [
        {
          "internalType": "uint256",
          "name": "",
          "type": "uint256"
        }
      ],
      "stateMutability": "nonpayable",
      "type": "function"
    },
    {
      "inputs": [
        {
          "internalType": "uint256",
          "name": "redeemTokens",
          "type": "uint256"
        }
      ],
      "name": "redeem",
      "outputs": [
        {
          "internalType": "uint256",
          "name": "",
          "type": "uint256"
        }
      ],
      "stateMutability": "nonpayable",
      "type": "function"
    },
    {
      "inputs": [
        {
          "internalType": "uint256",
          "name": "repayAmount",
          "type": "uint256"
        }
      ],
      "name": "repayBorrow",
      "outputs": [
        {
          "internalType": "uint256",
          "name": "",
          "type": "uint256"
        }
      ],
      "stateMutability": "nonpayable",
      "type": "function"
    },
    {
      "inputs": [],
      "name": "token",
      "outputs": [
        {
          "internalType": "contract IERC20",
          "name": "",
          "type": "address"
        }
      ],
      "stateMutability": "view",
      "type": "function"
    },
    {
      "inputs": [],
      "name": "underlying",
      "outputs": [
        {
          "internalType": "address",
          "name": "",
          "type": "address"
        }
      ],
      "stateMutability": "nonpayable",
      "type": "function"
    }
  ],
  "bytecode": "0x608060405267016345785d8a000060015534801561001c57600080fd5b506040516106d43803806106d483398101604081905261003b91610060565b600080546001600160a01b0319166001600160a01b039290921691909117905561008e565b600060208284031215610071578081fd5b81516001600160a01b0381168114610087578182fd5b9392505050565b6106378061009d6000396000f3fe608060405234801561001057600080fd5b50600436106100bf5760003560e01c806370a082311161007c57806370a0823114610145578063952ca92c1461015857806395dd91931461016b578063a0712d681461017e578063c5ebeaec1461018c578063db006a751461017e578063fc0c546a1461019f576100bf565b80630e752702146100c457806317bfdfbc146100ed578063313ce5671461010057806354a5706f146101155780635c3efd2f146101285780636f307dc314610130575b600080fd5b6100d76100d23660046104fd565b6101a7565b6040516100e49190610566565b60405180910390f35b6100d76100fb3660046104b6565b61026d565b610108610366565b6040516100e4919061056f565b6100d76101233660046104b6565b61036b565b6100d761037d565b610138610383565b6040516100e49190610515565b6100d76101533660046104b6565b610392565b6100d76101663660046104b6565b610398565b6100d76101793660046104b6565b6103aa565b6100d76101533660046104fd565b6100d761019a3660046104fd565b6103c5565b610138610470565b60006101b23361026d565b506000546040516323b872dd60e01b81526001600160a01b03909116906323b872dd906101e790339030908790600401610529565b602060405180830381600087803b15801561020157600080fd5b505af1158015610215573d6000803e3d6000fd5b505050506040513d601f19601f8201168201806040525081019061023991906104dd565b5033600090815260026020526040902054610254908361047f565b3360009081526002602052604081209190915592915050565b6001600160a01b038116600090815260036020526040812054819061029290426105d4565b905080156103495760006102fa6301e133806102ee846102f4670de0b6b3a76400006102ee600154600260008d6001600160a01b03166001600160a01b031681526020019081526020016000205461049290919063ffffffff16565b9061049e565b90610492565b6001600160a01b03851660009081526002602052604090205490915061032090826104aa565b6001600160a01b0385166000908152600260209081526040808320939093556003905220429055505b50506001600160a01b031660009081526002602052604090205490565b600890565b60026020526000908152604090205481565b60015481565b6000546001600160a01b031690565b50600090565b60036020526000908152604090205481565b6001600160a01b031660009081526002602052604090205490565b60006103d03361026d565b5060005460405163a9059cbb60e01b81526001600160a01b039091169063a9059cbb90610403903390869060040161054d565b602060405180830381600087803b15801561041d57600080fd5b505af1158015610431573d6000803e3d6000fd5b505050506040513d601f19601f8201168201806040525081019061045591906104dd565b503360009081526002602052604090205461025490836104aa565b6000546001600160a01b031681565b600061048b82846105d4565b9392505050565b600061048b82846105b5565b600061048b8284610595565b600061048b828461057d565b6000602082840312156104c7578081fd5b81356001600160a01b038116811461048b578182fd5b6000602082840312156104ee578081fd5b8151801515811461048b578182fd5b60006020828403121561050e578081fd5b5035919050565b6001600160a01b0391909116815260200190565b6001600160a01b039384168152919092166020820152604081019190915260600190565b6001600160a01b03929092168252602082015260400190565b90815260200190565b60ff91909116815260200190565b60008219821115610590576105906105eb565b500190565b6000826105b057634e487b7160e01b81526012600452602481fd5b500490565b60008160001904831182151516156105cf576105cf6105eb565b500290565b6000828210156105e6576105e66105eb565b500390565b634e487b7160e01b600052601160045260246000fdfea2646970667358221220ead0ecc4bed3cc6218ce0ed582f89680c8c82b7437a7b49fcb620a628b2b1b2264736f6c63430008000033",
  "linkReferences": {},
  "deployedLinkReferences": {}
}