{
  "_format": "hh-sol-artifact-1",
  "contractName": "WLiquidityGauge",
  "sourceName": "contracts/wrapper/WLiquidityGauge.sol",
  "abi": [
    {
      "inputs": [
        {
          "internalType": "contract ICurveRegistry",
          "name": "_registry",
          "type": "address"
        },
        {
          "internalType": "contract IERC20",
          "name": "_crv",
          "type": "address"
        }
      ],
      "stateMutability": "nonpayable",
      "type": "constructor"
    },
    {
      "anonymous": false,
      "inputs": [
        {
          "indexed": false,
          "internalType": "address",
          "name": "governor",
          "type": "address"
        }
      ],
      "name": "AcceptGovernor",
      "type": "event"
    },
    {
      "anonymous": false,
      "inputs": [
        {
          "indexed": true,
          "internalType": "address",
          "name": "account",
          "type": "address"
        },
        {
          "indexed": true,
          "internalType": "address",
          "name": "operator",
          "type": "address"
        },
        {
          "indexed": false,
          "internalType": "bool",
          "name": "approved",
          "type": "bool"
        }
      ],
      "name": "ApprovalForAll",
      "type": "event"
    },
    {
      "anonymous": false,
      "inputs": [
        {
          "indexed": false,
          "internalType": "address",
          "name": "governor",
          "type": "address"
        }
      ],
      "name": "SetGovernor",
      "type": "event"
    },
    {
      "anonymous": false,
      "inputs": [
        {
          "indexed": false,
          "internalType": "address",
          "name": "pendingGovernor",
          "type": "address"
        }
      ],
      "name": "SetPendingGovernor",
      "type": "event"
    },
    {
      "anonymous": false,
      "inputs": [
        {
          "indexed": true,
          "internalType": "address",
          "name": "operator",
          "type": "address"
        },
        {
          "indexed": true,
          "internalType": "address",
          "name": "from",
          "type": "address"
        },
        {
          "indexed": true,
          "internalType": "address",
          "name": "to",
          "type": "address"
        },
        {
          "indexed": false,
          "internalType": "uint256[]",
          "name": "ids",
          "type": "uint256[]"
        },
        {
          "indexed": false,
          "internalType": "uint256[]",
          "name": "values",
          "type": "uint256[]"
        }
      ],
      "name": "TransferBatch",
      "type": "event"
    },
    {
      "anonymous": false,
      "inputs": [
        {
          "indexed": true,
          "internalType": "address",
          "name": "operator",
          "type": "address"
        },
        {
          "indexed": true,
          "internalType": "address",
          "name": "from",
          "type": "address"
        },
        {
          "indexed": true,
          "internalType": "address",
          "name": "to",
          "type": "address"
        },
        {
          "indexed": false,
          "internalType": "uint256",
          "name": "id",
          "type": "uint256"
        },
        {
          "indexed": false,
          "internalType": "uint256",
          "name": "value",
          "type": "uint256"
        }
      ],
      "name": "TransferSingle",
      "type": "event"
    },
    {
      "anonymous": false,
      "inputs": [
        {
          "indexed": false,
          "internalType": "string",
          "name": "value",
          "type": "string"
        },
        {
          "indexed": true,
          "internalType": "uint256",
          "name": "id",
          "type": "uint256"
        }
      ],
      "name": "URI",
      "type": "event"
    },
    {
      "inputs": [],
      "name": "acceptGovernor",
      "outputs": [],
      "stateMutability": "nonpayable",
      "type": "function"
    },
    {
      "inputs": [
        {
          "internalType": "address",
          "name": "account",
          "type": "address"
        },
        {
          "internalType": "uint256",
          "name": "id",
          "type": "uint256"
        }
      ],
      "name": "balanceOf",
      "outputs": [
        {
          "internalType": "uint256",
          "name": "",
          "type": "uint256"
        }
      ],
      "stateMutability": "view",
      "type": "function"
    },
    {
      "inputs": [
        {
          "internalType": "address[]",
          "name": "accounts",
          "type": "address[]"
        },
        {
          "internalType": "uint256[]",
          "name": "ids",
          "type": "uint256[]"
        }
      ],
      "name": "balanceOfBatch",
      "outputs": [
        {
          "internalType": "uint256[]",
          "name": "",
          "type": "uint256[]"
        }
      ],
      "stateMutability": "view",
      "type": "function"
    },
    {
      "inputs": [
        {
          "internalType": "uint256",
          "name": "id",
          "type": "uint256"
        },
        {
          "internalType": "uint256",
          "name": "amount",
          "type": "uint256"
        }
      ],
      "name": "burn",
      "outputs": [
        {
          "internalType": "uint256",
          "name": "",
          "type": "uint256"
        }
      ],
      "stateMutability": "nonpayable",
      "type": "function"
    },
    {
      "inputs": [],
      "name": "crv",
      "outputs": [
        {
          "internalType": "contract IERC20",
          "name": "",
          "type": "address"
        }
      ],
      "stateMutability": "view",
      "type": "function"
    },
    {
      "inputs": [
        {
          "internalType": "uint256",
          "name": "id",
          "type": "uint256"
        }
      ],
      "name": "decodeId",
      "outputs": [
        {
          "internalType": "uint256",
          "name": "pid",
          "type": "uint256"
        },
        {
          "internalType": "uint256",
          "name": "gid",
          "type": "uint256"
        },
        {
          "internalType": "uint256",
          "name": "crvPerShare",
          "type": "uint256"
        }
      ],
      "stateMutability": "pure",
      "type": "function"
    },
    {
      "inputs": [
        {
          "internalType": "uint256",
          "name": "pid",
          "type": "uint256"
        },
        {
          "internalType": "uint256",
          "name": "gid",
          "type": "uint256"
        },
        {
          "internalType": "uint256",
          "name": "crvPerShare",
          "type": "uint256"
        }
      ],
      "name": "encodeId",
      "outputs": [
        {
          "internalType": "uint256",
          "name": "",
          "type": "uint256"
        }
      ],
      "stateMutability": "pure",
      "type": "function"
    },
    {
      "inputs": [
        {
          "internalType": "uint256",
          "name": "",
          "type": "uint256"
        },
        {
          "internalType": "uint256",
          "name": "",
          "type": "uint256"
        }
      ],
      "name": "gauges",
      "outputs": [
        {
          "internalType": "contract ILiquidityGauge",
          "name": "impl",
          "type": "address"
        },
        {
          "internalType": "uint256",
          "name": "accCrvPerShare",
          "type": "uint256"
        }
      ],
      "stateMutability": "view",
      "type": "function"
    },
    {
      "inputs": [
        {
          "internalType": "uint256",
          "name": "",
          "type": "uint256"
        }
      ],
      "name": "getUnderlyingRate",
      "outputs": [
        {
          "internalType": "uint256",
          "name": "",
          "type": "uint256"
        }
      ],
      "stateMutability": "view",
      "type": "function"
    },
    {
      "inputs": [
        {
          "internalType": "uint256",
          "name": "id",
          "type": "uint256"
        }
      ],
      "name": "getUnderlyingToken",
      "outputs": [
        {
          "internalType": "address",
          "name": "",
          "type": "address"
        }
      ],
      "stateMutability": "view",
      "type": "function"
    },
    {
      "inputs": [
        {
          "internalType": "uint256",
          "name": "pid",
          "type": "uint256"
        },
        {
          "internalType": "uint256",
          "name": "gid",
          "type": "uint256"
        }
      ],
      "name": "getUnderlyingTokenFromIds",
      "outputs": [
        {
          "internalType": "address",
          "name": "",
          "type": "address"
        }
      ],
      "stateMutability": "view",
      "type": "function"
    },
    {
      "inputs": [],
      "name": "governor",
      "outputs": [
        {
          "internalType": "address",
          "name": "",
          "type": "address"
        }
      ],
      "stateMutability": "view",
      "type": "function"
    },
    {
      "inputs": [
        {
          "internalType": "address",
          "name": "account",
          "type": "address"
        },
        {
          "internalType": "address",
          "name": "operator",
          "type": "address"
        }
      ],
      "name": "isApprovedForAll",
      "outputs": [
        {
          "internalType": "bool",
          "name": "",
          "type": "bool"
        }
      ],
      "stateMutability": "view",
      "type": "function"
    },
    {
      "inputs": [
        {
          "internalType": "uint256",
          "name": "pid",
          "type": "uint256"
        },
        {
          "internalType": "uint256",
          "name": "gid",
          "type": "uint256"
        },
        {
          "internalType": "uint256",
          "name": "amount",
          "type": "uint256"
        }
      ],
      "name": "mint",
      "outputs": [
        {
          "internalType": "uint256",
          "name": "",
          "type": "uint256"
        }
      ],
      "stateMutability": "nonpayable",
      "type": "function"
    },
    {
      "inputs": [],
      "name": "pendingGovernor",
      "outputs": [
        {
          "internalType": "address",
          "name": "",
          "type": "address"
        }
      ],
      "stateMutability": "view",
      "type": "function"
    },
    {
      "inputs": [
        {
          "internalType": "uint256",
          "name": "pid",
          "type": "uint256"
        },
        {
          "internalType": "uint256",
          "name": "gid",
          "type": "uint256"
        }
      ],
      "name": "registerGauge",
      "outputs": [],
      "stateMutability": "nonpayable",
      "type": "function"
    },
    {
      "inputs": [],
      "name": "registry",
      "outputs": [
        {
          "internalType": "contract ICurveRegistry",
          "name": "",
          "type": "address"
        }
      ],
      "stateMutability": "view",
      "type": "function"
    },
    {
      "inputs": [
        {
          "internalType": "address",
          "name": "from",
          "type": "address"
        },
        {
          "internalType": "address",
          "name": "to",
          "type": "address"
        },
        {
          "internalType": "uint256[]",
          "name": "ids",
          "type": "uint256[]"
        },
        {
          "internalType": "uint256[]",
          "name": "amounts",
          "type": "uint256[]"
        },
        {
          "internalType": "bytes",
          "name": "data",
          "type": "bytes"
        }
      ],
      "name": "safeBatchTransferFrom",
      "outputs": [],
      "stateMutability": "nonpayable",
      "type": "function"
    },
    {
      "inputs": [
        {
          "internalType": "address",
          "name": "from",
          "type": "address"
        },
        {
          "internalType": "address",
          "name": "to",
          "type": "address"
        },
        {
          "internalType": "uint256",
          "name": "id",
          "type": "uint256"
        },
        {
          "internalType": "uint256",
          "name": "amount",
          "type": "uint256"
        },
        {
          "internalType": "bytes",
          "name": "data",
          "type": "bytes"
        }
      ],
      "name": "safeTransferFrom",
      "outputs": [],
      "stateMutability": "nonpayable",
      "type": "function"
    },
    {
      "inputs": [
        {
          "internalType": "address",
          "name": "operator",
          "type": "address"
        },
        {
          "internalType": "bool",
          "name": "approved",
          "type": "bool"
        }
      ],
      "name": "setApprovalForAll",
      "outputs": [],
      "stateMutability": "nonpayable",
      "type": "function"
    },
    {
      "inputs": [
        {
          "internalType": "address",
          "name": "_pendingGovernor",
          "type": "address"
        }
      ],
      "name": "setPendingGovernor",
      "outputs": [],
      "stateMutability": "nonpayable",
      "type": "function"
    },
    {
      "inputs": [
        {
          "internalType": "bytes4",
          "name": "interfaceId",
          "type": "bytes4"
        }
      ],
      "name": "supportsInterface",
      "outputs": [
        {
          "internalType": "bool",
          "name": "",
          "type": "bool"
        }
      ],
      "stateMutability": "view",
      "type": "function"
    },
    {
      "inputs": [
        {
          "internalType": "uint256",
          "name": "",
          "type": "uint256"
        }
      ],
      "name": "uri",
      "outputs": [
        {
          "internalType": "string",
          "name": "",
          "type": "string"
        }
      ],
      "stateMutability": "view",
      "type": "function"
    }
  ],
  "bytecode": "0x60c06040523480156200001157600080fd5b50604051620032373803806200323783398101604081905262000034916200023d565b60408051808201909152600f81526e574c6971756964697479476175676560881b6020820152620000658162000094565b50600160035562000075620000ad565b6001600160601b0319606092831b8116608052911b1660a05262000330565b8051620000a990600290602084019062000197565b5050565b600454610100900460ff1680620000c7575060045460ff16155b620000ef5760405162461bcd60e51b8152600401620000e6906200028f565b60405180910390fd5b600454610100900460ff161580156200011b576004805460ff1961ff0019909116610100171660011790555b6004805462010000600160b01b0319163362010000810291909117909155600580546001600160a01b03191690556040517fbce074c8369e26e70e1ae2f14fc944da352cfe6f52e2de9572f0c9942a24b7fc9162000179916200027b565b60405180910390a1801562000194576004805461ff00191690555b50565b828054620001a590620002dd565b90600052602060002090601f016020900481019282620001c9576000855562000214565b82601f10620001e457805160ff191683800117855562000214565b8280016001018555821562000214579182015b8281111562000214578251825591602001919060010190620001f7565b506200022292915062000226565b5090565b5b8082111562000222576000815560010162000227565b6000806040838503121562000250578182fd5b82516200025d816200031a565b602084015190925062000270816200031a565b809150509250929050565b6001600160a01b0391909116815260200190565b6020808252602e908201527f496e697469616c697a61626c653a20636f6e747261637420697320616c72656160408201526d191e481a5b9a5d1a585b1a5e995960921b606082015260800190565b600281046001821680620002f257607f821691505b602082108114156200031457634e487b7160e01b600052602260045260246000fd5b50919050565b6001600160a01b03811681146200019457600080fd5b60805160601c60a05160601c612eb86200037f60003960008181610c3a015281816110280152818161126001526113d00152600081816106a2015281816107690152610c5e0152612eb86000f3fe608060405234801561001057600080fd5b506004361061014c5760003560e01c80637b103999116100c3578063dc20c6fa1161007c578063dc20c6fa146102cd578063e3056a34146102ef578063e58bb639146102f7578063e985e9c5146102ff578063f235757f14610312578063f242432a146103255761014c565b80637b10399914610266578063a22cb4651461026e578063a477577214610281578063a9b4e6fe14610294578063af8002df146102a7578063b390c0ab146102ba5761014c565b80631175e077116101155780631175e077146101e25780632eb2c2d6146101f75780634548ff841461020a5780634e1273f41461021d5780635a1994c41461023d5780636a4874a11461025e5761014c565b8062fdd58e1461015157806301ffc9a71461017a57806302acc94b1461019a5780630c340a24146101ad5780630e89341c146101c2575b600080fd5b61016461015f3660046121ac565b610338565b6040516101719190612be7565b60405180910390f35b61018d610188366004612350565b61038f565b60405161017191906125b0565b6101646101a83660046123d9565b6103d5565b6101b561056f565b6040516101719190612486565b6101d56101d0366004612388565b610584565b60405161017191906125bb565b6101f56101f03660046123b8565b610618565b005b6101f5610205366004612070565b610a0f565b6101646102183660046123d9565b610a6d565b61023061022b366004612275565b610ae9565b604051610171919061256f565b61025061024b3660046123b8565b610c08565b604051610171929190612556565b6101b5610c38565b6101b5610c5c565b6101f561027c36600461217f565b610c80565b6101b561028f366004612388565b610d4e565b6101b56102a23660046123b8565b610d73565b6101646102b5366004612388565b610e24565b6101646102c83660046123b8565b610e2d565b6102e06102db366004612388565b611062565b60405161017193929190612bfe565b6101b561107d565b6101f561108c565b61018d61030d366004612038565b61111c565b6101f5610320366004612000565b61114a565b6101f5610333366004612119565b6111d0565b60006001600160a01b0383166103695760405162461bcd60e51b81526004016103609061266a565b60405180910390fd5b506000908152602081815260408083206001600160a01b03949094168352929052205490565b60006001600160e01b03198216636cdb3d1360e11b14806103c057506001600160e01b031982166303a24d0760e21b145b806103cf57506103cf82611227565b92915050565b6000600260035414156103fa5760405162461bcd60e51b815260040161036090612bb0565b60026003556000848152604660209081526040808320868452909152902080546001600160a01b0316806104405760405162461bcd60e51b8152600401610360906129c5565b61044982611240565b6000816001600160a01b03166382c630666040518163ffffffff1660e01b815260040160206040518083038186803b15801561048457600080fd5b505afa158015610498573d6000803e3d6000fd5b505050506040513d601f19601f820116820180604052508101906104bc919061201c565b90506104d36001600160a01b03821633308861152d565b60405163b6b55f2560e01b81526001600160a01b0383169063b6b55f25906104ff908890600401612be7565b600060405180830381600087803b15801561051957600080fd5b505af115801561052d573d6000803e3d6000fd5b50505050600061054288888660010154610a6d565b905061055f3382886040518060200160405280600081525061158b565b6001600355979650505050505050565b6004546201000090046001600160a01b031681565b60606002805461059390612cfa565b80601f01602080910402602001604051908101604052809291908181526020018280546105bf90612cfa565b801561060c5780601f106105e15761010080835404028352916020019161060c565b820191906000526020600020905b8154815290600101906020018083116105ef57829003601f168201915b50505050509050919050565b6004546201000090046001600160a01b031633146106485760405162461bcd60e51b815260040161036090612855565b60008281526046602090815260408083208484529091529020546001600160a01b0316156106885760405162461bcd60e51b8152600401610360906127b6565b604051631d0eaec760e11b81526000906001600160a01b037f00000000000000000000000000000000000000000000000000000000000000001690633a1d5d8e906106d7908690600401612be7565b60206040518083038186803b1580156106ef57600080fd5b505afa158015610703573d6000803e3d6000fd5b505050506040513d601f19601f82011682018060405250810190610727919061201c565b90506001600160a01b03811661074f5760405162461bcd60e51b8152600401610360906126b5565b6040516356059ffb60e01b81526000906001600160a01b037f000000000000000000000000000000000000000000000000000000000000000016906356059ffb9061079e908590600401612486565b6102806040518083038186803b1580156107b757600080fd5b505afa1580156107cb573d6000803e3d6000fd5b505050506040513d601f19601f820116820180604052508101906107ef91906121d7565b50905060008184600a811061081457634e487b7160e01b600052603260045260246000fd5b602002015190506001600160a01b0381166108415760405162461bcd60e51b81526004016103609061287f565b6000816001600160a01b03166382c630666040518163ffffffff1660e01b815260040160206040518083038186803b15801561087c57600080fd5b505afa158015610890573d6000803e3d6000fd5b505050506040513d601f19601f820116820180604052508101906108b4919061201c565b60405163095ea7b360e01b81529091506001600160a01b0382169063095ea7b3906108e6908590600090600401612556565b602060405180830381600087803b15801561090057600080fd5b505af1158015610914573d6000803e3d6000fd5b505050506040513d601f19601f820116820180604052508101906109389190612334565b5060405163095ea7b360e01b81526001600160a01b0382169063095ea7b39061096990859060001990600401612556565b602060405180830381600087803b15801561098357600080fd5b505af1158015610997573d6000803e3d6000fd5b505050506040513d601f19601f820116820180604052508101906109bb9190612334565b50506040805180820182526001600160a01b0392831681526000602080830182815298825260468152838220978252969096529420935184546001600160a01b031916911617835550509051600190910155565b610a17611668565b6001600160a01b0316856001600160a01b03161480610a3d5750610a3d8561030d611668565b610a595760405162461bcd60e51b8152600401610360906128e6565b610a66858585858561166d565b5050505050565b60006104008410610a905760405162461bcd60e51b815260040161036090612795565b60408310610ab05760405162461bcd60e51b8152600401610360906129f3565b600160f01b8210610ad35760405162461bcd60e51b8152600401610360906127e4565b5060f683901b60f083901b1781175b9392505050565b60608151835114610b0c5760405162461bcd60e51b815260040161036090612ade565b600083516001600160401b03811115610b3557634e487b7160e01b600052604160045260246000fd5b604051908082528060200260200182016040528015610b5e578160200160208202803683370190505b50905060005b8451811015610c0057610bc5858281518110610b9057634e487b7160e01b600052603260045260246000fd5b6020026020010151858381518110610bb857634e487b7160e01b600052603260045260246000fd5b6020026020010151610338565b828281518110610be557634e487b7160e01b600052603260045260246000fd5b6020908102919091010152610bf981612d35565b9050610b64565b509392505050565b6046602090815260009283526040808420909152908252902080546001909101546001600160a01b039091169082565b7f000000000000000000000000000000000000000000000000000000000000000081565b7f000000000000000000000000000000000000000000000000000000000000000081565b816001600160a01b0316610c92611668565b6001600160a01b03161415610cb95760405162461bcd60e51b815260040161036090612a4b565b8060016000610cc6611668565b6001600160a01b03908116825260208083019390935260409182016000908120918716808252919093529120805460ff191692151592909217909155610d0a611668565b6001600160a01b03167f17307eab39ab6107e8899845ad3d59bd9653f200f220920489ca2b5937696c3183604051610d4291906125b0565b60405180910390a35050565b6000806000610d5c84611062565b5091509150610d6b8282610d73565b949350505050565b60008281526046602090815260408083208484529091528120546001600160a01b031680610db35760405162461bcd60e51b81526004016103609061287f565b806001600160a01b03166382c630666040518163ffffffff1660e01b815260040160206040518083038186803b158015610dec57600080fd5b505afa158015610e00573d6000803e3d6000fd5b505050506040513d601f19601f82011682018060405250810190610d6b919061201c565b50600160701b90565b600060026003541415610e525760405162461bcd60e51b815260040161036090612bb0565b6002600355600019821415610e6e57610e6b3384610338565b91505b6000806000610e7c86611062565b925092509250610e8d338787611836565b6000838152604660209081526040808320858452909152902080546001600160a01b031680610ece5760405162461bcd60e51b8152600401610360906129c5565b610ed782611240565b604051632e1a7d4d60e01b81526001600160a01b03821690632e1a7d4d90610f03908a90600401612be7565b600060405180830381600087803b158015610f1d57600080fd5b505af1158015610f31573d6000803e3d6000fd5b50505050610fbb3388836001600160a01b03166382c630666040518163ffffffff1660e01b815260040160206040518083038186803b158015610f7357600080fd5b505afa158015610f87573d6000803e3d6000fd5b505050506040513d601f19601f82011682018060405250810190610fab919061201c565b6001600160a01b03169190611933565b6000610fd9670de0b6b3a7640000610fd3868b611957565b90611963565b90506000611006670de0b6b3a76400006110008b876001015461195790919063ffffffff16565b90611985565b90508181111561104f5761104f3361101e8385611991565b6001600160a01b037f0000000000000000000000000000000000000000000000000000000000000000169190611933565b5050600160035550929695505050505050565b60f681901c91603f60f083901c16916001600160f01b031690565b6005546001600160a01b031681565b6005546001600160a01b031633146110b65760405162461bcd60e51b8152600401610360906126d6565b600580546001600160a01b03191690556004805462010000600160b01b03191633620100008102919091179091556040517fd345d81ce68c70b119a17eee79dc1421700bd9cb21ca148a62dc90983964e82f9161111291612486565b60405180910390a1565b6001600160a01b03918216600090815260016020908152604080832093909416825291909152205460ff1690565b6004546201000090046001600160a01b0316331461117a5760405162461bcd60e51b815260040161036090612855565b600580546001600160a01b0319166001600160a01b0383161790556040517f964dea888b00b2ab53f13dfe7ca334b46e99338c222ae232d98547a1da019f60906111c5908390612486565b60405180910390a150565b6111d8611668565b6001600160a01b0316856001600160a01b031614806111fe57506111fe8561030d611668565b61121a5760405162461bcd60e51b81526004016103609061274c565b610a66858585858561199d565b6001600160e01b031981166301ffc9a760e01b14919050565b80546040516370a0823160e01b81526001600160a01b03918216916000917f0000000000000000000000000000000000000000000000000000000000000000909116906370a0823190611297903090600401612486565b60206040518083038186803b1580156112af57600080fd5b505afa1580156112c3573d6000803e3d6000fd5b505050506040513d601f19601f820116820180604052508101906112e791906123a0565b9050816001600160a01b031663075461726040518163ffffffff1660e01b815260040160206040518083038186803b15801561132257600080fd5b505afa158015611336573d6000803e3d6000fd5b505050506040513d601f19601f8201168201806040525081019061135a919061201c565b6001600160a01b0316636a627842836040518263ffffffff1660e01b81526004016113859190612486565b600060405180830381600087803b15801561139f57600080fd5b505af11580156113b3573d6000803e3d6000fd5b50506040516370a0823160e01b8152600092506001600160a01b037f00000000000000000000000000000000000000000000000000000000000000001691506370a0823190611406903090600401612486565b60206040518083038186803b15801561141e57600080fd5b505afa158015611432573d6000803e3d6000fd5b505050506040513d601f19601f8201168201806040525081019061145691906123a0565b905060006114648284611991565b90506000846001600160a01b03166370a08231306040518263ffffffff1660e01b81526004016114949190612486565b60206040518083038186803b1580156114ac57600080fd5b505afa1580156114c0573d6000803e3d6000fd5b505050506040513d601f19601f820116820180604052508101906114e491906123a0565b90506000821180156114f65750600081115b156115255761151f6115148261100085670de0b6b3a7640000611957565b600188015490611abf565b60018701555b505050505050565b611585846323b872dd60e01b85858560405160240161154e939291906124f8565b60408051601f198184030181529190526020810180516001600160e01b03166001600160e01b031990931692909217909152611acb565b50505050565b6001600160a01b0384166115b15760405162461bcd60e51b815260040161036090612b6f565b60006115bb611668565b90506115dc816000876115cd88611b5a565b6115d688611b5a565b87611525565b6000848152602081815260408083206001600160a01b03891684529091528120805485929061160c908490612c60565b92505081905550846001600160a01b031660006001600160a01b0316826001600160a01b0316600080516020612e638339815191528787604051611651929190612bf0565b60405180910390a4610a6681600087878787611bb3565b335b90565b815183511461168e5760405162461bcd60e51b815260040161036090612b27565b6001600160a01b0384166116b45760405162461bcd60e51b8152600401610360906128a1565b60006116be611668565b90506116ce818787878787611525565b60005b84518110156117d05760008582815181106116fc57634e487b7160e01b600052603260045260246000fd5b60200260200101519050600085838151811061172857634e487b7160e01b600052603260045260246000fd5b602090810291909101810151600084815280835260408082206001600160a01b038e1683529093529190912054909150818110156117785760405162461bcd60e51b81526004016103609061297b565b6000838152602081815260408083206001600160a01b038e8116855292528083208585039055908b168252812080548492906117b5908490612c60565b92505081905550505050806117c990612d35565b90506116d1565b50846001600160a01b0316866001600160a01b0316826001600160a01b03167f4a39dc06d4c0dbc64b70af90fd698a233a518aa5d07e595d983b8c0526c8f7fb8787604051611820929190612582565b60405180910390a4611525818787878787611cc1565b6001600160a01b03831661185c5760405162461bcd60e51b815260040161036090612938565b6000611866611668565b90506118968185600061187887611b5a565b61188187611b5a565b60405180602001604052806000815250611525565b6000838152602081815260408083206001600160a01b0388168452909152902054828110156118d75760405162461bcd60e51b815260040161036090612708565b6000848152602081815260408083206001600160a01b03808a1680865291909352818420878603905590519091851690600080516020612e63833981519152906119249089908990612bf0565b60405180910390a45050505050565b6119528363a9059cbb60e01b848460405160240161154e929190612556565b505050565b6000610ae28284612c98565b60008161197b60016119758684611abf565b90611991565b610ae29190612c78565b6000610ae28284612c78565b6000610ae28284612cb7565b6001600160a01b0384166119c35760405162461bcd60e51b8152600401610360906128a1565b60006119cd611668565b90506119de8187876115cd88611b5a565b6000848152602081815260408083206001600160a01b038a16845290915290205483811015611a1f5760405162461bcd60e51b81526004016103609061297b565b6000858152602081815260408083206001600160a01b038b8116855292528083208785039055908816825281208054869290611a5c908490612c60565b92505081905550856001600160a01b0316876001600160a01b0316836001600160a01b0316600080516020612e638339815191528888604051611aa0929190612bf0565b60405180910390a4611ab6828888888888611bb3565b50505050505050565b6000610ae28284612c60565b6000611b20826040518060400160405280602081526020017f5361666545524332303a206c6f772d6c6576656c2063616c6c206661696c6564815250856001600160a01b0316611d929092919063ffffffff16565b8051909150156119525780806020019051810190611b3e9190612334565b6119525760405162461bcd60e51b815260040161036090612a94565b60408051600180825281830190925260609160009190602080830190803683370190505090508281600081518110611ba257634e487b7160e01b600052603260045260246000fd5b602090810291909101015292915050565b611bc5846001600160a01b0316611da1565b156115255760405163f23a6e6160e01b81526001600160a01b0385169063f23a6e6190611bfe908990899088908890889060040161251c565b602060405180830381600087803b158015611c1857600080fd5b505af1925050508015611c48575060408051601f3d908101601f19168201909252611c459181019061236c565b60015b611c9157611c54612d82565b80611c5f5750611c79565b8060405162461bcd60e51b815260040161036091906125bb565b60405162461bcd60e51b8152600401610360906125ce565b6001600160e01b0319811663f23a6e6160e01b14611ab65760405162461bcd60e51b815260040161036090612622565b611cd3846001600160a01b0316611da1565b156115255760405163bc197c8160e01b81526001600160a01b0385169063bc197c8190611d0c908990899088908890889060040161249a565b602060405180830381600087803b158015611d2657600080fd5b505af1925050508015611d56575060408051601f3d908101601f19168201909252611d539181019061236c565b60015b611d6257611c54612d82565b6001600160e01b0319811663bc197c8160e01b14611ab65760405162461bcd60e51b815260040161036090612622565b6060610d6b8484600085611da7565b3b151590565b606082471015611dc95760405162461bcd60e51b81526004016103609061280f565b611dd285611da1565b611dee5760405162461bcd60e51b815260040161036090612a14565b600080866001600160a01b03168587604051611e0a919061246a565b60006040518083038185875af1925050503d8060008114611e47576040519150601f19603f3d011682016040523d82523d6000602084013e611e4c565b606091505b5091509150611e5c828286611e67565b979650505050505050565b60608315611e76575081610ae2565b825115611e865782518084602001fd5b8160405162461bcd60e51b815260040161036091906125bb565b600082601f830112611eb0578081fd5b6040516101408082018281106001600160401b0382111715611ed457611ed4612d66565b6040528184828101871015611ee7578485fd5b8492505b600a831015611f1f5780516001600160801b0381168114611f0a578586fd5b82526001929092019160209182019101611eeb565b509195945050505050565b600082601f830112611f3a578081fd5b81356020611f4f611f4a83612c3d565b612c14565b8281528181019085830183850287018401881015611f6b578586fd5b855b85811015611f8957813584529284019290840190600101611f6d565b5090979650505050505050565b600082601f830112611fa6578081fd5b81356001600160401b03811115611fbf57611fbf612d66565b611fd2601f8201601f1916602001612c14565b818152846020838601011115611fe6578283fd5b816020850160208301379081016020019190915292915050565b600060208284031215612011578081fd5b8135610ae281612e26565b60006020828403121561202d578081fd5b8151610ae281612e26565b6000806040838503121561204a578081fd5b823561205581612e26565b9150602083013561206581612e26565b809150509250929050565b600080600080600060a08688031215612087578081fd5b853561209281612e26565b945060208601356120a281612e26565b935060408601356001600160401b03808211156120bd578283fd5b6120c989838a01611f2a565b945060608801359150808211156120de578283fd5b6120ea89838a01611f2a565b935060808801359150808211156120ff578283fd5b5061210c88828901611f96565b9150509295509295909350565b600080600080600060a08688031215612130578081fd5b853561213b81612e26565b9450602086013561214b81612e26565b9350604086013592506060860135915060808601356001600160401b03811115612173578182fd5b61210c88828901611f96565b60008060408385031215612191578182fd5b823561219c81612e26565b9150602083013561206581612e3e565b600080604083850312156121be578182fd5b82356121c981612e26565b946020939093013593505050565b60008061028083850312156121ea578182fd5b83601f8401126121f8578182fd5b6040516101408082018281106001600160401b038211171561221c5761221c612d66565b604052840181858783111561222f578586fd5b855b600a81101561225a57815161224581612e26565b83526020928301929190910190600101612231565b50505081935061226a8682611ea0565b925050509250929050565b60008060408385031215612287578182fd5b82356001600160401b038082111561229d578384fd5b818501915085601f8301126122b0578384fd5b813560206122c0611f4a83612c3d565b82815281810190858301838502870184018b10156122dc578889fd5b8896505b848710156123075780356122f381612e26565b8352600196909601959183019183016122e0565b509650508601359250508082111561231d578283fd5b5061232a85828601611f2a565b9150509250929050565b600060208284031215612345578081fd5b8151610ae281612e3e565b600060208284031215612361578081fd5b8135610ae281612e4c565b60006020828403121561237d578081fd5b8151610ae281612e4c565b600060208284031215612399578081fd5b5035919050565b6000602082840312156123b1578081fd5b5051919050565b600080604083850312156123ca578182fd5b50508035926020909101359150565b6000806000606084860312156123ed578081fd5b505081359360208301359350604090920135919050565b6000815180845260208085019450808401835b8381101561243357815187529582019590820190600101612417565b509495945050505050565b60008151808452612456816020860160208601612cce565b601f01601f19169290920160200192915050565b6000825161247c818460208701612cce565b9190910192915050565b6001600160a01b0391909116815260200190565b6001600160a01b0386811682528516602082015260a0604082018190526000906124c690830186612404565b82810360608401526124d88186612404565b905082810360808401526124ec818561243e565b98975050505050505050565b6001600160a01b039384168152919092166020820152604081019190915260600190565b6001600160a01b03868116825285166020820152604081018490526060810183905260a060808201819052600090611e5c9083018461243e565b6001600160a01b03929092168252602082015260400190565b600060208252610ae26020830184612404565b6000604082526125956040830185612404565b82810360208401526125a78185612404565b95945050505050565b901515815260200190565b600060208252610ae2602083018461243e565b60208082526034908201527f455243313135353a207472616e7366657220746f206e6f6e20455243313135356040820152732932b1b2b4bb32b91034b6b83632b6b2b73a32b960611b606082015260800190565b60208082526028908201527f455243313135353a204552433131353552656365697665722072656a656374656040820152676420746f6b656e7360c01b606082015260800190565b6020808252602b908201527f455243313135353a2062616c616e636520717565727920666f7220746865207a60408201526a65726f206164647265737360a81b606082015260800190565b6020808252600790820152661b9bc81c1bdbdb60ca1b604082015260600190565b6020808252601890820152773737ba103a3432903832b73234b7339033b7bb32b93737b960411b604082015260600190565b60208082526024908201527f455243313135353a206275726e20616d6f756e7420657863656564732062616c604082015263616e636560e01b606082015260800190565b60208082526029908201527f455243313135353a2063616c6c6572206973206e6f74206f776e6572206e6f7260408201526808185c1c1c9bdd995960ba1b606082015260800190565b602080825260079082015266189859081c1a5960ca1b604082015260600190565b602080825260149082015273676175676520616c72656164792065786973747360601b604082015260600190565b602080825260119082015270626164206372762070657220736861726560781b604082015260600190565b60208082526026908201527f416464726573733a20696e73756666696369656e742062616c616e636520666f6040820152651c8818d85b1b60d21b606082015260800190565b60208082526010908201526f3737ba103a34329033b7bb32b93737b960811b604082015260600190565b6020808252600890820152676e6f20676175676560c01b604082015260600190565b60208082526025908201527f455243313135353a207472616e7366657220746f20746865207a65726f206164604082015264647265737360d81b606082015260800190565b60208082526032908201527f455243313135353a207472616e736665722063616c6c6572206973206e6f74206040820152711bdddb995c881b9bdc88185c1c1c9bdd995960721b606082015260800190565b60208082526023908201527f455243313135353a206275726e2066726f6d20746865207a65726f206164647260408201526265737360e81b606082015260800190565b6020808252602a908201527f455243313135353a20696e73756666696369656e742062616c616e636520666f60408201526939103a3930b739b332b960b11b606082015260800190565b60208082526014908201527319d85d59d9481b9bdd081c9959da5cdd195c995960621b604082015260600190565b6020808252600790820152661898590819da5960ca1b604082015260600190565b6020808252601d908201527f416464726573733a2063616c6c20746f206e6f6e2d636f6e7472616374000000604082015260600190565b60208082526029908201527f455243313135353a2073657474696e6720617070726f76616c20737461747573604082015268103337b91039b2b63360b91b606082015260800190565b6020808252602a908201527f5361666545524332303a204552433230206f7065726174696f6e20646964206e6040820152691bdd081cdd58d8d9595960b21b606082015260800190565b60208082526029908201527f455243313135353a206163636f756e747320616e6420696473206c656e677468604082015268040dad2e6dac2e8c6d60bb1b606082015260800190565b60208082526028908201527f455243313135353a2069647320616e6420616d6f756e7473206c656e677468206040820152670dad2e6dac2e8c6d60c31b606082015260800190565b60208082526021908201527f455243313135353a206d696e7420746f20746865207a65726f206164647265736040820152607360f81b606082015260800190565b6020808252601f908201527f5265656e7472616e637947756172643a207265656e7472616e742063616c6c00604082015260600190565b90815260200190565b918252602082015260400190565b9283526020830191909152604082015260600190565b6040518181016001600160401b0381118282101715612c3557612c35612d66565b604052919050565b60006001600160401b03821115612c5657612c56612d66565b5060209081020190565b60008219821115612c7357612c73612d50565b500190565b600082612c9357634e487b7160e01b81526012600452602481fd5b500490565b6000816000190483118215151615612cb257612cb2612d50565b500290565b600082821015612cc957612cc9612d50565b500390565b60005b83811015612ce9578181015183820152602001612cd1565b838111156115855750506000910152565b600281046001821680612d0e57607f821691505b60208210811415612d2f57634e487b7160e01b600052602260045260246000fd5b50919050565b6000600019821415612d4957612d49612d50565b5060010190565b634e487b7160e01b600052601160045260246000fd5b634e487b7160e01b600052604160045260246000fd5b60e01c90565b600060443d1015612d925761166a565b600481823e6308c379a0612da68251612d7c565b14612db05761166a565b6040513d600319016004823e80513d6001600160401b038160248401118184111715612ddf575050505061166a565b82840192508251915080821115612df9575050505061166a565b503d83016020828401011115612e115750505061166a565b601f01601f1916810160200160405291505090565b6001600160a01b0381168114612e3b57600080fd5b50565b8015158114612e3b57600080fd5b6001600160e01b031981168114612e3b57600080fdfec3d58168c5ae7397731d063d5bbf3d657854427343f4c083240f7aacaa2d0f62a264697066735822122010c607a5ceb14584f644528e2b42fbfac953dc8ad571601eeaa6bb6ff39a2b9964736f6c63430008000033",
  "linkReferences": {},
  "deployedLinkReferences": {}
}