{
  "_format": "hh-sol-artifact-1",
  "contractName": "MockCErc20_2",
  "sourceName": "contracts/mock/MockCErc20_2.sol",
  "abi": [
    {
      "inputs": [
        {
          "internalType": "contract IERC20",
          "name": "_token",
          "type": "address"
        }
      ],
      "stateMutability": "nonpayable",
      "type": "constructor"
    },
    {
      "inputs": [
        {
          "internalType": "address",
          "name": "",
          "type": "address"
        }
      ],
      "name": "balanceOf",
      "outputs": [
        {
          "internalType": "uint256",
          "name": "",
          "type": "uint256"
        }
      ],
      "stateMutability": "view",
      "type": "function"
    },
    {
      "inputs": [
        {
          "internalType": "uint256",
          "name": "mintAmount",
          "type": "uint256"
        }
      ],
      "name": "mint",
      "outputs": [
        {
          "internalType": "uint256",
          "name": "",
          "type": "uint256"
        }
      ],
      "stateMutability": "nonpayable",
      "type": "function"
    },
    {
      "inputs": [],
      "name": "mintRate",
      "outputs": [
        {
          "internalType": "uint256",
          "name": "",
          "type": "uint256"
        }
      ],
      "stateMutability": "view",
      "type": "function"
    },
    {
      "inputs": [
        {
          "internalType": "uint256",
          "name": "redeemAmount",
          "type": "uint256"
        }
      ],
      "name": "redeem",
      "outputs": [
        {
          "internalType": "uint256",
          "name": "",
          "type": "uint256"
        }
      ],
      "stateMutability": "nonpayable",
      "type": "function"
    },
    {
      "inputs": [
        {
          "internalType": "uint256",
          "name": "_mintRate",
          "type": "uint256"
        }
      ],
      "name": "setMintRate",
      "outputs": [],
      "stateMutability": "nonpayable",
      "type": "function"
    },
    {
      "inputs": [],
      "name": "token",
      "outputs": [
        {
          "internalType": "contract IERC20",
          "name": "",
          "type": "address"
        }
      ],
      "stateMutability": "view",
      "type": "function"
    },
    {
      "inputs": [],
      "name": "totalSupply",
      "outputs": [
        {
          "internalType": "uint256",
          "name": "",
          "type": "uint256"
        }
      ],
      "stateMutability": "view",
      "type": "function"
    },
    {
      "inputs": [],
      "name": "underlying",
      "outputs": [
        {
          "internalType": "address",
          "name": "",
          "type": "address"
        }
      ],
      "stateMutability": "view",
      "type": "function"
    }
  ],
  "bytecode": "0x6080604052670de0b6b3a7640000600155600060025534801561002157600080fd5b506040516107fe3803806107fe83398101604081905261004091610065565b600080546001600160a01b0319166001600160a01b0392909216919091179055610093565b600060208284031215610076578081fd5b81516001600160a01b038116811461008c578182fd5b9392505050565b61075c806100a26000396000f3fe608060405234801561001057600080fd5b50600436106100785760003560e01c806318160ddd1461007d5780636f307dc31461009b57806370a08231146100b0578063a0712d68146100c3578063ca0dcf16146100d6578063db006a75146100de578063dbe2193f146100f1578063fc0c546a14610106575b600080fd5b61008561010e565b604051610092919061066d565b60405180910390f35b6100a3610114565b6040516100929190610522565b6100856100be3660046104a7565b610123565b6100856100d13660046104ee565b610135565b6100856101be565b6100856100ec3660046104ee565b6101c4565b6101046100ff3660046104ee565b61022c565b005b6100a3610231565b60025481565b6000546001600160a01b031690565b60036020526000908152604090205481565b60008061015f670de0b6b3a76400006101596001548661024090919063ffffffff16565b90610253565b60005490915061017a906001600160a01b031633308461025f565b60025461018790846102bd565b600255336000908152600360205260409020546101a490846102bd565b336000908152600360205260408120919091559392505050565b60015481565b6000806101e8600154610159670de0b6b3a76400008661024090919063ffffffff16565b600054909150610202906001600160a01b031633836102c9565b60025461020f90846102ed565b600255336000908152600360205260409020546101a490846102ed565b600155565b6000546001600160a01b031681565b600061024c82846106ae565b9392505050565b600061024c828461068e565b6102b7846323b872dd60e01b85858560405160240161028093929190610536565b60408051601f198184030181529190526020810180516001600160e01b03166001600160e01b0319909316929092179091526102f9565b50505050565b600061024c8284610676565b6102e88363a9059cbb60e01b848460405160240161028092919061055a565b505050565b600061024c82846106cd565b600061034e826040518060400160405280602081526020017f5361666545524332303a206c6f772d6c6576656c2063616c6c206661696c6564815250856001600160a01b03166103919092919063ffffffff16565b8051909150156102e8578080602001905181019061036c91906104ce565b6102e85760405162461bcd60e51b815260040161038890610623565b60405180910390fd5b60606103a084846000856103a8565b949350505050565b6060824710156103ca5760405162461bcd60e51b8152600401610388906105a6565b6103d385610468565b6103ef5760405162461bcd60e51b8152600401610388906105ec565b600080866001600160a01b0316858760405161040b9190610506565b60006040518083038185875af1925050503d8060008114610448576040519150601f19603f3d011682016040523d82523d6000602084013e61044d565b606091505b509150915061045d82828661046e565b979650505050505050565b3b151590565b6060831561047d57508161024c565b82511561048d5782518084602001fd5b8160405162461bcd60e51b81526004016103889190610573565b6000602082840312156104b8578081fd5b81356001600160a01b038116811461024c578182fd5b6000602082840312156104df578081fd5b8151801515811461024c578182fd5b6000602082840312156104ff578081fd5b5035919050565b600082516105188184602087016106e4565b9190910192915050565b6001600160a01b0391909116815260200190565b6001600160a01b039384168152919092166020820152604081019190915260600190565b6001600160a01b03929092168252602082015260400190565b60006020825282518060208401526105928160408501602087016106e4565b601f01601f19169190910160400192915050565b60208082526026908201527f416464726573733a20696e73756666696369656e742062616c616e636520666f6040820152651c8818d85b1b60d21b606082015260800190565b6020808252601d908201527f416464726573733a2063616c6c20746f206e6f6e2d636f6e7472616374000000604082015260600190565b6020808252602a908201527f5361666545524332303a204552433230206f7065726174696f6e20646964206e6040820152691bdd081cdd58d8d9595960b21b606082015260800190565b90815260200190565b6000821982111561068957610689610710565b500190565b6000826106a957634e487b7160e01b81526012600452602481fd5b500490565b60008160001904831182151516156106c8576106c8610710565b500290565b6000828210156106df576106df610710565b500390565b60005b838110156106ff5781810151838201526020016106e7565b838111156102b75750506000910152565b634e487b7160e01b600052601160045260246000fdfea26469706673582212200da8d6ec3510814691e9dd41dba373deeed44f619329a0277446b13b2a90985164736f6c63430008000033",
  "linkReferences": {},
  "deployedLinkReferences": {}
}