{
  "_format": "hh-sol-artifact-1",
  "contractName": "CurveSpellV1",
  "sourceName": "contracts/spell/CurveSpellV1.sol",
  "abi": [
    {
      "inputs": [
        {
          "internalType": "contract IBank",
          "name": "_bank",
          "type": "address"
        },
        {
          "internalType": "address",
          "name": "_werc20",
          "type": "address"
        },
        {
          "internalType": "address",
          "name": "_weth",
          "type": "address"
        },
        {
          "internalType": "address",
          "name": "_wgauge",
          "type": "address"
        }
      ],
      "stateMutability": "nonpayable",
      "type": "constructor"
    },
    {
      "anonymous": false,
      "inputs": [
        {
          "indexed": false,
          "internalType": "address",
          "name": "governor",
          "type": "address"
        }
      ],
      "name": "AcceptGovernor",
      "type": "event"
    },
    {
      "anonymous": false,
      "inputs": [
        {
          "indexed": false,
          "internalType": "address",
          "name": "governor",
          "type": "address"
        }
      ],
      "name": "SetGovernor",
      "type": "event"
    },
    {
      "anonymous": false,
      "inputs": [
        {
          "indexed": false,
          "internalType": "address",
          "name": "pendingGovernor",
          "type": "address"
        }
      ],
      "name": "SetPendingGovernor",
      "type": "event"
    },
    {
      "inputs": [],
      "name": "acceptGovernor",
      "outputs": [],
      "stateMutability": "nonpayable",
      "type": "function"
    },
    {
      "inputs": [
        {
          "internalType": "address",
          "name": "lp",
          "type": "address"
        },
        {
          "internalType": "uint256[2]",
          "name": "amtsUser",
          "type": "uint256[2]"
        },
        {
          "internalType": "uint256",
          "name": "amtLPUser",
          "type": "uint256"
        },
        {
          "internalType": "uint256[2]",
          "name": "amtsBorrow",
          "type": "uint256[2]"
        },
        {
          "internalType": "uint256",
          "name": "amtLPBorrow",
          "type": "uint256"
        },
        {
          "internalType": "uint256",
          "name": "minLPMint",
          "type": "uint256"
        },
        {
          "internalType": "uint256",
          "name": "pid",
          "type": "uint256"
        },
        {
          "internalType": "uint256",
          "name": "gid",
          "type": "uint256"
        }
      ],
      "name": "addLiquidity2",
      "outputs": [],
      "stateMutability": "nonpayable",
      "type": "function"
    },
    {
      "inputs": [
        {
          "internalType": "address",
          "name": "lp",
          "type": "address"
        },
        {
          "internalType": "uint256[3]",
          "name": "amtsUser",
          "type": "uint256[3]"
        },
        {
          "internalType": "uint256",
          "name": "amtLPUser",
          "type": "uint256"
        },
        {
          "internalType": "uint256[3]",
          "name": "amtsBorrow",
          "type": "uint256[3]"
        },
        {
          "internalType": "uint256",
          "name": "amtLPBorrow",
          "type": "uint256"
        },
        {
          "internalType": "uint256",
          "name": "minLPMint",
          "type": "uint256"
        },
        {
          "internalType": "uint256",
          "name": "pid",
          "type": "uint256"
        },
        {
          "internalType": "uint256",
          "name": "gid",
          "type": "uint256"
        }
      ],
      "name": "addLiquidity3",
      "outputs": [],
      "stateMutability": "nonpayable",
      "type": "function"
    },
    {
      "inputs": [
        {
          "internalType": "address",
          "name": "lp",
          "type": "address"
        },
        {
          "internalType": "uint256[4]",
          "name": "amtsUser",
          "type": "uint256[4]"
        },
        {
          "internalType": "uint256",
          "name": "amtLPUser",
          "type": "uint256"
        },
        {
          "internalType": "uint256[4]",
          "name": "amtsBorrow",
          "type": "uint256[4]"
        },
        {
          "internalType": "uint256",
          "name": "amtLPBorrow",
          "type": "uint256"
        },
        {
          "internalType": "uint256",
          "name": "minLPMint",
          "type": "uint256"
        },
        {
          "internalType": "uint256",
          "name": "pid",
          "type": "uint256"
        },
        {
          "internalType": "uint256",
          "name": "gid",
          "type": "uint256"
        }
      ],
      "name": "addLiquidity4",
      "outputs": [],
      "stateMutability": "nonpayable",
      "type": "function"
    },
    {
      "inputs": [
        {
          "internalType": "address",
          "name": "",
          "type": "address"
        },
        {
          "internalType": "address",
          "name": "",
          "type": "address"
        }
      ],
      "name": "approved",
      "outputs": [
        {
          "internalType": "bool",
          "name": "",
          "type": "bool"
        }
      ],
      "stateMutability": "view",
      "type": "function"
    },
    {
      "inputs": [],
      "name": "bank",
      "outputs": [
        {
          "internalType": "contract IBank",
          "name": "",
          "type": "address"
        }
      ],
      "stateMutability": "view",
      "type": "function"
    },
    {
      "inputs": [],
      "name": "crv",
      "outputs": [
        {
          "internalType": "address",
          "name": "",
          "type": "address"
        }
      ],
      "stateMutability": "view",
      "type": "function"
    },
    {
      "inputs": [
        {
          "internalType": "address",
          "name": "token",
          "type": "address"
        },
        {
          "internalType": "uint256",
          "name": "amount",
          "type": "uint256"
        }
      ],
      "name": "doPutCollateral",
      "outputs": [],
      "stateMutability": "nonpayable",
      "type": "function"
    },
    {
      "inputs": [
        {
          "internalType": "address",
          "name": "lp",
          "type": "address"
        },
        {
          "internalType": "uint256",
          "name": "n",
          "type": "uint256"
        }
      ],
      "name": "ensureApproveN",
      "outputs": [],
      "stateMutability": "nonpayable",
      "type": "function"
    },
    {
      "inputs": [
        {
          "internalType": "address",
          "name": "lp",
          "type": "address"
        }
      ],
      "name": "getPool",
      "outputs": [
        {
          "internalType": "address",
          "name": "",
          "type": "address"
        }
      ],
      "stateMutability": "nonpayable",
      "type": "function"
    },
    {
      "inputs": [],
      "name": "governor",
      "outputs": [
        {
          "internalType": "address",
          "name": "",
          "type": "address"
        }
      ],
      "stateMutability": "view",
      "type": "function"
    },
    {
      "inputs": [],
      "name": "harvest",
      "outputs": [],
      "stateMutability": "nonpayable",
      "type": "function"
    },
    {
      "inputs": [
        {
          "internalType": "address",
          "name": "",
          "type": "address"
        },
        {
          "internalType": "address",
          "name": "",
          "type": "address"
        },
        {
          "internalType": "uint256[]",
          "name": "",
          "type": "uint256[]"
        },
        {
          "internalType": "uint256[]",
          "name": "",
          "type": "uint256[]"
        },
        {
          "internalType": "bytes",
          "name": "",
          "type": "bytes"
        }
      ],
      "name": "onERC1155BatchReceived",
      "outputs": [
        {
          "internalType": "bytes4",
          "name": "",
          "type": "bytes4"
        }
      ],
      "stateMutability": "nonpayable",
      "type": "function"
    },
    {
      "inputs": [
        {
          "internalType": "address",
          "name": "",
          "type": "address"
        },
        {
          "internalType": "address",
          "name": "",
          "type": "address"
        },
        {
          "internalType": "uint256",
          "name": "",
          "type": "uint256"
        },
        {
          "internalType": "uint256",
          "name": "",
          "type": "uint256"
        },
        {
          "internalType": "bytes",
          "name": "",
          "type": "bytes"
        }
      ],
      "name": "onERC1155Received",
      "outputs": [
        {
          "internalType": "bytes4",
          "name": "",
          "type": "bytes4"
        }
      ],
      "stateMutability": "nonpayable",
      "type": "function"
    },
    {
      "inputs": [],
      "name": "pendingGovernor",
      "outputs": [
        {
          "internalType": "address",
          "name": "",
          "type": "address"
        }
      ],
      "stateMutability": "view",
      "type": "function"
    },
    {
      "inputs": [
        {
          "internalType": "address",
          "name": "",
          "type": "address"
        }
      ],
      "name": "poolOf",
      "outputs": [
        {
          "internalType": "address",
          "name": "",
          "type": "address"
        }
      ],
      "stateMutability": "view",
      "type": "function"
    },
    {
      "inputs": [],
      "name": "registry",
      "outputs": [
        {
          "internalType": "contract ICurveRegistry",
          "name": "",
          "type": "address"
        }
      ],
      "stateMutability": "view",
      "type": "function"
    },
    {
      "inputs": [
        {
          "internalType": "address",
          "name": "lp",
          "type": "address"
        },
        {
          "internalType": "uint256",
          "name": "amtLPTake",
          "type": "uint256"
        },
        {
          "internalType": "uint256",
          "name": "amtLPWithdraw",
          "type": "uint256"
        },
        {
          "internalType": "uint256[2]",
          "name": "amtsRepay",
          "type": "uint256[2]"
        },
        {
          "internalType": "uint256",
          "name": "amtLPRepay",
          "type": "uint256"
        },
        {
          "internalType": "uint256[2]",
          "name": "amtsMin",
          "type": "uint256[2]"
        }
      ],
      "name": "removeLiquidity2",
      "outputs": [],
      "stateMutability": "nonpayable",
      "type": "function"
    },
    {
      "inputs": [
        {
          "internalType": "address",
          "name": "lp",
          "type": "address"
        },
        {
          "internalType": "uint256",
          "name": "amtLPTake",
          "type": "uint256"
        },
        {
          "internalType": "uint256",
          "name": "amtLPWithdraw",
          "type": "uint256"
        },
        {
          "internalType": "uint256[3]",
          "name": "amtsRepay",
          "type": "uint256[3]"
        },
        {
          "internalType": "uint256",
          "name": "amtLPRepay",
          "type": "uint256"
        },
        {
          "internalType": "uint256[3]",
          "name": "amtsMin",
          "type": "uint256[3]"
        }
      ],
      "name": "removeLiquidity3",
      "outputs": [],
      "stateMutability": "nonpayable",
      "type": "function"
    },
    {
      "inputs": [
        {
          "internalType": "address",
          "name": "lp",
          "type": "address"
        },
        {
          "internalType": "uint256",
          "name": "amtLPTake",
          "type": "uint256"
        },
        {
          "internalType": "uint256",
          "name": "amtLPWithdraw",
          "type": "uint256"
        },
        {
          "internalType": "uint256[4]",
          "name": "amtsRepay",
          "type": "uint256[4]"
        },
        {
          "internalType": "uint256",
          "name": "amtLPRepay",
          "type": "uint256"
        },
        {
          "internalType": "uint256[4]",
          "name": "amtsMin",
          "type": "uint256[4]"
        }
      ],
      "name": "removeLiquidity4",
      "outputs": [],
      "stateMutability": "nonpayable",
      "type": "function"
    },
    {
      "inputs": [
        {
          "internalType": "address",
          "name": "_pendingGovernor",
          "type": "address"
        }
      ],
      "name": "setPendingGovernor",
      "outputs": [],
      "stateMutability": "nonpayable",
      "type": "function"
    },
    {
      "inputs": [
        {
          "internalType": "address[]",
          "name": "lpTokens",
          "type": "address[]"
        },
        {
          "internalType": "bool[]",
          "name": "statuses",
          "type": "bool[]"
        }
      ],
      "name": "setWhitelistLPTokens",
      "outputs": [],
      "stateMutability": "nonpayable",
      "type": "function"
    },
    {
      "inputs": [
        {
          "internalType": "bytes4",
          "name": "interfaceId",
          "type": "bytes4"
        }
      ],
      "name": "supportsInterface",
      "outputs": [
        {
          "internalType": "bool",
          "name": "",
          "type": "bool"
        }
      ],
      "stateMutability": "view",
      "type": "function"
    },
    {
      "inputs": [
        {
          "internalType": "address",
          "name": "",
          "type": "address"
        },
        {
          "internalType": "uint256",
          "name": "",
          "type": "uint256"
        }
      ],
      "name": "ulTokens",
      "outputs": [
        {
          "internalType": "address",
          "name": "",
          "type": "address"
        }
      ],
      "stateMutability": "view",
      "type": "function"
    },
    {
      "inputs": [],
      "name": "werc20",
      "outputs": [
        {
          "internalType": "contract IWERC20",
          "name": "",
          "type": "address"
        }
      ],
      "stateMutability": "view",
      "type": "function"
    },
    {
      "inputs": [],
      "name": "weth",
      "outputs": [
        {
          "internalType": "address",
          "name": "",
          "type": "address"
        }
      ],
      "stateMutability": "view",
      "type": "function"
    },
    {
      "inputs": [],
      "name": "wgauge",
      "outputs": [
        {
          "internalType": "contract IWLiquidityGauge",
          "name": "",
          "type": "address"
        }
      ],
      "stateMutability": "view",
      "type": "function"
    },
    {
      "inputs": [
        {
          "internalType": "address",
          "name": "",
          "type": "address"
        }
      ],
      "name": "whitelistedLpTokens",
      "outputs": [
        {
          "internalType": "bool",
          "name": "",
          "type": "bool"
        }
      ],
      "stateMutability": "view",
      "type": "function"
    },
    {
      "stateMutability": "payable",
      "type": "receive"
    }
  ],
  "bytecode": "0x6101406040523480156200001257600080fd5b5060405162006d0838038062006d088339810160408190526200003591620006ee565b6001600160601b0319606085811b821660805284811b821660a05283901b1660c05283838382828262000069818462000282565b60405163a22cb46560e01b81526001600160a01b0383169063a22cb465906200009a908690600190600401620007d9565b600060405180830381600087803b158015620000b557600080fd5b505af1158015620000ca573d6000803e3d6000fd5b50505050505050620000e16200030a60201b60201c565b5050506001600160601b0319606082901b166101005260405163a22cb46560e01b81526001600160a01b0382169063a22cb4659062000128908790600190600401620007d9565b600060405180830381600087803b1580156200014357600080fd5b505af115801562000158573d6000803e3d6000fd5b50505050806001600160a01b0316637b1039996040518163ffffffff1660e01b8152600401602060405180830381600087803b1580156200019857600080fd5b505af1158015620001ad573d6000803e3d6000fd5b505050506040513d601f19601f82011682018060405250810190620001d3919062000755565b6001600160a01b031660e0816001600160a01b031660601b81525050806001600160a01b0316636a4874a16040518163ffffffff1660e01b8152600401602060405180830381600087803b1580156200022b57600080fd5b505af115801562000240573d6000803e3d6000fd5b505050506040513d601f19601f8201168201806040525081019062000266919062000755565b60601b6001600160601b0319166101205250620009fd92505050565b6001600160a01b03808316600090815260406020818152818320938516835292909252205460ff166200030657620002d681600019846001600160a01b0316620003f460201b62004c0e179092919060201c565b6001600160a01b0380831660009081526040602081815281832093851683529290925220805460ff191660011790555b5050565b604154610100900460ff168062000324575060415460ff16155b6200034c5760405162461bcd60e51b8152600401620003439062000888565b60405180910390fd5b604154610100900460ff1615801562000378576041805460ff1961ff0019909116610100171660011790555b6041805462010000600160b01b0319163362010000810291909117909155604280546001600160a01b03191690556040517fbce074c8369e26e70e1ae2f14fc944da352cfe6f52e2de9572f0c9942a24b7fc91620003d691620007ab565b60405180910390a18015620003f1576041805461ff00191690555b50565b801580620004835750604051636eb1769f60e11b81526001600160a01b0384169063dd62ed3e906200042d9030908690600401620007bf565b60206040518083038186803b1580156200044657600080fd5b505afa1580156200045b573d6000803e3d6000fd5b505050506040513d601f19601f8201168201806040525081019062000481919062000774565b155b620004a25760405162461bcd60e51b8152600401620003439062000957565b620004fd8363095ea7b360e01b8484604051602401620004c4929190620007f4565b60408051808303601f190181529190526020810180516001600160e01b0319939093166001600160e01b03938416179052906200050216565b505050565b60006200055e826040518060400160405280602081526020017f5361666545524332303a206c6f772d6c6576656c2063616c6c206661696c6564815250856001600160a01b03166200059e60201b62004d0d179092919060201c565b805190915015620004fd57808060200190518101906200057f9190620006cc565b620004fd5760405162461bcd60e51b815260040162000343906200090d565b6060620005af8484600085620005b9565b90505b9392505050565b606082471015620005de5760405162461bcd60e51b8152600401620003439062000842565b620005e98562000688565b620006085760405162461bcd60e51b81526004016200034390620008d6565b600080866001600160a01b031685876040516200062691906200078d565b60006040518083038185875af1925050503d806000811462000665576040519150601f19603f3d011682016040523d82523d6000602084013e6200066a565b606091505b5090925090506200067d8282866200068e565b979650505050505050565b3b151590565b606083156200069f575081620005b2565b825115620006b05782518084602001fd5b8160405162461bcd60e51b81526004016200034391906200080d565b600060208284031215620006de578081fd5b81518015158114620005b2578182fd5b6000806000806080858703121562000704578283fd5b84516200071181620009e7565b60208601519094506200072481620009e7565b60408601519093506200073781620009e7565b60608601519092506200074a81620009e7565b939692955090935050565b60006020828403121562000767578081fd5b8151620005b281620009e7565b60006020828403121562000786578081fd5b5051919050565b60008251620007a1818460208701620009b4565b9190910192915050565b6001600160a01b0391909116815260200190565b6001600160a01b0392831681529116602082015260400190565b6001600160a01b039290921682521515602082015260400190565b6001600160a01b03929092168252602082015260400190565b60006020825282518060208401526200082e816040850160208701620009b4565b601f01601f19169190910160400192915050565b60208082526026908201527f416464726573733a20696e73756666696369656e742062616c616e636520666f6040820152651c8818d85b1b60d21b606082015260800190565b6020808252602e908201527f496e697469616c697a61626c653a20636f6e747261637420697320616c72656160408201526d191e481a5b9a5d1a585b1a5e995960921b606082015260800190565b6020808252601d908201527f416464726573733a2063616c6c20746f206e6f6e2d636f6e7472616374000000604082015260600190565b6020808252602a908201527f5361666545524332303a204552433230206f7065726174696f6e20646964206e6040820152691bdd081cdd58d8d9595960b21b606082015260800190565b60208082526036908201527f5361666545524332303a20617070726f76652066726f6d206e6f6e2d7a65726f60408201527f20746f206e6f6e2d7a65726f20616c6c6f77616e636500000000000000000000606082015260800190565b60005b83811015620009d1578181015183820152602001620009b7565b83811115620009e1576000848401525b50505050565b6001600160a01b0381168114620003f157600080fd5b60805160601c60a05160601c60c05160601c60e05160601c6101005160601c6101205160601c61606b62000c9d60003960008181610c7f01528181610d0c0152818161181601526137d60152600081816107790152818161081c015281816108f301528181610986015281816109f901528181610b0c01528181610b4a01528181610c1c01528181610ce801528181610f23015281816110ff015281816111ca0152818161125d015281816112d0015281816115d30152818161167b0152818161176201528181611cc501528181611ea101528181611f6c01528181611fff015281816120720152818161236f01528181612417015281816124fe0152818161262901528181612805015281816128d001528181612963015281816129d601528181612ce001528181612d8801528181612e6f0152818161313d01528181613442015281816134b501528181613ac601528181613dc001528181613e33015281816145fd015281816148f7015261496a015260008181610d54015281816118e1015281816119c90152611a5401526000818161018b01526106b5015260008181610566015281816105a10152818161064f0152610cc401526000818161061f015281816106de0152818161095901528181610bef01528181610d300152818161105d015281816112300152818161173501528181611dff01528181611fd2015281816124d1015281816127630152818161293601528181612e4201528181612f5901528181612fef0152818161327501528181613413015281816138e20152818161397801528181613bfe01528181613d910152818161418901528181614419015281816144af01528181614735015281816148c801528181614e4001528181614efd01528181614f5101528181614fac0152614fe7015261606b6000f3fe60806040526004361061017b5760003560e01c8063a4052dec116100cc578063e58bb6391161007a578063e58bb63914610445578063e81667ea1461045a578063ee42c6f41461047a578063f235757f1461049a578063f23a6e61146104ba578063f4b16045146104da578063f9c61fb7146104fa576101d3565b8063a4052dec14610363578063bbe4f6db14610383578063bc197c81146103a3578063be0ca465146103d0578063c3d34ea1146103f0578063ce26f24214610410578063e3056a3414610430576101d3565b806368526a781161012957806368526a78146102af5780636a4874a1146102c457806376cdb03b146102d95780637b103999146102ee57806380852cb114610303578063988b1fa7146103235780639a32347014610343576101d3565b806301ffc9a7146101d85780630c340a241461020e5780631a37e2fc146102305780633fc8cef3146102505780634641257d146102655780634bab09f61461027a5780635741229c1461029a576101d3565b366101d357336001600160a01b037f000000000000000000000000000000000000000000000000000000000000000016146101d15760405162461bcd60e51b81526004016101c890615d46565b60405180910390fd5b005b600080fd5b3480156101e457600080fd5b506101f86101f3366004615913565b61051a565b6040516102059190615ae7565b60405180910390f35b34801561021a57600080fd5b50610223610545565b6040516102059190615a2e565b34801561023c57600080fd5b506101d161024b3660046156a9565b61055a565b34801561025c57600080fd5b506102236106b3565b34801561027157600080fd5b506101d16106d7565b34801561028657600080fd5b506101f8610295366004615359565b610cad565b3480156102a657600080fd5b50610223610cc2565b3480156102bb57600080fd5b50610223610ce6565b3480156102d057600080fd5b50610223610d0a565b3480156102e557600080fd5b50610223610d2e565b3480156102fa57600080fd5b50610223610d52565b34801561030f57600080fd5b506101d161031e3660046156a9565b610d76565b34801561032f57600080fd5b5061022361033e366004615359565b610e7e565b34801561034f57600080fd5b506101d161035e366004615543565b610e99565b34801561036f57600080fd5b5061022361037e3660046156a9565b61184a565b34801561038f57600080fd5b5061022361039e366004615359565b611882565b3480156103af57600080fd5b506103c36103be3660046153c9565b611c27565b6040516102059190615af2565b3480156103dc57600080fd5b506101d16103eb3660046155b9565b611c3b565b3480156103fc57600080fd5b506101d161040b366004615631565b61259f565b34801561041c57600080fd5b506101d161042b366004615737565b612f10565b34801561043c57600080fd5b506102236137fa565b34801561045157600080fd5b506101d1613809565b34801561046657600080fd5b506101d161047536600461578e565b613899565b34801561048657600080fd5b506101d1610495366004615873565b6140f3565b3480156104a657600080fd5b506101d16104b5366004615359565b61431b565b3480156104c657600080fd5b506103c36104d53660046154ca565b6143a1565b3480156104e657600080fd5b506101f86104f5366004615391565b6143b3565b34801561050657600080fd5b506101d16105153660046156d4565b6143d0565b60006001600160e01b03198216630271189760e51b148061053f575061053f82614d26565b92915050565b6041546201000090046001600160a01b031681565b80156106af5761058a827f0000000000000000000000000000000000000000000000000000000000000000614d3f565b6040516340c10f1960e01b81526001600160a01b037f000000000000000000000000000000000000000000000000000000000000000016906340c10f19906105d89085908590600401615a5c565b600060405180830381600087803b1580156105f257600080fd5b505af1158015610606573d6000803e3d6000fd5b505060405163314568d960e01b81526001600160a01b037f00000000000000000000000000000000000000000000000000000000000000008116935063314568d9925061067c917f0000000000000000000000000000000000000000000000000000000000000000918716908690600401615a75565b600060405180830381600087803b15801561069657600080fd5b505af11580156106aa573d6000803e3d6000fd5b505050505b5050565b7f000000000000000000000000000000000000000000000000000000000000000081565b60008060007f00000000000000000000000000000000000000000000000000000000000000006001600160a01b031663f70aedd96040518163ffffffff1660e01b815260040160806040518083038186803b15801561073557600080fd5b505afa158015610749573d6000803e3d6000fd5b505050506040513d601f19601f8201168201806040525081019061076d9190615483565b935093509350506000807f00000000000000000000000000000000000000000000000000000000000000006001600160a01b031663dc20c6fa856040518263ffffffff1660e01b81526004016107c39190615eed565b60606040518083038186803b1580156107db57600080fd5b505afa1580156107ef573d6000803e3d6000fd5b505050506040513d601f19601f820116820180604052508101906108139190615976565b509150915060007f00000000000000000000000000000000000000000000000000000000000000006001600160a01b031663a4775772866040518263ffffffff1660e01b81526004016108669190615eed565b60206040518083038186803b15801561087e57600080fd5b505afa158015610892573d6000803e3d6000fd5b505050506040513d601f19601f820116820180604052508101906108b69190615375565b6001600160a01b03811660009081526083602052604090205490915060ff166108f15760405162461bcd60e51b81526004016101c890615cec565b7f00000000000000000000000000000000000000000000000000000000000000006001600160a01b0316866001600160a01b0316146109425760405162461bcd60e51b81526004016101c890615bce565b604051630d1d697560e31b81526001600160a01b037f000000000000000000000000000000000000000000000000000000000000000016906368eb4ba8906109b2907f00000000000000000000000000000000000000000000000000000000000000009089908990600401615a75565b600060405180830381600087803b1580156109cc57600080fd5b505af11580156109e0573d6000803e3d6000fd5b505060405163b390c0ab60e01b81526001600160a01b037f000000000000000000000000000000000000000000000000000000000000000016925063b390c0ab9150610a329088908890600401615f49565b602060405180830381600087803b158015610a4c57600080fd5b505af1158015610a60573d6000803e3d6000fd5b505050506040513d601f19601f82011682018060405250810190610a84919061593b565b506040516370a0823160e01b81526000906001600160a01b038316906370a0823190610ab4903090600401615a2e565b60206040518083038186803b158015610acc57600080fd5b505afa158015610ae0573d6000803e3d6000fd5b505050506040513d601f19601f82011682018060405250810190610b04919061593b565b9050610b30827f0000000000000000000000000000000000000000000000000000000000000000614d3f565b6040516302acc94b60e01b81526000906001600160a01b037f000000000000000000000000000000000000000000000000000000000000000016906302acc94b90610b8390889088908790600401615f57565b602060405180830381600087803b158015610b9d57600080fd5b505af1158015610bb1573d6000803e3d6000fd5b505050506040513d601f19601f82011682018060405250810190610bd5919061593b565b60405163314568d960e01b81529091506001600160a01b037f0000000000000000000000000000000000000000000000000000000000000000169063314568d990610c48907f00000000000000000000000000000000000000000000000000000000000000009085908790600401615a75565b600060405180830381600087803b158015610c6257600080fd5b505af1158015610c76573d6000803e3d6000fd5b50505050610ca37f0000000000000000000000000000000000000000000000000000000000000000614db4565b5050505050505050565b60836020526000908152604090205460ff1681565b7f000000000000000000000000000000000000000000000000000000000000000081565b7f000000000000000000000000000000000000000000000000000000000000000081565b7f000000000000000000000000000000000000000000000000000000000000000081565b7f000000000000000000000000000000000000000000000000000000000000000081565b7f000000000000000000000000000000000000000000000000000000000000000081565b6001600160a01b0382166000908152608460205260409020548114610dad5760405162461bcd60e51b81526004016101c890615ebe565b6001600160a01b0380831660009081526085602090815260408083205460848352818420805483518186028101860190945280845291909516949192830182828015610e2257602002820191906000526020600020905b81546001600160a01b03168152600190910190602001808311610e04575b5050505050905060005b83811015610e7757610e65828281518110610e5757634e487b7160e01b600052603260045260246000fd5b602002602001015184614d3f565b80610e6f81615fc8565b915050610e2c565b5050505050565b6085602052600090815260409020546001600160a01b031681565b6001600160a01b03881660009081526083602052604090205460ff16610ed15760405162461bcd60e51b81526004016101c890615cec565b6000610edc89611882565b6001600160a01b038a16600090815260846020526040902054909150600214610f175760405162461bcd60e51b81526004016101c890615ebe565b886001600160a01b03167f00000000000000000000000000000000000000000000000000000000000000006001600160a01b031663a9b4e6fe85856040518363ffffffff1660e01b8152600401610f6f929190615f49565b60206040518083038186803b158015610f8757600080fd5b505afa158015610f9b573d6000803e3d6000fd5b505050506040513d601f19601f82011682018060405250810190610fbf9190615375565b6001600160a01b031614610fe55760405162461bcd60e51b81526004016101c890615df0565b6001600160a01b03891660009081526084602090815260408083208054825181850281018501909352808352919290919083018282801561104f57602002820191906000526020600020905b81546001600160a01b03168152600190910190602001808311611031575b5050505050905060008060007f00000000000000000000000000000000000000000000000000000000000000006001600160a01b031663f70aedd96040518163ffffffff1660e01b815260040160806040518083038186803b1580156110b457600080fd5b505afa1580156110c8573d6000803e3d6000fd5b505050506040513d601f19601f820116820180604052508101906110ec9190615483565b9195509350915050801561135f576000807f00000000000000000000000000000000000000000000000000000000000000006001600160a01b031663dc20c6fa856040518263ffffffff1660e01b81526004016111499190615eed565b60606040518083038186803b15801561116157600080fd5b505afa158015611175573d6000803e3d6000fd5b505050506040513d601f19601f820116820180604052508101906111999190615976565b509150915088821480156111ac57508781145b6111c85760405162461bcd60e51b81526004016101c890615d1e565b7f00000000000000000000000000000000000000000000000000000000000000006001600160a01b0316856001600160a01b0316146112195760405162461bcd60e51b81526004016101c890615bce565b604051630d1d697560e31b81526001600160a01b037f000000000000000000000000000000000000000000000000000000000000000016906368eb4ba890611289907f00000000000000000000000000000000000000000000000000000000000000009088908890600401615a75565b600060405180830381600087803b1580156112a357600080fd5b505af11580156112b7573d6000803e3d6000fd5b505060405163b390c0ab60e01b81526001600160a01b037f000000000000000000000000000000000000000000000000000000000000000016925063b390c0ab91506113099087908790600401615f49565b602060405180830381600087803b15801561132357600080fd5b505af1158015611337573d6000803e3d6000fd5b505050506040513d601f19601f8201168201806040525081019061135b919061593b565b5050505b61136a8d6002610d76565b60005b60028110156113dd576113cb85828151811061139957634e487b7160e01b600052603260045260246000fd5b60200260200101518e83600281106113c157634e487b7160e01b600052603260045260246000fd5b6020020135614ee0565b806113d581615fc8565b91505061136d565b506113e88d8c614ee0565b60005b600281101561145b5761144985828151811061141757634e487b7160e01b600052603260045260246000fd5b60200260200101518c836002811061143f57634e487b7160e01b600052603260045260246000fd5b6020020135614f34565b8061145381615fc8565b9150506113eb565b506114668d8a614f34565b61146e6151cb565b60005b60028110156115545785818151811061149a57634e487b7160e01b600052603260045260246000fd5b60200260200101516001600160a01b03166370a08231306040518263ffffffff1660e01b81526004016114cd9190615a2e565b60206040518083038186803b1580156114e557600080fd5b505afa1580156114f9573d6000803e3d6000fd5b505050506040513d601f19601f8201168201806040525081019061151d919061593b565b82826002811061153d57634e487b7160e01b600052603260045260246000fd5b60200201528061154c81615fc8565b915050611471565b5080511515806115675750602081015115155b156115cd57604051630b4c7e4d60e01b81526001600160a01b03871690630b4c7e4d9061159a9084908d90600401615a96565b600060405180830381600087803b1580156115b457600080fd5b505af11580156115c8573d6000803e3d6000fd5b505050505b6115f78e7f0000000000000000000000000000000000000000000000000000000000000000614d3f565b60008e6001600160a01b03166370a08231306040518263ffffffff1660e01b81526004016116259190615a2e565b60206040518083038186803b15801561163d57600080fd5b505afa158015611651573d6000803e3d6000fd5b505050506040513d601f19601f82011682018060405250810190611675919061593b565b905060007f00000000000000000000000000000000000000000000000000000000000000006001600160a01b03166302acc94b8b8b856040518463ffffffff1660e01b81526004016116c993929190615f57565b602060405180830381600087803b1580156116e357600080fd5b505af11580156116f7573d6000803e3d6000fd5b505050506040513d601f19601f8201168201806040525081019061171b919061593b565b60405163314568d960e01b81529091506001600160a01b037f0000000000000000000000000000000000000000000000000000000000000000169063314568d99061178e907f00000000000000000000000000000000000000000000000000000000000000009085908790600401615a75565b600060405180830381600087803b1580156117a857600080fd5b505af11580156117bc573d6000803e3d6000fd5b50505050505060005b6002811015611810576117fe8682815181106117f157634e487b7160e01b600052603260045260246000fd5b6020026020010151614db4565b8061180881615fc8565b9150506117c5565b5061183a7f0000000000000000000000000000000000000000000000000000000000000000614db4565b5050505050505050505050505050565b6084602052816000526040600020818154811061186657600080fd5b6000918252602090912001546001600160a01b03169150829050565b6001600160a01b038082166000908152608560205260408120549091168061053f576001600160a01b0383166118ca5760405162461bcd60e51b81526004016101c890615cc7565b60405163bdf475c360e01b81526001600160a01b037f0000000000000000000000000000000000000000000000000000000000000000169063bdf475c390611916908690600401615a2e565b60206040518083038186803b15801561192e57600080fd5b505afa158015611942573d6000803e3d6000fd5b505050506040513d601f19601f820116820180604052508101906119669190615375565b90506001600160a01b03811661198e5760405162461bcd60e51b81526004016101c890615d77565b6001600160a01b0383811660009081526085602052604080822080546001600160a01b0319168585161790555163940494f160e01b815290917f0000000000000000000000000000000000000000000000000000000000000000169063940494f1906119fe908590600401615a2e565b604080518083038186803b158015611a1557600080fd5b505afa158015611a29573d6000803e3d6000fd5b505050506040513d601f19601f82011682018060405250810190611a4d9190615953565b50905060007f00000000000000000000000000000000000000000000000000000000000000006001600160a01b0316639ac90d3d846040518263ffffffff1660e01b8152600401611a9e9190615a2e565b6101006040518083038186803b158015611ab757600080fd5b505afa158015611acb573d6000803e3d6000fd5b505050506040513d601f19601f82011682018060405250810190611aef91906157e6565b9050816001600160401b03811115611b1757634e487b7160e01b600052604160045260246000fd5b604051908082528060200260200182016040528015611b40578160200160208202803683370190505b506001600160a01b03861660009081526084602090815260409091208251611b6e93919291909101906151e9565b5060005b82811015611c1e57818160088110611b9a57634e487b7160e01b600052603260045260246000fd5b602002015160846000886001600160a01b03166001600160a01b031681526020019081526020016000208281548110611be357634e487b7160e01b600052603260045260246000fd5b600091825260209091200180546001600160a01b0319166001600160a01b039290921691909117905580611c1681615fc8565b915050611b72565b50505092915050565b63bc197c8160e01b98975050505050505050565b6001600160a01b03881660009081526083602052604090205460ff16611c735760405162461bcd60e51b81526004016101c890615cec565b6000611c7e89611882565b6001600160a01b038a16600090815260846020526040902054909150600314611cb95760405162461bcd60e51b81526004016101c890615ebe565b886001600160a01b03167f00000000000000000000000000000000000000000000000000000000000000006001600160a01b031663a9b4e6fe85856040518363ffffffff1660e01b8152600401611d11929190615f49565b60206040518083038186803b158015611d2957600080fd5b505afa158015611d3d573d6000803e3d6000fd5b505050506040513d601f19601f82011682018060405250810190611d619190615375565b6001600160a01b031614611d875760405162461bcd60e51b81526004016101c890615df0565b6001600160a01b038916600090815260846020908152604080832080548251818502810185019093528083529192909190830182828015611df157602002820191906000526020600020905b81546001600160a01b03168152600190910190602001808311611dd3575b5050505050905060008060007f00000000000000000000000000000000000000000000000000000000000000006001600160a01b031663f70aedd96040518163ffffffff1660e01b815260040160806040518083038186803b158015611e5657600080fd5b505afa158015611e6a573d6000803e3d6000fd5b505050506040513d601f19601f82011682018060405250810190611e8e9190615483565b91955093509150508015612101576000807f00000000000000000000000000000000000000000000000000000000000000006001600160a01b031663dc20c6fa856040518263ffffffff1660e01b8152600401611eeb9190615eed565b60606040518083038186803b158015611f0357600080fd5b505afa158015611f17573d6000803e3d6000fd5b505050506040513d601f19601f82011682018060405250810190611f3b9190615976565b50915091508882148015611f4e57508781145b611f6a5760405162461bcd60e51b81526004016101c890615b3a565b7f00000000000000000000000000000000000000000000000000000000000000006001600160a01b0316856001600160a01b031614611fbb5760405162461bcd60e51b81526004016101c890615bce565b604051630d1d697560e31b81526001600160a01b037f000000000000000000000000000000000000000000000000000000000000000016906368eb4ba89061202b907f00000000000000000000000000000000000000000000000000000000000000009088908890600401615a75565b600060405180830381600087803b15801561204557600080fd5b505af1158015612059573d6000803e3d6000fd5b505060405163b390c0ab60e01b81526001600160a01b037f000000000000000000000000000000000000000000000000000000000000000016925063b390c0ab91506120ab9087908790600401615f49565b602060405180830381600087803b1580156120c557600080fd5b505af11580156120d9573d6000803e3d6000fd5b505050506040513d601f19601f820116820180604052508101906120fd919061593b565b5050505b61210c8d6003610d76565b60005b60038110156121755761216385828151811061213b57634e487b7160e01b600052603260045260246000fd5b60200260200101518e83600381106113c157634e487b7160e01b600052603260045260246000fd5b8061216d81615fc8565b91505061210f565b506121808d8c614ee0565b60005b60038110156121e9576121d78582815181106121af57634e487b7160e01b600052603260045260246000fd5b60200260200101518c836003811061143f57634e487b7160e01b600052603260045260246000fd5b806121e181615fc8565b915050612183565b506121f48d8a614f34565b6121fc61524e565b60005b60038110156122e25785818151811061222857634e487b7160e01b600052603260045260246000fd5b60200260200101516001600160a01b03166370a08231306040518263ffffffff1660e01b815260040161225b9190615a2e565b60206040518083038186803b15801561227357600080fd5b505afa158015612287573d6000803e3d6000fd5b505050506040513d601f19601f820116820180604052508101906122ab919061593b565b8282600381106122cb57634e487b7160e01b600052603260045260246000fd5b6020020152806122da81615fc8565b9150506121ff565b5080511515806122f55750602081015115155b806123035750604081015115155b1561236957604051634515cef360e01b81526001600160a01b03871690634515cef3906123369084908d90600401615ab1565b600060405180830381600087803b15801561235057600080fd5b505af1158015612364573d6000803e3d6000fd5b505050505b6123938e7f0000000000000000000000000000000000000000000000000000000000000000614d3f565b60008e6001600160a01b03166370a08231306040518263ffffffff1660e01b81526004016123c19190615a2e565b60206040518083038186803b1580156123d957600080fd5b505afa1580156123ed573d6000803e3d6000fd5b505050506040513d601f19601f82011682018060405250810190612411919061593b565b905060007f00000000000000000000000000000000000000000000000000000000000000006001600160a01b03166302acc94b8b8b856040518463ffffffff1660e01b815260040161246593929190615f57565b602060405180830381600087803b15801561247f57600080fd5b505af1158015612493573d6000803e3d6000fd5b505050506040513d601f19601f820116820180604052508101906124b7919061593b565b60405163314568d960e01b81529091506001600160a01b037f0000000000000000000000000000000000000000000000000000000000000000169063314568d99061252a907f00000000000000000000000000000000000000000000000000000000000000009085908790600401615a75565b600060405180830381600087803b15801561254457600080fd5b505af1158015612558573d6000803e3d6000fd5b50505050505060005b60038110156118105761258d8682815181106117f157634e487b7160e01b600052603260045260246000fd5b8061259781615fc8565b915050612561565b6001600160a01b03881660009081526083602052604090205460ff166125d75760405162461bcd60e51b81526004016101c890615cec565b60006125e289611882565b6001600160a01b038a1660009081526084602052604090205490915060041461261d5760405162461bcd60e51b81526004016101c890615ebe565b886001600160a01b03167f00000000000000000000000000000000000000000000000000000000000000006001600160a01b031663a9b4e6fe85856040518363ffffffff1660e01b8152600401612675929190615f49565b60206040518083038186803b15801561268d57600080fd5b505afa1580156126a1573d6000803e3d6000fd5b505050506040513d601f19601f820116820180604052508101906126c59190615375565b6001600160a01b0316146126eb5760405162461bcd60e51b81526004016101c890615df0565b6001600160a01b03891660009081526084602090815260408083208054825181850281018501909352808352919290919083018282801561275557602002820191906000526020600020905b81546001600160a01b03168152600190910190602001808311612737575b5050505050905060008060007f00000000000000000000000000000000000000000000000000000000000000006001600160a01b031663f70aedd96040518163ffffffff1660e01b815260040160806040518083038186803b1580156127ba57600080fd5b505afa1580156127ce573d6000803e3d6000fd5b505050506040513d601f19601f820116820180604052508101906127f29190615483565b91955093509150508015612a65576000807f00000000000000000000000000000000000000000000000000000000000000006001600160a01b031663dc20c6fa856040518263ffffffff1660e01b815260040161284f9190615eed565b60606040518083038186803b15801561286757600080fd5b505afa15801561287b573d6000803e3d6000fd5b505050506040513d601f19601f8201168201806040525081019061289f9190615976565b509150915088821480156128b257508781145b6128ce5760405162461bcd60e51b81526004016101c890615b3a565b7f00000000000000000000000000000000000000000000000000000000000000006001600160a01b0316856001600160a01b03161461291f5760405162461bcd60e51b81526004016101c890615bce565b604051630d1d697560e31b81526001600160a01b037f000000000000000000000000000000000000000000000000000000000000000016906368eb4ba89061298f907f00000000000000000000000000000000000000000000000000000000000000009088908890600401615a75565b600060405180830381600087803b1580156129a957600080fd5b505af11580156129bd573d6000803e3d6000fd5b505060405163b390c0ab60e01b81526001600160a01b037f000000000000000000000000000000000000000000000000000000000000000016925063b390c0ab9150612a0f9087908790600401615f49565b602060405180830381600087803b158015612a2957600080fd5b505af1158015612a3d573d6000803e3d6000fd5b505050506040513d601f19601f82011682018060405250810190612a61919061593b565b5050505b612a708d6004610d76565b60005b6004811015612ad957612ac7858281518110612a9f57634e487b7160e01b600052603260045260246000fd5b60200260200101518e83600481106113c157634e487b7160e01b600052603260045260246000fd5b80612ad181615fc8565b915050612a73565b50612ae48d8c614ee0565b60005b6004811015612b4d57612b3b858281518110612b1357634e487b7160e01b600052603260045260246000fd5b60200260200101518c836004811061143f57634e487b7160e01b600052603260045260246000fd5b80612b4581615fc8565b915050612ae7565b50612b588d8a614f34565b612b6061526c565b60005b6004811015612c4657858181518110612b8c57634e487b7160e01b600052603260045260246000fd5b60200260200101516001600160a01b03166370a08231306040518263ffffffff1660e01b8152600401612bbf9190615a2e565b60206040518083038186803b158015612bd757600080fd5b505afa158015612beb573d6000803e3d6000fd5b505050506040513d601f19601f82011682018060405250810190612c0f919061593b565b828260048110612c2f57634e487b7160e01b600052603260045260246000fd5b602002015280612c3e81615fc8565b915050612b63565b508051151580612c595750602081015115155b80612c675750604081015115155b80612c755750606081015115155b15612cda5760405162a6cbcd60e21b81526001600160a01b0387169063029b2f3490612ca79084908d90600401615acc565b600060405180830381600087803b158015612cc157600080fd5b505af1158015612cd5573d6000803e3d6000fd5b505050505b612d048e7f0000000000000000000000000000000000000000000000000000000000000000614d3f565b60008e6001600160a01b03166370a08231306040518263ffffffff1660e01b8152600401612d329190615a2e565b60206040518083038186803b158015612d4a57600080fd5b505afa158015612d5e573d6000803e3d6000fd5b505050506040513d601f19601f82011682018060405250810190612d82919061593b565b905060007f00000000000000000000000000000000000000000000000000000000000000006001600160a01b03166302acc94b8b8b856040518463ffffffff1660e01b8152600401612dd693929190615f57565b602060405180830381600087803b158015612df057600080fd5b505af1158015612e04573d6000803e3d6000fd5b505050506040513d601f19601f82011682018060405250810190612e28919061593b565b60405163314568d960e01b81529091506001600160a01b037f0000000000000000000000000000000000000000000000000000000000000000169063314568d990612e9b907f00000000000000000000000000000000000000000000000000000000000000009085908790600401615a75565b600060405180830381600087803b158015612eb557600080fd5b505af1158015612ec9573d6000803e3d6000fd5b50505050505060005b600481101561181057612efe8682815181106117f157634e487b7160e01b600052603260045260246000fd5b80612f0881615fc8565b915050612ed2565b6001600160a01b03861660009081526083602052604090205460ff16612f485760405162461bcd60e51b81526004016101c890615cec565b6000612f5387611882565b905060007f00000000000000000000000000000000000000000000000000000000000000006001600160a01b031663d7ac71ff6040518163ffffffff1660e01b815260040160206040518083038186803b158015612fb057600080fd5b505afa158015612fc4573d6000803e3d6000fd5b505050506040513d601f19601f82011682018060405250810190612fe8919061593b565b90506000807f00000000000000000000000000000000000000000000000000000000000000006001600160a01b031663519f5099846040518263ffffffff1660e01b81526004016130399190615eed565b60806040518083038186803b15801561305157600080fd5b505afa158015613065573d6000803e3d6000fd5b505050506040513d601f19601f820116820180604052508101906130899190615483565b509250925050896001600160a01b0316826001600160a01b031663a4775772836040518263ffffffff1660e01b81526004016130c59190615eed565b60206040518083038186803b1580156130dd57600080fd5b505afa1580156130f1573d6000803e3d6000fd5b505050506040513d601f19601f820116820180604052508101906131159190615375565b6001600160a01b03161461313b5760405162461bcd60e51b81526004016101c890615df0565b7f00000000000000000000000000000000000000000000000000000000000000006001600160a01b0316826001600160a01b03161461318c5760405162461bcd60e51b81526004016101c890615bce565b6001600160a01b038a166000908152608460209081526040808320805482518185028101850190935280835291929091908301828280156131f657602002820191906000526020600020905b81546001600160a01b031681526001909101906020018083116131d8575b505050505090506132088b6003610d76565b61321061524e565b60005b6003811015613371576000198a826003811061323f57634e487b7160e01b600052603260045260246000fd5b6020020135146132735789816003811061326957634e487b7160e01b600052603260045260246000fd5b602002013561333a565b7f00000000000000000000000000000000000000000000000000000000000000006001600160a01b03166382a2fb9c878584815181106132c357634e487b7160e01b600052603260045260246000fd5b60200260200101516040518363ffffffff1660e01b81526004016132e8929190615ef6565b602060405180830381600087803b15801561330257600080fd5b505af1158015613316573d6000803e3d6000fd5b505050506040513d601f19601f8201168201806040525081019061333a919061593b565b82826003811061335a57634e487b7160e01b600052603260045260246000fd5b60200201528061336981615fc8565b915050613213565b5061337a61524e565b60005b6003811015613410576133d98982600381106133a957634e487b7160e01b600052603260045260246000fd5b60200201358483600381106133ce57634e487b7160e01b600052603260045260246000fd5b602002015190614f88565b8282600381106133f957634e487b7160e01b600052603260045260246000fd5b60200201528061340881615fc8565b91505061337d565b507f00000000000000000000000000000000000000000000000000000000000000006001600160a01b03166368eb4ba87f0000000000000000000000000000000000000000000000000000000000000000868f6040518463ffffffff1660e01b815260040161348193929190615a75565b600060405180830381600087803b15801561349b57600080fd5b505af11580156134af573d6000803e3d6000fd5b505050507f00000000000000000000000000000000000000000000000000000000000000006001600160a01b031663b390c0ab858e6040518363ffffffff1660e01b8152600401613501929190615f49565b602060405180830381600087803b15801561351b57600080fd5b505af115801561352f573d6000803e3d6000fd5b505050506040513d601f19601f82011682018060405250810190613553919061593b565b5080516000901515806135695750602082015115155b806135775750604082015115155b15613666576136028c8f6001600160a01b03166370a08231306040518263ffffffff1660e01b81526004016135ac9190615a2e565b60206040518083038186803b1580156135c457600080fd5b505afa1580156135d8573d6000803e3d6000fd5b505050506040513d601f19601f820116820180604052508101906135fc919061593b565b90614f94565b6040516327f6ba8360e21b81529091506001600160a01b03891690639fdaea0c906136339085908590600401615ab1565b600060405180830381600087803b15801561364d57600080fd5b505af1158015613661573d6000803e3d6000fd5b505050505b6136968c8f6001600160a01b03166370a08231306040518263ffffffff1660e01b81526004016135ac9190615a2e565b90508015613708576136a661524e565b60405163ecb586a560e01b81526001600160a01b038a169063ecb586a5906136d49085908590600401615f21565b600060405180830381600087803b1580156136ee57600080fd5b505af1158015613702573d6000803e3d6000fd5b50505050505b60005b600381101561377b5761376985828151811061373757634e487b7160e01b600052603260045260246000fd5b602002602001015185836003811061375f57634e487b7160e01b600052603260045260246000fd5b6020020151614fa0565b8061377381615fc8565b91505061370b565b506137868e8b614fa0565b60005b60038110156137c7576137b58582815181106117f157634e487b7160e01b600052603260045260246000fd5b806137bf81615fc8565b915050613789565b506137d18e614db4565b61183a7f0000000000000000000000000000000000000000000000000000000000000000614db4565b6042546001600160a01b031681565b6042546001600160a01b031633146138335760405162461bcd60e51b81526004016101c890615b65565b604280546001600160a01b03191690556041805462010000600160b01b03191633620100008102919091179091556040517fd345d81ce68c70b119a17eee79dc1421700bd9cb21ca148a62dc90983964e82f9161388f91615a2e565b60405180910390a1565b6001600160a01b03861660009081526083602052604090205460ff166138d15760405162461bcd60e51b81526004016101c890615cec565b60006138dc87611882565b905060007f00000000000000000000000000000000000000000000000000000000000000006001600160a01b031663d7ac71ff6040518163ffffffff1660e01b815260040160206040518083038186803b15801561393957600080fd5b505afa15801561394d573d6000803e3d6000fd5b505050506040513d601f19601f82011682018060405250810190613971919061593b565b90506000807f00000000000000000000000000000000000000000000000000000000000000006001600160a01b031663519f5099846040518263ffffffff1660e01b81526004016139c29190615eed565b60806040518083038186803b1580156139da57600080fd5b505afa1580156139ee573d6000803e3d6000fd5b505050506040513d601f19601f82011682018060405250810190613a129190615483565b509250925050896001600160a01b0316826001600160a01b031663a4775772836040518263ffffffff1660e01b8152600401613a4e9190615eed565b60206040518083038186803b158015613a6657600080fd5b505afa158015613a7a573d6000803e3d6000fd5b505050506040513d601f19601f82011682018060405250810190613a9e9190615375565b6001600160a01b031614613ac45760405162461bcd60e51b81526004016101c890615df0565b7f00000000000000000000000000000000000000000000000000000000000000006001600160a01b0316826001600160a01b031614613b155760405162461bcd60e51b81526004016101c890615bce565b6001600160a01b038a16600090815260846020908152604080832080548251818502810185019093528083529192909190830182828015613b7f57602002820191906000526020600020905b81546001600160a01b03168152600190910190602001808311613b61575b50505050509050613b918b6004610d76565b613b9961526c565b60005b6004811015613cfa576000198a8260048110613bc857634e487b7160e01b600052603260045260246000fd5b602002013514613bfc57898160048110613bf257634e487b7160e01b600052603260045260246000fd5b6020020135613cc3565b7f00000000000000000000000000000000000000000000000000000000000000006001600160a01b03166382a2fb9c87858481518110613c4c57634e487b7160e01b600052603260045260246000fd5b60200260200101516040518363ffffffff1660e01b8152600401613c71929190615ef6565b602060405180830381600087803b158015613c8b57600080fd5b505af1158015613c9f573d6000803e3d6000fd5b505050506040513d601f19601f82011682018060405250810190613cc3919061593b565b828260048110613ce357634e487b7160e01b600052603260045260246000fd5b602002015280613cf281615fc8565b915050613b9c565b50613d0361526c565b60005b6004811015613d8e57613d57898260048110613d3257634e487b7160e01b600052603260045260246000fd5b60200201358483600481106133ce57634e487b7160e01b600052603260045260246000fd5b828260048110613d7757634e487b7160e01b600052603260045260246000fd5b602002015280613d8681615fc8565b915050613d06565b507f00000000000000000000000000000000000000000000000000000000000000006001600160a01b03166368eb4ba87f0000000000000000000000000000000000000000000000000000000000000000868f6040518463ffffffff1660e01b8152600401613dff93929190615a75565b600060405180830381600087803b158015613e1957600080fd5b505af1158015613e2d573d6000803e3d6000fd5b505050507f00000000000000000000000000000000000000000000000000000000000000006001600160a01b031663b390c0ab858e6040518363ffffffff1660e01b8152600401613e7f929190615f49565b602060405180830381600087803b158015613e9957600080fd5b505af1158015613ead573d6000803e3d6000fd5b505050506040513d601f19601f82011682018060405250810190613ed1919061593b565b508051600090151580613ee75750602082015115155b80613ef55750604082015115155b80613f035750606082015115155b15613f9c57613f388c8f6001600160a01b03166370a08231306040518263ffffffff1660e01b81526004016135ac9190615a2e565b604051630c53debb60e11b81529091506001600160a01b038916906318a7bd7690613f699085908590600401615acc565b600060405180830381600087803b158015613f8357600080fd5b505af1158015613f97573d6000803e3d6000fd5b505050505b613fcc8c8f6001600160a01b03166370a08231306040518263ffffffff1660e01b81526004016135ac9190615a2e565b9050801561403e57613fdc61526c565b604051637d49d87560e01b81526001600160a01b038a1690637d49d8759061400a9085908590600401615f35565b600060405180830381600087803b15801561402457600080fd5b505af1158015614038573d6000803e3d6000fd5b50505050505b60005b60048110156140a75761409585828151811061406d57634e487b7160e01b600052603260045260246000fd5b602002602001015185836004811061375f57634e487b7160e01b600052603260045260246000fd5b8061409f81615fc8565b915050614041565b506140b28e8b614fa0565b60005b60048110156137c7576140e18582815181106117f157634e487b7160e01b600052603260045260246000fd5b806140eb81615fc8565b9150506140b5565b6041546201000090046001600160a01b031633146141235760405162461bcd60e51b81526004016101c890615c58565b8281146141425760405162461bcd60e51b81526004016101c890615c82565b60005b83811015610e775782828281811061416d57634e487b7160e01b600052603260045260246000fd5b905060200201602081019061418291906158db565b15614273577f00000000000000000000000000000000000000000000000000000000000000006001600160a01b031663e660cc088686848181106141d657634e487b7160e01b600052603260045260246000fd5b90506020020160208101906141eb9190615359565b6040518263ffffffff1660e01b81526004016142079190615a2e565b60206040518083038186803b15801561421f57600080fd5b505afa158015614233573d6000803e3d6000fd5b505050506040513d601f19601f8201168201806040525081019061425791906158f7565b6142735760405162461bcd60e51b81526004016101c890615b97565b82828281811061429357634e487b7160e01b600052603260045260246000fd5b90506020020160208101906142a891906158db565b608360008787858181106142cc57634e487b7160e01b600052603260045260246000fd5b90506020020160208101906142e19190615359565b6001600160a01b031681526020810191909152604001600020805460ff19169115159190911790558061431381615fc8565b915050614145565b6041546201000090046001600160a01b0316331461434b5760405162461bcd60e51b81526004016101c890615c58565b604280546001600160a01b0319166001600160a01b0383161790556040517f964dea888b00b2ab53f13dfe7ca334b46e99338c222ae232d98547a1da019f6090614396908390615a2e565b60405180910390a150565b63f23a6e6160e01b9695505050505050565b604060208181526000938452818420905290825290205460ff1681565b6001600160a01b03861660009081526083602052604090205460ff166144085760405162461bcd60e51b81526004016101c890615cec565b600061441387611882565b905060007f00000000000000000000000000000000000000000000000000000000000000006001600160a01b031663d7ac71ff6040518163ffffffff1660e01b815260040160206040518083038186803b15801561447057600080fd5b505afa158015614484573d6000803e3d6000fd5b505050506040513d601f19601f820116820180604052508101906144a8919061593b565b90506000807f00000000000000000000000000000000000000000000000000000000000000006001600160a01b031663519f5099846040518263ffffffff1660e01b81526004016144f99190615eed565b60806040518083038186803b15801561451157600080fd5b505afa158015614525573d6000803e3d6000fd5b505050506040513d601f19601f820116820180604052508101906145499190615483565b509250925050896001600160a01b0316826001600160a01b031663a4775772836040518263ffffffff1660e01b81526004016145859190615eed565b60206040518083038186803b15801561459d57600080fd5b505afa1580156145b1573d6000803e3d6000fd5b505050506040513d601f19601f820116820180604052508101906145d59190615375565b6001600160a01b0316146145fb5760405162461bcd60e51b81526004016101c890615df0565b7f00000000000000000000000000000000000000000000000000000000000000006001600160a01b0316826001600160a01b03161461464c5760405162461bcd60e51b81526004016101c890615bce565b6001600160a01b038a166000908152608460209081526040808320805482518185028101850190935280835291929091908301828280156146b657602002820191906000526020600020905b81546001600160a01b03168152600190910190602001808311614698575b505050505090506146c88b6002610d76565b6146d06151cb565b60005b6002811015614831576000198a82600281106146ff57634e487b7160e01b600052603260045260246000fd5b6020020135146147335789816002811061472957634e487b7160e01b600052603260045260246000fd5b60200201356147fa565b7f00000000000000000000000000000000000000000000000000000000000000006001600160a01b03166382a2fb9c8785848151811061478357634e487b7160e01b600052603260045260246000fd5b60200260200101516040518363ffffffff1660e01b81526004016147a8929190615ef6565b602060405180830381600087803b1580156147c257600080fd5b505af11580156147d6573d6000803e3d6000fd5b505050506040513d601f19601f820116820180604052508101906147fa919061593b565b82826002811061481a57634e487b7160e01b600052603260045260246000fd5b60200201528061482981615fc8565b9150506146d3565b5061483a6151cb565b60005b60028110156148c55761488e89826002811061486957634e487b7160e01b600052603260045260246000fd5b60200201358483600281106133ce57634e487b7160e01b600052603260045260246000fd5b8282600281106148ae57634e487b7160e01b600052603260045260246000fd5b6020020152806148bd81615fc8565b91505061483d565b507f00000000000000000000000000000000000000000000000000000000000000006001600160a01b03166368eb4ba87f0000000000000000000000000000000000000000000000000000000000000000868f6040518463ffffffff1660e01b815260040161493693929190615a75565b600060405180830381600087803b15801561495057600080fd5b505af1158015614964573d6000803e3d6000fd5b505050507f00000000000000000000000000000000000000000000000000000000000000006001600160a01b031663b390c0ab858e6040518363ffffffff1660e01b81526004016149b6929190615f49565b602060405180830381600087803b1580156149d057600080fd5b505af11580156149e4573d6000803e3d6000fd5b505050506040513d601f19601f82011682018060405250810190614a08919061593b565b508051600090151580614a1e5750602082015115155b15614ab757614a538c8f6001600160a01b03166370a08231306040518263ffffffff1660e01b81526004016135ac9190615a2e565b60405163e310327360e01b81529091506001600160a01b0389169063e310327390614a849085908590600401615a96565b600060405180830381600087803b158015614a9e57600080fd5b505af1158015614ab2573d6000803e3d6000fd5b505050505b614ae78c8f6001600160a01b03166370a08231306040518263ffffffff1660e01b81526004016135ac9190615a2e565b90508015614b5957614af76151cb565b6040516316cd8e2760e21b81526001600160a01b038a1690635b36389c90614b259085908590600401615f0d565b600060405180830381600087803b158015614b3f57600080fd5b505af1158015614b53573d6000803e3d6000fd5b50505050505b60005b6002811015614bc257614bb0858281518110614b8857634e487b7160e01b600052603260045260246000fd5b602002602001015185836002811061375f57634e487b7160e01b600052603260045260246000fd5b80614bba81615fc8565b915050614b5c565b50614bcd8e8b614fa0565b60005b60028110156137c757614bfc8582815181106117f157634e487b7160e01b600052603260045260246000fd5b80614c0681615fc8565b915050614bd0565b801580614c965750604051636eb1769f60e11b81526001600160a01b0384169063dd62ed3e90614c449030908690600401615a42565b60206040518083038186803b158015614c5c57600080fd5b505afa158015614c70573d6000803e3d6000fd5b505050506040513d601f19601f82011682018060405250810190614c94919061593b565b155b614cb25760405162461bcd60e51b81526004016101c890615e68565b614d088363095ea7b360e01b8484604051602401614cd1929190615a5c565b60408051601f198184030181529190526020810180516001600160e01b03166001600160e01b03199093169290921790915261501e565b505050565b6060614d1c84846000856150ad565b90505b9392505050565b6001600160e01b031981166301ffc9a760e01b14919050565b6001600160a01b03808316600090815260406020818152818320938516835292909252205460ff166106af57614d816001600160a01b03831682600019614c0e565b6001600160a01b0380831660009081526040602081815281832093851683529290925220805460ff191660011790555050565b6040516370a0823160e01b81526000906001600160a01b038316906370a0823190614de3903090600401615a2e565b60206040518083038186803b158015614dfb57600080fd5b505afa158015614e0f573d6000803e3d6000fd5b505050506040513d601f19601f82011682018060405250810190614e33919061593b565b905080156106af576106af7f00000000000000000000000000000000000000000000000000000000000000006001600160a01b031663630dc7cb6040518163ffffffff1660e01b815260040160206040518083038186803b158015614e9757600080fd5b505afa158015614eab573d6000803e3d6000fd5b505050506040513d601f19601f82011682018060405250810190614ecf9190615375565b6001600160a01b038416908361516d565b80156106af5760405163246b5de160e11b81526001600160a01b037f000000000000000000000000000000000000000000000000000000000000000016906348d6bbc29061067c9085908590600401615a5c565b80156106af57604051634b8a352960e01b81526001600160a01b037f00000000000000000000000000000000000000000000000000000000000000001690634b8a35299061067c9085908590600401615a5c565b6000614d1f8284615f6d565b6000614d1f8284615f85565b80156106af57614fd0827f0000000000000000000000000000000000000000000000000000000000000000614d3f565b604051630450cfaf60e31b81526001600160a01b037f000000000000000000000000000000000000000000000000000000000000000016906322867d789061067c9085908590600401615a5c565b6000615073826040518060400160405280602081526020017f5361666545524332303a206c6f772d6c6576656c2063616c6c206661696c6564815250856001600160a01b0316614d0d9092919063ffffffff16565b805190915015614d08578080602001905181019061509191906158f7565b614d085760405162461bcd60e51b81526004016101c890615e1e565b6060824710156150cf5760405162461bcd60e51b81526004016101c890615c12565b6150d88561518c565b6150f45760405162461bcd60e51b81526004016101c890615db9565b600080866001600160a01b031685876040516151109190615a12565b60006040518083038185875af1925050503d806000811461514d576040519150601f19603f3d011682016040523d82523d6000602084013e615152565b606091505b5091509150615162828286615192565b979650505050505050565b614d088363a9059cbb60e01b8484604051602401614cd1929190615a5c565b3b151590565b606083156151a1575081614d1f565b8251156151b15782518084602001fd5b8160405162461bcd60e51b81526004016101c89190615b07565b60405180604001604052806002906020820280368337509192915050565b82805482825590600052602060002090810192821561523e579160200282015b8281111561523e57825182546001600160a01b0319166001600160a01b03909116178255602090920191600190910190615209565b5061524a92915061528a565b5090565b60405180606001604052806003906020820280368337509192915050565b60405180608001604052806004906020820280368337509192915050565b5b8082111561524a576000815560010161528b565b60008083601f8401126152b0578182fd5b5081356001600160401b038111156152c6578182fd5b60208301915083602080830285010111156152e057600080fd5b9250929050565b806040810183101561053f57600080fd5b806060810183101561053f57600080fd5b806080810183101561053f57600080fd5b60008083601f84011261532b578182fd5b5081356001600160401b03811115615341578182fd5b6020830191508360208285010111156152e057600080fd5b60006020828403121561536a578081fd5b8135614d1f8161600f565b600060208284031215615386578081fd5b8151614d1f8161600f565b600080604083850312156153a3578081fd5b82356153ae8161600f565b915060208301356153be8161600f565b809150509250929050565b60008060008060008060008060a0898b0312156153e4578384fd5b88356153ef8161600f565b975060208901356153ff8161600f565b965060408901356001600160401b038082111561541a578586fd5b6154268c838d0161529f565b909850965060608b013591508082111561543e578586fd5b61544a8c838d0161529f565b909650945060808b0135915080821115615462578384fd5b5061546f8b828c0161531a565b999c989b5096995094979396929594505050565b60008060008060808587031215615498578384fd5b84516154a38161600f565b60208601519094506154b48161600f565b6040860151606090960151949790965092505050565b60008060008060008060a087890312156154e2578182fd5b86356154ed8161600f565b955060208701356154fd8161600f565b9450604087013593506060870135925060808701356001600160401b03811115615525578283fd5b61553189828a0161531a565b979a9699509497509295939492505050565b600080600080600080600080610140898b03121561555f578384fd5b883561556a8161600f565b97506155798a60208b016152e7565b96506060890135955061558f8a60808b016152e7565b979a969950949760c08101359660e082013596506101008201359550610120909101359350915050565b600080600080600080600080610180898b0312156155d5578182fd5b88356155e08161600f565b97506155ef8a60208b016152f8565b9650608089013595506156058a60a08b016152f8565b979a96995094976101008101359661012082013596506101408201359550610160909101359350915050565b6000806000806000806000806101c0898b03121561564d578182fd5b88356156588161600f565b97506156678a60208b01615309565b965060a0890135955061567d8a60c08b01615309565b979a969950949761014081013596610160820135965061018082013595506101a0909101359350915050565b600080604083850312156156bb578182fd5b82356156c68161600f565b946020939093013593505050565b60008060008060008061010087890312156156ed578384fd5b86356156f88161600f565b9550602087013594506040870135935061571588606089016152e7565b925060a0870135915061572b8860c089016152e7565b90509295509295509295565b6000806000806000806101408789031215615750578384fd5b863561575b8161600f565b9550602087013594506040870135935061577888606089016152f8565b925060c0870135915061572b8860e089016152f8565b60008060008060008061018087890312156157a7578384fd5b86356157b28161600f565b955060208701359450604087013593506157cf8860608901615309565b925060e0870135915061572b886101008901615309565b60006101008083850312156157f9578182fd5b83601f840112615807578182fd5b6040518181018181106001600160401b038211171561582857615828615ff9565b604052808483810187101561583b578485fd5b8493505b60088410156158685780516158538161600f565b8252600193909301926020918201910161583f565b509095945050505050565b60008060008060408587031215615888578182fd5b84356001600160401b038082111561589e578384fd5b6158aa8883890161529f565b909650945060208701359150808211156158c2578384fd5b506158cf8782880161529f565b95989497509550505050565b6000602082840312156158ec578081fd5b8135614d1f81616027565b600060208284031215615908578081fd5b8151614d1f81616027565b600060208284031215615924578081fd5b81356001600160e01b031981168114614d1f578182fd5b60006020828403121561594c578081fd5b5051919050565b60008060408385031215615965578182fd5b505080516020909101519092909150565b60008060006060848603121561598a578081fd5b8351925060208401519150604084015190509250925092565b8060005b60028110156159c65781518452602093840193909101906001016159a7565b50505050565b8060005b60038110156159c65781518452602093840193909101906001016159d0565b8060005b60048110156159c65781518452602093840193909101906001016159f3565b60008251615a24818460208701615f9c565b9190910192915050565b6001600160a01b0391909116815260200190565b6001600160a01b0392831681529116602082015260400190565b6001600160a01b03929092168252602082015260400190565b6001600160a01b039390931683526020830191909152604082015260600190565b60608101615aa482856159a3565b8260408301529392505050565b60808101615abf82856159cc565b8260608301529392505050565b60a08101615ada82856159ef565b8260808301529392505050565b901515815260200190565b6001600160e01b031991909116815260200190565b6000602082528251806020840152615b26816040850160208701615f9c565b601f01601f19169190910160400192915050565b6020808252601190820152701a5b98dbdc9c9958dd0818dbdb1b081a59607a1b604082015260600190565b6020808252601890820152773737ba103a3432903832b73234b7339033b7bb32b93737b960411b604082015260600190565b6020808252601b908201527f6f7261636c65206e6f7420737570706f7274206c7020746f6b656e0000000000604082015260600190565b60208082526024908201527f636f6c6c61746572616c20746f6b656e202620776761756765206d69736d617460408201526318da195960e21b606082015260800190565b60208082526026908201527f416464726573733a20696e73756666696369656e742062616c616e636520666f6040820152651c8818d85b1b60d21b606082015260800190565b60208082526010908201526f3737ba103a34329033b7bb32b93737b960811b604082015260600190565b60208082526025908201527f6c70546f6b656e732026207374617475736573206c656e677468206d69736d616040820152641d18da195960da1b606082015260800190565b6020808252600b908201526a3737903638103a37b5b2b760a91b604082015260600190565b6020808252601890820152771b1c081d1bdad95b881b9bdd081dda1a5d195b1a5cdd195960421b604082015260600190565b6020808252600e908201526d189859081c1a59081bdc8819da5960921b604082015260600190565b60208082526017908201527608aa89040daeae6e840c6dedaca40cce4deda40ae8aa89604b1b604082015260600190565b60208082526022908201527f6e6f20636f72726573706f6e64696e6720706f6f6c20666f72206c7020746f6b60408201526132b760f11b606082015260800190565b6020808252601d908201527f416464726573733a2063616c6c20746f206e6f6e2d636f6e7472616374000000604082015260600190565b602080825260149082015273696e636f727265637420756e6465726c79696e6760601b604082015260600190565b6020808252602a908201527f5361666545524332303a204552433230206f7065726174696f6e20646964206e6040820152691bdd081cdd58d8d9595960b21b606082015260800190565b60208082526036908201527f5361666545524332303a20617070726f76652066726f6d206e6f6e2d7a65726f60408201527520746f206e6f6e2d7a65726f20616c6c6f77616e636560501b606082015260800190565b6020808252601590820152740d2dcc6dee4e4cac6e840e0deded840d8cadccee8d605b1b604082015260600190565b90815260200190565b9182526001600160a01b0316602082015260400190565b82815260608101614d1f60208301846159a3565b82815260808101614d1f60208301846159cc565b82815260a08101614d1f60208301846159ef565b918252602082015260400190565b9283526020830191909152604082015260600190565b60008219821115615f8057615f80615fe3565b500190565b600082821015615f9757615f97615fe3565b500390565b60005b83811015615fb7578181015183820152602001615f9f565b838111156159c65750506000910152565b6000600019821415615fdc57615fdc615fe3565b5060010190565b634e487b7160e01b600052601160045260246000fd5b634e487b7160e01b600052604160045260246000fd5b6001600160a01b038116811461602457600080fd5b50565b801515811461602457600080fdfea26469706673582212200957af0ed2cbf0b1b20340c6bbc1feb97f32017b2e10d109a7c756c4eb590bde64736f6c63430008000033",
  "linkReferences": {},
  "deployedLinkReferences": {}
}