{
  "_format": "hh-sol-artifact-1",
  "contractName": "SushiswapSpellV1",
  "sourceName": "contracts/spell/SushiswapSpellV1.sol",
  "abi": [
    {
      "inputs": [
        {
          "internalType": "contract IBank",
          "name": "_bank",
          "type": "address"
        },
        {
          "internalType": "address",
          "name": "_werc20",
          "type": "address"
        },
        {
          "internalType": "contract IUniswapV2Router02",
          "name": "_router",
          "type": "address"
        },
        {
          "internalType": "address",
          "name": "_wmasterchef",
          "type": "address"
        }
      ],
      "stateMutability": "nonpayable",
      "type": "constructor"
    },
    {
      "anonymous": false,
      "inputs": [
        {
          "indexed": false,
          "internalType": "address",
          "name": "governor",
          "type": "address"
        }
      ],
      "name": "AcceptGovernor",
      "type": "event"
    },
    {
      "anonymous": false,
      "inputs": [
        {
          "indexed": false,
          "internalType": "address",
          "name": "governor",
          "type": "address"
        }
      ],
      "name": "SetGovernor",
      "type": "event"
    },
    {
      "anonymous": false,
      "inputs": [
        {
          "indexed": false,
          "internalType": "address",
          "name": "pendingGovernor",
          "type": "address"
        }
      ],
      "name": "SetPendingGovernor",
      "type": "event"
    },
    {
      "inputs": [],
      "name": "acceptGovernor",
      "outputs": [],
      "stateMutability": "nonpayable",
      "type": "function"
    },
    {
      "inputs": [
        {
          "internalType": "address",
          "name": "tokenA",
          "type": "address"
        },
        {
          "internalType": "address",
          "name": "tokenB",
          "type": "address"
        },
        {
          "components": [
            {
              "internalType": "uint256",
              "name": "amtAUser",
              "type": "uint256"
            },
            {
              "internalType": "uint256",
              "name": "amtBUser",
              "type": "uint256"
            },
            {
              "internalType": "uint256",
              "name": "amtLPUser",
              "type": "uint256"
            },
            {
              "internalType": "uint256",
              "name": "amtABorrow",
              "type": "uint256"
            },
            {
              "internalType": "uint256",
              "name": "amtBBorrow",
              "type": "uint256"
            },
            {
              "internalType": "uint256",
              "name": "amtLPBorrow",
              "type": "uint256"
            },
            {
              "internalType": "uint256",
              "name": "amtAMin",
              "type": "uint256"
            },
            {
              "internalType": "uint256",
              "name": "amtBMin",
              "type": "uint256"
            }
          ],
          "internalType": "struct SushiswapSpellV1.Amounts",
          "name": "amt",
          "type": "tuple"
        }
      ],
      "name": "addLiquidityWERC20",
      "outputs": [],
      "stateMutability": "payable",
      "type": "function"
    },
    {
      "inputs": [
        {
          "internalType": "address",
          "name": "tokenA",
          "type": "address"
        },
        {
          "internalType": "address",
          "name": "tokenB",
          "type": "address"
        },
        {
          "components": [
            {
              "internalType": "uint256",
              "name": "amtAUser",
              "type": "uint256"
            },
            {
              "internalType": "uint256",
              "name": "amtBUser",
              "type": "uint256"
            },
            {
              "internalType": "uint256",
              "name": "amtLPUser",
              "type": "uint256"
            },
            {
              "internalType": "uint256",
              "name": "amtABorrow",
              "type": "uint256"
            },
            {
              "internalType": "uint256",
              "name": "amtBBorrow",
              "type": "uint256"
            },
            {
              "internalType": "uint256",
              "name": "amtLPBorrow",
              "type": "uint256"
            },
            {
              "internalType": "uint256",
              "name": "amtAMin",
              "type": "uint256"
            },
            {
              "internalType": "uint256",
              "name": "amtBMin",
              "type": "uint256"
            }
          ],
          "internalType": "struct SushiswapSpellV1.Amounts",
          "name": "amt",
          "type": "tuple"
        },
        {
          "internalType": "uint256",
          "name": "pid",
          "type": "uint256"
        }
      ],
      "name": "addLiquidityWMasterChef",
      "outputs": [],
      "stateMutability": "payable",
      "type": "function"
    },
    {
      "inputs": [
        {
          "internalType": "address",
          "name": "",
          "type": "address"
        },
        {
          "internalType": "address",
          "name": "",
          "type": "address"
        }
      ],
      "name": "approved",
      "outputs": [
        {
          "internalType": "bool",
          "name": "",
          "type": "bool"
        }
      ],
      "stateMutability": "view",
      "type": "function"
    },
    {
      "inputs": [],
      "name": "bank",
      "outputs": [
        {
          "internalType": "contract IBank",
          "name": "",
          "type": "address"
        }
      ],
      "stateMutability": "view",
      "type": "function"
    },
    {
      "inputs": [
        {
          "internalType": "address",
          "name": "token",
          "type": "address"
        },
        {
          "internalType": "uint256",
          "name": "amount",
          "type": "uint256"
        }
      ],
      "name": "doPutCollateral",
      "outputs": [],
      "stateMutability": "nonpayable",
      "type": "function"
    },
    {
      "inputs": [],
      "name": "factory",
      "outputs": [
        {
          "internalType": "contract IUniswapV2Factory",
          "name": "",
          "type": "address"
        }
      ],
      "stateMutability": "view",
      "type": "function"
    },
    {
      "inputs": [
        {
          "internalType": "address",
          "name": "tokenA",
          "type": "address"
        },
        {
          "internalType": "address",
          "name": "tokenB",
          "type": "address"
        }
      ],
      "name": "getAndApprovePair",
      "outputs": [
        {
          "internalType": "address",
          "name": "",
          "type": "address"
        }
      ],
      "stateMutability": "nonpayable",
      "type": "function"
    },
    {
      "inputs": [],
      "name": "governor",
      "outputs": [
        {
          "internalType": "address",
          "name": "",
          "type": "address"
        }
      ],
      "stateMutability": "view",
      "type": "function"
    },
    {
      "inputs": [],
      "name": "harvestWMasterChef",
      "outputs": [],
      "stateMutability": "nonpayable",
      "type": "function"
    },
    {
      "inputs": [
        {
          "internalType": "address",
          "name": "",
          "type": "address"
        },
        {
          "internalType": "address",
          "name": "",
          "type": "address"
        },
        {
          "internalType": "uint256[]",
          "name": "",
          "type": "uint256[]"
        },
        {
          "internalType": "uint256[]",
          "name": "",
          "type": "uint256[]"
        },
        {
          "internalType": "bytes",
          "name": "",
          "type": "bytes"
        }
      ],
      "name": "onERC1155BatchReceived",
      "outputs": [
        {
          "internalType": "bytes4",
          "name": "",
          "type": "bytes4"
        }
      ],
      "stateMutability": "nonpayable",
      "type": "function"
    },
    {
      "inputs": [
        {
          "internalType": "address",
          "name": "",
          "type": "address"
        },
        {
          "internalType": "address",
          "name": "",
          "type": "address"
        },
        {
          "internalType": "uint256",
          "name": "",
          "type": "uint256"
        },
        {
          "internalType": "uint256",
          "name": "",
          "type": "uint256"
        },
        {
          "internalType": "bytes",
          "name": "",
          "type": "bytes"
        }
      ],
      "name": "onERC1155Received",
      "outputs": [
        {
          "internalType": "bytes4",
          "name": "",
          "type": "bytes4"
        }
      ],
      "stateMutability": "nonpayable",
      "type": "function"
    },
    {
      "inputs": [
        {
          "internalType": "address",
          "name": "",
          "type": "address"
        },
        {
          "internalType": "address",
          "name": "",
          "type": "address"
        }
      ],
      "name": "pairs",
      "outputs": [
        {
          "internalType": "address",
          "name": "",
          "type": "address"
        }
      ],
      "stateMutability": "view",
      "type": "function"
    },
    {
      "inputs": [],
      "name": "pendingGovernor",
      "outputs": [
        {
          "internalType": "address",
          "name": "",
          "type": "address"
        }
      ],
      "stateMutability": "view",
      "type": "function"
    },
    {
      "inputs": [
        {
          "internalType": "address",
          "name": "tokenA",
          "type": "address"
        },
        {
          "internalType": "address",
          "name": "tokenB",
          "type": "address"
        },
        {
          "components": [
            {
              "internalType": "uint256",
              "name": "amtLPTake",
              "type": "uint256"
            },
            {
              "internalType": "uint256",
              "name": "amtLPWithdraw",
              "type": "uint256"
            },
            {
              "internalType": "uint256",
              "name": "amtARepay",
              "type": "uint256"
            },
            {
              "internalType": "uint256",
              "name": "amtBRepay",
              "type": "uint256"
            },
            {
              "internalType": "uint256",
              "name": "amtLPRepay",
              "type": "uint256"
            },
            {
              "internalType": "uint256",
              "name": "amtAMin",
              "type": "uint256"
            },
            {
              "internalType": "uint256",
              "name": "amtBMin",
              "type": "uint256"
            }
          ],
          "internalType": "struct SushiswapSpellV1.RepayAmounts",
          "name": "amt",
          "type": "tuple"
        }
      ],
      "name": "removeLiquidityWERC20",
      "outputs": [],
      "stateMutability": "nonpayable",
      "type": "function"
    },
    {
      "inputs": [
        {
          "internalType": "address",
          "name": "tokenA",
          "type": "address"
        },
        {
          "internalType": "address",
          "name": "tokenB",
          "type": "address"
        },
        {
          "components": [
            {
              "internalType": "uint256",
              "name": "amtLPTake",
              "type": "uint256"
            },
            {
              "internalType": "uint256",
              "name": "amtLPWithdraw",
              "type": "uint256"
            },
            {
              "internalType": "uint256",
              "name": "amtARepay",
              "type": "uint256"
            },
            {
              "internalType": "uint256",
              "name": "amtBRepay",
              "type": "uint256"
            },
            {
              "internalType": "uint256",
              "name": "amtLPRepay",
              "type": "uint256"
            },
            {
              "internalType": "uint256",
              "name": "amtAMin",
              "type": "uint256"
            },
            {
              "internalType": "uint256",
              "name": "amtBMin",
              "type": "uint256"
            }
          ],
          "internalType": "struct SushiswapSpellV1.RepayAmounts",
          "name": "amt",
          "type": "tuple"
        }
      ],
      "name": "removeLiquidityWMasterChef",
      "outputs": [],
      "stateMutability": "nonpayable",
      "type": "function"
    },
    {
      "inputs": [],
      "name": "router",
      "outputs": [
        {
          "internalType": "contract IUniswapV2Router02",
          "name": "",
          "type": "address"
        }
      ],
      "stateMutability": "view",
      "type": "function"
    },
    {
      "inputs": [
        {
          "internalType": "address",
          "name": "_pendingGovernor",
          "type": "address"
        }
      ],
      "name": "setPendingGovernor",
      "outputs": [],
      "stateMutability": "nonpayable",
      "type": "function"
    },
    {
      "inputs": [
        {
          "internalType": "address[]",
          "name": "lpTokens",
          "type": "address[]"
        },
        {
          "internalType": "bool[]",
          "name": "statuses",
          "type": "bool[]"
        }
      ],
      "name": "setWhitelistLPTokens",
      "outputs": [],
      "stateMutability": "nonpayable",
      "type": "function"
    },
    {
      "inputs": [
        {
          "internalType": "bytes4",
          "name": "interfaceId",
          "type": "bytes4"
        }
      ],
      "name": "supportsInterface",
      "outputs": [
        {
          "internalType": "bool",
          "name": "",
          "type": "bool"
        }
      ],
      "stateMutability": "view",
      "type": "function"
    },
    {
      "inputs": [],
      "name": "sushi",
      "outputs": [
        {
          "internalType": "address",
          "name": "",
          "type": "address"
        }
      ],
      "stateMutability": "view",
      "type": "function"
    },
    {
      "inputs": [],
      "name": "werc20",
      "outputs": [
        {
          "internalType": "contract IWERC20",
          "name": "",
          "type": "address"
        }
      ],
      "stateMutability": "view",
      "type": "function"
    },
    {
      "inputs": [],
      "name": "weth",
      "outputs": [
        {
          "internalType": "address",
          "name": "",
          "type": "address"
        }
      ],
      "stateMutability": "view",
      "type": "function"
    },
    {
      "inputs": [
        {
          "internalType": "address",
          "name": "",
          "type": "address"
        }
      ],
      "name": "whitelistedLpTokens",
      "outputs": [
        {
          "internalType": "bool",
          "name": "",
          "type": "bool"
        }
      ],
      "stateMutability": "view",
      "type": "function"
    },
    {
      "inputs": [],
      "name": "wmasterchef",
      "outputs": [
        {
          "internalType": "contract IWMasterChef",
          "name": "",
          "type": "address"
        }
      ],
      "stateMutability": "view",
      "type": "function"
    },
    {
      "stateMutability": "payable",
      "type": "receive"
    }
  ],
  "bytecode": "0x6101606040523480156200001257600080fd5b50604051620052e4380380620052e483398101604081905262000035916200078a565b8383836001600160a01b031663ad5c46486040518163ffffffff1660e01b815260040160206040518083038186803b1580156200007157600080fd5b505afa15801562000086573d6000803e3d6000fd5b505050506040513d601f19601f82011682018060405250810190620000ac919062000749565b6001600160601b0319606084811b821660805283811b821660a05282901b1660c052828282620000dd8184620002ff565b60405163a22cb46560e01b81526001600160a01b0383169063a22cb465906200010e90869060019060040162000856565b600060405180830381600087803b1580156200012957600080fd5b505af11580156200013e573d6000803e3d6000fd5b50505050505050620001556200038760201b60201c565b505050816001600160a01b0316610100816001600160a01b031660601b81525050816001600160a01b031663c45a01556040518163ffffffff1660e01b815260040160206040518083038186803b158015620001b057600080fd5b505afa158015620001c5573d6000803e3d6000fd5b505050506040513d601f19601f82011682018060405250810190620001eb919062000749565b6001600160601b0319606091821b811660e0529082901b166101205260405163a22cb46560e01b81526001600160a01b0382169063a22cb465906200023890879060019060040162000856565b600060405180830381600087803b1580156200025357600080fd5b505af115801562000268573d6000803e3d6000fd5b50505050806001600160a01b0316630a0879036040518163ffffffff1660e01b8152600401602060405180830381600087803b158015620002a857600080fd5b505af1158015620002bd573d6000803e3d6000fd5b505050506040513d601f19601f82011682018060405250810190620002e3919062000749565b60601b6001600160601b031916610140525062000a7a92505050565b6001600160a01b03808316600090815260406020818152818320938516835292909252205460ff1662000383576200035381600019846001600160a01b03166200047160201b62001d0a179092919060201c565b6001600160a01b0380831660009081526040602081815281832093851683529290925220805460ff191660011790555b5050565b604154610100900460ff1680620003a1575060415460ff16155b620003c95760405162461bcd60e51b8152600401620003c09062000905565b60405180910390fd5b604154610100900460ff16158015620003f5576041805460ff1961ff0019909116610100171660011790555b6041805462010000600160b01b0319163362010000810291909117909155604280546001600160a01b03191690556040517fbce074c8369e26e70e1ae2f14fc944da352cfe6f52e2de9572f0c9942a24b7fc91620004539162000828565b60405180910390a180156200046e576041805461ff00191690555b50565b801580620005005750604051636eb1769f60e11b81526001600160a01b0384169063dd62ed3e90620004aa90309086906004016200083c565b60206040518083038186803b158015620004c357600080fd5b505afa158015620004d8573d6000803e3d6000fd5b505050506040513d601f19601f82011682018060405250810190620004fe9190620007f1565b155b6200051f5760405162461bcd60e51b8152600401620003c090620009d4565b6200057a8363095ea7b360e01b84846040516024016200054192919062000871565b60408051808303601f190181529190526020810180516001600160e01b0319939093166001600160e01b03938416179052906200057f16565b505050565b6000620005db826040518060400160405280602081526020017f5361666545524332303a206c6f772d6c6576656c2063616c6c206661696c6564815250856001600160a01b03166200061b60201b62001e09179092919060201c565b8051909150156200057a5780806020019051810190620005fc919062000768565b6200057a5760405162461bcd60e51b8152600401620003c0906200098a565b60606200062c848460008562000636565b90505b9392505050565b6060824710156200065b5760405162461bcd60e51b8152600401620003c090620008bf565b620006668562000705565b620006855760405162461bcd60e51b8152600401620003c09062000953565b600080866001600160a01b03168587604051620006a391906200080a565b60006040518083038185875af1925050503d8060008114620006e2576040519150601f19603f3d011682016040523d82523d6000602084013e620006e7565b606091505b509092509050620006fa8282866200070b565b979650505050505050565b3b151590565b606083156200071c5750816200062f565b8251156200072d5782518084602001fd5b8160405162461bcd60e51b8152600401620003c091906200088a565b6000602082840312156200075b578081fd5b81516200062f8162000a64565b6000602082840312156200077a578081fd5b815180151581146200062f578182fd5b60008060008060808587031215620007a0578283fd5b8451620007ad8162000a64565b6020860151909450620007c08162000a64565b6040860151909350620007d38162000a64565b6060860151909250620007e68162000a64565b939692955090935050565b60006020828403121562000803578081fd5b5051919050565b600082516200081e81846020870162000a31565b9190910192915050565b6001600160a01b0391909116815260200190565b6001600160a01b0392831681529116602082015260400190565b6001600160a01b039290921682521515602082015260400190565b6001600160a01b03929092168252602082015260400190565b6000602082528251806020840152620008ab81604085016020870162000a31565b601f01601f19169190910160400192915050565b60208082526026908201527f416464726573733a20696e73756666696369656e742062616c616e636520666f6040820152651c8818d85b1b60d21b606082015260800190565b6020808252602e908201527f496e697469616c697a61626c653a20636f6e747261637420697320616c72656160408201526d191e481a5b9a5d1a585b1a5e995960921b606082015260800190565b6020808252601d908201527f416464726573733a2063616c6c20746f206e6f6e2d636f6e7472616374000000604082015260600190565b6020808252602a908201527f5361666545524332303a204552433230206f7065726174696f6e20646964206e6040820152691bdd081cdd58d8d9595960b21b606082015260800190565b60208082526036908201527f5361666545524332303a20617070726f76652066726f6d206e6f6e2d7a65726f60408201527f20746f206e6f6e2d7a65726f20616c6c6f77616e636500000000000000000000606082015260800190565b60005b8381101562000a4e57818101518382015260200162000a34565b8381111562000a5e576000848401525b50505050565b6001600160a01b03811681146200046e57600080fd5b60805160601c60a05160601c60c05160601c60e05160601c6101005160601c6101205160601c6101405160601c61464862000c9c600039600081816104a301528181610df3015281816111b901526119320152600081816108ee0152818161098e01528181610a6501528181610af801528181610b6d01528181610c8201528181610cc001528181610d9001528181610e9c01528181611014015281816110a70152818161111b015281816112db015281816114e50152818161158d015281816116200152818161169301528181611727015281816117d001526118b501526000818161075901528181610783015281816107ad01528181611ce801528181612363015281816124bd0152818161261301528181612e4c01526130100152600081816106a401526111f301526000818161016a0152818161082e015281816130d101528181613177015261350c0152600081816105110152818161054c015281816105fa01528181610e2e01528181611f250152611f990152600081816105ca0152818161085501528181610acb01528181610d6301528181610e7801528181610ed10152818161107a0152818161142e015281816115f30152818161188801528181611a9801528181611e4b01528181611ef70152818161200e015281816120cf0152818161217c01528181612229015281816129c0015281816131e201528181613473015281816134ae0152818161359801526135ec01526146486000f3fe60806040526004361061015a5760003560e01c806386adcc79116100c1578063e3056a341161007a578063e3056a34146103b5578063e58bb639146103ca578063ee42c6f4146103df578063f235757f146103ff578063f23a6e611461041f578063f4b160451461043f578063f887ea401461045f576101b2565b806386adcc791461031857806395723b1c1461032d578063bc197c811461034d578063c45a01551461037a578063cc9b18801461038f578063e07d904e146103a2576101b2565b80633fc8cef3116101135780633fc8cef31461028457806340a65ad2146102995780634bab09f6146102ae5780635741229c146102ce57806369454b86146102e357806376cdb03b14610303576101b2565b806301ffc9a7146101b75780630a087903146101ed5780630c340a241461020f5780631387d96d146102245780631a37e2fc146102445780632185059f14610264576101b2565b366101b257336001600160a01b037f000000000000000000000000000000000000000000000000000000000000000016146101b05760405162461bcd60e51b81526004016101a7906142dc565b60405180910390fd5b005b600080fd5b3480156101c357600080fd5b506101d76101d2366004613e8f565b610474565b6040516101e491906140bd565b60405180910390f35b3480156101f957600080fd5b506102026104a1565b6040516101e49190613fcc565b34801561021b57600080fd5b506102026104c5565b34801561023057600080fd5b506101b061023f366004613bb8565b6104da565b34801561025057600080fd5b506101b061025f366004613ccb565b610505565b34801561027057600080fd5b5061020261027f366004613a2c565b61065e565b34801561029057600080fd5b5061020261082c565b3480156102a557600080fd5b506101b0610850565b3480156102ba57600080fd5b506101d76102c93660046139f4565b610e17565b3480156102da57600080fd5b50610202610e2c565b3480156102ef57600080fd5b506102026102fe366004613a2c565b610e50565b34801561030f57600080fd5b50610202610e76565b34801561032457600080fd5b50610202610e9a565b34801561033957600080fd5b506101b0610348366004613bb8565b610ebe565b34801561035957600080fd5b5061036d610368366004613a64565b6111dd565b6040516101e491906140c8565b34801561038657600080fd5b506102026111f1565b6101b061039d366004613b1f565b611215565b6101b06103b0366004613b67565b6112c9565b3480156103c157600080fd5b50610202611963565b3480156103d657600080fd5b506101b0611972565b3480156103eb57600080fd5b506101b06103fa366004613d34565b611a02565b34801561040b57600080fd5b506101b061041a3660046139f4565b611c31565b34801561042b57600080fd5b5061036d61043a366004613c51565b611cb7565b34801561044b57600080fd5b506101d761045a366004613a2c565b611cc9565b34801561046b57600080fd5b50610202611ce6565b60006001600160e01b03198216630271189760e51b1480610499575061049982611e20565b90505b919050565b7f000000000000000000000000000000000000000000000000000000000000000081565b6041546201000090046001600160a01b031681565b60006104e6848461065e565b90506104f3818335611e39565b6104ff84848484611fd2565b50505050565b801561065a57610535827f00000000000000000000000000000000000000000000000000000000000000006128bf565b6040516340c10f1960e01b81526001600160a01b037f000000000000000000000000000000000000000000000000000000000000000016906340c10f19906105839085908590600401614083565b600060405180830381600087803b15801561059d57600080fd5b505af11580156105b1573d6000803e3d6000fd5b505060405163314568d960e01b81526001600160a01b037f00000000000000000000000000000000000000000000000000000000000000008116935063314568d99250610627917f000000000000000000000000000000000000000000000000000000000000000091871690869060040161409c565b600060405180830381600087803b15801561064157600080fd5b505af1158015610655573d6000803e3d6000fd5b505050505b5050565b6001600160a01b0380831660009081526084602090815260408083208585168452909152812054909116806108255760405163e6a4390560e01b81526001600160a01b037f0000000000000000000000000000000000000000000000000000000000000000169063e6a43905906106db9087908790600401613fe0565b60206040518083038186803b1580156106f357600080fd5b505afa158015610707573d6000803e3d6000fd5b505050506040513d601f19601f8201168201806040525081019061072b9190613a10565b90506001600160a01b0381166107535760405162461bcd60e51b81526004016101a790614259565b61077d847f00000000000000000000000000000000000000000000000000000000000000006128bf565b6107a7837f00000000000000000000000000000000000000000000000000000000000000006128bf565b6107d1817f00000000000000000000000000000000000000000000000000000000000000006128bf565b6001600160a01b0380851660008181526084602081815260408084208987168552825280842080549688166001600160a01b0319978816811790915592825280842094845293905291902080549092161790555b9392505050565b7f000000000000000000000000000000000000000000000000000000000000000081565b6000807f00000000000000000000000000000000000000000000000000000000000000006001600160a01b031663f70aedd96040518163ffffffff1660e01b815260040160806040518083038186803b1580156108ac57600080fd5b505afa1580156108c0573d6000803e3d6000fd5b505050506040513d601f19601f820116820180604052508101906108e49190613c0a565b50925092505060007f00000000000000000000000000000000000000000000000000000000000000006001600160a01b031663dc20c6fa836040518263ffffffff1660e01b815260040161093891906144a4565b604080518083038186803b15801561094f57600080fd5b505afa158015610963573d6000803e3d6000fd5b505050506040513d601f19601f820116820180604052508101906109879190613f1d565b50905060007f00000000000000000000000000000000000000000000000000000000000000006001600160a01b031663a4775772846040518263ffffffff1660e01b81526004016109d891906144a4565b60206040518083038186803b1580156109f057600080fd5b505afa158015610a04573d6000803e3d6000fd5b505050506040513d601f19601f82011682018060405250810190610a289190613a10565b6001600160a01b03811660009081526083602052604090205490915060ff16610a635760405162461bcd60e51b81526004016101a7906142aa565b7f00000000000000000000000000000000000000000000000000000000000000006001600160a01b0316846001600160a01b031614610ab45760405162461bcd60e51b81526004016101a79061430d565b604051630d1d697560e31b81526001600160a01b037f000000000000000000000000000000000000000000000000000000000000000016906368eb4ba890610b26907f00000000000000000000000000000000000000000000000000000000000000009087906000199060040161409c565b600060405180830381600087803b158015610b4057600080fd5b505af1158015610b54573d6000803e3d6000fd5b505060405163b390c0ab60e01b81526001600160a01b037f000000000000000000000000000000000000000000000000000000000000000016925063b390c0ab9150610ba890869060001990600401614500565b602060405180830381600087803b158015610bc257600080fd5b505af1158015610bd6573d6000803e3d6000fd5b505050506040513d601f19601f82011682018060405250810190610bfa9190613f05565b506040516370a0823160e01b81526000906001600160a01b038316906370a0823190610c2a903090600401613fcc565b60206040518083038186803b158015610c4257600080fd5b505afa158015610c56573d6000803e3d6000fd5b505050506040513d601f19601f82011682018060405250810190610c7a9190613f05565b9050610ca6827f00000000000000000000000000000000000000000000000000000000000000006128bf565b604051630d9778e560e11b81526000906001600160a01b037f00000000000000000000000000000000000000000000000000000000000000001690631b2ef1ca90610cf79087908690600401614500565b602060405180830381600087803b158015610d1157600080fd5b505af1158015610d25573d6000803e3d6000fd5b505050506040513d601f19601f82011682018060405250810190610d499190613f05565b60405163314568d960e01b81529091506001600160a01b037f0000000000000000000000000000000000000000000000000000000000000000169063314568d990610dbc907f0000000000000000000000000000000000000000000000000000000000000000908590879060040161409c565b600060405180830381600087803b158015610dd657600080fd5b505af1158015610dea573d6000803e3d6000fd5b505050506106557f0000000000000000000000000000000000000000000000000000000000000000612934565b60836020526000908152604090205460ff1681565b7f000000000000000000000000000000000000000000000000000000000000000081565b60846020908152600092835260408084209091529082529020546001600160a01b031681565b7f000000000000000000000000000000000000000000000000000000000000000081565b7f000000000000000000000000000000000000000000000000000000000000000081565b6000610eca848461065e565b90506000807f00000000000000000000000000000000000000000000000000000000000000006001600160a01b031663f70aedd96040518163ffffffff1660e01b815260040160806040518083038186803b158015610f2857600080fd5b505afa158015610f3c573d6000803e3d6000fd5b505050506040513d601f19601f82011682018060405250810190610f609190613c0a565b509250925050826001600160a01b0316826001600160a01b031663a4775772836040518263ffffffff1660e01b8152600401610f9c91906144a4565b60206040518083038186803b158015610fb457600080fd5b505afa158015610fc8573d6000803e3d6000fd5b505050506040513d601f19601f82011682018060405250810190610fec9190613a10565b6001600160a01b0316146110125760405162461bcd60e51b81526004016101a7906143d6565b7f00000000000000000000000000000000000000000000000000000000000000006001600160a01b0316826001600160a01b0316146110635760405162461bcd60e51b81526004016101a79061430d565b604051630d1d697560e31b81526001600160a01b037f000000000000000000000000000000000000000000000000000000000000000016906368eb4ba8906110d4907f000000000000000000000000000000000000000000000000000000000000000090859089359060040161409c565b600060405180830381600087803b1580156110ee57600080fd5b505af1158015611102573d6000803e3d6000fd5b505060405163b390c0ab60e01b81526001600160a01b037f000000000000000000000000000000000000000000000000000000000000000016925063b390c0ab9150611155908490883590600401614500565b602060405180830381600087803b15801561116f57600080fd5b505af1158015611183573d6000803e3d6000fd5b505050506040513d601f19601f820116820180604052508101906111a79190613f05565b506111b486868686611fd2565b6106557f0000000000000000000000000000000000000000000000000000000000000000612934565b63bc197c8160e01b98975050505050505050565b7f000000000000000000000000000000000000000000000000000000000000000081565b6000611221848461065e565b905061122f84848484612a60565b6112af81826001600160a01b03166370a08231306040518263ffffffff1660e01b815260040161125f9190613fcc565b60206040518083038186803b15801561127757600080fd5b505afa15801561128b573d6000803e3d6000fd5b505050506040513d601f19601f8201168201806040525081019061025f9190613f05565b6112b76130b7565b6112c084612934565b6104ff83612934565b60006112d5858561065e565b905060007f00000000000000000000000000000000000000000000000000000000000000006001600160a01b0316631fc8bc5d6040518163ffffffff1660e01b815260040160206040518083038186803b15801561133257600080fd5b505afa158015611346573d6000803e3d6000fd5b505050506040513d601f19601f8201168201806040525081019061136a9190613a10565b6001600160a01b0316631526fe27846040518263ffffffff1660e01b815260040161139591906144a4565b60806040518083038186803b1580156113ad57600080fd5b505afa1580156113c1573d6000803e3d6000fd5b505050506040513d601f19601f820116820180604052508101906113e59190613cf6565b5050509050816001600160a01b0316816001600160a01b03161461141b5760405162461bcd60e51b81526004016101a79061427e565b61142786868685612a60565b60008060007f00000000000000000000000000000000000000000000000000000000000000006001600160a01b031663f70aedd96040518163ffffffff1660e01b815260040160806040518083038186803b15801561148557600080fd5b505afa158015611499573d6000803e3d6000fd5b505050506040513d601f19601f820116820180604052508101906114bd9190613c0a565b9195509350915050801561172157604051636e10637d60e11b81526000906001600160a01b037f0000000000000000000000000000000000000000000000000000000000000000169063dc20c6fa9061151a9086906004016144a4565b604080518083038186803b15801561153157600080fd5b505afa158015611545573d6000803e3d6000fd5b505050506040513d601f19601f820116820180604052508101906115699190613f1d565b50905080871461158b5760405162461bcd60e51b81526004016101a790614378565b7f00000000000000000000000000000000000000000000000000000000000000006001600160a01b0316846001600160a01b0316146115dc5760405162461bcd60e51b81526004016101a79061430d565b604051630d1d697560e31b81526001600160a01b037f000000000000000000000000000000000000000000000000000000000000000016906368eb4ba89061164c907f0000000000000000000000000000000000000000000000000000000000000000908790879060040161409c565b600060405180830381600087803b15801561166657600080fd5b505af115801561167a573d6000803e3d6000fd5b505060405163b390c0ab60e01b81526001600160a01b037f000000000000000000000000000000000000000000000000000000000000000016925063b390c0ab91506116cc9086908690600401614500565b602060405180830381600087803b1580156116e657600080fd5b505af11580156116fa573d6000803e3d6000fd5b505050506040513d601f19601f8201168201806040525081019061171e9190613f05565b50505b61174b857f00000000000000000000000000000000000000000000000000000000000000006128bf565b6040516370a0823160e01b81526000906001600160a01b038716906370a082319061177a903090600401613fcc565b60206040518083038186803b15801561179257600080fd5b505afa1580156117a6573d6000803e3d6000fd5b505050506040513d601f19601f820116820180604052508101906117ca9190613f05565b905060007f00000000000000000000000000000000000000000000000000000000000000006001600160a01b0316631b2ef1ca89846040518363ffffffff1660e01b815260040161181c929190614500565b602060405180830381600087803b15801561183657600080fd5b505af115801561184a573d6000803e3d6000fd5b505050506040513d601f19601f8201168201806040525081019061186e9190613f05565b60405163314568d960e01b81529091506001600160a01b037f0000000000000000000000000000000000000000000000000000000000000000169063314568d9906118e1907f0000000000000000000000000000000000000000000000000000000000000000908590879060040161409c565b600060405180830381600087803b1580156118fb57600080fd5b505af115801561190f573d6000803e3d6000fd5b5050505061191b6130b7565b6119248b612934565b61192d8a612934565b6119567f0000000000000000000000000000000000000000000000000000000000000000612934565b5050505050505050505050565b6042546001600160a01b031681565b6042546001600160a01b0316331461199c5760405162461bcd60e51b81526004016101a79061413b565b604280546001600160a01b03191690556041805462010000600160b01b03191633620100008102919091179091556040517fd345d81ce68c70b119a17eee79dc1421700bd9cb21ca148a62dc90983964e82f916119f891613fcc565b60405180910390a1565b6041546201000090046001600160a01b03163314611a325760405162461bcd60e51b81526004016101a7906141ea565b828114611a515760405162461bcd60e51b81526004016101a790614214565b60005b83811015611c2a57828282818110611a7c57634e487b7160e01b600052603260045260246000fd5b9050602002016020810190611a919190613e57565b15611b82577f00000000000000000000000000000000000000000000000000000000000000006001600160a01b031663e660cc08868684818110611ae557634e487b7160e01b600052603260045260246000fd5b9050602002016020810190611afa91906139f4565b6040518263ffffffff1660e01b8152600401611b169190613fcc565b60206040518083038186803b158015611b2e57600080fd5b505afa158015611b42573d6000803e3d6000fd5b505050506040513d601f19601f82011682018060405250810190611b669190613e73565b611b825760405162461bcd60e51b81526004016101a79061416d565b828282818110611ba257634e487b7160e01b600052603260045260246000fd5b9050602002016020810190611bb79190613e57565b60836000878785818110611bdb57634e487b7160e01b600052603260045260246000fd5b9050602002016020810190611bf091906139f4565b6001600160a01b031681526020810191909152604001600020805460ff191691151591909117905580611c22816145a8565b915050611a54565b5050505050565b6041546201000090046001600160a01b03163314611c615760405162461bcd60e51b81526004016101a7906141ea565b604280546001600160a01b0319166001600160a01b0383161790556040517f964dea888b00b2ab53f13dfe7ca334b46e99338c222ae232d98547a1da019f6090611cac908390613fcc565b60405180910390a150565b63f23a6e6160e01b9695505050505050565b604060208181526000938452818420905290825290205460ff1681565b7f000000000000000000000000000000000000000000000000000000000000000081565b801580611d925750604051636eb1769f60e11b81526001600160a01b0384169063dd62ed3e90611d409030908690600401613fe0565b60206040518083038186803b158015611d5857600080fd5b505afa158015611d6c573d6000803e3d6000fd5b505050506040513d601f19601f82011682018060405250810190611d909190613f05565b155b611dae5760405162461bcd60e51b81526004016101a79061444e565b611e048363095ea7b360e01b8484604051602401611dcd929190614083565b60408051601f198184030181529190526020810180516001600160e01b03166001600160e01b031990931692909217909152613300565b505050565b6060611e18848460008561338f565b949350505050565b6001600160e01b031981166301ffc9a760e01b14919050565b801561065a57600019811415611ee0577f00000000000000000000000000000000000000000000000000000000000000006001600160a01b031663f70aedd96040518163ffffffff1660e01b815260040160806040518083038186803b158015611ea257600080fd5b505afa158015611eb6573d6000803e3d6000fd5b505050506040513d601f19601f82011682018060405250810190611eda9190613c0a565b93505050505b604051630d1d697560e31b81526001600160a01b037f00000000000000000000000000000000000000000000000000000000000000008116916368eb4ba891611f52917f000000000000000000000000000000000000000000000000000000000000000091871690869060040161409c565b600060405180830381600087803b158015611f6c57600080fd5b505af1158015611f80573d6000803e3d6000fd5b5050604051632770a7eb60e21b81526001600160a01b037f0000000000000000000000000000000000000000000000000000000000000000169250639dc29fac91506106279085908590600401614083565b6001600160a01b03811660009081526083602052604090205460ff1661200a5760405162461bcd60e51b81526004016101a7906142aa565b60007f00000000000000000000000000000000000000000000000000000000000000006001600160a01b031663d7ac71ff6040518163ffffffff1660e01b815260040160206040518083038186803b15801561206557600080fd5b505afa158015612079573d6000803e3d6000fd5b505050506040513d601f19601f8201168201806040525081019061209d9190613f05565b905060408301356060840135608085013560001983141561215b576040516320a8bee760e21b81526001600160a01b037f000000000000000000000000000000000000000000000000000000000000000016906382a2fb9c906121069087908c906004016144ad565b602060405180830381600087803b15801561212057600080fd5b505af1158015612134573d6000803e3d6000fd5b505050506040513d601f19601f820116820180604052508101906121589190613f05565b92505b600019821415612208576040516320a8bee760e21b81526001600160a01b037f000000000000000000000000000000000000000000000000000000000000000016906382a2fb9c906121b39087908b906004016144ad565b602060405180830381600087803b1580156121cd57600080fd5b505af11580156121e1573d6000803e3d6000fd5b505050506040513d601f19601f820116820180604052508101906122059190613f05565b91505b6000198114156122b5576040516320a8bee760e21b81526001600160a01b037f000000000000000000000000000000000000000000000000000000000000000016906382a2fb9c9061226090879089906004016144ad565b602060405180830381600087803b15801561227a57600080fd5b505af115801561228e573d6000803e3d6000fd5b505050506040513d601f19601f820116820180604052508101906122b29190613f05565b90505b60006123418760200135876001600160a01b03166370a08231306040518263ffffffff1660e01b81526004016122eb9190613fcc565b60206040518083038186803b15801561230357600080fd5b505afa158015612317573d6000803e3d6000fd5b505050506040513d601f19601f8201168201806040525081019061233b9190613f05565b9061344f565b905060008082156123fc57604051635d5155ef60e11b81526001600160a01b037f0000000000000000000000000000000000000000000000000000000000000000169063baa2abde906123a5908e908e908890600090819030904290600401613ffa565b6040805180830381600087803b1580156123be57600080fd5b505af11580156123d2573d6000803e3d6000fd5b505050506040513d601f19601f820116820180604052508101906123f69190613f1d565b90925090505b600061240c8760a08c013561345b565b9050600061241e8760c08d013561345b565b9050818410801561242e57508083115b15612576576040805160028082526060820183526000926020830190803683370190505090508c8e8260008151811061247757634e487b7160e01b600052603260045260246000fd5b602002602001018360018151811061249f57634e487b7160e01b600052603260045260246000fd5b6001600160a01b0393841660209182029290920101529181169091527f000000000000000000000000000000000000000000000000000000000000000016638803dbee6124ec858861344f565b6124f6878661344f565b8430426040518663ffffffff1660e01b81526004016125199594939291906144c4565b600060405180830381600087803b15801561253357600080fd5b505af1158015612547573d6000803e3d6000fd5b505050506040513d6000823e601f3d908101601f1916820160405261256f9190810190613d9d565b50506126c8565b818411801561258457508083105b156126c8576040805160028082526060820183526000926020830190803683370190505090508d8d826000815181106125cd57634e487b7160e01b600052603260045260246000fd5b60200260200101836001815181106125f557634e487b7160e01b600052603260045260246000fd5b6001600160a01b0393841660209182029290920101529181169091527f000000000000000000000000000000000000000000000000000000000000000016638803dbee612642848761344f565b61264c888761344f565b8430426040518663ffffffff1660e01b815260040161266f9594939291906144c4565b600060405180830381600087803b15801561268957600080fd5b505af115801561269d573d6000803e3d6000fd5b505050506040513d6000823e601f3d908101601f191682016040526126c59190810190613d9d565b50505b6126d28d89613467565b6126dc8c88613467565b6126e68a87613467565b6040516370a0823160e01b815260a08c0135906001600160a01b038f16906370a0823190612718903090600401613fcc565b60206040518083038186803b15801561273057600080fd5b505afa158015612744573d6000803e3d6000fd5b505050506040513d601f19601f820116820180604052508101906127689190613f05565b101561277357600080fd5b6040516370a0823160e01b815260c08c0135906001600160a01b038e16906370a08231906127a5903090600401613fcc565b60206040518083038186803b1580156127bd57600080fd5b505afa1580156127d1573d6000803e3d6000fd5b505050506040513d601f19601f820116820180604052508101906127f59190613f05565b101561280057600080fd5b6040516370a0823160e01b815260208c0135906001600160a01b038c16906370a0823190612832903090600401613fcc565b60206040518083038186803b15801561284a57600080fd5b505afa15801561285e573d6000803e3d6000fd5b505050506040513d601f19601f820116820180604052508101906128829190613f05565b101561288d57600080fd5b6128956130b7565b61289e8d612934565b6128a78c612934565b6128b08a612934565b50505050505050505050505050565b6001600160a01b03808316600090815260406020818152818320938516835292909252205460ff1661065a576129016001600160a01b03831682600019611d0a565b6001600160a01b0380831660009081526040602081815281832093851683529290925220805460ff191660011790555050565b6040516370a0823160e01b81526000906001600160a01b038316906370a0823190612963903090600401613fcc565b60206040518083038186803b15801561297b57600080fd5b505afa15801561298f573d6000803e3d6000fd5b505050506040513d601f19601f820116820180604052508101906129b39190613f05565b9050801561065a5761065a7f00000000000000000000000000000000000000000000000000000000000000006001600160a01b031663630dc7cb6040518163ffffffff1660e01b815260040160206040518083038186803b158015612a1757600080fd5b505afa158015612a2b573d6000803e3d6000fd5b505050506040513d601f19601f82011682018060405250810190612a4f9190613a10565b6001600160a01b03841690836134e5565b6001600160a01b03811660009081526083602052604090205460ff16612a985760405162461bcd60e51b81526004016101a7906142aa565b612aa0613504565b612aab84833561357b565b612ab983836020013561357b565b612ac781836040013561357b565b612ad58483606001356135cf565b612ae38383608001356135cf565b612af1818360a001356135cf565b6000806000866001600160a01b03166370a08231306040518263ffffffff1660e01b8152600401612b229190613fcc565b60206040518083038186803b158015612b3a57600080fd5b505afa158015612b4e573d6000803e3d6000fd5b505050506040513d601f19601f82011682018060405250810190612b729190613f05565b90506000866001600160a01b03166370a08231306040518263ffffffff1660e01b8152600401612ba29190613fcc565b60206040518083038186803b158015612bba57600080fd5b505afa158015612bce573d6000803e3d6000fd5b505050506040513d601f19601f82011682018060405250810190612bf29190613f05565b9050600080896001600160a01b0316876001600160a01b0316630dfe16816040518163ffffffff1660e01b815260040160206040518083038186803b158015612c3a57600080fd5b505afa158015612c4e573d6000803e3d6000fd5b505050506040513d601f19601f82011682018060405250810190612c729190613a10565b6001600160a01b03161415612d0857866001600160a01b0316630902f1ac6040518163ffffffff1660e01b815260040160606040518083038186803b158015612cba57600080fd5b505afa158015612cce573d6000803e3d6000fd5b505050506040513d601f19601f82011682018060405250810190612cf29190613eb7565b506001600160701b039182169350169050612d8b565b866001600160a01b0316630902f1ac6040518163ffffffff1660e01b815260040160606040518083038186803b158015612d4157600080fd5b505afa158015612d55573d6000803e3d6000fd5b505050506040513d601f19601f82011682018060405250810190612d799190613eb7565b506001600160701b0390811693501690505b612d9784848484613623565b90965094505084159250612ee59150505760408051600280825260608201835260009260208301908036833701905050905081612dd5578686612dd8565b85875b82600081518110612df957634e487b7160e01b600052603260045260246000fd5b6020026020010183600181518110612e2157634e487b7160e01b600052603260045260246000fd5b6001600160a01b0393841660209182029290920101529181169091526040516338ed173960e01b81527f0000000000000000000000000000000000000000000000000000000000000000909116906338ed173990612e8c9086906000908690309042906004016144c4565b600060405180830381600087803b158015612ea657600080fd5b505af1158015612eba573d6000803e3d6000fd5b505050506040513d6000823e601f3d908101601f19168201604052612ee29190810190613d9d565b50505b6040516370a0823160e01b81526000906001600160a01b038816906370a0823190612f14903090600401613fcc565b60206040518083038186803b158015612f2c57600080fd5b505afa158015612f40573d6000803e3d6000fd5b505050506040513d601f19601f82011682018060405250810190612f649190613f05565b90506000866001600160a01b03166370a08231306040518263ffffffff1660e01b8152600401612f949190613fcc565b60206040518083038186803b158015612fac57600080fd5b505afa158015612fc0573d6000803e3d6000fd5b505050506040513d601f19601f82011682018060405250810190612fe49190613f05565b90506000821180612ff55750600081115b156130ad5760405162e8e33760e81b81526001600160a01b037f0000000000000000000000000000000000000000000000000000000000000000169063e8e337009061305b908b908b908790879060c08e01359060e08f0135903090429060040161403a565b606060405180830381600087803b15801561307557600080fd5b505af1158015613089573d6000803e3d6000fd5b505050506040513d601f19601f820116820180604052508101906119569190613f40565b5050505050505050565b6040516370a0823160e01b81526000906001600160a01b037f000000000000000000000000000000000000000000000000000000000000000016906370a0823190613106903090600401613fcc565b602060405180830381600087803b15801561312057600080fd5b505af1158015613134573d6000803e3d6000fd5b505050506040513d601f19601f820116820180604052508101906131589190613f05565b905080156132fd57604051632e1a7d4d60e01b81526001600160a01b037f00000000000000000000000000000000000000000000000000000000000000001690632e1a7d4d906131ac9084906004016144a4565b600060405180830381600087803b1580156131c657600080fd5b505af11580156131da573d6000803e3d6000fd5b5050505060007f00000000000000000000000000000000000000000000000000000000000000006001600160a01b031663630dc7cb6040518163ffffffff1660e01b815260040160206040518083038186803b15801561323957600080fd5b505afa15801561324d573d6000803e3d6000fd5b505050506040513d601f19601f820116820180604052508101906132719190613a10565b604080516000815260208101918290526001600160a01b039290921691849161329a9190613fb0565b60006040518083038185875af1925050503d80600081146132d7576040519150601f19603f3d011682016040523d82523d6000602084013e6132dc565b606091505b505090508061065a5760405162461bcd60e51b81526004016101a790614110565b50565b6000613355826040518060400160405280602081526020017f5361666545524332303a206c6f772d6c6576656c2063616c6c206661696c6564815250856001600160a01b0316611e099092919063ffffffff16565b805190915015611e0457808060200190518101906133739190613e73565b611e045760405162461bcd60e51b81526004016101a790614404565b6060824710156133b15760405162461bcd60e51b81526004016101a7906141a4565b6133ba85613672565b6133d65760405162461bcd60e51b81526004016101a79061439f565b600080866001600160a01b031685876040516133f29190613fb0565b60006040518083038185875af1925050503d806000811461342f576040519150601f19603f3d011682016040523d82523d6000602084013e613434565b606091505b5091509150613444828286613678565b979650505050505050565b60006108258284614565565b6000610825828461450e565b801561065a57613497827f00000000000000000000000000000000000000000000000000000000000000006128bf565b604051630450cfaf60e31b81526001600160a01b037f000000000000000000000000000000000000000000000000000000000000000016906322867d78906106279085908590600401614083565b611e048363a9059cbb60e01b8484604051602401611dcd929190614083565b3415613579577f00000000000000000000000000000000000000000000000000000000000000006001600160a01b031663d0e30db0346040518263ffffffff1660e01b81526004016000604051808303818588803b15801561356557600080fd5b505af1158015611c2a573d6000803e3d6000fd5b565b801561065a5760405163246b5de160e11b81526001600160a01b037f000000000000000000000000000000000000000000000000000000000000000016906348d6bbc2906106279085908590600401614083565b801561065a57604051634b8a352960e01b81526001600160a01b037f00000000000000000000000000000000000000000000000000000000000000001690634b8a3529906106279085908590600401614083565b60008061363085856136b1565b61363a87856136b1565b106136565761364b868686866136bd565b915060009050613669565b613662858785876136bd565b9150600190505b94509492505050565b3b151590565b60608315613687575081610825565b8251156136975782518084602001fd5b8160405162461bcd60e51b81526004016101a791906140dd565b60006108258284614546565b60006136c984846136b1565b6136d386846136b1565b10156136f15760405162461bcd60e51b81526004016101a790614356565b6103e560006137026107cd866136b1565b9050600061371d61371388886136b1565b61233b8a886136b1565b9050600061374a876137446137328b8a61345b565b61373e866103e86136b1565b906137b7565b906136b1565b9050600061375d600461374487856136b1565b9050600061377d6137788361377288806136b1565b9061345b565b6137c3565b9050600061378b828761344f565b9050600061379a8860026136b1565b90506137a682826137b7565b9d9c50505050505050505050505050565b60006108258284614526565b6000816137d25750600061049c565b816001600160801b82106137eb5760809190911c9060401b5b600160401b82106138015760409190911c9060201b5b64010000000082106138185760209190911c9060101b5b62010000821061382d5760109190911c9060081b5b61010082106138415760089190911c9060041b5b601082106138545760049190911c9060021b5b600882106138605760011b5b600161386c8286614526565b613876908361450e565b901c905060016138868286614526565b613890908361450e565b901c905060016138a08286614526565b6138aa908361450e565b901c905060016138ba8286614526565b6138c4908361450e565b901c905060016138d48286614526565b6138de908361450e565b901c905060016138ee8286614526565b6138f8908361450e565b901c905060016139088286614526565b613912908361450e565b901c905060006139228286614526565b90508082106139315780613933565b815b95945050505050565b60008083601f84011261394d578081fd5b50813567ffffffffffffffff811115613964578182fd5b602083019150836020808302850101111561397e57600080fd5b9250929050565b60008083601f840112613996578182fd5b50813567ffffffffffffffff8111156139ad578182fd5b60208301915083602082850101111561397e57600080fd5b600061010082840312156139d7578081fd5b50919050565b80516001600160701b038116811461049c57600080fd5b600060208284031215613a05578081fd5b8135610825816145ef565b600060208284031215613a21578081fd5b8151610825816145ef565b60008060408385031215613a3e578081fd5b8235613a49816145ef565b91506020830135613a59816145ef565b809150509250929050565b60008060008060008060008060a0898b031215613a7f578384fd5b8835613a8a816145ef565b97506020890135613a9a816145ef565b9650604089013567ffffffffffffffff80821115613ab6578586fd5b613ac28c838d0161393c565b909850965060608b0135915080821115613ada578586fd5b613ae68c838d0161393c565b909650945060808b0135915080821115613afe578384fd5b50613b0b8b828c01613985565b999c989b5096995094979396929594505050565b60008060006101408486031215613b34578283fd5b8335613b3f816145ef565b92506020840135613b4f816145ef565b9150613b5e85604086016139c5565b90509250925092565b6000806000806101608587031215613b7d578384fd5b8435613b88816145ef565b93506020850135613b98816145ef565b9250613ba786604087016139c5565b939692955092936101400135925050565b6000806000838503610120811215613bce578384fd5b8435613bd9816145ef565b93506020850135613be9816145ef565b925060e0603f1982011215613bfc578182fd5b506040840190509250925092565b60008060008060808587031215613c1f578182fd5b8451613c2a816145ef565b6020860151909450613c3b816145ef565b6040860151606090960151949790965092505050565b60008060008060008060a08789031215613c69578384fd5b8635613c74816145ef565b95506020870135613c84816145ef565b94506040870135935060608701359250608087013567ffffffffffffffff811115613cad578283fd5b613cb989828a01613985565b979a9699509497509295939492505050565b60008060408385031215613cdd578182fd5b8235613ce8816145ef565b946020939093013593505050565b60008060008060808587031215613d0b578182fd5b8451613d16816145ef565b60208601516040870151606090970151919890975090945092505050565b60008060008060408587031215613d49578182fd5b843567ffffffffffffffff80821115613d60578384fd5b613d6c8883890161393c565b90965094506020870135915080821115613d84578384fd5b50613d918782880161393c565b95989497509550505050565b60006020808385031215613daf578182fd5b825167ffffffffffffffff80821115613dc6578384fd5b818501915085601f830112613dd9578384fd5b815181811115613deb57613deb6145d9565b83810260405185828201018181108582111715613e0a57613e0a6145d9565b604052828152858101935084860182860187018a1015613e28578788fd5b8795505b83861015613e4a578051855260019590950194938601938601613e2c565b5098975050505050505050565b600060208284031215613e68578081fd5b813561082581614604565b600060208284031215613e84578081fd5b815161082581614604565b600060208284031215613ea0578081fd5b81356001600160e01b031981168114610825578182fd5b600080600060608486031215613ecb578081fd5b613ed4846139dd565b9250613ee2602085016139dd565b9150604084015163ffffffff81168114613efa578182fd5b809150509250925092565b600060208284031215613f16578081fd5b5051919050565b60008060408385031215613f2f578182fd5b505080516020909101519092909150565b600080600060608486031215613f54578081fd5b8351925060208401519150604084015190509250925092565b6000815180845260208085019450808401835b83811015613fa55781516001600160a01b031687529582019590820190600101613f80565b509495945050505050565b60008251613fc281846020870161457c565b9190910192915050565b6001600160a01b0391909116815260200190565b6001600160a01b0392831681529116602082015260400190565b6001600160a01b039788168152958716602087015260408601949094526060850192909252608084015290921660a082015260c081019190915260e00190565b6001600160a01b039889168152968816602088015260408701959095526060860193909352608085019190915260a084015290921660c082015260e08101919091526101000190565b6001600160a01b03929092168252602082015260400190565b6001600160a01b039390931683526020830191909152604082015260600190565b901515815260200190565b6001600160e01b031991909116815260200190565b60006020825282518060208401526140fc81604085016020870161457c565b601f01601f19169190910160400192915050565b6020808252601190820152701c99599d5b99081155120819985a5b1959607a1b604082015260600190565b6020808252601890820152773737ba103a3432903832b73234b7339033b7bb32b93737b960411b604082015260600190565b6020808252601b908201527f6f7261636c65206e6f7420737570706f7274206c7020746f6b656e0000000000604082015260600190565b60208082526026908201527f416464726573733a20696e73756666696369656e742062616c616e636520666f6040820152651c8818d85b1b60d21b606082015260800190565b60208082526010908201526f3737ba103a34329033b7bb32b93737b960811b604082015260600190565b60208082526025908201527f6c70546f6b656e732026207374617475736573206c656e677468206d69736d616040820152641d18da195960da1b606082015260800190565b6020808252600b908201526a3737903638103a37b5b2b760a91b604082015260600190565b60208082526012908201527134b731b7b93932b1ba103638103a37b5b2b760711b604082015260600190565b6020808252601890820152771b1c081d1bdad95b881b9bdd081dda1a5d195b1a5cdd195960421b604082015260600190565b60208082526017908201527608aa89040daeae6e840c6dedaca40cce4deda40ae8aa89604b1b604082015260600190565b60208082526029908201527f636f6c6c61746572616c20746f6b656e202620776d617374657263686566206d6040820152681a5cdb585d18da195960ba1b606082015260800190565b60208082526008908201526714995d995c9cd95960c21b604082015260600190565b6020808252600d908201526c1a5b98dbdc9c9958dd081c1a59609a1b604082015260600190565b6020808252601d908201527f416464726573733a2063616c6c20746f206e6f6e2d636f6e7472616374000000604082015260600190565b602080825260149082015273696e636f727265637420756e6465726c79696e6760601b604082015260600190565b6020808252602a908201527f5361666545524332303a204552433230206f7065726174696f6e20646964206e6040820152691bdd081cdd58d8d9595960b21b606082015260800190565b60208082526036908201527f5361666545524332303a20617070726f76652066726f6d206e6f6e2d7a65726f60408201527520746f206e6f6e2d7a65726f20616c6c6f77616e636560501b606082015260800190565b90815260200190565b9182526001600160a01b0316602082015260400190565b600086825285602083015260a060408301526144e360a0830186613f6d565b6001600160a01b0394909416606083015250608001529392505050565b918252602082015260400190565b60008219821115614521576145216145c3565b500190565b60008261454157634e487b7160e01b81526012600452602481fd5b500490565b6000816000190483118215151615614560576145606145c3565b500290565b600082821015614577576145776145c3565b500390565b60005b8381101561459757818101518382015260200161457f565b838111156104ff5750506000910152565b60006000198214156145bc576145bc6145c3565b5060010190565b634e487b7160e01b600052601160045260246000fd5b634e487b7160e01b600052604160045260246000fd5b6001600160a01b03811681146132fd57600080fd5b80151581146132fd57600080fdfea2646970667358221220109ca100e15eca8d08c9963ace08091fc481c815b9b015c0c0511e2c7df3e8e864736f6c63430008000033",
  "linkReferences": {},
  "deployedLinkReferences": {}
}