{
  "_format": "hh-sol-artifact-1",
  "contractName": "SafeBoxETH",
  "sourceName": "contracts/SafeBoxETH.sol",
  "abi": [
    {
      "inputs": [
        {
          "internalType": "contract ICErc20",
          "name": "_cToken",
          "type": "address"
        },
        {
          "internalType": "string",
          "name": "_name",
          "type": "string"
        },
        {
          "internalType": "string",
          "name": "_symbol",
          "type": "string"
        }
      ],
      "stateMutability": "nonpayable",
      "type": "constructor"
    },
    {
      "anonymous": false,
      "inputs": [
        {
          "indexed": false,
          "internalType": "address",
          "name": "governor",
          "type": "address"
        }
      ],
      "name": "AcceptGovernor",
      "type": "event"
    },
    {
      "anonymous": false,
      "inputs": [
        {
          "indexed": true,
          "internalType": "address",
          "name": "owner",
          "type": "address"
        },
        {
          "indexed": true,
          "internalType": "address",
          "name": "spender",
          "type": "address"
        },
        {
          "indexed": false,
          "internalType": "uint256",
          "name": "value",
          "type": "uint256"
        }
      ],
      "name": "Approval",
      "type": "event"
    },
    {
      "anonymous": false,
      "inputs": [
        {
          "indexed": false,
          "internalType": "address",
          "name": "user",
          "type": "address"
        },
        {
          "indexed": false,
          "internalType": "uint256",
          "name": "amount",
          "type": "uint256"
        }
      ],
      "name": "Claim",
      "type": "event"
    },
    {
      "anonymous": false,
      "inputs": [
        {
          "indexed": false,
          "internalType": "address",
          "name": "governor",
          "type": "address"
        }
      ],
      "name": "SetGovernor",
      "type": "event"
    },
    {
      "anonymous": false,
      "inputs": [
        {
          "indexed": false,
          "internalType": "address",
          "name": "pendingGovernor",
          "type": "address"
        }
      ],
      "name": "SetPendingGovernor",
      "type": "event"
    },
    {
      "anonymous": false,
      "inputs": [
        {
          "indexed": true,
          "internalType": "address",
          "name": "from",
          "type": "address"
        },
        {
          "indexed": true,
          "internalType": "address",
          "name": "to",
          "type": "address"
        },
        {
          "indexed": false,
          "internalType": "uint256",
          "name": "value",
          "type": "uint256"
        }
      ],
      "name": "Transfer",
      "type": "event"
    },
    {
      "inputs": [],
      "name": "acceptGovernor",
      "outputs": [],
      "stateMutability": "nonpayable",
      "type": "function"
    },
    {
      "inputs": [
        {
          "internalType": "uint256",
          "name": "amount",
          "type": "uint256"
        }
      ],
      "name": "adminClaim",
      "outputs": [],
      "stateMutability": "nonpayable",
      "type": "function"
    },
    {
      "inputs": [
        {
          "internalType": "address",
          "name": "owner",
          "type": "address"
        },
        {
          "internalType": "address",
          "name": "spender",
          "type": "address"
        }
      ],
      "name": "allowance",
      "outputs": [
        {
          "internalType": "uint256",
          "name": "",
          "type": "uint256"
        }
      ],
      "stateMutability": "view",
      "type": "function"
    },
    {
      "inputs": [
        {
          "internalType": "address",
          "name": "spender",
          "type": "address"
        },
        {
          "internalType": "uint256",
          "name": "amount",
          "type": "uint256"
        }
      ],
      "name": "approve",
      "outputs": [
        {
          "internalType": "bool",
          "name": "",
          "type": "bool"
        }
      ],
      "stateMutability": "nonpayable",
      "type": "function"
    },
    {
      "inputs": [
        {
          "internalType": "address",
          "name": "account",
          "type": "address"
        }
      ],
      "name": "balanceOf",
      "outputs": [
        {
          "internalType": "uint256",
          "name": "",
          "type": "uint256"
        }
      ],
      "stateMutability": "view",
      "type": "function"
    },
    {
      "inputs": [],
      "name": "cToken",
      "outputs": [
        {
          "internalType": "contract ICErc20",
          "name": "",
          "type": "address"
        }
      ],
      "stateMutability": "view",
      "type": "function"
    },
    {
      "inputs": [
        {
          "internalType": "uint256",
          "name": "totalAmount",
          "type": "uint256"
        },
        {
          "internalType": "bytes32[]",
          "name": "proof",
          "type": "bytes32[]"
        }
      ],
      "name": "claim",
      "outputs": [],
      "stateMutability": "nonpayable",
      "type": "function"
    },
    {
      "inputs": [
        {
          "internalType": "uint256",
          "name": "totalAmount",
          "type": "uint256"
        },
        {
          "internalType": "bytes32[]",
          "name": "proof",
          "type": "bytes32[]"
        },
        {
          "internalType": "uint256",
          "name": "withdrawAmount",
          "type": "uint256"
        }
      ],
      "name": "claimAndWithdraw",
      "outputs": [],
      "stateMutability": "nonpayable",
      "type": "function"
    },
    {
      "inputs": [
        {
          "internalType": "address",
          "name": "",
          "type": "address"
        }
      ],
      "name": "claimed",
      "outputs": [
        {
          "internalType": "uint256",
          "name": "",
          "type": "uint256"
        }
      ],
      "stateMutability": "view",
      "type": "function"
    },
    {
      "inputs": [],
      "name": "decimals",
      "outputs": [
        {
          "internalType": "uint8",
          "name": "",
          "type": "uint8"
        }
      ],
      "stateMutability": "view",
      "type": "function"
    },
    {
      "inputs": [
        {
          "internalType": "address",
          "name": "spender",
          "type": "address"
        },
        {
          "internalType": "uint256",
          "name": "subtractedValue",
          "type": "uint256"
        }
      ],
      "name": "decreaseAllowance",
      "outputs": [
        {
          "internalType": "bool",
          "name": "",
          "type": "bool"
        }
      ],
      "stateMutability": "nonpayable",
      "type": "function"
    },
    {
      "inputs": [],
      "name": "deposit",
      "outputs": [],
      "stateMutability": "payable",
      "type": "function"
    },
    {
      "inputs": [],
      "name": "governor",
      "outputs": [
        {
          "internalType": "address",
          "name": "",
          "type": "address"
        }
      ],
      "stateMutability": "view",
      "type": "function"
    },
    {
      "inputs": [
        {
          "internalType": "address",
          "name": "spender",
          "type": "address"
        },
        {
          "internalType": "uint256",
          "name": "addedValue",
          "type": "uint256"
        }
      ],
      "name": "increaseAllowance",
      "outputs": [
        {
          "internalType": "bool",
          "name": "",
          "type": "bool"
        }
      ],
      "stateMutability": "nonpayable",
      "type": "function"
    },
    {
      "inputs": [],
      "name": "name",
      "outputs": [
        {
          "internalType": "string",
          "name": "",
          "type": "string"
        }
      ],
      "stateMutability": "view",
      "type": "function"
    },
    {
      "inputs": [],
      "name": "pendingGovernor",
      "outputs": [
        {
          "internalType": "address",
          "name": "",
          "type": "address"
        }
      ],
      "stateMutability": "view",
      "type": "function"
    },
    {
      "inputs": [],
      "name": "relayer",
      "outputs": [
        {
          "internalType": "address",
          "name": "",
          "type": "address"
        }
      ],
      "stateMutability": "view",
      "type": "function"
    },
    {
      "inputs": [],
      "name": "root",
      "outputs": [
        {
          "internalType": "bytes32",
          "name": "",
          "type": "bytes32"
        }
      ],
      "stateMutability": "view",
      "type": "function"
    },
    {
      "inputs": [
        {
          "internalType": "address",
          "name": "_pendingGovernor",
          "type": "address"
        }
      ],
      "name": "setPendingGovernor",
      "outputs": [],
      "stateMutability": "nonpayable",
      "type": "function"
    },
    {
      "inputs": [
        {
          "internalType": "address",
          "name": "_relayer",
          "type": "address"
        }
      ],
      "name": "setRelayer",
      "outputs": [],
      "stateMutability": "nonpayable",
      "type": "function"
    },
    {
      "inputs": [],
      "name": "symbol",
      "outputs": [
        {
          "internalType": "string",
          "name": "",
          "type": "string"
        }
      ],
      "stateMutability": "view",
      "type": "function"
    },
    {
      "inputs": [],
      "name": "totalSupply",
      "outputs": [
        {
          "internalType": "uint256",
          "name": "",
          "type": "uint256"
        }
      ],
      "stateMutability": "view",
      "type": "function"
    },
    {
      "inputs": [
        {
          "internalType": "address",
          "name": "recipient",
          "type": "address"
        },
        {
          "internalType": "uint256",
          "name": "amount",
          "type": "uint256"
        }
      ],
      "name": "transfer",
      "outputs": [
        {
          "internalType": "bool",
          "name": "",
          "type": "bool"
        }
      ],
      "stateMutability": "nonpayable",
      "type": "function"
    },
    {
      "inputs": [
        {
          "internalType": "address",
          "name": "sender",
          "type": "address"
        },
        {
          "internalType": "address",
          "name": "recipient",
          "type": "address"
        },
        {
          "internalType": "uint256",
          "name": "amount",
          "type": "uint256"
        }
      ],
      "name": "transferFrom",
      "outputs": [
        {
          "internalType": "bool",
          "name": "",
          "type": "bool"
        }
      ],
      "stateMutability": "nonpayable",
      "type": "function"
    },
    {
      "inputs": [
        {
          "internalType": "bytes32",
          "name": "_root",
          "type": "bytes32"
        }
      ],
      "name": "updateRoot",
      "outputs": [],
      "stateMutability": "nonpayable",
      "type": "function"
    },
    {
      "inputs": [],
      "name": "weth",
      "outputs": [
        {
          "internalType": "contract IWETH",
          "name": "",
          "type": "address"
        }
      ],
      "stateMutability": "view",
      "type": "function"
    },
    {
      "inputs": [
        {
          "internalType": "uint256",
          "name": "amount",
          "type": "uint256"
        }
      ],
      "name": "withdraw",
      "outputs": [],
      "stateMutability": "nonpayable",
      "type": "function"
    },
    {
      "stateMutability": "payable",
      "type": "receive"
    }
  ],
  "bytecode": "0x60c06040523480156200001157600080fd5b506040516200259538038062002595833981016040819052620000349162000435565b8151829082906200004d9060459060208501906200029c565b508051620000639060469060208401906200029c565b50505060016047819055506000836001600160a01b0316636f307dc36040518163ffffffff1660e01b8152600401602060405180830381600087803b158015620000ac57600080fd5b505af1158015620000c1573d6000803e3d6000fd5b505050506040513d601f19601f82011682018060405250810190620000e79190620003ed565b9050620000f3620001b2565b6001600160601b0319606085811b821660805282901b1660a052604880546001600160a01b0319163317905560405163095ea7b360e01b81526001600160a01b0382169063095ea7b3906200015190879060001990600401620004c5565b602060405180830381600087803b1580156200016c57600080fd5b505af115801562000181573d6000803e3d6000fd5b505050506040513d601f19601f82011682018060405250810190620001a7919062000413565b505050505062000595565b600054610100900460ff1680620001cc575060005460ff16155b620001f45760405162461bcd60e51b8152600401620001eb90620004de565b60405180910390fd5b600054610100900460ff1615801562000220576000805460ff1961ff0019909116610100171660011790555b6000805462010000600160b01b0319163362010000810291909117909155600180546001600160a01b03191690556040517fbce074c8369e26e70e1ae2f14fc944da352cfe6f52e2de9572f0c9942a24b7fc916200027e91620004b1565b60405180910390a1801562000299576000805461ff00191690555b50565b828054620002aa906200052c565b90600052602060002090601f016020900481019282620002ce576000855562000319565b82601f10620002e957805160ff191683800117855562000319565b8280016001018555821562000319579182015b8281111562000319578251825591602001919060010190620002fc565b50620003279291506200032b565b5090565b5b808211156200032757600081556001016200032c565b600082601f83011262000353578081fd5b81516001600160401b038082111562000370576200037062000569565b6040516020601f8401601f191682018101838111838210171562000398576200039862000569565b6040528382528584018101871015620003af578485fd5b8492505b83831015620003d25785830181015182840182015291820191620003b3565b83831115620003e357848185840101525b5095945050505050565b600060208284031215620003ff578081fd5b81516200040c816200057f565b9392505050565b60006020828403121562000425578081fd5b815180151581146200040c578182fd5b6000806000606084860312156200044a578182fd5b835162000457816200057f565b60208501519093506001600160401b038082111562000474578384fd5b620004828783880162000342565b9350604086015191508082111562000498578283fd5b50620004a78682870162000342565b9150509250925092565b6001600160a01b0391909116815260200190565b6001600160a01b03929092168252602082015260400190565b6020808252602e908201527f496e697469616c697a61626c653a20636f6e747261637420697320616c72656160408201526d191e481a5b9a5d1a585b1a5e995960921b606082015260800190565b6002810460018216806200054157607f821691505b602082108114156200056357634e487b7160e01b600052602260045260246000fd5b50919050565b634e487b7160e01b600052604160045260246000fd5b6001600160a01b03811681146200029957600080fd5b60805160601c60a05160601c611f876200060e60003960008181610180015281816106d601528181610835015281816108e401528181610a9801528181610c2a01528181610d370152610f0001526000818161077701528181610ca001528181610f8a0152818161102b01526110e90152611f876000f3fe6080604052600436106101705760003560e01c806370a08231116100cc578063d0e30db01161007a578063d0e30db01461043f578063dd62ed3e14610447578063e3056a3414610467578063e58bb6391461047c578063ebf0c71714610491578063f235757f146104a6578063f5e5602d146104c6576101c8565b806370a08231146103755780638406c079146103955780638ad96d7d146103aa57806395d89b41146103ca578063a457c2d7146103df578063a9059cbb146103ff578063c884ef831461041f576101c8565b80632e1a7d4d116101295780632e1a7d4d146102a95780632f52ebb7146102c9578063313ce567146102e9578063395093511461030b5780633fc8cef31461032b5780636548e9bc1461034057806369e527da14610360576101c8565b806306fdde03146101cd578063095ea7b3146101f85780630c340a241461022557806318160ddd1461024757806321ff99701461026957806323b872dd14610289576101c8565b366101c857336001600160a01b037f000000000000000000000000000000000000000000000000000000000000000016146101c65760405162461bcd60e51b81526004016101bd90611c6a565b60405180910390fd5b005b600080fd5b3480156101d957600080fd5b506101e26104e6565b6040516101ef91906119dc565b60405180910390f35b34801561020457600080fd5b50610218610213366004611863565b610578565b6040516101ef91906119c8565b34801561023157600080fd5b5061023a610595565b6040516101ef919061199b565b34801561025357600080fd5b5061025c6105aa565b6040516101ef91906119d3565b34801561027557600080fd5b506101c661028436600461188c565b6105b0565b34801561029557600080fd5b506102186102a4366004611828565b6105fa565b3480156102b557600080fd5b506101c66102c436600461188c565b61068a565b3480156102d557600080fd5b506101c66102e43660046118bc565b6109da565b3480156102f557600080fd5b506102fe610bcf565b6040516101ef9190611e46565b34801561031757600080fd5b50610218610326366004611863565b610bd4565b34801561033757600080fd5b5061023a610c28565b34801561034c57600080fd5b506101c661035b3660046117dc565b610c4c565b34801561036c57600080fd5b5061023a610c9e565b34801561038157600080fd5b5061025c6103903660046117dc565b610cc2565b3480156103a157600080fd5b5061023a610ce1565b3480156103b657600080fd5b506101c66103c536600461188c565b610cf0565b3480156103d657600080fd5b506101e2610e25565b3480156103eb57600080fd5b506102186103fa366004611863565b610e34565b34801561040b57600080fd5b5061021861041a366004611863565b610ead565b34801561042b57600080fd5b5061025c61043a3660046117dc565b610ec1565b6101c6610ed3565b34801561045357600080fd5b5061025c6104623660046117f6565b61118c565b34801561047357600080fd5b5061023a6111b7565b34801561048857600080fd5b506101c66111c6565b34801561049d57600080fd5b5061025c611256565b3480156104b257600080fd5b506101c66104c13660046117dc565b61125c565b3480156104d257600080fd5b506101c66104e1366004611901565b6112e2565b6060604580546104f590611eaf565b80601f016020809104026020016040519081016040528092919081815260200182805461052190611eaf565b801561056e5780601f106105435761010080835404028352916020019161056e565b820191906000526020600020905b81548152906001019060200180831161055157829003601f168201915b5050505050905090565b600061058c6105856112fa565b84846112fe565b50600192915050565b6000546201000090046001600160a01b031681565b60445490565b6048546001600160a01b03163314806105d957506000546201000090046001600160a01b031633145b6105f55760405162461bcd60e51b81526004016101bd90611c00565b604955565b60006106078484846113b2565b6001600160a01b0384166000908152604360205260408120816106286112fa565b6001600160a01b03166001600160a01b031681526020019081526020016000205490508281101561066b5760405162461bcd60e51b81526004016101bd90611c22565b61067f856106776112fa565b8584036112fe565b506001949350505050565b600260475414156106ad5760405162461bcd60e51b81526004016101bd90611d93565b60026047556106bc33826114ca565b6040516370a0823160e01b81526000906001600160a01b037f000000000000000000000000000000000000000000000000000000000000000016906370a082319061070b90309060040161199b565b602060405180830381600087803b15801561072557600080fd5b505af1158015610739573d6000803e3d6000fd5b505050506040513d601f19601f8201168201806040525081019061075d91906118a4565b60405163db006a7560e01b81529091506001600160a01b037f0000000000000000000000000000000000000000000000000000000000000000169063db006a75906107ac9085906004016119d3565b602060405180830381600087803b1580156107c657600080fd5b505af11580156107da573d6000803e3d6000fd5b505050506040513d601f19601f820116820180604052508101906107fe91906118a4565b1561081b5760405162461bcd60e51b81526004016101bd90611d53565b6040516370a0823160e01b81526000906001600160a01b037f000000000000000000000000000000000000000000000000000000000000000016906370a082319061086a90309060040161199b565b602060405180830381600087803b15801561088457600080fd5b505af1158015610898573d6000803e3d6000fd5b505050506040513d601f19601f820116820180604052508101906108bc91906118a4565b905060006108ca82846115a9565b604051632e1a7d4d60e01b81529091506001600160a01b037f00000000000000000000000000000000000000000000000000000000000000001690632e1a7d4d906109199084906004016119d3565b600060405180830381600087803b15801561093357600080fd5b505af1158015610947573d6000803e3d6000fd5b505060408051600080825260208201928390529350339250849161096b919061197f565b60006040518083038185875af1925050503d80600081146109a8576040519150601f19603f3d011682016040523d82523d6000602084013e6109ad565b606091505b50509050806109ce5760405162461bcd60e51b81526004016101bd90611bdd565b50506001604755505050565b600260475414156109fd5760405162461bcd60e51b81526004016101bd90611d93565b6002604755604051600090610a18903390859060200161194f565b604051602081830303815290604052805190602001209050610a3d82604954836115bc565b610a595760405162461bcd60e51b81526004016101bd90611bbd565b336000908152604a6020526040812054610a749085906115a9565b336000908152604a60205260409081902086905551632e1a7d4d60e01b81529091507f00000000000000000000000000000000000000000000000000000000000000006001600160a01b031690632e1a7d4d90610ad59084906004016119d3565b600060405180830381600087803b158015610aef57600080fd5b505af1158015610b03573d6000803e3d6000fd5b5050604080516000808252602082019283905293503392508491610b27919061197f565b60006040518083038185875af1925050503d8060008114610b64576040519150601f19603f3d011682016040523d82523d6000602084013e610b69565b606091505b5050905080610b8a5760405162461bcd60e51b81526004016101bd90611a77565b7f47cee97cb7acd717b3c0aa1435d004cd5b3c8c57d70dbceb4e4458bbd60e39d43383604051610bbb9291906119af565b60405180910390a150506001604755505050565b601290565b600061058c610be16112fa565b848460436000610bef6112fa565b6001600160a01b03908116825260208083019390935260409182016000908120918b1681529252902054610c239190611e54565b6112fe565b7f000000000000000000000000000000000000000000000000000000000000000081565b6000546201000090046001600160a01b03163314610c7c5760405162461bcd60e51b81526004016101bd90611b93565b604880546001600160a01b0319166001600160a01b0392909216919091179055565b7f000000000000000000000000000000000000000000000000000000000000000081565b6001600160a01b0381166000908152604260205260409020545b919050565b6048546001600160a01b031681565b6000546201000090046001600160a01b03163314610d205760405162461bcd60e51b81526004016101bd90611b93565b604051632e1a7d4d60e01b81526001600160a01b037f00000000000000000000000000000000000000000000000000000000000000001690632e1a7d4d90610d6c9084906004016119d3565b600060405180830381600087803b158015610d8657600080fd5b505af1158015610d9a573d6000803e3d6000fd5b5050604080516000808252602082019283905293503392508491610dbe919061197f565b60006040518083038185875af1925050503d8060008114610dfb576040519150601f19603f3d011682016040523d82523d6000602084013e610e00565b606091505b5050905080610e215760405162461bcd60e51b81526004016101bd90611a52565b5050565b6060604680546104f590611eaf565b60008060436000610e436112fa565b6001600160a01b0390811682526020808301939093526040918201600090812091881681529252902054905082811015610e8f5760405162461bcd60e51b81526004016101bd90611dca565b610ea3610e9a6112fa565b858584036112fe565b5060019392505050565b600061058c610eba6112fa565b84846113b2565b604a6020526000908152604090205481565b60026047541415610ef65760405162461bcd60e51b81526004016101bd90611d93565b60026047819055507f00000000000000000000000000000000000000000000000000000000000000006001600160a01b031663d0e30db0346040518263ffffffff1660e01b81526004016000604051808303818588803b158015610f5957600080fd5b505af1158015610f6d573d6000803e3d6000fd5b50506040516370a0823160e01b8152600093506001600160a01b037f00000000000000000000000000000000000000000000000000000000000000001692506370a082319150610fc190309060040161199b565b60206040518083038186803b158015610fd957600080fd5b505afa158015610fed573d6000803e3d6000fd5b505050506040513d601f19601f8201168201806040525081019061101191906118a4565b60405163140e25ad60e31b81529091506001600160a01b037f0000000000000000000000000000000000000000000000000000000000000000169063a0712d68906110609034906004016119d3565b602060405180830381600087803b15801561107a57600080fd5b505af115801561108e573d6000803e3d6000fd5b505050506040513d601f19601f820116820180604052508101906110b291906118a4565b156110cf5760405162461bcd60e51b81526004016101bd90611d74565b6040516370a0823160e01b81526000906001600160a01b037f000000000000000000000000000000000000000000000000000000000000000016906370a082319061111e90309060040161199b565b60206040518083038186803b15801561113657600080fd5b505afa15801561114a573d6000803e3d6000fd5b505050506040513d601f19601f8201168201806040525081019061116e91906118a4565b90506111833361117e83856115a9565b611677565b50506001604755565b6001600160a01b03918216600090815260436020908152604080832093909416825291909152205490565b6001546001600160a01b031681565b6001546001600160a01b031633146111f05760405162461bcd60e51b81526004016101bd90611b1b565b600180546001600160a01b03191690556000805462010000600160b01b03191633620100008102919091179091556040517fd345d81ce68c70b119a17eee79dc1421700bd9cb21ca148a62dc90983964e82f9161124c9161199b565b60405180910390a1565b60495481565b6000546201000090046001600160a01b0316331461128c5760405162461bcd60e51b81526004016101bd90611b93565b600180546001600160a01b0319166001600160a01b0383161790556040517f964dea888b00b2ab53f13dfe7ca334b46e99338c222ae232d98547a1da019f60906112d790839061199b565b60405180910390a150565b6112ec83836109da565b6112f58161068a565b505050565b3390565b6001600160a01b0383166113245760405162461bcd60e51b81526004016101bd90611d0f565b6001600160a01b03821661134a5760405162461bcd60e51b81526004016101bd90611ad9565b6001600160a01b0380841660008181526043602090815260408083209487168084529490915290819020849055517f8c5be1e5ebec7d5bd14f71427d1e84f3dd0314c0f7b2291e5b200ac8c7c3b925906113a59085906119d3565b60405180910390a3505050565b6001600160a01b0383166113d85760405162461bcd60e51b81526004016101bd90611cca565b6001600160a01b0382166113fe5760405162461bcd60e51b81526004016101bd90611a0f565b6114098383836112f5565b6001600160a01b038316600090815260426020526040902054818110156114425760405162461bcd60e51b81526004016101bd90611b4d565b6001600160a01b03808516600090815260426020526040808220858503905591851681529081208054849290611479908490611e54565b92505081905550826001600160a01b0316846001600160a01b0316600080516020611f32833981519152846040516114b191906119d3565b60405180910390a36114c48484846112f5565b50505050565b6001600160a01b0382166114f05760405162461bcd60e51b81526004016101bd90611c89565b6114fc826000836112f5565b6001600160a01b038216600090815260426020526040902054818110156115355760405162461bcd60e51b81526004016101bd90611a97565b6001600160a01b0383166000908152604260205260408120838303905560448054849290611564908490611e6c565b90915550506040516000906001600160a01b03851690600080516020611f32833981519152906115959086906119d3565b60405180910390a36112f5836000846112f5565b60006115b58284611e6c565b9392505050565b600081815b855181101561166c5760008682815181106115ec57634e487b7160e01b600052603260045260246000fd5b6020026020010151905080831161162d578281604051602001611610929190611971565b604051602081830303815290604052805190602001209250611659565b8083604051602001611640929190611971565b6040516020818303038152906040528051906020012092505b508061166481611eea565b9150506115c1565b509092149392505050565b6001600160a01b03821661169d5760405162461bcd60e51b81526004016101bd90611e0f565b6116a9600083836112f5565b80604460008282546116bb9190611e54565b90915550506001600160a01b038216600090815260426020526040812080548392906116e8908490611e54565b90915550506040516001600160a01b03831690600090600080516020611f32833981519152906117199085906119d3565b60405180910390a3610e21600083836112f5565b80356001600160a01b0381168114610cdc57600080fd5b600082601f830112611754578081fd5b8135602067ffffffffffffffff8083111561177157611771611f1b565b8183026040518382820101818110848211171561179057611790611f1b565b604052848152838101925086840182880185018910156117ae578687fd5b8692505b858310156117d05780358452928401926001929092019184016117b2565b50979650505050505050565b6000602082840312156117ed578081fd5b6115b58261172d565b60008060408385031215611808578081fd5b6118118361172d565b915061181f6020840161172d565b90509250929050565b60008060006060848603121561183c578081fd5b6118458461172d565b92506118536020850161172d565b9150604084013590509250925092565b60008060408385031215611875578182fd5b61187e8361172d565b946020939093013593505050565b60006020828403121561189d578081fd5b5035919050565b6000602082840312156118b5578081fd5b5051919050565b600080604083850312156118ce578182fd5b82359150602083013567ffffffffffffffff8111156118eb578182fd5b6118f785828601611744565b9150509250929050565b600080600060608486031215611915578283fd5b83359250602084013567ffffffffffffffff811115611932578283fd5b61193e86828701611744565b925050604084013590509250925092565b60609290921b6bffffffffffffffffffffffff19168252601482015260340190565b918252602082015260400190565b60008251611991818460208701611e83565b9190910192915050565b6001600160a01b0391909116815260200190565b6001600160a01b03929092168252602082015260400190565b901515815260200190565b90815260200190565b60006020825282518060208401526119fb816040850160208701611e83565b601f01601f19169190910160400192915050565b60208082526023908201527f45524332303a207472616e7366657220746f20746865207a65726f206164647260408201526265737360e81b606082015260800190565b6020808252600b908201526a2161646d696e436c61696d60a81b604082015260600190565b60208082526006908201526521636c61696d60d01b604082015260600190565b60208082526022908201527f45524332303a206275726e20616d6f756e7420657863656564732062616c616e604082015261636560f01b606082015260800190565b60208082526022908201527f45524332303a20617070726f766520746f20746865207a65726f206164647265604082015261737360f01b606082015260800190565b6020808252601890820152773737ba103a3432903832b73234b7339033b7bb32b93737b960411b604082015260600190565b60208082526026908201527f45524332303a207472616e7366657220616d6f756e7420657863656564732062604082015265616c616e636560d01b606082015260800190565b60208082526010908201526f3737ba103a34329033b7bb32b93737b960811b604082015260600190565b60208082526006908201526510b83937b7b360d11b604082015260600190565b60208082526009908201526821776974686472617760b81b604082015260600190565b60208082526008908201526710b932b630bcb2b960c11b604082015260600190565b60208082526028908201527f45524332303a207472616e7366657220616d6f756e74206578636565647320616040820152676c6c6f77616e636560c01b606082015260800190565b602080825260059082015264042eecae8d60db1b604082015260600190565b60208082526021908201527f45524332303a206275726e2066726f6d20746865207a65726f206164647265736040820152607360f81b606082015260800190565b60208082526025908201527f45524332303a207472616e736665722066726f6d20746865207a65726f206164604082015264647265737360d81b606082015260800190565b60208082526024908201527f45524332303a20617070726f76652066726f6d20746865207a65726f206164646040820152637265737360e01b606082015260800190565b6020808252600790820152662172656465656d60c81b604082015260600190565b602080825260059082015264085b5a5b9d60da1b604082015260600190565b6020808252601f908201527f5265656e7472616e637947756172643a207265656e7472616e742063616c6c00604082015260600190565b60208082526025908201527f45524332303a2064656372656173656420616c6c6f77616e63652062656c6f77604082015264207a65726f60d81b606082015260800190565b6020808252601f908201527f45524332303a206d696e7420746f20746865207a65726f206164647265737300604082015260600190565b60ff91909116815260200190565b60008219821115611e6757611e67611f05565b500190565b600082821015611e7e57611e7e611f05565b500390565b60005b83811015611e9e578181015183820152602001611e86565b838111156114c45750506000910152565b600281046001821680611ec357607f821691505b60208210811415611ee457634e487b7160e01b600052602260045260246000fd5b50919050565b6000600019821415611efe57611efe611f05565b5060010190565b634e487b7160e01b600052601160045260246000fd5b634e487b7160e01b600052604160045260246000fdfeddf252ad1be2c89b69c2b068fc378daa952ba7f163c4a11628f55a4df523b3efa264697066735822122018f724dfcd2c190c07bd2d7f03ff7411da7b6983d8d3bc2d861b8aff273eeb1f64736f6c63430008000033",
  "linkReferences": {},
  "deployedLinkReferences": {}
}