{
  "_format": "hh-sol-artifact-1",
  "contractName": "SafeBox",
  "sourceName": "contracts/SafeBox.sol",
  "abi": [
    {
      "inputs": [
        {
          "internalType": "contract ICErc20",
          "name": "_cToken",
          "type": "address"
        },
        {
          "internalType": "string",
          "name": "_name",
          "type": "string"
        },
        {
          "internalType": "string",
          "name": "_symbol",
          "type": "string"
        }
      ],
      "stateMutability": "nonpayable",
      "type": "constructor"
    },
    {
      "anonymous": false,
      "inputs": [
        {
          "indexed": false,
          "internalType": "address",
          "name": "governor",
          "type": "address"
        }
      ],
      "name": "AcceptGovernor",
      "type": "event"
    },
    {
      "anonymous": false,
      "inputs": [
        {
          "indexed": true,
          "internalType": "address",
          "name": "owner",
          "type": "address"
        },
        {
          "indexed": true,
          "internalType": "address",
          "name": "spender",
          "type": "address"
        },
        {
          "indexed": false,
          "internalType": "uint256",
          "name": "value",
          "type": "uint256"
        }
      ],
      "name": "Approval",
      "type": "event"
    },
    {
      "anonymous": false,
      "inputs": [
        {
          "indexed": false,
          "internalType": "address",
          "name": "user",
          "type": "address"
        },
        {
          "indexed": false,
          "internalType": "uint256",
          "name": "amount",
          "type": "uint256"
        }
      ],
      "name": "Claim",
      "type": "event"
    },
    {
      "anonymous": false,
      "inputs": [
        {
          "indexed": false,
          "internalType": "address",
          "name": "governor",
          "type": "address"
        }
      ],
      "name": "SetGovernor",
      "type": "event"
    },
    {
      "anonymous": false,
      "inputs": [
        {
          "indexed": false,
          "internalType": "address",
          "name": "pendingGovernor",
          "type": "address"
        }
      ],
      "name": "SetPendingGovernor",
      "type": "event"
    },
    {
      "anonymous": false,
      "inputs": [
        {
          "indexed": true,
          "internalType": "address",
          "name": "from",
          "type": "address"
        },
        {
          "indexed": true,
          "internalType": "address",
          "name": "to",
          "type": "address"
        },
        {
          "indexed": false,
          "internalType": "uint256",
          "name": "value",
          "type": "uint256"
        }
      ],
      "name": "Transfer",
      "type": "event"
    },
    {
      "inputs": [],
      "name": "acceptGovernor",
      "outputs": [],
      "stateMutability": "nonpayable",
      "type": "function"
    },
    {
      "inputs": [
        {
          "internalType": "uint256",
          "name": "amount",
          "type": "uint256"
        }
      ],
      "name": "adminClaim",
      "outputs": [],
      "stateMutability": "nonpayable",
      "type": "function"
    },
    {
      "inputs": [
        {
          "internalType": "address",
          "name": "owner",
          "type": "address"
        },
        {
          "internalType": "address",
          "name": "spender",
          "type": "address"
        }
      ],
      "name": "allowance",
      "outputs": [
        {
          "internalType": "uint256",
          "name": "",
          "type": "uint256"
        }
      ],
      "stateMutability": "view",
      "type": "function"
    },
    {
      "inputs": [
        {
          "internalType": "address",
          "name": "spender",
          "type": "address"
        },
        {
          "internalType": "uint256",
          "name": "amount",
          "type": "uint256"
        }
      ],
      "name": "approve",
      "outputs": [
        {
          "internalType": "bool",
          "name": "",
          "type": "bool"
        }
      ],
      "stateMutability": "nonpayable",
      "type": "function"
    },
    {
      "inputs": [
        {
          "internalType": "address",
          "name": "account",
          "type": "address"
        }
      ],
      "name": "balanceOf",
      "outputs": [
        {
          "internalType": "uint256",
          "name": "",
          "type": "uint256"
        }
      ],
      "stateMutability": "view",
      "type": "function"
    },
    {
      "inputs": [],
      "name": "cToken",
      "outputs": [
        {
          "internalType": "contract ICErc20",
          "name": "",
          "type": "address"
        }
      ],
      "stateMutability": "view",
      "type": "function"
    },
    {
      "inputs": [
        {
          "internalType": "uint256",
          "name": "totalAmount",
          "type": "uint256"
        },
        {
          "internalType": "bytes32[]",
          "name": "proof",
          "type": "bytes32[]"
        }
      ],
      "name": "claim",
      "outputs": [],
      "stateMutability": "nonpayable",
      "type": "function"
    },
    {
      "inputs": [
        {
          "internalType": "uint256",
          "name": "totalAmount",
          "type": "uint256"
        },
        {
          "internalType": "bytes32[]",
          "name": "proof",
          "type": "bytes32[]"
        },
        {
          "internalType": "uint256",
          "name": "withdrawAmount",
          "type": "uint256"
        }
      ],
      "name": "claimAndWithdraw",
      "outputs": [],
      "stateMutability": "nonpayable",
      "type": "function"
    },
    {
      "inputs": [
        {
          "internalType": "address",
          "name": "",
          "type": "address"
        }
      ],
      "name": "claimed",
      "outputs": [
        {
          "internalType": "uint256",
          "name": "",
          "type": "uint256"
        }
      ],
      "stateMutability": "view",
      "type": "function"
    },
    {
      "inputs": [],
      "name": "decimals",
      "outputs": [
        {
          "internalType": "uint8",
          "name": "",
          "type": "uint8"
        }
      ],
      "stateMutability": "view",
      "type": "function"
    },
    {
      "inputs": [
        {
          "internalType": "address",
          "name": "spender",
          "type": "address"
        },
        {
          "internalType": "uint256",
          "name": "subtractedValue",
          "type": "uint256"
        }
      ],
      "name": "decreaseAllowance",
      "outputs": [
        {
          "internalType": "bool",
          "name": "",
          "type": "bool"
        }
      ],
      "stateMutability": "nonpayable",
      "type": "function"
    },
    {
      "inputs": [
        {
          "internalType": "uint256",
          "name": "amount",
          "type": "uint256"
        }
      ],
      "name": "deposit",
      "outputs": [],
      "stateMutability": "nonpayable",
      "type": "function"
    },
    {
      "inputs": [],
      "name": "governor",
      "outputs": [
        {
          "internalType": "address",
          "name": "",
          "type": "address"
        }
      ],
      "stateMutability": "view",
      "type": "function"
    },
    {
      "inputs": [
        {
          "internalType": "address",
          "name": "spender",
          "type": "address"
        },
        {
          "internalType": "uint256",
          "name": "addedValue",
          "type": "uint256"
        }
      ],
      "name": "increaseAllowance",
      "outputs": [
        {
          "internalType": "bool",
          "name": "",
          "type": "bool"
        }
      ],
      "stateMutability": "nonpayable",
      "type": "function"
    },
    {
      "inputs": [],
      "name": "name",
      "outputs": [
        {
          "internalType": "string",
          "name": "",
          "type": "string"
        }
      ],
      "stateMutability": "view",
      "type": "function"
    },
    {
      "inputs": [],
      "name": "pendingGovernor",
      "outputs": [
        {
          "internalType": "address",
          "name": "",
          "type": "address"
        }
      ],
      "stateMutability": "view",
      "type": "function"
    },
    {
      "inputs": [],
      "name": "relayer",
      "outputs": [
        {
          "internalType": "address",
          "name": "",
          "type": "address"
        }
      ],
      "stateMutability": "view",
      "type": "function"
    },
    {
      "inputs": [],
      "name": "root",
      "outputs": [
        {
          "internalType": "bytes32",
          "name": "",
          "type": "bytes32"
        }
      ],
      "stateMutability": "view",
      "type": "function"
    },
    {
      "inputs": [
        {
          "internalType": "address",
          "name": "_pendingGovernor",
          "type": "address"
        }
      ],
      "name": "setPendingGovernor",
      "outputs": [],
      "stateMutability": "nonpayable",
      "type": "function"
    },
    {
      "inputs": [
        {
          "internalType": "address",
          "name": "_relayer",
          "type": "address"
        }
      ],
      "name": "setRelayer",
      "outputs": [],
      "stateMutability": "nonpayable",
      "type": "function"
    },
    {
      "inputs": [],
      "name": "symbol",
      "outputs": [
        {
          "internalType": "string",
          "name": "",
          "type": "string"
        }
      ],
      "stateMutability": "view",
      "type": "function"
    },
    {
      "inputs": [],
      "name": "totalSupply",
      "outputs": [
        {
          "internalType": "uint256",
          "name": "",
          "type": "uint256"
        }
      ],
      "stateMutability": "view",
      "type": "function"
    },
    {
      "inputs": [
        {
          "internalType": "address",
          "name": "recipient",
          "type": "address"
        },
        {
          "internalType": "uint256",
          "name": "amount",
          "type": "uint256"
        }
      ],
      "name": "transfer",
      "outputs": [
        {
          "internalType": "bool",
          "name": "",
          "type": "bool"
        }
      ],
      "stateMutability": "nonpayable",
      "type": "function"
    },
    {
      "inputs": [
        {
          "internalType": "address",
          "name": "sender",
          "type": "address"
        },
        {
          "internalType": "address",
          "name": "recipient",
          "type": "address"
        },
        {
          "internalType": "uint256",
          "name": "amount",
          "type": "uint256"
        }
      ],
      "name": "transferFrom",
      "outputs": [
        {
          "internalType": "bool",
          "name": "",
          "type": "bool"
        }
      ],
      "stateMutability": "nonpayable",
      "type": "function"
    },
    {
      "inputs": [],
      "name": "uToken",
      "outputs": [
        {
          "internalType": "contract IERC20",
          "name": "",
          "type": "address"
        }
      ],
      "stateMutability": "view",
      "type": "function"
    },
    {
      "inputs": [
        {
          "internalType": "bytes32",
          "name": "_root",
          "type": "bytes32"
        }
      ],
      "name": "updateRoot",
      "outputs": [],
      "stateMutability": "nonpayable",
      "type": "function"
    },
    {
      "inputs": [
        {
          "internalType": "uint256",
          "name": "amount",
          "type": "uint256"
        }
      ],
      "name": "withdraw",
      "outputs": [],
      "stateMutability": "nonpayable",
      "type": "function"
    }
  ],
  "bytecode": "0x60c06040523480156200001157600080fd5b5060405162002aa538038062002aa5833981016040819052620000349162000682565b8151829082906200004d90604590602085019062000512565b5080516200006390604690602084019062000512565b50505060016047819055506000836001600160a01b0316636f307dc36040518163ffffffff1660e01b8152600401602060405180830381600087803b158015620000ac57600080fd5b505af1158015620000c1573d6000803e3d6000fd5b505050506040513d601f19601f82011682018060405250810190620000e7919062000641565b9050620000f362000150565b6001600160601b0319606085811b821660805282901b1660a052604880546001600160a01b03191633179055620001466001600160a01b03821685600019620010096200023a602090811b91909117901c565b50505050620009bf565b600054610100900460ff16806200016a575060005460ff16155b620001925760405162461bcd60e51b81526004016200018990620007f7565b60405180910390fd5b600054610100900460ff16158015620001be576000805460ff1961ff0019909116610100171660011790555b6000805462010000600160b01b0319163362010000810291909117909155600180546001600160a01b03191690556040517fbce074c8369e26e70e1ae2f14fc944da352cfe6f52e2de9572f0c9942a24b7fc916200021c9162000735565b60405180910390a1801562000237576000805461ff00191690555b50565b801580620002c95750604051636eb1769f60e11b81526001600160a01b0384169063dd62ed3e9062000273903090869060040162000749565b60206040518083038186803b1580156200028c57600080fd5b505afa158015620002a1573d6000803e3d6000fd5b505050506040513d601f19601f82011682018060405250810190620002c79190620006fe565b155b620002e85760405162461bcd60e51b81526004016200018990620008c6565b620003438363095ea7b360e01b84846040516024016200030a92919062000763565b60408051808303601f190181529190526020810180516001600160e01b0319939093166001600160e01b03938416179052906200034816565b505050565b6000620003a4826040518060400160405280602081526020017f5361666545524332303a206c6f772d6c6576656c2063616c6c206661696c6564815250856001600160a01b0316620003e460201b62001103179092919060201c565b805190915015620003435780806020019051810190620003c5919062000660565b620003435760405162461bcd60e51b815260040162000189906200087c565b6060620003f58484600085620003ff565b90505b9392505050565b606082471015620004245760405162461bcd60e51b81526004016200018990620007b1565b6200042f85620004ce565b6200044e5760405162461bcd60e51b8152600401620001899062000845565b600080866001600160a01b031685876040516200046c919062000717565b60006040518083038185875af1925050503d8060008114620004ab576040519150601f19603f3d011682016040523d82523d6000602084013e620004b0565b606091505b509092509050620004c3828286620004d4565b979650505050505050565b3b151590565b60608315620004e5575081620003f8565b825115620004f65782518084602001fd5b8160405162461bcd60e51b81526004016200018991906200077c565b828054620005209062000956565b90600052602060002090601f0160209004810192826200054457600085556200058f565b82601f106200055f57805160ff19168380011785556200058f565b828001600101855582156200058f579182015b828111156200058f57825182559160200191906001019062000572565b506200059d929150620005a1565b5090565b5b808211156200059d5760008155600101620005a2565b600082601f830112620005c9578081fd5b81516001600160401b0380821115620005e657620005e662000993565b604051601f8301601f1916810160200182811182821017156200060d576200060d62000993565b60405282815284830160200186101562000625578384fd5b6200063883602083016020880162000923565b95945050505050565b60006020828403121562000653578081fd5b8151620003f881620009a9565b60006020828403121562000672578081fd5b81518015158114620003f8578182fd5b60008060006060848603121562000697578182fd5b8351620006a481620009a9565b60208501519093506001600160401b0380821115620006c1578384fd5b620006cf87838801620005b8565b93506040860151915080821115620006e5578283fd5b50620006f486828701620005b8565b9150509250925092565b60006020828403121562000710578081fd5b5051919050565b600082516200072b81846020870162000923565b9190910192915050565b6001600160a01b0391909116815260200190565b6001600160a01b0392831681529116602082015260400190565b6001600160a01b03929092168252602082015260400190565b60006020825282518060208401526200079d81604085016020870162000923565b601f01601f19169190910160400192915050565b60208082526026908201527f416464726573733a20696e73756666696369656e742062616c616e636520666f6040820152651c8818d85b1b60d21b606082015260800190565b6020808252602e908201527f496e697469616c697a61626c653a20636f6e747261637420697320616c72656160408201526d191e481a5b9a5d1a585b1a5e995960921b606082015260800190565b6020808252601d908201527f416464726573733a2063616c6c20746f206e6f6e2d636f6e7472616374000000604082015260600190565b6020808252602a908201527f5361666545524332303a204552433230206f7065726174696f6e20646964206e6040820152691bdd081cdd58d8d9595960b21b606082015260800190565b60208082526036908201527f5361666545524332303a20617070726f76652066726f6d206e6f6e2d7a65726f60408201527f20746f206e6f6e2d7a65726f20616c6c6f77616e636500000000000000000000606082015260800190565b60005b838110156200094057818101518382015260200162000926565b8381111562000950576000848401525b50505050565b6002810460018216806200096b57607f821691505b602082108114156200098d57634e487b7160e01b600052602260045260246000fd5b50919050565b634e487b7160e01b600052604160045260246000fd5b6001600160a01b03811681146200023757600080fd5b60805160601c60a05160601c61206662000a3f6000396000818161054d015281816106aa015281816107490152818161082f015281816108fd01528181610a0001528181610b0801528181610b9c0152610bde0152600081816105ec0152818161097301528181610c6901528181610d0f0152610de301526120666000f3fe608060405234801561001057600080fd5b50600436106101795760003560e01c806370a08231116100d9578063c884ef8311610087578063c884ef83146102ee578063dd62ed3e14610301578063e3056a3414610314578063e58bb6391461031c578063ebf0c71714610324578063f235757f1461032c578063f5e5602d1461033f57610179565b806370a082311461027f5780638406c079146102925780638ad96d7d1461029a57806395d89b41146102ad578063a457c2d7146102b5578063a9059cbb146102c8578063b6b55f25146102db57610179565b80632e1a7d4d116101365780632e1a7d4d1461020e5780632f52ebb714610221578063313ce567146102345780633950935114610249578063633156371461025c5780636548e9bc1461026457806369e527da1461027757610179565b806306fdde031461017e578063095ea7b31461019c5780630c340a24146101bc57806318160ddd146101d157806321ff9970146101e657806323b872dd146101fb575b600080fd5b610186610352565b6040516101939190611a25565b60405180910390f35b6101af6101aa36600461184e565b6103e4565b6040516101939190611a11565b6101c4610401565b60405161019391906119a6565b6101d9610416565b6040516101939190611a1c565b6101f96101f4366004611897565b61041c565b005b6101af610209366004611813565b61046f565b6101f961021c366004611897565b610501565b6101f961022f3660046118c7565b61077a565b61023c6108a2565b6040516101939190611f25565b6101af61025736600461184e565b6108a7565b6101c46108fb565b6101f96102723660046117c7565b61091f565b6101c4610971565b6101d961028d3660046117c7565b610995565b6101c46109b4565b6101f96102a8366004611897565b6109c3565b610186610a2a565b6101af6102c336600461184e565b610a39565b6101af6102d636600461184e565b610ab2565b6101f96102e9366004611897565b610ac6565b6101d96102fc3660046117c7565b610e89565b6101d961030f3660046117e1565b610e9b565b6101c4610ec6565b6101f9610ed5565b6101d9610f65565b6101f961033a3660046117c7565b610f6b565b6101f961034d36600461190c565b610ff1565b60606045805461036190611f8e565b80601f016020809104026020016040519081016040528092919081815260200182805461038d90611f8e565b80156103da5780601f106103af576101008083540402835291602001916103da565b820191906000526020600020905b8154815290600101906020018083116103bd57829003601f168201915b5050505050905090565b60006103f86103f161111a565b848461111e565b50600192915050565b6000546201000090046001600160a01b031681565b60445490565b6048546001600160a01b031633148061044557506000546201000090046001600160a01b031633145b61046a5760405162461bcd60e51b815260040161046190611c27565b60405180910390fd5b604955565b600061047c8484846111d2565b6001600160a01b03841660009081526043602052604081208161049d61111a565b6001600160a01b03166001600160a01b03168152602001908152602001600020549050828110156104e05760405162461bcd60e51b815260040161046190611c49565b6104f4856104ec61111a565b85840361111e565b60019150505b9392505050565b600260475414156105245760405162461bcd60e51b815260040161046190611e1c565b600260475561053333826112ea565b6040516370a0823160e01b81526000906001600160a01b037f000000000000000000000000000000000000000000000000000000000000000016906370a08231906105829030906004016119a6565b60206040518083038186803b15801561059a57600080fd5b505afa1580156105ae573d6000803e3d6000fd5b505050506040513d601f19601f820116820180604052508101906105d291906118af565b60405163db006a7560e01b81529091506001600160a01b037f0000000000000000000000000000000000000000000000000000000000000000169063db006a7590610621908590600401611a1c565b602060405180830381600087803b15801561063b57600080fd5b505af115801561064f573d6000803e3d6000fd5b505050506040513d601f19601f8201168201806040525081019061067391906118af565b156106905760405162461bcd60e51b815260040161046190611d5b565b6040516370a0823160e01b81526000906001600160a01b037f000000000000000000000000000000000000000000000000000000000000000016906370a08231906106df9030906004016119a6565b60206040518083038186803b1580156106f757600080fd5b505afa15801561070b573d6000803e3d6000fd5b505050506040513d601f19601f8201168201806040525081019061072f91906118af565b90506107703361073f83856113c9565b6001600160a01b037f00000000000000000000000000000000000000000000000000000000000000001691906113d5565b5050600160475550565b6002604754141561079d5760405162461bcd60e51b815260040161046190611e1c565b60026047556040516000906107b8903390859060200161195a565b6040516020818303038152906040528051906020012090506107dd82604954836113f4565b6107f95760405162461bcd60e51b815260040161046190611c07565b336000908152604a60205260408120546108149085906113c9565b336000818152604a6020526040902086905590915061085e907f00000000000000000000000000000000000000000000000000000000000000006001600160a01b031690836113d5565b7f47cee97cb7acd717b3c0aa1435d004cd5b3c8c57d70dbceb4e4458bbd60e39d4338260405161088f9291906119f8565b60405180910390a1505060016047555050565b601290565b60006103f86108b461111a565b8484604360006108c261111a565b6001600160a01b03908116825260208083019390935260409182016000908120918b16815292529020546108f69190611f33565b61111e565b7f000000000000000000000000000000000000000000000000000000000000000081565b6000546201000090046001600160a01b0316331461094f5760405162461bcd60e51b815260040161046190611bdd565b604880546001600160a01b0319166001600160a01b0392909216919091179055565b7f000000000000000000000000000000000000000000000000000000000000000081565b6001600160a01b0381166000908152604260205260409020545b919050565b6048546001600160a01b031681565b6000546201000090046001600160a01b031633146109f35760405162461bcd60e51b815260040161046190611bdd565b610a276001600160a01b037f00000000000000000000000000000000000000000000000000000000000000001633836113d5565b50565b60606046805461036190611f8e565b60008060436000610a4861111a565b6001600160a01b0390811682526020808301939093526040918201600090812091881681529252902054905082811015610a945760405162461bcd60e51b815260040161046190611ea9565b610aa8610a9f61111a565b8585840361111e565b5060019392505050565b60006103f8610abf61111a565b84846111d2565b60026047541415610ae95760405162461bcd60e51b815260040161046190611e1c565b60026047556040516370a0823160e01b81526000906001600160a01b037f000000000000000000000000000000000000000000000000000000000000000016906370a0823190610b3d9030906004016119a6565b60206040518083038186803b158015610b5557600080fd5b505afa158015610b69573d6000803e3d6000fd5b505050506040513d601f19601f82011682018060405250810190610b8d91906118af565b9050610bc46001600160a01b037f0000000000000000000000000000000000000000000000000000000000000000163330856114af565b6040516370a0823160e01b81526000906001600160a01b037f000000000000000000000000000000000000000000000000000000000000000016906370a0823190610c139030906004016119a6565b60206040518083038186803b158015610c2b57600080fd5b505afa158015610c3f573d6000803e3d6000fd5b505050506040513d601f19601f82011682018060405250810190610c6391906118af565b905060007f00000000000000000000000000000000000000000000000000000000000000006001600160a01b03166370a08231306040518263ffffffff1660e01b8152600401610cb391906119a6565b60206040518083038186803b158015610ccb57600080fd5b505afa158015610cdf573d6000803e3d6000fd5b505050506040513d601f19601f82011682018060405250810190610d0391906118af565b90506001600160a01b037f00000000000000000000000000000000000000000000000000000000000000001663a0712d68610d3e84866113c9565b6040518263ffffffff1660e01b8152600401610d5a9190611a1c565b602060405180830381600087803b158015610d7457600080fd5b505af1158015610d88573d6000803e3d6000fd5b505050506040513d601f19601f82011682018060405250810190610dac91906118af565b15610dc95760405162461bcd60e51b815260040161046190611db3565b6040516370a0823160e01b81526000906001600160a01b037f000000000000000000000000000000000000000000000000000000000000000016906370a0823190610e189030906004016119a6565b60206040518083038186803b158015610e3057600080fd5b505afa158015610e44573d6000803e3d6000fd5b505050506040513d601f19601f82011682018060405250810190610e6891906118af565b9050610e7d33610e7883856113c9565b6114d0565b50506001604755505050565b604a6020526000908152604090205481565b6001600160a01b03918216600090815260436020908152604080832093909416825291909152205490565b6001546001600160a01b031681565b6001546001600160a01b03163314610eff5760405162461bcd60e51b815260040161046190611b1f565b600180546001600160a01b03191690556000805462010000600160b01b03191633620100008102919091179091556040517fd345d81ce68c70b119a17eee79dc1421700bd9cb21ca148a62dc90983964e82f91610f5b916119a6565b60405180910390a1565b60495481565b6000546201000090046001600160a01b03163314610f9b5760405162461bcd60e51b815260040161046190611bdd565b600180546001600160a01b0319166001600160a01b0383161790556040517f964dea888b00b2ab53f13dfe7ca334b46e99338c222ae232d98547a1da019f6090610fe69083906119a6565b60405180910390a150565b610ffb838361077a565b61100481610501565b505050565b8015806110915750604051636eb1769f60e11b81526001600160a01b0384169063dd62ed3e9061103f90309086906004016119ba565b60206040518083038186803b15801561105757600080fd5b505afa15801561106b573d6000803e3d6000fd5b505050506040513d601f19601f8201168201806040525081019061108f91906118af565b155b6110ad5760405162461bcd60e51b815260040161046190611e53565b6110048363095ea7b360e01b84846040516024016110cc9291906119f8565b60408051601f198184030181529190526020810180516001600160e01b03166001600160e01b03199093169290921790915261158a565b60606111128484600085611619565b949350505050565b3390565b6001600160a01b0383166111445760405162461bcd60e51b815260040161046190611d17565b6001600160a01b03821661116a5760405162461bcd60e51b815260040161046190611add565b6001600160a01b0380841660008181526043602090815260408083209487168084529490915290819020849055517f8c5be1e5ebec7d5bd14f71427d1e84f3dd0314c0f7b2291e5b200ac8c7c3b925906111c5908590611a1c565b60405180910390a3505050565b6001600160a01b0383166111f85760405162461bcd60e51b815260040161046190611cd2565b6001600160a01b03821661121e5760405162461bcd60e51b815260040161046190611a58565b611229838383611004565b6001600160a01b038316600090815260426020526040902054818110156112625760405162461bcd60e51b815260040161046190611b51565b6001600160a01b03808516600090815260426020526040808220858503905591851681529081208054849290611299908490611f33565b92505081905550826001600160a01b0316846001600160a01b0316600080516020612011833981519152846040516112d19190611a1c565b60405180910390a36112e4848484611004565b50505050565b6001600160a01b0382166113105760405162461bcd60e51b815260040161046190611c91565b61131c82600083611004565b6001600160a01b038216600090815260426020526040902054818110156113555760405162461bcd60e51b815260040161046190611a9b565b6001600160a01b0383166000908152604260205260408120838303905560448054849290611384908490611f4b565b90915550506040516000906001600160a01b03851690600080516020612011833981519152906113b5908690611a1c565b60405180910390a361100483600084611004565b60006104fa8284611f4b565b6110048363a9059cbb60e01b84846040516024016110cc9291906119f8565b600081815b85518110156114a457600086828151811061142457634e487b7160e01b600052603260045260246000fd5b6020026020010151905080831161146557828160405160200161144892919061197c565b604051602081830303815290604052805190602001209250611491565b808360405160200161147892919061197c565b6040516020818303038152906040528051906020012092505b508061149c81611fc9565b9150506113f9565b509092149392505050565b6112e4846323b872dd60e01b8585856040516024016110cc939291906119d4565b6001600160a01b0382166114f65760405162461bcd60e51b815260040161046190611eee565b61150260008383611004565b80604460008282546115149190611f33565b90915550506001600160a01b03821660009081526042602052604081208054839290611541908490611f33565b90915550506040516001600160a01b0383169060009060008051602061201183398151915290611572908590611a1c565b60405180910390a361158660008383611004565b5050565b60006115df826040518060400160405280602081526020017f5361666545524332303a206c6f772d6c6576656c2063616c6c206661696c6564815250856001600160a01b03166111039092919063ffffffff16565b80519091501561100457808060200190518101906115fd9190611877565b6110045760405162461bcd60e51b815260040161046190611dd2565b60608247101561163b5760405162461bcd60e51b815260040161046190611b97565b611644856116d9565b6116605760405162461bcd60e51b815260040161046190611d7c565b600080866001600160a01b0316858760405161167c919061198a565b60006040518083038185875af1925050503d80600081146116b9576040519150601f19603f3d011682016040523d82523d6000602084013e6116be565b606091505b50915091506116ce8282866116df565b979650505050505050565b3b151590565b606083156116ee5750816104fa565b8251156116fe5782518084602001fd5b8160405162461bcd60e51b81526004016104619190611a25565b80356001600160a01b03811681146109af57600080fd5b600082601f83011261173f578081fd5b8135602067ffffffffffffffff8083111561175c5761175c611ffa565b8183026040518382820101818110848211171561177b5761177b611ffa565b60405284815283810192508684018288018501891015611799578687fd5b8692505b858310156117bb57803584529284019260019290920191840161179d565b50979650505050505050565b6000602082840312156117d8578081fd5b6104fa82611718565b600080604083850312156117f3578081fd5b6117fc83611718565b915061180a60208401611718565b90509250929050565b600080600060608486031215611827578081fd5b61183084611718565b925061183e60208501611718565b9150604084013590509250925092565b60008060408385031215611860578182fd5b61186983611718565b946020939093013593505050565b600060208284031215611888578081fd5b815180151581146104fa578182fd5b6000602082840312156118a8578081fd5b5035919050565b6000602082840312156118c0578081fd5b5051919050565b600080604083850312156118d9578182fd5b82359150602083013567ffffffffffffffff8111156118f6578182fd5b6119028582860161172f565b9150509250929050565b600080600060608486031215611920578283fd5b83359250602084013567ffffffffffffffff81111561193d578283fd5b6119498682870161172f565b925050604084013590509250925092565b60609290921b6bffffffffffffffffffffffff19168252601482015260340190565b918252602082015260400190565b6000825161199c818460208701611f62565b9190910192915050565b6001600160a01b0391909116815260200190565b6001600160a01b0392831681529116602082015260400190565b6001600160a01b039384168152919092166020820152604081019190915260600190565b6001600160a01b03929092168252602082015260400190565b901515815260200190565b90815260200190565b6000602082528251806020840152611a44816040850160208701611f62565b601f01601f19169190910160400192915050565b60208082526023908201527f45524332303a207472616e7366657220746f20746865207a65726f206164647260408201526265737360e81b606082015260800190565b60208082526022908201527f45524332303a206275726e20616d6f756e7420657863656564732062616c616e604082015261636560f01b606082015260800190565b60208082526022908201527f45524332303a20617070726f766520746f20746865207a65726f206164647265604082015261737360f01b606082015260800190565b6020808252601890820152773737ba103a3432903832b73234b7339033b7bb32b93737b960411b604082015260600190565b60208082526026908201527f45524332303a207472616e7366657220616d6f756e7420657863656564732062604082015265616c616e636560d01b606082015260800190565b60208082526026908201527f416464726573733a20696e73756666696369656e742062616c616e636520666f6040820152651c8818d85b1b60d21b606082015260800190565b60208082526010908201526f3737ba103a34329033b7bb32b93737b960811b604082015260600190565b60208082526006908201526510b83937b7b360d11b604082015260600190565b60208082526008908201526710b932b630bcb2b960c11b604082015260600190565b60208082526028908201527f45524332303a207472616e7366657220616d6f756e74206578636565647320616040820152676c6c6f77616e636560c01b606082015260800190565b60208082526021908201527f45524332303a206275726e2066726f6d20746865207a65726f206164647265736040820152607360f81b606082015260800190565b60208082526025908201527f45524332303a207472616e736665722066726f6d20746865207a65726f206164604082015264647265737360d81b606082015260800190565b60208082526024908201527f45524332303a20617070726f76652066726f6d20746865207a65726f206164646040820152637265737360e01b606082015260800190565b6020808252600790820152662172656465656d60c81b604082015260600190565b6020808252601d908201527f416464726573733a2063616c6c20746f206e6f6e2d636f6e7472616374000000604082015260600190565b602080825260059082015264085b5a5b9d60da1b604082015260600190565b6020808252602a908201527f5361666545524332303a204552433230206f7065726174696f6e20646964206e6040820152691bdd081cdd58d8d9595960b21b606082015260800190565b6020808252601f908201527f5265656e7472616e637947756172643a207265656e7472616e742063616c6c00604082015260600190565b60208082526036908201527f5361666545524332303a20617070726f76652066726f6d206e6f6e2d7a65726f60408201527520746f206e6f6e2d7a65726f20616c6c6f77616e636560501b606082015260800190565b60208082526025908201527f45524332303a2064656372656173656420616c6c6f77616e63652062656c6f77604082015264207a65726f60d81b606082015260800190565b6020808252601f908201527f45524332303a206d696e7420746f20746865207a65726f206164647265737300604082015260600190565b60ff91909116815260200190565b60008219821115611f4657611f46611fe4565b500190565b600082821015611f5d57611f5d611fe4565b500390565b60005b83811015611f7d578181015183820152602001611f65565b838111156112e45750506000910152565b600281046001821680611fa257607f821691505b60208210811415611fc357634e487b7160e01b600052602260045260246000fd5b50919050565b6000600019821415611fdd57611fdd611fe4565b5060010190565b634e487b7160e01b600052601160045260246000fd5b634e487b7160e01b600052604160045260246000fdfeddf252ad1be2c89b69c2b068fc378daa952ba7f163c4a11628f55a4df523b3efa2646970667358221220762b4931b8177ea144cf8098fa198e76f5167bdaec1477d592a3d47578e4245a64736f6c63430008000033",
  "linkReferences": {},
  "deployedLinkReferences": {}
}