{
  "_format": "hh-sol-artifact-1",
  "contractName": "ProxyOracle",
  "sourceName": "contracts/oracle/ProxyOracle.sol",
  "abi": [
    {
      "inputs": [
        {
          "internalType": "contract IBaseOracle",
          "name": "_source",
          "type": "address"
        }
      ],
      "stateMutability": "nonpayable",
      "type": "constructor"
    },
    {
      "anonymous": false,
      "inputs": [
        {
          "indexed": false,
          "internalType": "address",
          "name": "governor",
          "type": "address"
        }
      ],
      "name": "AcceptGovernor",
      "type": "event"
    },
    {
      "anonymous": false,
      "inputs": [
        {
          "indexed": false,
          "internalType": "address",
          "name": "governor",
          "type": "address"
        }
      ],
      "name": "SetGovernor",
      "type": "event"
    },
    {
      "anonymous": false,
      "inputs": [
        {
          "indexed": false,
          "internalType": "address",
          "name": "pendingGovernor",
          "type": "address"
        }
      ],
      "name": "SetPendingGovernor",
      "type": "event"
    },
    {
      "anonymous": false,
      "inputs": [
        {
          "indexed": true,
          "internalType": "address",
          "name": "token",
          "type": "address"
        },
        {
          "components": [
            {
              "internalType": "uint16",
              "name": "borrowFactor",
              "type": "uint16"
            },
            {
              "internalType": "uint16",
              "name": "collateralFactor",
              "type": "uint16"
            },
            {
              "internalType": "uint16",
              "name": "liqIncentive",
              "type": "uint16"
            }
          ],
          "indexed": false,
          "internalType": "struct ProxyOracle.TokenFactors",
          "name": "tokenFactor",
          "type": "tuple"
        }
      ],
      "name": "SetTokenFactor",
      "type": "event"
    },
    {
      "anonymous": false,
      "inputs": [
        {
          "indexed": true,
          "internalType": "address",
          "name": "token",
          "type": "address"
        },
        {
          "indexed": false,
          "internalType": "bool",
          "name": "ok",
          "type": "bool"
        }
      ],
      "name": "SetWhitelist",
      "type": "event"
    },
    {
      "anonymous": false,
      "inputs": [
        {
          "indexed": true,
          "internalType": "address",
          "name": "token",
          "type": "address"
        }
      ],
      "name": "UnsetTokenFactor",
      "type": "event"
    },
    {
      "inputs": [],
      "name": "acceptGovernor",
      "outputs": [],
      "stateMutability": "nonpayable",
      "type": "function"
    },
    {
      "inputs": [
        {
          "internalType": "address",
          "name": "token",
          "type": "address"
        },
        {
          "internalType": "uint256",
          "name": "amount",
          "type": "uint256"
        },
        {
          "internalType": "address",
          "name": "owner",
          "type": "address"
        }
      ],
      "name": "asETHBorrow",
      "outputs": [
        {
          "internalType": "uint256",
          "name": "",
          "type": "uint256"
        }
      ],
      "stateMutability": "view",
      "type": "function"
    },
    {
      "inputs": [
        {
          "internalType": "address",
          "name": "token",
          "type": "address"
        },
        {
          "internalType": "uint256",
          "name": "id",
          "type": "uint256"
        },
        {
          "internalType": "uint256",
          "name": "amount",
          "type": "uint256"
        },
        {
          "internalType": "address",
          "name": "owner",
          "type": "address"
        }
      ],
      "name": "asETHCollateral",
      "outputs": [
        {
          "internalType": "uint256",
          "name": "",
          "type": "uint256"
        }
      ],
      "stateMutability": "view",
      "type": "function"
    },
    {
      "inputs": [
        {
          "internalType": "address",
          "name": "tokenIn",
          "type": "address"
        },
        {
          "internalType": "address",
          "name": "tokenOut",
          "type": "address"
        },
        {
          "internalType": "uint256",
          "name": "tokenOutId",
          "type": "uint256"
        },
        {
          "internalType": "uint256",
          "name": "amountIn",
          "type": "uint256"
        }
      ],
      "name": "convertForLiquidation",
      "outputs": [
        {
          "internalType": "uint256",
          "name": "",
          "type": "uint256"
        }
      ],
      "stateMutability": "view",
      "type": "function"
    },
    {
      "inputs": [],
      "name": "governor",
      "outputs": [
        {
          "internalType": "address",
          "name": "",
          "type": "address"
        }
      ],
      "stateMutability": "view",
      "type": "function"
    },
    {
      "inputs": [],
      "name": "pendingGovernor",
      "outputs": [
        {
          "internalType": "address",
          "name": "",
          "type": "address"
        }
      ],
      "stateMutability": "view",
      "type": "function"
    },
    {
      "inputs": [
        {
          "internalType": "address",
          "name": "_pendingGovernor",
          "type": "address"
        }
      ],
      "name": "setPendingGovernor",
      "outputs": [],
      "stateMutability": "nonpayable",
      "type": "function"
    },
    {
      "inputs": [
        {
          "internalType": "address[]",
          "name": "tokens",
          "type": "address[]"
        },
        {
          "components": [
            {
              "internalType": "uint16",
              "name": "borrowFactor",
              "type": "uint16"
            },
            {
              "internalType": "uint16",
              "name": "collateralFactor",
              "type": "uint16"
            },
            {
              "internalType": "uint16",
              "name": "liqIncentive",
              "type": "uint16"
            }
          ],
          "internalType": "struct ProxyOracle.TokenFactors[]",
          "name": "_tokenFactors",
          "type": "tuple[]"
        }
      ],
      "name": "setTokenFactors",
      "outputs": [],
      "stateMutability": "nonpayable",
      "type": "function"
    },
    {
      "inputs": [
        {
          "internalType": "address[]",
          "name": "tokens",
          "type": "address[]"
        },
        {
          "internalType": "bool",
          "name": "ok",
          "type": "bool"
        }
      ],
      "name": "setWhitelistERC1155",
      "outputs": [],
      "stateMutability": "nonpayable",
      "type": "function"
    },
    {
      "inputs": [],
      "name": "source",
      "outputs": [
        {
          "internalType": "contract IBaseOracle",
          "name": "",
          "type": "address"
        }
      ],
      "stateMutability": "view",
      "type": "function"
    },
    {
      "inputs": [
        {
          "internalType": "address",
          "name": "token",
          "type": "address"
        }
      ],
      "name": "support",
      "outputs": [
        {
          "internalType": "bool",
          "name": "",
          "type": "bool"
        }
      ],
      "stateMutability": "view",
      "type": "function"
    },
    {
      "inputs": [
        {
          "internalType": "address",
          "name": "token",
          "type": "address"
        },
        {
          "internalType": "uint256",
          "name": "id",
          "type": "uint256"
        }
      ],
      "name": "supportWrappedToken",
      "outputs": [
        {
          "internalType": "bool",
          "name": "",
          "type": "bool"
        }
      ],
      "stateMutability": "view",
      "type": "function"
    },
    {
      "inputs": [
        {
          "internalType": "address",
          "name": "",
          "type": "address"
        }
      ],
      "name": "tokenFactors",
      "outputs": [
        {
          "internalType": "uint16",
          "name": "borrowFactor",
          "type": "uint16"
        },
        {
          "internalType": "uint16",
          "name": "collateralFactor",
          "type": "uint16"
        },
        {
          "internalType": "uint16",
          "name": "liqIncentive",
          "type": "uint16"
        }
      ],
      "stateMutability": "view",
      "type": "function"
    },
    {
      "inputs": [
        {
          "internalType": "address[]",
          "name": "tokens",
          "type": "address[]"
        }
      ],
      "name": "unsetTokenFactors",
      "outputs": [],
      "stateMutability": "nonpayable",
      "type": "function"
    },
    {
      "inputs": [
        {
          "internalType": "address",
          "name": "",
          "type": "address"
        }
      ],
      "name": "whitelistERC1155",
      "outputs": [
        {
          "internalType": "bool",
          "name": "",
          "type": "bool"
        }
      ],
      "stateMutability": "view",
      "type": "function"
    }
  ],
  "bytecode": "0x60a06040523480156200001157600080fd5b5060405162001b4838038062001b48833981016040819052620000349162000141565b6001600160601b0319606082901b166080526200005062000057565b50620001d3565b600054610100900460ff168062000071575060005460ff16155b620000995760405162461bcd60e51b8152600401620000909062000185565b60405180910390fd5b600054610100900460ff16158015620000c5576000805460ff1961ff0019909116610100171660011790555b6000805462010000600160b01b0319163362010000810291909117909155600180546001600160a01b03191690556040517fbce074c8369e26e70e1ae2f14fc944da352cfe6f52e2de9572f0c9942a24b7fc91620001239162000171565b60405180910390a180156200013e576000805461ff00191690555b50565b60006020828403121562000153578081fd5b81516001600160a01b03811681146200016a578182fd5b9392505050565b6001600160a01b0391909116815260200190565b6020808252602e908201527f496e697469616c697a61626c653a20636f6e747261637420697320616c72656160408201526d191e481a5b9a5d1a585b1a5e995960921b606082015260800190565b60805160601c611933620002156000396000818161041c0152818161075701528181610a3e01528181610ac901528181610c420152610d7201526119336000f3fe608060405234801561001057600080fd5b50600436106100d55760003560e01c80638345483211610087578063834548321461017d578063c38e795c1461019d578063d596bc03146101b0578063e3056a34146101c3578063e58bb639146101cb578063e660cc08146101d3578063e7a9883e146101e6578063f235757f146101f9576100d5565b80630c340a24146100da5780632461a409146100f8578063495621fb146101185780636437388a1461012b57806367e828bf1461014057806378513230146101485780637b3b022d1461015b575b600080fd5b6100e261020c565b6040516100ef9190611545565b60405180910390f35b61010b6101063660046112db565b610221565b6040516100ef9190611559565b61010b61012636600461125e565b6102f7565b61013e610139366004611390565b61030c565b005b6100e261041a565b61013e6101563660046114d9565b61043e565b61016e61016936600461125e565b61055d565b6040516100ef939291906117ea565b61019061018b366004611347565b610588565b6040516100ef9190611808565b6101906101ab366004611296565b610828565b6101906101be366004611306565b610bca565b6100e2610cb9565b61013e610cc8565b61010b6101e136600461125e565b610d58565b61013e6101f43660046113cb565b610e35565b61013e61020736600461125e565b611132565b6000546201000090046001600160a01b031681565b6001600160a01b03821660009081526043602052604081205460ff16610249575060006102f1565b60405163523babb960e11b81526000906001600160a01b0385169063a477577290610278908690600401611808565b60206040518083038186803b15801561029057600080fd5b505afa1580156102a4573d6000803e3d6000fd5b505050506040513d601f19601f820116820180604052508101906102c8919061127a565b6001600160a01b0316600090815260426020526040902054600160201b900461ffff1615159150505b92915050565b60436020526000908152604090205460ff1681565b6000546201000090046001600160a01b031633146103455760405162461bcd60e51b815260040161033c906115f5565b60405180910390fd5b60005b8151811015610416576042600083838151811061037557634e487b7160e01b600052603260045260246000fd5b6020908102919091018101516001600160a01b03168252810191909152604001600020805465ffffffffffff1916905581518290829081106103c757634e487b7160e01b600052603260045260246000fd5b60200260200101516001600160a01b03167f995b73152d62a9a92bd554852db356f087e63690e0cb9656cedd21a8d0e27c1b60405160405180910390a28061040e8161189e565b915050610348565b5050565b7f000000000000000000000000000000000000000000000000000000000000000081565b6000546201000090046001600160a01b0316331461046e5760405162461bcd60e51b815260040161033c906115f5565b60005b825181101561055857816043600085848151811061049f57634e487b7160e01b600052603260045260246000fd5b60200260200101516001600160a01b03166001600160a01b0316815260200190815260200160002060006101000a81548160ff0219169083151502179055508281815181106104fe57634e487b7160e01b600052603260045260246000fd5b60200260200101516001600160a01b03167ff6019ec0a78d156d249a1ec7579e2321f6ac7521d6e1d2eacf90ba4a184dcceb8360405161053e9190611559565b60405180910390a2806105508161189e565b915050610471565b505050565b60426020526000908152604090205461ffff80821691620100008104821691600160201b9091041683565b6001600160a01b03841660009081526043602052604081205460ff166105c05760405162461bcd60e51b815260040161033c9061161f565b60405163523babb960e11b81526000906001600160a01b0387169063a4775772906105ef908890600401611808565b60206040518083038186803b15801561060757600080fd5b505afa15801561061b573d6000803e3d6000fd5b505050506040513d601f19601f8201168201806040525081019061063f919061127a565b90506000866001600160a01b031663af8002df876040518263ffffffff1660e01b815260040161066f9190611808565b60206040518083038186803b15801561068757600080fd5b505afa15801561069b573d6000803e3d6000fd5b505050506040513d601f19601f820116820180604052508101906106bf919061152d565b905060006106db600160701b6106d588856111b8565b906111cb565b6001600160a01b0384166000908152604260209081526040918290208251606081018452905461ffff8082168352620100008204811693830193909352600160201b90049091169181018290529192506107475760405162461bcd60e51b815260040161033c90611564565b60006107f7600160701b6106d5857f00000000000000000000000000000000000000000000000000000000000000006001600160a01b031663ab9aadfe8a6040518263ffffffff1660e01b81526004016107a19190611545565b60206040518083038186803b1580156107b957600080fd5b505afa1580156107cd573d6000803e3d6000fd5b505050506040513d601f19601f820116820180604052508101906107f1919061152d565b906111b8565b905061081a6127106106d5846020015161ffff16846111b890919063ffffffff16565b9a9950505050505050505050565b6001600160a01b03831660009081526043602052604081205460ff166108605760405162461bcd60e51b815260040161033c9061161f565b60405163523babb960e11b81526000906001600160a01b0386169063a47757729061088f908790600401611808565b60206040518083038186803b1580156108a757600080fd5b505afa1580156108bb573d6000803e3d6000fd5b505050506040513d601f19601f820116820180604052508101906108df919061127a565b90506000856001600160a01b031663af8002df866040518263ffffffff1660e01b815260040161090f9190611808565b60206040518083038186803b15801561092757600080fd5b505afa15801561093b573d6000803e3d6000fd5b505050506040513d601f19601f8201168201806040525081019061095f919061152d565b6001600160a01b038089166000908152604260208181526040808420815160608082018452915461ffff808216835262010000808304821684880152600160201b928390048216848701908152998d16895296865296849020845193840185525480881684529586048716948301949094529290930484169083015292519394509192166109ff5760405162461bcd60e51b815260040161033c90611731565b604081015161ffff16610a245760405162461bcd60e51b815260040161033c90611597565b6040516355cd56ff60e11b81526000906001600160a01b037f0000000000000000000000000000000000000000000000000000000000000000169063ab9aadfe90610a73908d90600401611545565b60206040518083038186803b158015610a8b57600080fd5b505afa158015610a9f573d6000803e3d6000fd5b505050506040513d601f19601f82011682018060405250810190610ac3919061152d565b905060007f00000000000000000000000000000000000000000000000000000000000000006001600160a01b031663ab9aadfe876040518263ffffffff1660e01b8152600401610b139190611545565b60206040518083038186803b158015610b2b57600080fd5b505afa158015610b3f573d6000803e3d6000fd5b505050506040513d601f19601f82011682018060405250810190610b63919061152d565b90506000610b75826106d58b866111b8565b9050610b89866106d583600160701b6111b8565b9050610bba6305f5e1006106d5866040015161ffff166107f1896040015161ffff16866111b890919063ffffffff16565b9c9b505050505050505050505050565b6001600160a01b03831660009081526042602090815260408083208151606081018352905461ffff8082168352620100008204811694830194909452600160201b9004909216908201819052610c325760405162461bcd60e51b815260040161033c90611642565b6000610c8c600160701b6106d5877f00000000000000000000000000000000000000000000000000000000000000006001600160a01b031663ab9aadfe8b6040518263ffffffff1660e01b81526004016107a19190611545565b9050610caf6127106106d5846000015161ffff16846111b890919063ffffffff16565b9695505050505050565b6001546001600160a01b031681565b6001546001600160a01b03163314610cf25760405162461bcd60e51b815260040161033c906115c3565b600180546001600160a01b03191690556000805462010000600160b01b03191633620100008102919091179091556040517fd345d81ce68c70b119a17eee79dc1421700bd9cb21ca148a62dc90983964e82f91610d4e91611545565b60405180910390a1565b6040516355cd56ff60e11b81526000906001600160a01b037f0000000000000000000000000000000000000000000000000000000000000000169063ab9aadfe90610da7908590600401611545565b60206040518083038186803b158015610dbf57600080fd5b505afa925050508015610def575060408051601f3d908101601f19168201909252610dec9181019061152d565b60015b610dfb57506000610e30565b8015801590610e2c57506001600160a01b038316600090815260426020526040902054600160201b900461ffff1615155b9150505b919050565b6000546201000090046001600160a01b03163314610e655760405162461bcd60e51b815260040161033c906115f5565b8051825114610e865760405162461bcd60e51b815260040161033c9061175c565b60005b825181101561055857612710828281518110610eb557634e487b7160e01b600052603260045260246000fd5b60200260200101516000015161ffff161015610ee35760405162461bcd60e51b815260040161033c906116ee565b612710828281518110610f0657634e487b7160e01b600052603260045260246000fd5b60200260200101516020015161ffff161115610f345760405162461bcd60e51b815260040161033c90611671565b612710828281518110610f5757634e487b7160e01b600052603260045260246000fd5b60200260200101516040015161ffff161015610f855760405162461bcd60e51b815260040161033c906116b7565b614e20828281518110610fa857634e487b7160e01b600052603260045260246000fd5b60200260200101516040015161ffff161115610fd65760405162461bcd60e51b815260040161033c90611789565b818181518110610ff657634e487b7160e01b600052603260045260246000fd5b60200260200101516042600085848151811061102257634e487b7160e01b600052603260045260246000fd5b6020908102919091018101516001600160a01b031682528181019290925260409081016000208351815493850151949092015161ffff1990931661ffff9283161763ffff0000191662010000948316949094029390931765ffff000000001916600160201b919092160217905582518390829081106110b157634e487b7160e01b600052603260045260246000fd5b60200260200101516001600160a01b03167fc35b295ca62f561378f46da3a41b523fb1dc01cfb8d4036f8aa13363958ed45883838151811061110357634e487b7160e01b600052603260045260246000fd5b602002602001015160405161111891906117c0565b60405180910390a28061112a8161189e565b915050610e89565b6000546201000090046001600160a01b031633146111625760405162461bcd60e51b815260040161033c906115f5565b600180546001600160a01b0319166001600160a01b0383161790556040517f964dea888b00b2ab53f13dfe7ca334b46e99338c222ae232d98547a1da019f60906111ad908390611545565b60405180910390a150565b60006111c4828461187f565b9392505050565b60006111c4828461185f565b600082601f8301126111e7578081fd5b813560206111fc6111f78361183b565b611811565b8281528181019085830183850287018401881015611218578586fd5b855b8581101561123f57813561122d816118e5565b8452928401929084019060010161121a565b5090979650505050505050565b803561ffff81168114610e3057600080fd5b60006020828403121561126f578081fd5b81356111c4816118e5565b60006020828403121561128b578081fd5b81516111c4816118e5565b600080600080608085870312156112ab578283fd5b84356112b6816118e5565b935060208501356112c6816118e5565b93969395505050506040820135916060013590565b600080604083850312156112ed578182fd5b82356112f8816118e5565b946020939093013593505050565b60008060006060848603121561131a578283fd5b8335611325816118e5565b925060208401359150604084013561133c816118e5565b809150509250925092565b6000806000806080858703121561135c578384fd5b8435611367816118e5565b935060208501359250604085013591506060850135611385816118e5565b939692955090935050565b6000602082840312156113a1578081fd5b813567ffffffffffffffff8111156113b7578182fd5b6113c3848285016111d7565b949350505050565b60008060408084860312156113de578283fd5b833567ffffffffffffffff808211156113f5578485fd5b611401878388016111d7565b9450602091508186013581811115611417578485fd5b8601601f81018813611427578485fd5b80356114356111f78261183b565b818152848101908386016060808502860188018d101561145357898afd5b8995505b848610156114c75780828e03121561146d57898afd5b88518181018181108982111715611486576114866118cf565b8a526114918361124c565b815261149e89840161124c565b898201526114ad8a840161124c565b818b01528452600195909501949287019290810190611457565b50989b909a5098505050505050505050565b600080604083850312156114eb578182fd5b823567ffffffffffffffff811115611501578283fd5b61150d858286016111d7565b92505060208301358015158114611522578182fd5b809150509250929050565b60006020828403121561153e578081fd5b5051919050565b6001600160a01b0391909116815260200190565b901515815260200190565b602080825260199082015278189859081d5b99195c9b1e5a5b99c818dbdb1b185d195c985b603a1b604082015260600190565b602080825260129082015271189859081d5b99195c9b1e5a5b99c81bdd5d60721b604082015260600190565b6020808252601890820152773737ba103a3432903832b73234b7339033b7bb32b93737b960411b604082015260600190565b60208082526010908201526f3737ba103a34329033b7bb32b93737b960811b604082015260600190565b6020808252600990820152683130b2103a37b5b2b760b91b604082015260600190565b60208082526015908201527462616420756e6465726c79696e6720626f72726f7760581b604082015260600190565b60208082526026908201527f636f6c6c61746572616c20666163746f72206d757374206265206174206d6f7360408201526574203130302560d01b606082015260800190565b6020808252601f908201527f696e63656e74697665206d757374206265206174206c65617374203130302500604082015260600190565b60208082526023908201527f626f72726f7720666163746f72206d757374206265206174206c65617374203160408201526230302560e81b606082015260800190565b6020808252601190820152703130b2103ab73232b9363cb4b7339034b760791b604082015260600190565b6020808252601390820152720d2dcc6dedce6d2e6e8cadce840d8cadccee8d606b1b604082015260600190565b6020808252601e908201527f696e63656e74697665206d757374206265206174206d6f737420323030250000604082015260600190565b815161ffff9081168252602080840151821690830152604092830151169181019190915260600190565b61ffff93841681529183166020830152909116604082015260600190565b90815260200190565b60405181810167ffffffffffffffff81118282101715611833576118336118cf565b604052919050565b600067ffffffffffffffff821115611855576118556118cf565b5060209081020190565b60008261187a57634e487b7160e01b81526012600452602481fd5b500490565b6000816000190483118215151615611899576118996118b9565b500290565b60006000198214156118b2576118b26118b9565b5060010190565b634e487b7160e01b600052601160045260246000fd5b634e487b7160e01b600052604160045260246000fd5b6001600160a01b03811681146118fa57600080fd5b5056fea2646970667358221220d24a3331b0d9588c352313d07634898aa07a1a77f10f9076f874eeb3086d81c864736f6c63430008000033",
  "linkReferences": {},
  "deployedLinkReferences": {}
}