{
  "_format": "hh-sol-artifact-1",
  "contractName": "AggregatorOracle",
  "sourceName": "contracts/oracle/AggregatorOracle.sol",
  "abi": [
    {
      "inputs": [],
      "stateMutability": "nonpayable",
      "type": "constructor"
    },
    {
      "anonymous": false,
      "inputs": [
        {
          "indexed": false,
          "internalType": "address",
          "name": "governor",
          "type": "address"
        }
      ],
      "name": "AcceptGovernor",
      "type": "event"
    },
    {
      "anonymous": false,
      "inputs": [
        {
          "indexed": false,
          "internalType": "address",
          "name": "governor",
          "type": "address"
        }
      ],
      "name": "SetGovernor",
      "type": "event"
    },
    {
      "anonymous": false,
      "inputs": [
        {
          "indexed": false,
          "internalType": "address",
          "name": "pendingGovernor",
          "type": "address"
        }
      ],
      "name": "SetPendingGovernor",
      "type": "event"
    },
    {
      "anonymous": false,
      "inputs": [
        {
          "indexed": true,
          "internalType": "address",
          "name": "token",
          "type": "address"
        },
        {
          "indexed": false,
          "internalType": "uint256",
          "name": "maxPriceDeviation",
          "type": "uint256"
        },
        {
          "indexed": false,
          "internalType": "contract IBaseOracle[]",
          "name": "oracles",
          "type": "address[]"
        }
      ],
      "name": "SetPrimarySources",
      "type": "event"
    },
    {
      "inputs": [],
      "name": "MAX_PRICE_DEVIATION",
      "outputs": [
        {
          "internalType": "uint256",
          "name": "",
          "type": "uint256"
        }
      ],
      "stateMutability": "view",
      "type": "function"
    },
    {
      "inputs": [],
      "name": "MIN_PRICE_DEVIATION",
      "outputs": [
        {
          "internalType": "uint256",
          "name": "",
          "type": "uint256"
        }
      ],
      "stateMutability": "view",
      "type": "function"
    },
    {
      "inputs": [],
      "name": "WETH",
      "outputs": [
        {
          "internalType": "address",
          "name": "",
          "type": "address"
        }
      ],
      "stateMutability": "view",
      "type": "function"
    },
    {
      "inputs": [],
      "name": "acceptGovernor",
      "outputs": [],
      "stateMutability": "nonpayable",
      "type": "function"
    },
    {
      "inputs": [
        {
          "internalType": "address",
          "name": "token",
          "type": "address"
        }
      ],
      "name": "getETHPx",
      "outputs": [
        {
          "internalType": "uint256",
          "name": "",
          "type": "uint256"
        }
      ],
      "stateMutability": "view",
      "type": "function"
    },
    {
      "inputs": [
        {
          "internalType": "address",
          "name": "token0",
          "type": "address"
        },
        {
          "internalType": "address",
          "name": "token1",
          "type": "address"
        }
      ],
      "name": "getPrice",
      "outputs": [
        {
          "internalType": "uint256",
          "name": "",
          "type": "uint256"
        },
        {
          "internalType": "uint256",
          "name": "",
          "type": "uint256"
        }
      ],
      "stateMutability": "view",
      "type": "function"
    },
    {
      "inputs": [],
      "name": "governor",
      "outputs": [
        {
          "internalType": "address",
          "name": "",
          "type": "address"
        }
      ],
      "stateMutability": "view",
      "type": "function"
    },
    {
      "inputs": [
        {
          "internalType": "address",
          "name": "",
          "type": "address"
        }
      ],
      "name": "maxPriceDeviations",
      "outputs": [
        {
          "internalType": "uint256",
          "name": "",
          "type": "uint256"
        }
      ],
      "stateMutability": "view",
      "type": "function"
    },
    {
      "inputs": [],
      "name": "pendingGovernor",
      "outputs": [
        {
          "internalType": "address",
          "name": "",
          "type": "address"
        }
      ],
      "stateMutability": "view",
      "type": "function"
    },
    {
      "inputs": [
        {
          "internalType": "address",
          "name": "",
          "type": "address"
        }
      ],
      "name": "primarySourceCount",
      "outputs": [
        {
          "internalType": "uint256",
          "name": "",
          "type": "uint256"
        }
      ],
      "stateMutability": "view",
      "type": "function"
    },
    {
      "inputs": [
        {
          "internalType": "address",
          "name": "",
          "type": "address"
        },
        {
          "internalType": "uint256",
          "name": "",
          "type": "uint256"
        }
      ],
      "name": "primarySources",
      "outputs": [
        {
          "internalType": "contract IBaseOracle",
          "name": "",
          "type": "address"
        }
      ],
      "stateMutability": "view",
      "type": "function"
    },
    {
      "inputs": [
        {
          "internalType": "address[]",
          "name": "tokens",
          "type": "address[]"
        },
        {
          "internalType": "uint256[]",
          "name": "maxPriceDeviationList",
          "type": "uint256[]"
        },
        {
          "internalType": "contract IBaseOracle[][]",
          "name": "allSources",
          "type": "address[][]"
        }
      ],
      "name": "setMultiPrimarySources",
      "outputs": [],
      "stateMutability": "nonpayable",
      "type": "function"
    },
    {
      "inputs": [
        {
          "internalType": "address",
          "name": "_pendingGovernor",
          "type": "address"
        }
      ],
      "name": "setPendingGovernor",
      "outputs": [],
      "stateMutability": "nonpayable",
      "type": "function"
    },
    {
      "inputs": [
        {
          "internalType": "address",
          "name": "token",
          "type": "address"
        },
        {
          "internalType": "uint256",
          "name": "maxPriceDeviation",
          "type": "uint256"
        },
        {
          "internalType": "contract IBaseOracle[]",
          "name": "sources",
          "type": "address[]"
        }
      ],
      "name": "setPrimarySources",
      "outputs": [],
      "stateMutability": "nonpayable",
      "type": "function"
    }
  ],
  "bytecode": "0x60806040523480156200001157600080fd5b506200001c62000022565b6200016e565b600054610100900460ff16806200003c575060005460ff16155b620000645760405162461bcd60e51b81526004016200005b9062000120565b60405180910390fd5b600054610100900460ff1615801562000090576000805460ff1961ff0019909116610100171660011790555b6000805462010000600160b01b0319163362010000810291909117909155600180546001600160a01b03191690556040517fbce074c8369e26e70e1ae2f14fc944da352cfe6f52e2de9572f0c9942a24b7fc91620000ee916200010c565b60405180910390a1801562000109576000805461ff00191690555b50565b6001600160a01b0391909116815260200190565b6020808252602e908201527f496e697469616c697a61626c653a20636f6e747261637420697320616c72656160408201526d191e481a5b9a5d1a585b1a5e995960921b606082015260800190565b6114f1806200017e6000396000f3fe608060405234801561001057600080fd5b50600436106100ca5760003560e01c8063ad5c46481161007c578063ad5c464814610166578063bb0e70e01461016e578063c66683c014610181578063e3056a3414610194578063e431a4f51461019c578063e58bb639146101af578063f235757f146101b7576100ca565b80630c340a24146100cf578063507b9ede146100ed5780638421401714610102578063897529291461011757806396f277b71461012a578063ab9aadfe14610132578063ac41865a14610145575b600080fd5b6100d76101ca565b6040516100e491906110cf565b60405180910390f35b6101006100fb366004610fde565b6101df565b005b61010a6102fe565b6040516100e49190611340565b61010a610125366004610f08565b61030a565b61010a61031c565b61010a610140366004610f08565b610328565b610158610153366004610f24565b6109bf565b6040516100e4929190611392565b6100d7610aa6565b61010a61017c366004610f08565b610abe565b6100d761018f366004610f5c565b610ad0565b6100d7610af6565b6101006101aa366004610f87565b610b05565b610100610b45565b6101006101c5366004610f08565b610bd5565b6000546201000090046001600160a01b031681565b6000546201000090046001600160a01b031633146102185760405162461bcd60e51b815260040161020f90611220565b60405180910390fd5b80518351146102395760405162461bcd60e51b815260040161020f90611313565b815183511461025a5760405162461bcd60e51b815260040161020f90611313565b60005b83518110156102f8576102e684828151811061028957634e487b7160e01b600052603260045260246000fd5b60200260200101518483815181106102b157634e487b7160e01b600052603260045260246000fd5b60200260200101518484815181106102d957634e487b7160e01b600052603260045260246000fd5b6020026020010151610c5b565b806102f08161145c565b91505061025d565b50505050565b670de0b6b3a764000081565b60426020526000908152604090205481565b6714d1120d7b16000081565b6001600160a01b0381166000908152604260205260408120548061035e5760405162461bcd60e51b815260040161020f906112e8565b60008167ffffffffffffffff81111561038757634e487b7160e01b600052604160045260246000fd5b6040519080825280602002602001820160405280156103b0578160200160208202803683370190505b5090506000805b838110156104a6576001600160a01b038087166000908152604360209081526040808320858452909152908190205490516355cd56ff60e11b815291169063ab9aadfe906104099089906004016110cf565b60206040518083038186803b15801561042157600080fd5b505afa925050508015610451575060408051601f3d908101601f1916820190925261044e918101906110b7565b60015b61045a57610494565b8084846104668161145c565b95508151811061048657634e487b7160e01b600052603260045260246000fd5b602002602001018181525050505b8061049e8161145c565b9150506103b7565b50600081116104c75760405162461bcd60e51b815260040161020f9061127b565b60005b6104d5600183611445565b81101561063e5760005b60016104eb8385611445565b6104f59190611445565b81101561062b57836105088260016113ee565b8151811061052657634e487b7160e01b600052603260045260246000fd5b602002602001015184828151811061054e57634e487b7160e01b600052603260045260246000fd5b6020026020010151111561061957836105688260016113ee565b8151811061058657634e487b7160e01b600052603260045260246000fd5b60200260200101518482815181106105ae57634e487b7160e01b600052603260045260246000fd5b60200260200101518583815181106105d657634e487b7160e01b600052603260045260246000fd5b60200260200101868460016105eb91906113ee565b8151811061060957634e487b7160e01b600052603260045260246000fd5b6020908102919091010191909152525b806106238161145c565b9150506104df565b50806106368161145c565b9150506104ca565b506001600160a01b0385166000908152604460205260409020546001821415610695578260008151811061068257634e487b7160e01b600052603260045260246000fd5b60200260200101519450505050506109ba565b81600214156107ad5780836000815181106106c057634e487b7160e01b600052603260045260246000fd5b602002602001015161070b670de0b6b3a7640000866001815181106106f557634e487b7160e01b600052603260045260246000fd5b6020026020010151610db990919063ffffffff16565b6107159190611406565b11156107335760405162461bcd60e51b815260040161020f906112a4565b60026107988460018151811061075957634e487b7160e01b600052603260045260246000fd5b60200260200101518560008151811061078257634e487b7160e01b600052603260045260246000fd5b6020026020010151610dcc90919063ffffffff16565b6107a29190611406565b9450505050506109ba565b81600314156109a257600081846000815181106107da57634e487b7160e01b600052603260045260246000fd5b602002602001015161080f670de0b6b3a7640000876001815181106106f557634e487b7160e01b600052603260045260246000fd5b6108199190611406565b111590506000828560018151811061084157634e487b7160e01b600052603260045260246000fd5b6020026020010151610876670de0b6b3a7640000886002815181106106f557634e487b7160e01b600052603260045260246000fd5b6108809190611406565b1115905081801561088e5750805b156108c957846001815181106108b457634e487b7160e01b600052603260045260246000fd5b602002602001015196505050505050506109ba565b811561093557600261091e866001815181106108f557634e487b7160e01b600052603260045260246000fd5b60200260200101518760008151811061078257634e487b7160e01b600052603260045260246000fd5b6109289190611406565b96505050505050506109ba565b801561098a57600261091e8660028151811061096157634e487b7160e01b600052603260045260246000fd5b60200260200101518760018151811061078257634e487b7160e01b600052603260045260246000fd5b60405162461bcd60e51b815260040161020f9061115c565b60405162461bcd60e51b815260040161020f906110e3565b919050565b6000806001600160a01b03841673c02aaa39b223fe8d0a0e5c4f27ead9083c756cc21480610a0957506001600160a01b03831673c02aaa39b223fe8d0a0e5c4f27ead9083c756cc2145b610a255760405162461bcd60e51b815260040161020f906111a0565b6001600160a01b03841673c02aaa39b223fe8d0a0e5c4f27ead9083c756cc21415610a7c57610a72610a5684610328565b610a6c600160701b670de0b6b3a7640000610db9565b90610dd8565b4291509150610a9f565b610a72600160701b610a6c670de0b6b3a7640000610a9988610328565b90610db9565b9250929050565b73c02aaa39b223fe8d0a0e5c4f27ead9083c756cc281565b60446020526000908152604090205481565b60436020908152600092835260408084209091529082529020546001600160a01b031681565b6001546001600160a01b031681565b6000546201000090046001600160a01b03163314610b355760405162461bcd60e51b815260040161020f90611220565b610b40838383610c5b565b505050565b6001546001600160a01b03163314610b6f5760405162461bcd60e51b815260040161020f9061112a565b600180546001600160a01b03191690556000805462010000600160b01b03191633620100008102919091179091556040517fd345d81ce68c70b119a17eee79dc1421700bd9cb21ca148a62dc90983964e82f91610bcb916110cf565b60405180910390a1565b6000546201000090046001600160a01b03163314610c055760405162461bcd60e51b815260040161020f90611220565b600180546001600160a01b0319166001600160a01b0383161790556040517f964dea888b00b2ab53f13dfe7ca334b46e99338c222ae232d98547a1da019f6090610c509083906110cf565b60405180910390a150565b80516001600160a01b038416600090815260426020526040902055670de0b6b3a76400008210801590610c9657506714d1120d7b1600008211155b610cb25760405162461bcd60e51b815260040161020f9061124a565b600381511115610cd45760405162461bcd60e51b815260040161020f906111ef565b6001600160a01b03831660009081526044602052604081208390555b8151811015610d7057818181518110610d1957634e487b7160e01b600052603260045260246000fd5b6020908102919091018101516001600160a01b0386811660009081526043845260408082208683529094529290922080546001600160a01b0319169290911691909117905580610d688161145c565b915050610cf0565b50826001600160a01b03167ffaf0e7a4bd03038343c2a7e8953d95dfec44a01478bba4f65a5b5ec9c397da538383604051610dac929190611349565b60405180910390a2505050565b6000610dc58284611426565b9392505050565b6000610dc582846113ee565b6000610dc58284611406565b600082601f830112610df4578081fd5b81356020610e09610e04836113ca565b6113a0565b82815281810190858301855b85811015610e3e57610e2c898684358b0101610e4b565b84529284019290840190600101610e15565b5090979650505050505050565b600082601f830112610e5b578081fd5b81356020610e6b610e04836113ca565b8281528181019085830183850287018401881015610e87578586fd5b855b85811015610e3e578135610e9c816114a3565b84529284019290840190600101610e89565b600082601f830112610ebe578081fd5b81356020610ece610e04836113ca565b8281528181019085830183850287018401881015610eea578586fd5b855b85811015610e3e57813584529284019290840190600101610eec565b600060208284031215610f19578081fd5b8135610dc5816114a3565b60008060408385031215610f36578081fd5b8235610f41816114a3565b91506020830135610f51816114a3565b809150509250929050565b60008060408385031215610f6e578182fd5b8235610f79816114a3565b946020939093013593505050565b600080600060608486031215610f9b578081fd5b8335610fa6816114a3565b925060208401359150604084013567ffffffffffffffff811115610fc8578182fd5b610fd486828701610e4b565b9150509250925092565b600080600060608486031215610ff2578283fd5b833567ffffffffffffffff80821115611009578485fd5b818601915086601f83011261101c578485fd5b8135602061102c610e04836113ca565b82815281810190858301838502870184018c101561104857898afd5b8996505b8487101561107357803561105f816114a3565b83526001969096019591830191830161104c565b5097505087013592505080821115611089578384fd5b61109587838801610eae565b935060408601359150808211156110aa578283fd5b50610fd486828701610de4565b6000602082840312156110c8578081fd5b5051919050565b6001600160a01b0391909116815260200190565b60208082526027908201527f6d6f7265207468616e20332076616c696420736f7572636573206e6f742073756040820152661c1c1bdc9d195960ca1b606082015260800190565b6020808252601890820152773737ba103a3432903832b73234b7339033b7bb32b93737b960411b604082015260600190565b60208082526024908201527f746f6f206d75636820646576696174696f6e2028332076616c696420736f75726040820152636365732960e01b606082015260800190565b6020808252602f908201527f6f6e65206f66207468652072657175657374656420746f6b656e73206d75737460408201526e040c4ca408aa89040dee440ae8aa89608b1b606082015260800190565b602080825260179082015276736f7572636573206c656e67746820657863656564203360481b604082015260600190565b60208082526010908201526f3737ba103a34329033b7bb32b93737b960811b604082015260600190565b602080825260179082015276626164206d617820646576696174696f6e2076616c756560481b604082015260600190565b6020808252600f908201526e6e6f2076616c696420736f7572636560881b604082015260600190565b60208082526024908201527f746f6f206d75636820646576696174696f6e2028322076616c696420736f75726040820152636365732960e01b606082015260800190565b6020808252601190820152706e6f207072696d61727920736f7572636560781b604082015260600190565b6020808252601390820152720d2dcc6dedce6d2e6e8cadce840d8cadccee8d606b1b604082015260600190565b90815260200190565b60006040820184835260206040818501528185518084526060860191508287019350845b81811015610e3e5784516001600160a01b03168352938301939183019160010161136d565b918252602082015260400190565b60405181810167ffffffffffffffff811182821017156113c2576113c261148d565b604052919050565b600067ffffffffffffffff8211156113e4576113e461148d565b5060209081020190565b6000821982111561140157611401611477565b500190565b60008261142157634e487b7160e01b81526012600452602481fd5b500490565b600081600019048311821515161561144057611440611477565b500290565b60008282101561145757611457611477565b500390565b600060001982141561147057611470611477565b5060010190565b634e487b7160e01b600052601160045260246000fd5b634e487b7160e01b600052604160045260246000fd5b6001600160a01b03811681146114b857600080fd5b5056fea2646970667358221220051e4f7db37f4a5b3ac3fe2ea4e0c6da3dd2d236a1196a1b3980a78798331b6064736f6c63430008000033",
  "linkReferences": {},
  "deployedLinkReferences": {}
}