{
  "_format": "hh-sol-artifact-1",
  "contractName": "HouseHoldSpell",
  "sourceName": "contracts/spell/HouseHoldSpell.sol",
  "abi": [
    {
      "inputs": [
        {
          "internalType": "contract IBank",
          "name": "_bank",
          "type": "address"
        },
        {
          "internalType": "address",
          "name": "_werc20",
          "type": "address"
        },
        {
          "internalType": "address",
          "name": "_weth",
          "type": "address"
        }
      ],
      "stateMutability": "nonpayable",
      "type": "constructor"
    },
    {
      "inputs": [
        {
          "internalType": "address",
          "name": "",
          "type": "address"
        },
        {
          "internalType": "address",
          "name": "",
          "type": "address"
        }
      ],
      "name": "approved",
      "outputs": [
        {
          "internalType": "bool",
          "name": "",
          "type": "bool"
        }
      ],
      "stateMutability": "view",
      "type": "function"
    },
    {
      "inputs": [],
      "name": "bank",
      "outputs": [
        {
          "internalType": "contract IBank",
          "name": "",
          "type": "address"
        }
      ],
      "stateMutability": "view",
      "type": "function"
    },
    {
      "inputs": [
        {
          "internalType": "address",
          "name": "token",
          "type": "address"
        },
        {
          "internalType": "uint256",
          "name": "amount",
          "type": "uint256"
        }
      ],
      "name": "borrow",
      "outputs": [],
      "stateMutability": "nonpayable",
      "type": "function"
    },
    {
      "inputs": [
        {
          "internalType": "uint256",
          "name": "amount",
          "type": "uint256"
        }
      ],
      "name": "borrowETH",
      "outputs": [],
      "stateMutability": "nonpayable",
      "type": "function"
    },
    {
      "inputs": [
        {
          "internalType": "address",
          "name": "token",
          "type": "address"
        },
        {
          "internalType": "uint256",
          "name": "amount",
          "type": "uint256"
        }
      ],
      "name": "doPutCollateral",
      "outputs": [],
      "stateMutability": "nonpayable",
      "type": "function"
    },
    {
      "inputs": [
        {
          "internalType": "address",
          "name": "",
          "type": "address"
        },
        {
          "internalType": "address",
          "name": "",
          "type": "address"
        },
        {
          "internalType": "uint256[]",
          "name": "",
          "type": "uint256[]"
        },
        {
          "internalType": "uint256[]",
          "name": "",
          "type": "uint256[]"
        },
        {
          "internalType": "bytes",
          "name": "",
          "type": "bytes"
        }
      ],
      "name": "onERC1155BatchReceived",
      "outputs": [
        {
          "internalType": "bytes4",
          "name": "",
          "type": "bytes4"
        }
      ],
      "stateMutability": "nonpayable",
      "type": "function"
    },
    {
      "inputs": [
        {
          "internalType": "address",
          "name": "",
          "type": "address"
        },
        {
          "internalType": "address",
          "name": "",
          "type": "address"
        },
        {
          "internalType": "uint256",
          "name": "",
          "type": "uint256"
        },
        {
          "internalType": "uint256",
          "name": "",
          "type": "uint256"
        },
        {
          "internalType": "bytes",
          "name": "",
          "type": "bytes"
        }
      ],
      "name": "onERC1155Received",
      "outputs": [
        {
          "internalType": "bytes4",
          "name": "",
          "type": "bytes4"
        }
      ],
      "stateMutability": "nonpayable",
      "type": "function"
    },
    {
      "inputs": [
        {
          "internalType": "address",
          "name": "token",
          "type": "address"
        },
        {
          "internalType": "uint256",
          "name": "amount",
          "type": "uint256"
        }
      ],
      "name": "putCollateral",
      "outputs": [],
      "stateMutability": "nonpayable",
      "type": "function"
    },
    {
      "inputs": [
        {
          "internalType": "address",
          "name": "token",
          "type": "address"
        },
        {
          "internalType": "uint256",
          "name": "amount",
          "type": "uint256"
        }
      ],
      "name": "repay",
      "outputs": [],
      "stateMutability": "nonpayable",
      "type": "function"
    },
    {
      "inputs": [
        {
          "internalType": "uint256",
          "name": "amount",
          "type": "uint256"
        }
      ],
      "name": "repayETH",
      "outputs": [],
      "stateMutability": "payable",
      "type": "function"
    },
    {
      "inputs": [
        {
          "internalType": "bytes4",
          "name": "interfaceId",
          "type": "bytes4"
        }
      ],
      "name": "supportsInterface",
      "outputs": [
        {
          "internalType": "bool",
          "name": "",
          "type": "bool"
        }
      ],
      "stateMutability": "view",
      "type": "function"
    },
    {
      "inputs": [
        {
          "internalType": "address",
          "name": "token",
          "type": "address"
        },
        {
          "internalType": "uint256",
          "name": "amount",
          "type": "uint256"
        }
      ],
      "name": "takeCollateral",
      "outputs": [],
      "stateMutability": "nonpayable",
      "type": "function"
    },
    {
      "inputs": [],
      "name": "werc20",
      "outputs": [
        {
          "internalType": "contract IWERC20",
          "name": "",
          "type": "address"
        }
      ],
      "stateMutability": "view",
      "type": "function"
    },
    {
      "inputs": [],
      "name": "weth",
      "outputs": [
        {
          "internalType": "address",
          "name": "",
          "type": "address"
        }
      ],
      "stateMutability": "view",
      "type": "function"
    },
    {
      "stateMutability": "payable",
      "type": "receive"
    }
  ],
  "bytecode": "0x60e06040523480156200001157600080fd5b5060405162001e2338038062001e23833981016040819052620000349162000461565b6001600160601b0319606084811b821660805283811b821660a05282901b1660c052828282620000658184620000d6565b60405163a22cb46560e01b81526001600160a01b0383169063a22cb465906200009690869060019060040162000505565b600060405180830381600087803b158015620000b157600080fd5b505af1158015620000c6573d6000803e3d6000fd5b50505050505050505050620006de565b6001600160a01b03808316600090815260406020818152818320938516835292909252205460ff166200015a576200012a81600019846001600160a01b03166200015e60201b620006b0179092919060201c565b6001600160a01b0380831660009081526040602081815281832093851683529290925220805460ff191660011790555b5050565b801580620001ed5750604051636eb1769f60e11b81526001600160a01b0384169063dd62ed3e90620001979030908690600401620004eb565b60206040518083038186803b158015620001b057600080fd5b505afa158015620001c5573d6000803e3d6000fd5b505050506040513d601f19601f82011682018060405250810190620001eb9190620004b4565b155b620002155760405162461bcd60e51b81526004016200020c9062000635565b60405180910390fd5b620002708363095ea7b360e01b84846040516024016200023792919062000520565b60408051808303601f190181529190526020810180516001600160e01b0319939093166001600160e01b03938416179052906200027516565b505050565b6000620002d1826040518060400160405280602081526020017f5361666545524332303a206c6f772d6c6576656c2063616c6c206661696c6564815250856001600160a01b03166200031160201b620007af179092919060201c565b805190915015620002705780806020019051810190620002f291906200043f565b620002705760405162461bcd60e51b81526004016200020c90620005eb565b60606200032284846000856200032c565b90505b9392505050565b606082471015620003515760405162461bcd60e51b81526004016200020c906200056e565b6200035c85620003fb565b6200037b5760405162461bcd60e51b81526004016200020c90620005b4565b600080866001600160a01b03168587604051620003999190620004cd565b60006040518083038185875af1925050503d8060008114620003d8576040519150601f19603f3d011682016040523d82523d6000602084013e620003dd565b606091505b509092509050620003f082828662000401565b979650505050505050565b3b151590565b606083156200041257508162000325565b825115620004235782518084602001fd5b8160405162461bcd60e51b81526004016200020c919062000539565b60006020828403121562000451578081fd5b8151801515811462000325578182fd5b60008060006060848603121562000476578182fd5b83516200048381620006c5565b60208501519093506200049681620006c5565b6040850151909250620004a981620006c5565b809150509250925092565b600060208284031215620004c6578081fd5b5051919050565b60008251620004e181846020870162000692565b9190910192915050565b6001600160a01b0392831681529116602082015260400190565b6001600160a01b039290921682521515602082015260400190565b6001600160a01b03929092168252602082015260400190565b60006020825282518060208401526200055a81604085016020870162000692565b601f01601f19169190910160400192915050565b60208082526026908201527f416464726573733a20696e73756666696369656e742062616c616e636520666f6040820152651c8818d85b1b60d21b606082015260800190565b6020808252601d908201527f416464726573733a2063616c6c20746f206e6f6e2d636f6e7472616374000000604082015260600190565b6020808252602a908201527f5361666545524332303a204552433230206f7065726174696f6e20646964206e6040820152691bdd081cdd58d8d9595960b21b606082015260800190565b60208082526036908201527f5361666545524332303a20617070726f76652066726f6d206e6f6e2d7a65726f60408201527f20746f206e6f6e2d7a65726f20616c6c6f77616e636500000000000000000000606082015260800190565b60005b83811015620006af57818101518382015260200162000695565b83811115620006bf576000848401525b50505050565b6001600160a01b0381168114620006db57600080fd5b50565b60805160601c60a05160601c60c05160601c611681620007a26000396000818160d10152818161047101528181610532015281816106480152818161085e0152818161096b0152610a110152600081816103170152818161035201528181610400015281816105fd01528181610cd70152610d4b0152600081816103d001528181610621015281816108df0152818161091a01528181610a7c01528181610bb401528181610bfd01528181610ca901528181610e100152610ecd01526116816000f3fe6080604052600436106100c15760003560e01c80634b8a35291161006f5780634b8a3529146102095780635741229c1461022957806376cdb03b1461023e5780637b2af62514610253578063bc197c8114610273578063f23a6e61146102a0578063f4b16045146102c057610119565b806301ffc9a71461011e5780631a37e2fc146101545780632247463e1461017457806322867d78146101875780633fc8cef3146101a7578063451a036e146101c957806349d63489146101e957610119565b3661011957336001600160a01b037f000000000000000000000000000000000000000000000000000000000000000016146101175760405162461bcd60e51b815260040161010e906114f5565b60405180910390fd5b005b600080fd5b34801561012a57600080fd5b5061013e610139366004611355565b6102e0565b60405161014b9190611431565b60405180910390f35b34801561016057600080fd5b5061011761016f36600461130a565b61030b565b61011761018236600461137d565b610464565b34801561019357600080fd5b506101176101a236600461130a565b6104a1565b3480156101b357600080fd5b506101bc610530565b60405161014b91906113c9565b3480156101d557600080fd5b506101176101e436600461130a565b610554565b3480156101f557600080fd5b5061011761020436600461130a565b6105de565b34801561021557600080fd5b5061011761022436600461130a565b6105f1565b34801561023557600080fd5b506101bc6105fb565b34801561024a57600080fd5b506101bc61061f565b34801561025f57600080fd5b5061011761026e36600461137d565b610643565b34801561027f57600080fd5b5061029361028e36600461118e565b61066d565b60405161014b919061143c565b3480156102ac57600080fd5b506102936102bb366004611290565b610681565b3480156102cc57600080fd5b5061013e6102db366004611156565b610693565b60006001600160e01b03198216630271189760e51b14806103055750610305826107c8565b92915050565b80156104605761033b827f00000000000000000000000000000000000000000000000000000000000000006107e1565b6040516340c10f1960e01b81526001600160a01b037f000000000000000000000000000000000000000000000000000000000000000016906340c10f199061038990859085906004016113f7565b600060405180830381600087803b1580156103a357600080fd5b505af11580156103b7573d6000803e3d6000fd5b505060405163314568d960e01b81526001600160a01b037f00000000000000000000000000000000000000000000000000000000000000008116935063314568d9925061042d917f0000000000000000000000000000000000000000000000000000000000000000918716908690600401611410565b600060405180830381600087803b15801561044757600080fd5b505af115801561045b573d6000803e3d6000fd5b505050505b5050565b61046c610856565b6104967f0000000000000000000000000000000000000000000000000000000000000000826108d3565b61049e610951565b50565b6104ab8282610b97565b61046082836001600160a01b03166370a08231306040518263ffffffff1660e01b81526004016104db91906113c9565b60206040518083038186803b1580156104f357600080fd5b505afa158015610507573d6000803e3d6000fd5b505050506040513d601f19601f8201168201806040525081019061052b9190611395565b6108d3565b7f000000000000000000000000000000000000000000000000000000000000000081565b61055e8282610b97565b61046082836001600160a01b03166370a08231306040518263ffffffff1660e01b815260040161058e91906113c9565b60206040518083038186803b1580156105a657600080fd5b505afa1580156105ba573d6000803e3d6000fd5b505050506040513d601f19601f8201168201806040525081019061016f9190611395565b6105e88282610beb565b61046082610d84565b6105e88282610eb0565b7f000000000000000000000000000000000000000000000000000000000000000081565b7f000000000000000000000000000000000000000000000000000000000000000081565b6104967f000000000000000000000000000000000000000000000000000000000000000082610eb0565b63bc197c8160e01b98975050505050505050565b63f23a6e6160e01b9695505050505050565b604060208181526000938452818420905290825290205460ff1681565b8015806107385750604051636eb1769f60e11b81526001600160a01b0384169063dd62ed3e906106e690309086906004016113dd565b60206040518083038186803b1580156106fe57600080fd5b505afa158015610712573d6000803e3d6000fd5b505050506040513d601f19601f820116820180604052508101906107369190611395565b155b6107545760405162461bcd60e51b815260040161010e906115a7565b6107aa8363095ea7b360e01b84846040516024016107739291906113f7565b60408051601f198184030181529190526020810180516001600160e01b03166001600160e01b031990931692909217909152610f04565b505050565b60606107be8484600085610f93565b90505b9392505050565b6001600160e01b031981166301ffc9a760e01b14919050565b6001600160a01b03808316600090815260406020818152818320938516835292909252205460ff16610460576108236001600160a01b038316826000196106b0565b6001600160a01b0380831660009081526040602081815281832093851683529290925220805460ff191660011790555050565b34156108d1577f00000000000000000000000000000000000000000000000000000000000000006001600160a01b031663d0e30db0346040518263ffffffff1660e01b81526004016000604051808303818588803b1580156108b757600080fd5b505af11580156108cb573d6000803e3d6000fd5b50505050505b565b801561046057610903827f00000000000000000000000000000000000000000000000000000000000000006107e1565b604051630450cfaf60e31b81526001600160a01b037f000000000000000000000000000000000000000000000000000000000000000016906322867d789061042d90859085906004016113f7565b6040516370a0823160e01b81526000906001600160a01b037f000000000000000000000000000000000000000000000000000000000000000016906370a08231906109a09030906004016113c9565b602060405180830381600087803b1580156109ba57600080fd5b505af11580156109ce573d6000803e3d6000fd5b505050506040513d601f19601f820116820180604052508101906109f29190611395565b9050801561049e57604051632e1a7d4d60e01b81526001600160a01b037f00000000000000000000000000000000000000000000000000000000000000001690632e1a7d4d90610a469084906004016115fd565b600060405180830381600087803b158015610a6057600080fd5b505af1158015610a74573d6000803e3d6000fd5b5050505060007f00000000000000000000000000000000000000000000000000000000000000006001600160a01b031663630dc7cb6040518163ffffffff1660e01b815260040160206040518083038186803b158015610ad357600080fd5b505afa158015610ae7573d6000803e3d6000fd5b505050506040513d601f19601f82011682018060405250810190610b0b919061113a565b604080516000815260208101918290526001600160a01b0392909216918491610b3491906113ad565b60006040518083038185875af1925050503d8060008114610b71576040519150601f19603f3d011682016040523d82523d6000602084013e610b76565b606091505b50509050806104605760405162461bcd60e51b815260040161010e90611484565b80156104605760405163246b5de160e11b81526001600160a01b037f000000000000000000000000000000000000000000000000000000000000000016906348d6bbc29061042d90859085906004016113f7565b801561046057600019811415610c92577f00000000000000000000000000000000000000000000000000000000000000006001600160a01b031663f70aedd96040518163ffffffff1660e01b815260040160806040518083038186803b158015610c5457600080fd5b505afa158015610c68573d6000803e3d6000fd5b505050506040513d601f19601f82011682018060405250810190610c8c9190611249565b93505050505b604051630d1d697560e31b81526001600160a01b037f00000000000000000000000000000000000000000000000000000000000000008116916368eb4ba891610d04917f0000000000000000000000000000000000000000000000000000000000000000918716908690600401611410565b600060405180830381600087803b158015610d1e57600080fd5b505af1158015610d32573d6000803e3d6000fd5b5050604051632770a7eb60e21b81526001600160a01b037f0000000000000000000000000000000000000000000000000000000000000000169250639dc29fac915061042d90859085906004016113f7565b6040516370a0823160e01b81526000906001600160a01b038316906370a0823190610db39030906004016113c9565b60206040518083038186803b158015610dcb57600080fd5b505afa158015610ddf573d6000803e3d6000fd5b505050506040513d601f19601f82011682018060405250810190610e039190611395565b90508015610460576104607f00000000000000000000000000000000000000000000000000000000000000006001600160a01b031663630dc7cb6040518163ffffffff1660e01b815260040160206040518083038186803b158015610e6757600080fd5b505afa158015610e7b573d6000803e3d6000fd5b505050506040513d601f19601f82011682018060405250810190610e9f919061113a565b6001600160a01b0384169083611053565b801561046057604051634b8a352960e01b81526001600160a01b037f00000000000000000000000000000000000000000000000000000000000000001690634b8a35299061042d90859085906004016113f7565b6000610f59826040518060400160405280602081526020017f5361666545524332303a206c6f772d6c6576656c2063616c6c206661696c6564815250856001600160a01b03166107af9092919063ffffffff16565b8051909150156107aa5780806020019051810190610f779190611335565b6107aa5760405162461bcd60e51b815260040161010e9061155d565b606082471015610fb55760405162461bcd60e51b815260040161010e906114af565b610fbe85611072565b610fda5760405162461bcd60e51b815260040161010e90611526565b600080866001600160a01b03168587604051610ff691906113ad565b60006040518083038185875af1925050503d8060008114611033576040519150601f19603f3d011682016040523d82523d6000602084013e611038565b606091505b5091509150611048828286611078565b979650505050505050565b6107aa8363a9059cbb60e01b84846040516024016107739291906113f7565b3b151590565b606083156110875750816107c1565b8251156110975782518084602001fd5b8160405162461bcd60e51b815260040161010e9190611451565b60008083601f8401126110c2578182fd5b50813567ffffffffffffffff8111156110d9578182fd5b60208301915083602080830285010111156110f357600080fd5b9250929050565b60008083601f84011261110b578182fd5b50813567ffffffffffffffff811115611122578182fd5b6020830191508360208285010111156110f357600080fd5b60006020828403121561114b578081fd5b81516107c181611636565b60008060408385031215611168578081fd5b823561117381611636565b9150602083013561118381611636565b809150509250929050565b60008060008060008060008060a0898b0312156111a9578384fd5b88356111b481611636565b975060208901356111c481611636565b9650604089013567ffffffffffffffff808211156111e0578586fd5b6111ec8c838d016110b1565b909850965060608b0135915080821115611204578586fd5b6112108c838d016110b1565b909650945060808b0135915080821115611228578384fd5b506112358b828c016110fa565b999c989b5096995094979396929594505050565b6000806000806080858703121561125e578384fd5b845161126981611636565b602086015190945061127a81611636565b6040860151606090960151949790965092505050565b60008060008060008060a087890312156112a8578182fd5b86356112b381611636565b955060208701356112c381611636565b94506040870135935060608701359250608087013567ffffffffffffffff8111156112ec578283fd5b6112f889828a016110fa565b979a9699509497509295939492505050565b6000806040838503121561131c578182fd5b823561132781611636565b946020939093013593505050565b600060208284031215611346578081fd5b815180151581146107c1578182fd5b600060208284031215611366578081fd5b81356001600160e01b0319811681146107c1578182fd5b60006020828403121561138e578081fd5b5035919050565b6000602082840312156113a6578081fd5b5051919050565b600082516113bf818460208701611606565b9190910192915050565b6001600160a01b0391909116815260200190565b6001600160a01b0392831681529116602082015260400190565b6001600160a01b03929092168252602082015260400190565b6001600160a01b039390931683526020830191909152604082015260600190565b901515815260200190565b6001600160e01b031991909116815260200190565b6000602082528251806020840152611470816040850160208701611606565b601f01601f19169190910160400192915050565b6020808252601190820152701c99599d5b99081155120819985a5b1959607a1b604082015260600190565b60208082526026908201527f416464726573733a20696e73756666696369656e742062616c616e636520666f6040820152651c8818d85b1b60d21b606082015260800190565b60208082526017908201527608aa89040daeae6e840c6dedaca40cce4deda40ae8aa89604b1b604082015260600190565b6020808252601d908201527f416464726573733a2063616c6c20746f206e6f6e2d636f6e7472616374000000604082015260600190565b6020808252602a908201527f5361666545524332303a204552433230206f7065726174696f6e20646964206e6040820152691bdd081cdd58d8d9595960b21b606082015260800190565b60208082526036908201527f5361666545524332303a20617070726f76652066726f6d206e6f6e2d7a65726f60408201527520746f206e6f6e2d7a65726f20616c6c6f77616e636560501b606082015260800190565b90815260200190565b60005b83811015611621578181015183820152602001611609565b83811115611630576000848401525b50505050565b6001600160a01b038116811461049e57600080fdfea2646970667358221220d88ec57381d79f88c320ebeb1fc12de45b77ab1f5fa18ffa1976264c688eb05264736f6c63430008000033",
  "linkReferences": {},
  "deployedLinkReferences": {}
}