{
  "_format": "hh-sol-artifact-1",
  "contractName": "WhitelistSpell",
  "sourceName": "contracts/spell/WhitelistSpell.sol",
  "abi": [
    {
      "inputs": [
        {
          "internalType": "contract IBank",
          "name": "_bank",
          "type": "address"
        },
        {
          "internalType": "address",
          "name": "_werc20",
          "type": "address"
        },
        {
          "internalType": "address",
          "name": "_weth",
          "type": "address"
        }
      ],
      "stateMutability": "nonpayable",
      "type": "constructor"
    },
    {
      "anonymous": false,
      "inputs": [
        {
          "indexed": false,
          "internalType": "address",
          "name": "governor",
          "type": "address"
        }
      ],
      "name": "AcceptGovernor",
      "type": "event"
    },
    {
      "anonymous": false,
      "inputs": [
        {
          "indexed": false,
          "internalType": "address",
          "name": "governor",
          "type": "address"
        }
      ],
      "name": "SetGovernor",
      "type": "event"
    },
    {
      "anonymous": false,
      "inputs": [
        {
          "indexed": false,
          "internalType": "address",
          "name": "pendingGovernor",
          "type": "address"
        }
      ],
      "name": "SetPendingGovernor",
      "type": "event"
    },
    {
      "inputs": [],
      "name": "acceptGovernor",
      "outputs": [],
      "stateMutability": "nonpayable",
      "type": "function"
    },
    {
      "inputs": [
        {
          "internalType": "address",
          "name": "",
          "type": "address"
        },
        {
          "internalType": "address",
          "name": "",
          "type": "address"
        }
      ],
      "name": "approved",
      "outputs": [
        {
          "internalType": "bool",
          "name": "",
          "type": "bool"
        }
      ],
      "stateMutability": "view",
      "type": "function"
    },
    {
      "inputs": [],
      "name": "bank",
      "outputs": [
        {
          "internalType": "contract IBank",
          "name": "",
          "type": "address"
        }
      ],
      "stateMutability": "view",
      "type": "function"
    },
    {
      "inputs": [
        {
          "internalType": "address",
          "name": "token",
          "type": "address"
        },
        {
          "internalType": "uint256",
          "name": "amount",
          "type": "uint256"
        }
      ],
      "name": "doPutCollateral",
      "outputs": [],
      "stateMutability": "nonpayable",
      "type": "function"
    },
    {
      "inputs": [],
      "name": "governor",
      "outputs": [
        {
          "internalType": "address",
          "name": "",
          "type": "address"
        }
      ],
      "stateMutability": "view",
      "type": "function"
    },
    {
      "inputs": [
        {
          "internalType": "address",
          "name": "",
          "type": "address"
        },
        {
          "internalType": "address",
          "name": "",
          "type": "address"
        },
        {
          "internalType": "uint256[]",
          "name": "",
          "type": "uint256[]"
        },
        {
          "internalType": "uint256[]",
          "name": "",
          "type": "uint256[]"
        },
        {
          "internalType": "bytes",
          "name": "",
          "type": "bytes"
        }
      ],
      "name": "onERC1155BatchReceived",
      "outputs": [
        {
          "internalType": "bytes4",
          "name": "",
          "type": "bytes4"
        }
      ],
      "stateMutability": "nonpayable",
      "type": "function"
    },
    {
      "inputs": [
        {
          "internalType": "address",
          "name": "",
          "type": "address"
        },
        {
          "internalType": "address",
          "name": "",
          "type": "address"
        },
        {
          "internalType": "uint256",
          "name": "",
          "type": "uint256"
        },
        {
          "internalType": "uint256",
          "name": "",
          "type": "uint256"
        },
        {
          "internalType": "bytes",
          "name": "",
          "type": "bytes"
        }
      ],
      "name": "onERC1155Received",
      "outputs": [
        {
          "internalType": "bytes4",
          "name": "",
          "type": "bytes4"
        }
      ],
      "stateMutability": "nonpayable",
      "type": "function"
    },
    {
      "inputs": [],
      "name": "pendingGovernor",
      "outputs": [
        {
          "internalType": "address",
          "name": "",
          "type": "address"
        }
      ],
      "stateMutability": "view",
      "type": "function"
    },
    {
      "inputs": [
        {
          "internalType": "address",
          "name": "_pendingGovernor",
          "type": "address"
        }
      ],
      "name": "setPendingGovernor",
      "outputs": [],
      "stateMutability": "nonpayable",
      "type": "function"
    },
    {
      "inputs": [
        {
          "internalType": "address[]",
          "name": "lpTokens",
          "type": "address[]"
        },
        {
          "internalType": "bool[]",
          "name": "statuses",
          "type": "bool[]"
        }
      ],
      "name": "setWhitelistLPTokens",
      "outputs": [],
      "stateMutability": "nonpayable",
      "type": "function"
    },
    {
      "inputs": [
        {
          "internalType": "bytes4",
          "name": "interfaceId",
          "type": "bytes4"
        }
      ],
      "name": "supportsInterface",
      "outputs": [
        {
          "internalType": "bool",
          "name": "",
          "type": "bool"
        }
      ],
      "stateMutability": "view",
      "type": "function"
    },
    {
      "inputs": [],
      "name": "werc20",
      "outputs": [
        {
          "internalType": "contract IWERC20",
          "name": "",
          "type": "address"
        }
      ],
      "stateMutability": "view",
      "type": "function"
    },
    {
      "inputs": [],
      "name": "weth",
      "outputs": [
        {
          "internalType": "address",
          "name": "",
          "type": "address"
        }
      ],
      "stateMutability": "view",
      "type": "function"
    },
    {
      "inputs": [
        {
          "internalType": "address",
          "name": "",
          "type": "address"
        }
      ],
      "name": "whitelistedLpTokens",
      "outputs": [
        {
          "internalType": "bool",
          "name": "",
          "type": "bool"
        }
      ],
      "stateMutability": "view",
      "type": "function"
    },
    {
      "stateMutability": "payable",
      "type": "receive"
    }
  ],
  "bytecode": "0x60e06040523480156200001157600080fd5b5060405162001b0138038062001b01833981016040819052620000349162000552565b6001600160601b0319606084811b821660805283811b821660a05282901b1660c052828282620000658184620000e6565b60405163a22cb46560e01b81526001600160a01b0383169063a22cb46590620000969086906001906004016200060a565b600060405180830381600087803b158015620000b157600080fd5b505af1158015620000c6573d6000803e3d6000fd5b50505050505050620000dd6200016e60201b60201c565b5050506200082e565b6001600160a01b03808316600090815260406020818152818320938516835292909252205460ff166200016a576200013a81600019846001600160a01b03166200025860201b6200087f179092919060201c565b6001600160a01b0380831660009081526040602081815281832093851683529290925220805460ff191660011790555b5050565b604154610100900460ff168062000188575060415460ff16155b620001b05760405162461bcd60e51b8152600401620001a790620006b9565b60405180910390fd5b604154610100900460ff16158015620001dc576041805460ff1961ff0019909116610100171660011790555b6041805462010000600160b01b0319163362010000810291909117909155604280546001600160a01b03191690556040517fbce074c8369e26e70e1ae2f14fc944da352cfe6f52e2de9572f0c9942a24b7fc916200023a91620005dc565b60405180910390a1801562000255576041805461ff00191690555b50565b801580620002e75750604051636eb1769f60e11b81526001600160a01b0384169063dd62ed3e90620002919030908690600401620005f0565b60206040518083038186803b158015620002aa57600080fd5b505afa158015620002bf573d6000803e3d6000fd5b505050506040513d601f19601f82011682018060405250810190620002e59190620005a5565b155b620003065760405162461bcd60e51b8152600401620001a79062000788565b620003618363095ea7b360e01b84846040516024016200032892919062000625565b60408051808303601f190181529190526020810180516001600160e01b0319939093166001600160e01b03938416179052906200036616565b505050565b6000620003c2826040518060400160405280602081526020017f5361666545524332303a206c6f772d6c6576656c2063616c6c206661696c6564815250856001600160a01b03166200040260201b6200097e179092919060201c565b805190915015620003615780806020019051810190620003e3919062000530565b620003615760405162461bcd60e51b8152600401620001a7906200073e565b60606200041384846000856200041d565b90505b9392505050565b606082471015620004425760405162461bcd60e51b8152600401620001a79062000673565b6200044d85620004ec565b6200046c5760405162461bcd60e51b8152600401620001a79062000707565b600080866001600160a01b031685876040516200048a9190620005be565b60006040518083038185875af1925050503d8060008114620004c9576040519150601f19603f3d011682016040523d82523d6000602084013e620004ce565b606091505b509092509050620004e1828286620004f2565b979650505050505050565b3b151590565b606083156200050357508162000416565b825115620005145782518084602001fd5b8160405162461bcd60e51b8152600401620001a791906200063e565b60006020828403121562000542578081fd5b8151801515811462000416578182fd5b60008060006060848603121562000567578182fd5b8351620005748162000818565b6020850151909350620005878162000818565b60408501519092506200059a8162000818565b809150509250925092565b600060208284031215620005b7578081fd5b5051919050565b60008251620005d2818460208701620007e5565b9190910192915050565b6001600160a01b0391909116815260200190565b6001600160a01b0392831681529116602082015260400190565b6001600160a01b039290921682521515602082015260400190565b6001600160a01b03929092168252602082015260400190565b60006020825282518060208401526200065f816040850160208701620007e5565b601f01601f19169190910160400192915050565b60208082526026908201527f416464726573733a20696e73756666696369656e742062616c616e636520666f6040820152651c8818d85b1b60d21b606082015260800190565b6020808252602e908201527f496e697469616c697a61626c653a20636f6e747261637420697320616c72656160408201526d191e481a5b9a5d1a585b1a5e995960921b606082015260800190565b6020808252601d908201527f416464726573733a2063616c6c20746f206e6f6e2d636f6e7472616374000000604082015260600190565b6020808252602a908201527f5361666545524332303a204552433230206f7065726174696f6e20646964206e6040820152691bdd081cdd58d8d9595960b21b606082015260800190565b60208082526036908201527f5361666545524332303a20617070726f76652066726f6d206e6f6e2d7a65726f60408201527f20746f206e6f6e2d7a65726f20616c6c6f77616e636500000000000000000000606082015260800190565b60005b8381101562000802578181015183820152602001620007e8565b8381111562000812576000848401525b50505050565b6001600160a01b03811681146200025557600080fd5b60805160601c60a05160601c60c05160601c611271620008906000396000818160d1015261046901526000818161031a015281816103550152818161040301526104a20152600081816103d3015281816104c6015261063101526112716000f3fe6080604052600436106100c15760003560e01c8063bc197c811161006f578063bc197c81146101f5578063e3056a3414610222578063e58bb63914610237578063ee42c6f41461024c578063f235757f1461026c578063f23a6e611461028c578063f4b16045146102ac57610119565b806301ffc9a71461011e5780630c340a24146101545780631a37e2fc146101765780633fc8cef3146101965780634bab09f6146101ab5780635741229c146101cb57806376cdb03b146101e057610119565b3661011957336001600160a01b037f000000000000000000000000000000000000000000000000000000000000000016146101175760405162461bcd60e51b815260040161010e906110cb565b60405180910390fd5b005b600080fd5b34801561012a57600080fd5b5061013e610139366004610e96565b6102cc565b60405161014b9190610f5a565b60405180910390f35b34801561016057600080fd5b506101696102f9565b60405161014b9190610ef2565b34801561018257600080fd5b50610117610191366004610dcc565b61030e565b3480156101a257600080fd5b50610169610467565b3480156101b757600080fd5b5061013e6101c6366004610c53565b61048b565b3480156101d757600080fd5b506101696104a0565b3480156101ec57600080fd5b506101696104c4565b34801561020157600080fd5b50610215610210366004610c9f565b6104e8565b60405161014b9190610f65565b34801561022e57600080fd5b506101696104fc565b34801561024357600080fd5b5061011761050b565b34801561025857600080fd5b50610117610267366004610df5565b61059b565b34801561027857600080fd5b50610117610287366004610c53565b6107ca565b34801561029857600080fd5b506102156102a7366004610d56565b610850565b3480156102b857600080fd5b5061013e6102c7366004610c6d565b610862565b60006001600160e01b03198216630271189760e51b14806102f157506102f182610997565b90505b919050565b6041546201000090046001600160a01b031681565b80156104635761033e827f00000000000000000000000000000000000000000000000000000000000000006109b0565b6040516340c10f1960e01b81526001600160a01b037f000000000000000000000000000000000000000000000000000000000000000016906340c10f199061038c9085908590600401610f20565b600060405180830381600087803b1580156103a657600080fd5b505af11580156103ba573d6000803e3d6000fd5b505060405163314568d960e01b81526001600160a01b037f00000000000000000000000000000000000000000000000000000000000000008116935063314568d99250610430917f0000000000000000000000000000000000000000000000000000000000000000918716908690600401610f39565b600060405180830381600087803b15801561044a57600080fd5b505af115801561045e573d6000803e3d6000fd5b505050505b5050565b7f000000000000000000000000000000000000000000000000000000000000000081565b60836020526000908152604090205460ff1681565b7f000000000000000000000000000000000000000000000000000000000000000081565b7f000000000000000000000000000000000000000000000000000000000000000081565b63bc197c8160e01b98975050505050505050565b6042546001600160a01b031681565b6042546001600160a01b031633146105355760405162461bcd60e51b815260040161010e90610fad565b604280546001600160a01b03191690556041805462010000600160b01b03191633620100008102919091179091556040517fd345d81ce68c70b119a17eee79dc1421700bd9cb21ca148a62dc90983964e82f9161059191610ef2565b60405180910390a1565b6041546201000090046001600160a01b031633146105cb5760405162461bcd60e51b815260040161010e9061105c565b8281146105ea5760405162461bcd60e51b815260040161010e90611086565b60005b838110156107c35782828281811061061557634e487b7160e01b600052603260045260246000fd5b905060200201602081019061062a9190610e5e565b1561071b577f00000000000000000000000000000000000000000000000000000000000000006001600160a01b031663e660cc0886868481811061067e57634e487b7160e01b600052603260045260246000fd5b90506020020160208101906106939190610c53565b6040518263ffffffff1660e01b81526004016106af9190610ef2565b60206040518083038186803b1580156106c757600080fd5b505afa1580156106db573d6000803e3d6000fd5b505050506040513d601f19601f820116820180604052508101906106ff9190610e7a565b61071b5760405162461bcd60e51b815260040161010e90610fdf565b82828281811061073b57634e487b7160e01b600052603260045260246000fd5b90506020020160208101906107509190610e5e565b6083600087878581811061077457634e487b7160e01b600052603260045260246000fd5b90506020020160208101906107899190610c53565b6001600160a01b031681526020810191909152604001600020805460ff1916911515919091179055806107bb81611203565b9150506105ed565b5050505050565b6041546201000090046001600160a01b031633146107fa5760405162461bcd60e51b815260040161010e9061105c565b604280546001600160a01b0319166001600160a01b0383161790556040517f964dea888b00b2ab53f13dfe7ca334b46e99338c222ae232d98547a1da019f6090610845908390610ef2565b60405180910390a150565b63f23a6e6160e01b9695505050505050565b604060208181526000938452818420905290825290205460ff1681565b8015806109075750604051636eb1769f60e11b81526001600160a01b0384169063dd62ed3e906108b59030908690600401610f06565b60206040518083038186803b1580156108cd57600080fd5b505afa1580156108e1573d6000803e3d6000fd5b505050506040513d601f19601f820116820180604052508101906109059190610ebe565b155b6109235760405162461bcd60e51b815260040161010e9061117d565b6109798363095ea7b360e01b8484604051602401610942929190610f20565b60408051601f198184030181529190526020810180516001600160e01b03166001600160e01b031990931692909217909152610a25565b505050565b606061098d8484600085610ab4565b90505b9392505050565b6001600160e01b031981166301ffc9a760e01b14919050565b6001600160a01b03808316600090815260406020818152818320938516835292909252205460ff16610463576109f26001600160a01b0383168260001961087f565b6001600160a01b0380831660009081526040602081815281832093851683529290925220805460ff191660011790555050565b6000610a7a826040518060400160405280602081526020017f5361666545524332303a206c6f772d6c6576656c2063616c6c206661696c6564815250856001600160a01b031661097e9092919063ffffffff16565b8051909150156109795780806020019051810190610a989190610e7a565b6109795760405162461bcd60e51b815260040161010e90611133565b606082471015610ad65760405162461bcd60e51b815260040161010e90611016565b610adf85610b74565b610afb5760405162461bcd60e51b815260040161010e906110fc565b600080866001600160a01b03168587604051610b179190610ed6565b60006040518083038185875af1925050503d8060008114610b54576040519150601f19603f3d011682016040523d82523d6000602084013e610b59565b606091505b5091509150610b69828286610b7a565b979650505050505050565b3b151590565b60608315610b89575081610990565b825115610b995782518084602001fd5b8160405162461bcd60e51b815260040161010e9190610f7a565b80356001600160a01b03811681146102f457600080fd5b60008083601f840112610bdb578182fd5b50813567ffffffffffffffff811115610bf2578182fd5b6020830191508360208083028501011115610c0c57600080fd5b9250929050565b60008083601f840112610c24578182fd5b50813567ffffffffffffffff811115610c3b578182fd5b602083019150836020828501011115610c0c57600080fd5b600060208284031215610c64578081fd5b61099082610bb3565b60008060408385031215610c7f578081fd5b610c8883610bb3565b9150610c9660208401610bb3565b90509250929050565b60008060008060008060008060a0898b031215610cba578384fd5b610cc389610bb3565b9750610cd160208a01610bb3565b9650604089013567ffffffffffffffff80821115610ced578586fd5b610cf98c838d01610bca565b909850965060608b0135915080821115610d11578586fd5b610d1d8c838d01610bca565b909650945060808b0135915080821115610d35578384fd5b50610d428b828c01610c13565b999c989b5096995094979396929594505050565b60008060008060008060a08789031215610d6e578182fd5b610d7787610bb3565b9550610d8560208801610bb3565b94506040870135935060608701359250608087013567ffffffffffffffff811115610dae578283fd5b610dba89828a01610c13565b979a9699509497509295939492505050565b60008060408385031215610dde578182fd5b610de783610bb3565b946020939093013593505050565b60008060008060408587031215610e0a578384fd5b843567ffffffffffffffff80821115610e21578586fd5b610e2d88838901610bca565b90965094506020870135915080821115610e45578384fd5b50610e5287828801610bca565b95989497509550505050565b600060208284031215610e6f578081fd5b81356109908161122a565b600060208284031215610e8b578081fd5b81516109908161122a565b600060208284031215610ea7578081fd5b81356001600160e01b031981168114610990578182fd5b600060208284031215610ecf578081fd5b5051919050565b60008251610ee88184602087016111d3565b9190910192915050565b6001600160a01b0391909116815260200190565b6001600160a01b0392831681529116602082015260400190565b6001600160a01b03929092168252602082015260400190565b6001600160a01b039390931683526020830191909152604082015260600190565b901515815260200190565b6001600160e01b031991909116815260200190565b6000602082528251806020840152610f998160408501602087016111d3565b601f01601f19169190910160400192915050565b6020808252601890820152773737ba103a3432903832b73234b7339033b7bb32b93737b960411b604082015260600190565b6020808252601b908201527f6f7261636c65206e6f7420737570706f7274206c7020746f6b656e0000000000604082015260600190565b60208082526026908201527f416464726573733a20696e73756666696369656e742062616c616e636520666f6040820152651c8818d85b1b60d21b606082015260800190565b60208082526010908201526f3737ba103a34329033b7bb32b93737b960811b604082015260600190565b60208082526025908201527f6c70546f6b656e732026207374617475736573206c656e677468206d69736d616040820152641d18da195960da1b606082015260800190565b60208082526017908201527608aa89040daeae6e840c6dedaca40cce4deda40ae8aa89604b1b604082015260600190565b6020808252601d908201527f416464726573733a2063616c6c20746f206e6f6e2d636f6e7472616374000000604082015260600190565b6020808252602a908201527f5361666545524332303a204552433230206f7065726174696f6e20646964206e6040820152691bdd081cdd58d8d9595960b21b606082015260800190565b60208082526036908201527f5361666545524332303a20617070726f76652066726f6d206e6f6e2d7a65726f60408201527520746f206e6f6e2d7a65726f20616c6c6f77616e636560501b606082015260800190565b60005b838110156111ee5781810151838201526020016111d6565b838111156111fd576000848401525b50505050565b600060001982141561122357634e487b7160e01b81526011600452602481fd5b5060010190565b801515811461123857600080fd5b5056fea2646970667358221220d8d20228537649dd77db7a3334fac8552779249217cd2e8c68265138c7de70de64736f6c63430008000033",
  "linkReferences": {},
  "deployedLinkReferences": {}
}