{
  "_format": "hh-sol-artifact-1",
  "contractName": "WMasterChef",
  "sourceName": "contracts/wrapper/WMasterChef.sol",
  "abi": [
    {
      "inputs": [
        {
          "internalType": "contract IMasterChef",
          "name": "_chef",
          "type": "address"
        }
      ],
      "stateMutability": "nonpayable",
      "type": "constructor"
    },
    {
      "anonymous": false,
      "inputs": [
        {
          "indexed": true,
          "internalType": "address",
          "name": "account",
          "type": "address"
        },
        {
          "indexed": true,
          "internalType": "address",
          "name": "operator",
          "type": "address"
        },
        {
          "indexed": false,
          "internalType": "bool",
          "name": "approved",
          "type": "bool"
        }
      ],
      "name": "ApprovalForAll",
      "type": "event"
    },
    {
      "anonymous": false,
      "inputs": [
        {
          "indexed": true,
          "internalType": "address",
          "name": "operator",
          "type": "address"
        },
        {
          "indexed": true,
          "internalType": "address",
          "name": "from",
          "type": "address"
        },
        {
          "indexed": true,
          "internalType": "address",
          "name": "to",
          "type": "address"
        },
        {
          "indexed": false,
          "internalType": "uint256[]",
          "name": "ids",
          "type": "uint256[]"
        },
        {
          "indexed": false,
          "internalType": "uint256[]",
          "name": "values",
          "type": "uint256[]"
        }
      ],
      "name": "TransferBatch",
      "type": "event"
    },
    {
      "anonymous": false,
      "inputs": [
        {
          "indexed": true,
          "internalType": "address",
          "name": "operator",
          "type": "address"
        },
        {
          "indexed": true,
          "internalType": "address",
          "name": "from",
          "type": "address"
        },
        {
          "indexed": true,
          "internalType": "address",
          "name": "to",
          "type": "address"
        },
        {
          "indexed": false,
          "internalType": "uint256",
          "name": "id",
          "type": "uint256"
        },
        {
          "indexed": false,
          "internalType": "uint256",
          "name": "value",
          "type": "uint256"
        }
      ],
      "name": "TransferSingle",
      "type": "event"
    },
    {
      "anonymous": false,
      "inputs": [
        {
          "indexed": false,
          "internalType": "string",
          "name": "value",
          "type": "string"
        },
        {
          "indexed": true,
          "internalType": "uint256",
          "name": "id",
          "type": "uint256"
        }
      ],
      "name": "URI",
      "type": "event"
    },
    {
      "inputs": [
        {
          "internalType": "address",
          "name": "account",
          "type": "address"
        },
        {
          "internalType": "uint256",
          "name": "id",
          "type": "uint256"
        }
      ],
      "name": "balanceOf",
      "outputs": [
        {
          "internalType": "uint256",
          "name": "",
          "type": "uint256"
        }
      ],
      "stateMutability": "view",
      "type": "function"
    },
    {
      "inputs": [
        {
          "internalType": "address[]",
          "name": "accounts",
          "type": "address[]"
        },
        {
          "internalType": "uint256[]",
          "name": "ids",
          "type": "uint256[]"
        }
      ],
      "name": "balanceOfBatch",
      "outputs": [
        {
          "internalType": "uint256[]",
          "name": "",
          "type": "uint256[]"
        }
      ],
      "stateMutability": "view",
      "type": "function"
    },
    {
      "inputs": [
        {
          "internalType": "uint256",
          "name": "id",
          "type": "uint256"
        },
        {
          "internalType": "uint256",
          "name": "amount",
          "type": "uint256"
        }
      ],
      "name": "burn",
      "outputs": [
        {
          "internalType": "uint256",
          "name": "",
          "type": "uint256"
        }
      ],
      "stateMutability": "nonpayable",
      "type": "function"
    },
    {
      "inputs": [],
      "name": "chef",
      "outputs": [
        {
          "internalType": "contract IMasterChef",
          "name": "",
          "type": "address"
        }
      ],
      "stateMutability": "view",
      "type": "function"
    },
    {
      "inputs": [
        {
          "internalType": "uint256",
          "name": "id",
          "type": "uint256"
        }
      ],
      "name": "decodeId",
      "outputs": [
        {
          "internalType": "uint256",
          "name": "pid",
          "type": "uint256"
        },
        {
          "internalType": "uint256",
          "name": "sushiPerShare",
          "type": "uint256"
        }
      ],
      "stateMutability": "pure",
      "type": "function"
    },
    {
      "inputs": [
        {
          "internalType": "uint256",
          "name": "pid",
          "type": "uint256"
        },
        {
          "internalType": "uint256",
          "name": "sushiPerShare",
          "type": "uint256"
        }
      ],
      "name": "encodeId",
      "outputs": [
        {
          "internalType": "uint256",
          "name": "id",
          "type": "uint256"
        }
      ],
      "stateMutability": "pure",
      "type": "function"
    },
    {
      "inputs": [
        {
          "internalType": "uint256",
          "name": "",
          "type": "uint256"
        }
      ],
      "name": "getUnderlyingRate",
      "outputs": [
        {
          "internalType": "uint256",
          "name": "",
          "type": "uint256"
        }
      ],
      "stateMutability": "view",
      "type": "function"
    },
    {
      "inputs": [
        {
          "internalType": "uint256",
          "name": "id",
          "type": "uint256"
        }
      ],
      "name": "getUnderlyingToken",
      "outputs": [
        {
          "internalType": "address",
          "name": "",
          "type": "address"
        }
      ],
      "stateMutability": "view",
      "type": "function"
    },
    {
      "inputs": [
        {
          "internalType": "address",
          "name": "account",
          "type": "address"
        },
        {
          "internalType": "address",
          "name": "operator",
          "type": "address"
        }
      ],
      "name": "isApprovedForAll",
      "outputs": [
        {
          "internalType": "bool",
          "name": "",
          "type": "bool"
        }
      ],
      "stateMutability": "view",
      "type": "function"
    },
    {
      "inputs": [
        {
          "internalType": "uint256",
          "name": "pid",
          "type": "uint256"
        },
        {
          "internalType": "uint256",
          "name": "amount",
          "type": "uint256"
        }
      ],
      "name": "mint",
      "outputs": [
        {
          "internalType": "uint256",
          "name": "",
          "type": "uint256"
        }
      ],
      "stateMutability": "nonpayable",
      "type": "function"
    },
    {
      "inputs": [
        {
          "internalType": "address",
          "name": "from",
          "type": "address"
        },
        {
          "internalType": "address",
          "name": "to",
          "type": "address"
        },
        {
          "internalType": "uint256[]",
          "name": "ids",
          "type": "uint256[]"
        },
        {
          "internalType": "uint256[]",
          "name": "amounts",
          "type": "uint256[]"
        },
        {
          "internalType": "bytes",
          "name": "data",
          "type": "bytes"
        }
      ],
      "name": "safeBatchTransferFrom",
      "outputs": [],
      "stateMutability": "nonpayable",
      "type": "function"
    },
    {
      "inputs": [
        {
          "internalType": "address",
          "name": "from",
          "type": "address"
        },
        {
          "internalType": "address",
          "name": "to",
          "type": "address"
        },
        {
          "internalType": "uint256",
          "name": "id",
          "type": "uint256"
        },
        {
          "internalType": "uint256",
          "name": "amount",
          "type": "uint256"
        },
        {
          "internalType": "bytes",
          "name": "data",
          "type": "bytes"
        }
      ],
      "name": "safeTransferFrom",
      "outputs": [],
      "stateMutability": "nonpayable",
      "type": "function"
    },
    {
      "inputs": [
        {
          "internalType": "address",
          "name": "operator",
          "type": "address"
        },
        {
          "internalType": "bool",
          "name": "approved",
          "type": "bool"
        }
      ],
      "name": "setApprovalForAll",
      "outputs": [],
      "stateMutability": "nonpayable",
      "type": "function"
    },
    {
      "inputs": [
        {
          "internalType": "bytes4",
          "name": "interfaceId",
          "type": "bytes4"
        }
      ],
      "name": "supportsInterface",
      "outputs": [
        {
          "internalType": "bool",
          "name": "",
          "type": "bool"
        }
      ],
      "stateMutability": "view",
      "type": "function"
    },
    {
      "inputs": [],
      "name": "sushi",
      "outputs": [
        {
          "internalType": "contract IERC20",
          "name": "",
          "type": "address"
        }
      ],
      "stateMutability": "view",
      "type": "function"
    },
    {
      "inputs": [
        {
          "internalType": "uint256",
          "name": "",
          "type": "uint256"
        }
      ],
      "name": "uri",
      "outputs": [
        {
          "internalType": "string",
          "name": "",
          "type": "string"
        }
      ],
      "stateMutability": "view",
      "type": "function"
    }
  ],
  "bytecode": "0x60c06040523480156200001157600080fd5b5060405162002834380380620028348339810160408190526200003491620001cb565b60408051808201909152600b81526a2ba6b0b9ba32b921b432b360a91b602082015262000061816200010c565b5060016003556001600160601b0319606082901b1660805260408051630a08790360e01b815290516001600160a01b03831691630a087903916004808301926020929190829003018186803b158015620000ba57600080fd5b505afa158015620000cf573d6000803e3d6000fd5b505050506040513d601f19601f82011682018060405250810190620000f59190620001cb565b60601b6001600160601b03191660a0525062000247565b80516200012190600290602084019062000125565b5050565b8280546200013390620001f1565b90600052602060002090601f016020900481019282620001575760008555620001a2565b82601f106200017257805160ff1916838001178555620001a2565b82800160010185558215620001a2579182015b82811115620001a257825182559160200191906001019062000185565b50620001b0929150620001b4565b5090565b5b80821115620001b05760008155600101620001b5565b600060208284031215620001dd578081fd5b8151620001ea816200022e565b9392505050565b6002810460018216806200020657607f821691505b602082108114156200022857634e487b7160e01b600052602260045260246000fd5b50919050565b6001600160a01b03811681146200024457600080fd5b50565b60805160601c60a05160601c612582620002b2600039600081816102f70152610c3f0152600081816103f1015281816104bc015281816105480152818161058601528181610608015281816106cc0152818161099e01528181610ac00152610b2e01526125826000f3fe608060405234801561001057600080fd5b50600436106100df5760003560e01c80634e1273f4116100875780634e1273f4146101a5578063a22cb465146101c5578063a4775772146101d8578063af8002df146101eb578063b390c0ab146101fe578063dc20c6fa14610211578063e985e9c514610232578063f242432a14610245576100df565b8062fdd58e146100e457806301ffc9a71461010d5780630a0879031461012d5780630e89341c146101425780631b2ef1ca146101625780631fc8bc5d1461017557806329f2b5bd1461017d5780632eb2c2d614610190575b600080fd5b6100f76100f23660046119c1565b610258565b60405161010491906122c7565b60405180910390f35b61012061011b366004611b05565b6102af565b6040516101049190611d54565b6101356102f5565b6040516101049190611c10565b610155610150366004611b3d565b610319565b6040516101049190611d5f565b6100f7610170366004611b6d565b6103ad565b6101356106ca565b6100f761018b366004611b6d565b6106ee565b6101a361019e366004611885565b610740565b005b6101b86101b3366004611a2a565b61079e565b6040516101049190611d13565b6101a36101d3366004611994565b6108bd565b6101356101e6366004611b3d565b61098b565b6100f76101f9366004611b3d565b610a44565b6100f761020c366004611b6d565b610a4d565b61022461021f366004611b3d565b610c78565b6040516101049291906122d0565b61012061024036600461184d565b610c8c565b6101a361025336600461192e565b610cba565b60006001600160a01b0383166102895760405162461bcd60e51b815260040161028090611e3b565b60405180910390fd5b506000908152602081815260408083206001600160a01b03949094168352929052205490565b60006001600160e01b03198216636cdb3d1360e11b14806102e057506001600160e01b031982166303a24d0760e21b145b806102ef57506102ef82610d11565b92915050565b7f000000000000000000000000000000000000000000000000000000000000000081565b606060028054610328906123c4565b80601f0160208091040260200160405190810160405280929190818152602001828054610354906123c4565b80156103a15780601f10610376576101008083540402835291602001916103a1565b820191906000526020600020905b81548152906001019060200180831161038457829003601f168201915b50505050509050919050565b6000600260035414156103d25760405162461bcd60e51b81526004016102809061223a565b6002600355604051631526fe2760e01b81526000906001600160a01b037f00000000000000000000000000000000000000000000000000000000000000001690631526fe27906104269087906004016122c7565b60806040518083038186803b15801561043e57600080fd5b505afa158015610452573d6000803e3d6000fd5b505050506040513d601f19601f8201168201806040525081019061047691906119ec565b509192506104929150506001600160a01b038216333086610d2a565b604051636eb1769f60e11b8152600019906001600160a01b0383169063dd62ed3e906104e49030907f000000000000000000000000000000000000000000000000000000000000000090600401611c24565b60206040518083038186803b1580156104fc57600080fd5b505afa158015610510573d6000803e3d6000fd5b505050506040513d601f19601f820116820180604052508101906105349190611b55565b1461056f5761056f6001600160a01b0382167f0000000000000000000000000000000000000000000000000000000000000000600019610d88565b604051631c57762b60e31b81526001600160a01b037f0000000000000000000000000000000000000000000000000000000000000000169063e2bbb158906105bd90879087906004016122d0565b600060405180830381600087803b1580156105d757600080fd5b505af11580156105eb573d6000803e3d6000fd5b5050604051631526fe2760e01b8152600092506001600160a01b037f0000000000000000000000000000000000000000000000000000000000000000169150631526fe279061063e9088906004016122c7565b60806040518083038186803b15801561065657600080fd5b505afa15801561066a573d6000803e3d6000fd5b505050506040513d601f19601f8201168201806040525081019061068e91906119ec565b9350505050600061069f86836106ee565b90506106bc33828760405180602001604052806000815250610e50565b600160035595945050505050565b7f000000000000000000000000000000000000000000000000000000000000000081565b60006201000083106107125760405162461bcd60e51b815260040161028090611f13565b600160f01b82106107355760405162461bcd60e51b815260040161028090611e0e565b5060f09190911b1790565b610748610f2d565b6001600160a01b0316856001600160a01b0316148061076e575061076e85610240610f2d565b61078a5760405162461bcd60e51b815260040161028090611fbf565b6107978585858585610f32565b5050505050565b606081518351146107c15760405162461bcd60e51b815260040161028090612168565b600083516001600160401b038111156107ea57634e487b7160e01b600052604160045260246000fd5b604051908082528060200260200182016040528015610813578160200160208202803683370190505b50905060005b84518110156108b55761087a85828151811061084557634e487b7160e01b600052603260045260246000fd5b602002602001015185838151811061086d57634e487b7160e01b600052603260045260246000fd5b6020026020010151610258565b82828151811061089a57634e487b7160e01b600052603260045260246000fd5b60209081029190910101526108ae816123ff565b9050610819565b509392505050565b816001600160a01b03166108cf610f2d565b6001600160a01b031614156108f65760405162461bcd60e51b8152600401610280906120d5565b8060016000610903610f2d565b6001600160a01b03908116825260208083019390935260409182016000908120918716808252919093529120805460ff191692151592909217909155610947610f2d565b6001600160a01b03167f17307eab39ab6107e8899845ad3d59bd9653f200f220920489ca2b5937696c318360405161097f9190611d54565b60405180910390a35050565b60008061099783610c78565b50905060007f00000000000000000000000000000000000000000000000000000000000000006001600160a01b0316631526fe27836040518263ffffffff1660e01b81526004016109e891906122c7565b60806040518083038186803b158015610a0057600080fd5b505afa158015610a14573d6000803e3d6000fd5b505050506040513d601f19601f82011682018060405250810190610a3891906119ec565b50919695505050505050565b50600160701b90565b600060026003541415610a725760405162461bcd60e51b81526004016102809061223a565b6002600355600019821415610a8e57610a8b3384610258565b91505b600080610a9a85610c78565b91509150610aa9338686611103565b604051630441a3e760e41b81526001600160a01b037f0000000000000000000000000000000000000000000000000000000000000000169063441a3e7090610af790859088906004016122d0565b600060405180830381600087803b158015610b1157600080fd5b505af1158015610b25573d6000803e3d6000fd5b505050506000807f00000000000000000000000000000000000000000000000000000000000000006001600160a01b0316631526fe27856040518263ffffffff1660e01b8152600401610b7891906122c7565b60806040518083038186803b158015610b9057600080fd5b505afa158015610ba4573d6000803e3d6000fd5b505050506040513d601f19601f82011682018060405250810190610bc891906119ec565b929450919250610be59150506001600160a01b0383163388611200565b6000610c0064e8d4a51000610bfa868a61121f565b90611232565b90506000610c1d64e8d4a51000610c17858b61121f565b90611254565b905081811115610c6657610c6633610c358385611260565b6001600160a01b037f0000000000000000000000000000000000000000000000000000000000000000169190611200565b50506001600355509195945050505050565b60f081901c916001600160f01b0390911690565b6001600160a01b03918216600090815260016020908152604080832093909416825291909152205460ff1690565b610cc2610f2d565b6001600160a01b0316856001600160a01b03161480610ce85750610ce885610240610f2d565b610d045760405162461bcd60e51b815260040161028090611eca565b610797858585858561126c565b6001600160e01b031981166301ffc9a760e01b14919050565b610d82846323b872dd60e01b858585604051602401610d4b93929190611c9c565b60408051601f198184030181529190526020810180516001600160e01b03166001600160e01b03199093169290921790915261138e565b50505050565b801580610e105750604051636eb1769f60e11b81526001600160a01b0384169063dd62ed3e90610dbe9030908690600401611c24565b60206040518083038186803b158015610dd657600080fd5b505afa158015610dea573d6000803e3d6000fd5b505050506040513d601f19601f82011682018060405250810190610e0e9190611b55565b155b610e2c5760405162461bcd60e51b815260040161028090612271565b610e4b8363095ea7b360e01b8484604051602401610d4b929190611cfa565b505050565b6001600160a01b038416610e765760405162461bcd60e51b8152600401610280906121f9565b6000610e80610f2d565b9050610ea181600087610e928861141d565b610e9b8861141d565b876110fb565b6000848152602081815260408083206001600160a01b038916845290915281208054859290610ed190849061232a565b92505081905550846001600160a01b031660006001600160a01b0316826001600160a01b031660008051602061252d8339815191528787604051610f169291906122d0565b60405180910390a461079781600087878787611476565b335b90565b8151835114610f535760405162461bcd60e51b8152600401610280906121b1565b6001600160a01b038416610f795760405162461bcd60e51b815260040161028090611f7a565b6000610f83610f2d565b9050610f938187878787876110fb565b60005b8451811015611095576000858281518110610fc157634e487b7160e01b600052603260045260246000fd5b602002602001015190506000858381518110610fed57634e487b7160e01b600052603260045260246000fd5b602090810291909101810151600084815280835260408082206001600160a01b038e16835290935291909120549091508181101561103d5760405162461bcd60e51b815260040161028090612054565b6000838152602081815260408083206001600160a01b038e8116855292528083208585039055908b1682528120805484929061107a90849061232a565b925050819055505050508061108e906123ff565b9050610f96565b50846001600160a01b0316866001600160a01b0316826001600160a01b03167f4a39dc06d4c0dbc64b70af90fd698a233a518aa5d07e595d983b8c0526c8f7fb87876040516110e5929190611d26565b60405180910390a46110fb818787878787611584565b505050505050565b6001600160a01b0383166111295760405162461bcd60e51b815260040161028090612011565b6000611133610f2d565b9050611163818560006111458761141d565b61114e8761141d565b604051806020016040528060008152506110fb565b6000838152602081815260408083206001600160a01b0388168452909152902054828110156111a45760405162461bcd60e51b815260040161028090611e86565b6000848152602081815260408083206001600160a01b03808a168086529190935281842087860390559051909185169060008051602061252d833981519152906111f190899089906122d0565b60405180910390a45050505050565b610e4b8363a9059cbb60e01b8484604051602401610d4b929190611cfa565b600061122b8284612362565b9392505050565b60008161124a60016112448684611655565b90611260565b61122b9190612342565b600061122b8284612342565b600061122b8284612381565b6001600160a01b0384166112925760405162461bcd60e51b815260040161028090611f7a565b600061129c610f2d565b90506112ad818787610e928861141d565b6000848152602081815260408083206001600160a01b038a168452909152902054838110156112ee5760405162461bcd60e51b815260040161028090612054565b6000858152602081815260408083206001600160a01b038b811685529252808320878503905590881682528120805486929061132b90849061232a565b92505081905550856001600160a01b0316876001600160a01b0316836001600160a01b031660008051602061252d833981519152888860405161136f9291906122d0565b60405180910390a4611385828888888888611476565b50505050505050565b60006113e3826040518060400160405280602081526020017f5361666545524332303a206c6f772d6c6576656c2063616c6c206661696c6564815250856001600160a01b03166116619092919063ffffffff16565b805190915015610e4b57808060200190518101906114019190611ae9565b610e4b5760405162461bcd60e51b81526004016102809061211e565b6040805160018082528183019092526060916000919060208083019080368337019050509050828160008151811061146557634e487b7160e01b600052603260045260246000fd5b602090810291909101015292915050565b611488846001600160a01b0316611678565b156110fb5760405163f23a6e6160e01b81526001600160a01b0385169063f23a6e61906114c19089908990889088908890600401611cc0565b602060405180830381600087803b1580156114db57600080fd5b505af192505050801561150b575060408051601f3d908101601f1916820190925261150891810190611b21565b60015b6115545761151761244c565b80611522575061153c565b8060405162461bcd60e51b81526004016102809190611d5f565b60405162461bcd60e51b815260040161028090611d72565b6001600160e01b0319811663f23a6e6160e01b146113855760405162461bcd60e51b815260040161028090611dc6565b611596846001600160a01b0316611678565b156110fb5760405163bc197c8160e01b81526001600160a01b0385169063bc197c81906115cf9089908990889088908890600401611c3e565b602060405180830381600087803b1580156115e957600080fd5b505af1925050508015611619575060408051601f3d908101601f1916820190925261161691810190611b21565b60015b6116255761151761244c565b6001600160e01b0319811663bc197c8160e01b146113855760405162461bcd60e51b815260040161028090611dc6565b600061122b828461232a565b6060611670848460008561167e565b949350505050565b3b151590565b6060824710156116a05760405162461bcd60e51b815260040161028090611f34565b6116a985611678565b6116c55760405162461bcd60e51b81526004016102809061209e565b600080866001600160a01b031685876040516116e19190611bf4565b60006040518083038185875af1925050503d806000811461171e576040519150601f19603f3d011682016040523d82523d6000602084013e611723565b606091505b509150915061173382828661173e565b979650505050505050565b6060831561174d57508161122b565b82511561175d5782518084602001fd5b8160405162461bcd60e51b81526004016102809190611d5f565b600082601f830112611787578081fd5b8135602061179c61179783612307565b6122de565b82815281810190858301838502870184018810156117b8578586fd5b855b858110156117d6578135845292840192908401906001016117ba565b5090979650505050505050565b600082601f8301126117f3578081fd5b81356001600160401b0381111561180c5761180c612430565b61181f601f8201601f19166020016122de565b818152846020838601011115611833578283fd5b816020850160208301379081016020019190915292915050565b6000806040838503121561185f578182fd5b823561186a816124f0565b9150602083013561187a816124f0565b809150509250929050565b600080600080600060a0868803121561189c578081fd5b85356118a7816124f0565b945060208601356118b7816124f0565b935060408601356001600160401b03808211156118d2578283fd5b6118de89838a01611777565b945060608801359150808211156118f3578283fd5b6118ff89838a01611777565b93506080880135915080821115611914578283fd5b50611921888289016117e3565b9150509295509295909350565b600080600080600060a08688031215611945578081fd5b8535611950816124f0565b94506020860135611960816124f0565b9350604086013592506060860135915060808601356001600160401b03811115611988578182fd5b611921888289016117e3565b600080604083850312156119a6578182fd5b82356119b1816124f0565b9150602083013561187a81612508565b600080604083850312156119d3578182fd5b82356119de816124f0565b946020939093013593505050565b60008060008060808587031215611a01578384fd5b8451611a0c816124f0565b60208601516040870151606090970151919890975090945092505050565b60008060408385031215611a3c578182fd5b82356001600160401b0380821115611a52578384fd5b818501915085601f830112611a65578384fd5b81356020611a7561179783612307565b82815281810190858301838502870184018b1015611a91578889fd5b8896505b84871015611abc578035611aa8816124f0565b835260019690960195918301918301611a95565b5096505086013592505080821115611ad2578283fd5b50611adf85828601611777565b9150509250929050565b600060208284031215611afa578081fd5b815161122b81612508565b600060208284031215611b16578081fd5b813561122b81612516565b600060208284031215611b32578081fd5b815161122b81612516565b600060208284031215611b4e578081fd5b5035919050565b600060208284031215611b66578081fd5b5051919050565b60008060408385031215611b7f578182fd5b50508035926020909101359150565b6000815180845260208085019450808401835b83811015611bbd57815187529582019590820190600101611ba1565b509495945050505050565b60008151808452611be0816020860160208601612398565b601f01601f19169290920160200192915050565b60008251611c06818460208701612398565b9190910192915050565b6001600160a01b0391909116815260200190565b6001600160a01b0392831681529116602082015260400190565b6001600160a01b0386811682528516602082015260a060408201819052600090611c6a90830186611b8e565b8281036060840152611c7c8186611b8e565b90508281036080840152611c908185611bc8565b98975050505050505050565b6001600160a01b039384168152919092166020820152604081019190915260600190565b6001600160a01b03868116825285166020820152604081018490526060810183905260a06080820181905260009061173390830184611bc8565b6001600160a01b03929092168252602082015260400190565b60006020825261122b6020830184611b8e565b600060408252611d396040830185611b8e565b8281036020840152611d4b8185611b8e565b95945050505050565b901515815260200190565b60006020825261122b6020830184611bc8565b60208082526034908201527f455243313135353a207472616e7366657220746f206e6f6e20455243313135356040820152732932b1b2b4bb32b91034b6b83632b6b2b73a32b960611b606082015260800190565b60208082526028908201527f455243313135353a204552433131353552656365697665722072656a656374656040820152676420746f6b656e7360c01b606082015260800190565b6020808252601390820152726261642073757368692070657220736861726560681b604082015260600190565b6020808252602b908201527f455243313135353a2062616c616e636520717565727920666f7220746865207a60408201526a65726f206164647265737360a81b606082015260800190565b60208082526024908201527f455243313135353a206275726e20616d6f756e7420657863656564732062616c604082015263616e636560e01b606082015260800190565b60208082526029908201527f455243313135353a2063616c6c6572206973206e6f74206f776e6572206e6f7260408201526808185c1c1c9bdd995960ba1b606082015260800190565b602080825260079082015266189859081c1a5960ca1b604082015260600190565b60208082526026908201527f416464726573733a20696e73756666696369656e742062616c616e636520666f6040820152651c8818d85b1b60d21b606082015260800190565b60208082526025908201527f455243313135353a207472616e7366657220746f20746865207a65726f206164604082015264647265737360d81b606082015260800190565b60208082526032908201527f455243313135353a207472616e736665722063616c6c6572206973206e6f74206040820152711bdddb995c881b9bdc88185c1c1c9bdd995960721b606082015260800190565b60208082526023908201527f455243313135353a206275726e2066726f6d20746865207a65726f206164647260408201526265737360e81b606082015260800190565b6020808252602a908201527f455243313135353a20696e73756666696369656e742062616c616e636520666f60408201526939103a3930b739b332b960b11b606082015260800190565b6020808252601d908201527f416464726573733a2063616c6c20746f206e6f6e2d636f6e7472616374000000604082015260600190565b60208082526029908201527f455243313135353a2073657474696e6720617070726f76616c20737461747573604082015268103337b91039b2b63360b91b606082015260800190565b6020808252602a908201527f5361666545524332303a204552433230206f7065726174696f6e20646964206e6040820152691bdd081cdd58d8d9595960b21b606082015260800190565b60208082526029908201527f455243313135353a206163636f756e747320616e6420696473206c656e677468604082015268040dad2e6dac2e8c6d60bb1b606082015260800190565b60208082526028908201527f455243313135353a2069647320616e6420616d6f756e7473206c656e677468206040820152670dad2e6dac2e8c6d60c31b606082015260800190565b60208082526021908201527f455243313135353a206d696e7420746f20746865207a65726f206164647265736040820152607360f81b606082015260800190565b6020808252601f908201527f5265656e7472616e637947756172643a207265656e7472616e742063616c6c00604082015260600190565b60208082526036908201527f5361666545524332303a20617070726f76652066726f6d206e6f6e2d7a65726f60408201527520746f206e6f6e2d7a65726f20616c6c6f77616e636560501b606082015260800190565b90815260200190565b918252602082015260400190565b6040518181016001600160401b03811182821017156122ff576122ff612430565b604052919050565b60006001600160401b0382111561232057612320612430565b5060209081020190565b6000821982111561233d5761233d61241a565b500190565b60008261235d57634e487b7160e01b81526012600452602481fd5b500490565b600081600019048311821515161561237c5761237c61241a565b500290565b6000828210156123935761239361241a565b500390565b60005b838110156123b357818101518382015260200161239b565b83811115610d825750506000910152565b6002810460018216806123d857607f821691505b602082108114156123f957634e487b7160e01b600052602260045260246000fd5b50919050565b60006000198214156124135761241361241a565b5060010190565b634e487b7160e01b600052601160045260246000fd5b634e487b7160e01b600052604160045260246000fd5b60e01c90565b600060443d101561245c57610f2f565b600481823e6308c379a06124708251612446565b1461247a57610f2f565b6040513d600319016004823e80513d6001600160401b0381602484011181841117156124a95750505050610f2f565b828401925082519150808211156124c35750505050610f2f565b503d830160208284010111156124db57505050610f2f565b601f01601f1916810160200160405291505090565b6001600160a01b038116811461250557600080fd5b50565b801515811461250557600080fd5b6001600160e01b03198116811461250557600080fdfec3d58168c5ae7397731d063d5bbf3d657854427343f4c083240f7aacaa2d0f62a26469706673582212208a32e6be0e3bfd920c5b44870054e2be77f0f4b3ec7471fc6f0e57e92e8a1d2f64736f6c63430008000033",
  "linkReferences": {},
  "deployedLinkReferences": {}
}