{
  "_format": "hh-sol-artifact-1",
  "contractName": "UniswapV2Oracle",
  "sourceName": "contracts/oracle/UniswapV2Oracle.sol",
  "abi": [
    {
      "inputs": [
        {
          "internalType": "contract IBaseOracle",
          "name": "_base",
          "type": "address"
        }
      ],
      "stateMutability": "nonpayable",
      "type": "constructor"
    },
    {
      "inputs": [],
      "name": "base",
      "outputs": [
        {
          "internalType": "contract IBaseOracle",
          "name": "",
          "type": "address"
        }
      ],
      "stateMutability": "view",
      "type": "function"
    },
    {
      "inputs": [
        {
          "internalType": "address",
          "name": "pair",
          "type": "address"
        }
      ],
      "name": "getETHPx",
      "outputs": [
        {
          "internalType": "uint256",
          "name": "",
          "type": "uint256"
        }
      ],
      "stateMutability": "view",
      "type": "function"
    }
  ],
  "bytecode": "0x60a060405234801561001057600080fd5b5060405161080e38038061080e83398101604081905261002f91610044565b60601b6001600160601b031916608052610072565b600060208284031215610055578081fd5b81516001600160a01b038116811461006b578182fd5b9392505050565b60805160601c61077161009d60003960008181607b015281816102a6015261034601526107716000f3fe608060405234801561001057600080fd5b50600436106100365760003560e01c80635001f3b51461003b578063ab9aadfe14610059575b600080fd5b610043610079565b6040516100509190610699565b60405180910390f35b61006c6100673660046105fb565b61009d565b60405161005091906106ad565b7f000000000000000000000000000000000000000000000000000000000000000081565b600080826001600160a01b0316630dfe16816040518163ffffffff1660e01b815260040160206040518083038186803b1580156100d957600080fd5b505afa1580156100ed573d6000803e3d6000fd5b505050506040513d601f19601f820116820180604052508101906101119190610617565b90506000836001600160a01b031663d21220a76040518163ffffffff1660e01b815260040160206040518083038186803b15801561014e57600080fd5b505afa158015610162573d6000803e3d6000fd5b505050506040513d601f19601f820116820180604052508101906101869190610617565b90506000846001600160a01b03166318160ddd6040518163ffffffff1660e01b815260040160206040518083038186803b1580156101c357600080fd5b505afa1580156101d7573d6000803e3d6000fd5b505050506040513d601f19601f820116820180604052508101906101fb9190610681565b9050600080866001600160a01b0316630902f1ac6040518163ffffffff1660e01b815260040160606040518083038186803b15801561023957600080fd5b505afa15801561024d573d6000803e3d6000fd5b505050506040513d601f19601f820116820180604052508101906102719190610633565b506001600160701b03918216935016905060006102a08461029a6102958686610431565b610444565b906105bd565b905060007f00000000000000000000000000000000000000000000000000000000000000006001600160a01b031663ab9aadfe886040518263ffffffff1660e01b81526004016102f09190610699565b60206040518083038186803b15801561030857600080fd5b505afa15801561031c573d6000803e3d6000fd5b505050506040513d601f19601f820116820180604052508101906103409190610681565b905060007f00000000000000000000000000000000000000000000000000000000000000006001600160a01b031663ab9aadfe886040518263ffffffff1660e01b81526004016103909190610699565b60206040518083038186803b1580156103a857600080fd5b505afa1580156103bc573d6000803e3d6000fd5b505050506040513d601f19601f820116820180604052508101906103e09190610681565b9050610421600160381b61041b6103f684610444565b610415600160381b61041b61040a89610444565b6104158b6002610431565b90610431565b906105d8565b985050505050505050505b919050565b600061043d82846106ee565b9392505050565b6000816104535750600061042c565b816001600160801b821061046c5760809190911c9060401b5b600160401b82106104825760409190911c9060201b5b64010000000082106104995760209190911c9060101b5b6201000082106104ae5760109190911c9060081b5b61010082106104c25760089190911c9060041b5b601082106104d55760049190911c9060021b5b600882106104e15760011b5b60016104ed82866106ce565b6104f790836106b6565b901c9050600161050782866106ce565b61051190836106b6565b901c9050600161052182866106ce565b61052b90836106b6565b901c9050600161053b82866106ce565b61054590836106b6565b901c9050600161055582866106ce565b61055f90836106b6565b901c9050600161056f82866106ce565b61057990836106b6565b901c9050600161058982866106ce565b61059390836106b6565b901c905060006105a382866106ce565b90508082106105b257806105b4565b815b95945050505050565b6000816105ce84600160701b610431565b61043d91906106ce565b600061043d82846106ce565b80516001600160701b038116811461042c57600080fd5b60006020828403121561060c578081fd5b813561043d81610723565b600060208284031215610628578081fd5b815161043d81610723565b600080600060608486031215610647578182fd5b610650846105e4565b925061065e602085016105e4565b9150604084015163ffffffff81168114610676578182fd5b809150509250925092565b600060208284031215610692578081fd5b5051919050565b6001600160a01b0391909116815260200190565b90815260200190565b600082198211156106c9576106c961070d565b500190565b6000826106e957634e487b7160e01b81526012600452602481fd5b500490565b60008160001904831182151516156107085761070861070d565b500290565b634e487b7160e01b600052601160045260246000fd5b6001600160a01b038116811461073857600080fd5b5056fea26469706673582212207218e2808fed46e161e64e8c0d411f9953bb3e2afd6511a7c567591dc3c5c0da64736f6c63430008000033",
  "linkReferences": {},
  "deployedLinkReferences": {}
}