{
  "_format": "hh-sol-artifact-1",
  "contractName": "CoreOracle",
  "sourceName": "contracts/oracle/CoreOracle.sol",
  "abi": [
    {
      "inputs": [],
      "stateMutability": "nonpayable",
      "type": "constructor"
    },
    {
      "anonymous": false,
      "inputs": [
        {
          "indexed": false,
          "internalType": "address",
          "name": "governor",
          "type": "address"
        }
      ],
      "name": "AcceptGovernor",
      "type": "event"
    },
    {
      "anonymous": false,
      "inputs": [
        {
          "indexed": false,
          "internalType": "address",
          "name": "governor",
          "type": "address"
        }
      ],
      "name": "SetGovernor",
      "type": "event"
    },
    {
      "anonymous": false,
      "inputs": [
        {
          "indexed": false,
          "internalType": "address",
          "name": "pendingGovernor",
          "type": "address"
        }
      ],
      "name": "SetPendingGovernor",
      "type": "event"
    },
    {
      "anonymous": false,
      "inputs": [
        {
          "indexed": true,
          "internalType": "address",
          "name": "token",
          "type": "address"
        },
        {
          "indexed": false,
          "internalType": "address",
          "name": "route",
          "type": "address"
        }
      ],
      "name": "SetRoute",
      "type": "event"
    },
    {
      "inputs": [],
      "name": "acceptGovernor",
      "outputs": [],
      "stateMutability": "nonpayable",
      "type": "function"
    },
    {
      "inputs": [
        {
          "internalType": "address",
          "name": "token",
          "type": "address"
        }
      ],
      "name": "getETHPx",
      "outputs": [
        {
          "internalType": "uint256",
          "name": "",
          "type": "uint256"
        }
      ],
      "stateMutability": "view",
      "type": "function"
    },
    {
      "inputs": [],
      "name": "governor",
      "outputs": [
        {
          "internalType": "address",
          "name": "",
          "type": "address"
        }
      ],
      "stateMutability": "view",
      "type": "function"
    },
    {
      "inputs": [],
      "name": "pendingGovernor",
      "outputs": [
        {
          "internalType": "address",
          "name": "",
          "type": "address"
        }
      ],
      "stateMutability": "view",
      "type": "function"
    },
    {
      "inputs": [
        {
          "internalType": "address",
          "name": "",
          "type": "address"
        }
      ],
      "name": "routes",
      "outputs": [
        {
          "internalType": "address",
          "name": "",
          "type": "address"
        }
      ],
      "stateMutability": "view",
      "type": "function"
    },
    {
      "inputs": [
        {
          "internalType": "address",
          "name": "_pendingGovernor",
          "type": "address"
        }
      ],
      "name": "setPendingGovernor",
      "outputs": [],
      "stateMutability": "nonpayable",
      "type": "function"
    },
    {
      "inputs": [
        {
          "internalType": "address[]",
          "name": "tokens",
          "type": "address[]"
        },
        {
          "internalType": "address[]",
          "name": "targets",
          "type": "address[]"
        }
      ],
      "name": "setRoute",
      "outputs": [],
      "stateMutability": "nonpayable",
      "type": "function"
    }
  ],
  "bytecode": "0x608060405234801561001057600080fd5b5061001961001e565b610162565b600054610100900460ff1680610037575060005460ff16155b61005c5760405162461bcd60e51b815260040161005390610114565b60405180910390fd5b600054610100900460ff16158015610087576000805460ff1961ff0019909116610100171660011790555b6000805462010000600160b01b0319163362010000810291909117909155600180546001600160a01b03191690556040517fbce074c8369e26e70e1ae2f14fc944da352cfe6f52e2de9572f0c9942a24b7fc916100e391610100565b60405180910390a180156100fd576000805461ff00191690555b50565b6001600160a01b0391909116815260200190565b6020808252602e908201527f496e697469616c697a61626c653a20636f6e747261637420697320616c72656160408201526d191e481a5b9a5d1a585b1a5e995960921b606082015260800190565b6106f4806101716000396000f3fe608060405234801561001057600080fd5b506004361061006d5760003560e01c80630c340a2414610072578063573f775a14610090578063ab9aadfe146100a5578063d7409659146100c5578063e3056a34146100d8578063e58bb639146100e0578063f235757f146100e8575b600080fd5b61007a6100fb565b60405161008791906105c3565b60405180910390f35b6100a361009e366004610542565b610110565b005b6100b86100b3366004610514565b6102d4565b604051610087919061068e565b61007a6100d3366004610514565b61038b565b61007a6103a6565b6100a36103b5565b6100a36100f6366004610514565b610445565b6000546201000090046001600160a01b031681565b6000546201000090046001600160a01b031633146101495760405162461bcd60e51b815260040161014090610609565b60405180910390fd5b8281146101685760405162461bcd60e51b815260040161014090610633565b60005b838110156102cd5782828281811061019357634e487b7160e01b600052603260045260246000fd5b90506020020160208101906101a89190610514565b604260008787858181106101cc57634e487b7160e01b600052603260045260246000fd5b90506020020160208101906101e19190610514565b6001600160a01b039081168252602082019290925260400160002080546001600160a01b0319169290911691909117905584848281811061023257634e487b7160e01b600052603260045260246000fd5b90506020020160208101906102479190610514565b6001600160a01b03167fa8c96090e146ce1076efa81e5424d56e13d5c3854943f7926406c12d15d6dbe984848481811061029157634e487b7160e01b600052603260045260246000fd5b90506020020160208101906102a69190610514565b6040516102b391906105c3565b60405180910390a2806102c581610697565b91505061016b565b5050505050565b6001600160a01b038082166000908152604260205260408082205490516355cd56ff60e11b81529192839291169063ab9aadfe906103169086906004016105c3565b60206040518083038186803b15801561032e57600080fd5b505afa158015610342573d6000803e3d6000fd5b505050506040513d601f19601f8201168201806040525081019061036691906105ab565b9050806103855760405162461bcd60e51b815260040161014090610660565b92915050565b6042602052600090815260409020546001600160a01b031681565b6001546001600160a01b031681565b6001546001600160a01b031633146103df5760405162461bcd60e51b8152600401610140906105d7565b600180546001600160a01b03191690556000805462010000600160b01b03191633620100008102919091179091556040517fd345d81ce68c70b119a17eee79dc1421700bd9cb21ca148a62dc90983964e82f9161043b916105c3565b60405180910390a1565b6000546201000090046001600160a01b031633146104755760405162461bcd60e51b815260040161014090610609565b600180546001600160a01b0319166001600160a01b0383161790556040517f964dea888b00b2ab53f13dfe7ca334b46e99338c222ae232d98547a1da019f60906104c09083906105c3565b60405180910390a150565b60008083601f8401126104dc578182fd5b50813567ffffffffffffffff8111156104f3578182fd5b602083019150836020808302850101111561050d57600080fd5b9250929050565b600060208284031215610525578081fd5b81356001600160a01b038116811461053b578182fd5b9392505050565b60008060008060408587031215610557578283fd5b843567ffffffffffffffff8082111561056e578485fd5b61057a888389016104cb565b90965094506020870135915080821115610592578384fd5b5061059f878288016104cb565b95989497509550505050565b6000602082840312156105bc578081fd5b5051919050565b6001600160a01b0391909116815260200190565b6020808252601890820152773737ba103a3432903832b73234b7339033b7bb32b93737b960411b604082015260600190565b60208082526010908201526f3737ba103a34329033b7bb32b93737b960811b604082015260600190565b6020808252601390820152720d2dcc6dedce6d2e6e8cadce840d8cadccee8d606b1b604082015260600190565b6020808252601490820152737072696365206f7261636c65206661696c75726560601b604082015260600190565b90815260200190565b60006000198214156106b757634e487b7160e01b81526011600452602481fd5b506001019056fea2646970667358221220ec7a3f9e025c423dd61216b1acceca863bda6e69164002a2ce9085a9bcd84b3d64736f6c63430008000033",
  "linkReferences": {},
  "deployedLinkReferences": {}
}