{
  "_format": "hh-sol-artifact-1",
  "contractName": "UniswapV2SpellV1",
  "sourceName": "contracts/spell/UniswapV2SpellV1.sol",
  "abi": [
    {
      "inputs": [
        {
          "internalType": "contract IBank",
          "name": "_bank",
          "type": "address"
        },
        {
          "internalType": "address",
          "name": "_werc20",
          "type": "address"
        },
        {
          "internalType": "contract IUniswapV2Router02",
          "name": "_router",
          "type": "address"
        }
      ],
      "stateMutability": "nonpayable",
      "type": "constructor"
    },
    {
      "anonymous": false,
      "inputs": [
        {
          "indexed": false,
          "internalType": "address",
          "name": "governor",
          "type": "address"
        }
      ],
      "name": "AcceptGovernor",
      "type": "event"
    },
    {
      "anonymous": false,
      "inputs": [
        {
          "indexed": false,
          "internalType": "address",
          "name": "governor",
          "type": "address"
        }
      ],
      "name": "SetGovernor",
      "type": "event"
    },
    {
      "anonymous": false,
      "inputs": [
        {
          "indexed": false,
          "internalType": "address",
          "name": "pendingGovernor",
          "type": "address"
        }
      ],
      "name": "SetPendingGovernor",
      "type": "event"
    },
    {
      "inputs": [],
      "name": "acceptGovernor",
      "outputs": [],
      "stateMutability": "nonpayable",
      "type": "function"
    },
    {
      "inputs": [
        {
          "internalType": "address",
          "name": "tokenA",
          "type": "address"
        },
        {
          "internalType": "address",
          "name": "tokenB",
          "type": "address"
        },
        {
          "components": [
            {
              "internalType": "uint256",
              "name": "amtAUser",
              "type": "uint256"
            },
            {
              "internalType": "uint256",
              "name": "amtBUser",
              "type": "uint256"
            },
            {
              "internalType": "uint256",
              "name": "amtLPUser",
              "type": "uint256"
            },
            {
              "internalType": "uint256",
              "name": "amtABorrow",
              "type": "uint256"
            },
            {
              "internalType": "uint256",
              "name": "amtBBorrow",
              "type": "uint256"
            },
            {
              "internalType": "uint256",
              "name": "amtLPBorrow",
              "type": "uint256"
            },
            {
              "internalType": "uint256",
              "name": "amtAMin",
              "type": "uint256"
            },
            {
              "internalType": "uint256",
              "name": "amtBMin",
              "type": "uint256"
            }
          ],
          "internalType": "struct UniswapV2SpellV1.Amounts",
          "name": "amt",
          "type": "tuple"
        }
      ],
      "name": "addLiquidityWERC20",
      "outputs": [],
      "stateMutability": "payable",
      "type": "function"
    },
    {
      "inputs": [
        {
          "internalType": "address",
          "name": "tokenA",
          "type": "address"
        },
        {
          "internalType": "address",
          "name": "tokenB",
          "type": "address"
        },
        {
          "components": [
            {
              "internalType": "uint256",
              "name": "amtAUser",
              "type": "uint256"
            },
            {
              "internalType": "uint256",
              "name": "amtBUser",
              "type": "uint256"
            },
            {
              "internalType": "uint256",
              "name": "amtLPUser",
              "type": "uint256"
            },
            {
              "internalType": "uint256",
              "name": "amtABorrow",
              "type": "uint256"
            },
            {
              "internalType": "uint256",
              "name": "amtBBorrow",
              "type": "uint256"
            },
            {
              "internalType": "uint256",
              "name": "amtLPBorrow",
              "type": "uint256"
            },
            {
              "internalType": "uint256",
              "name": "amtAMin",
              "type": "uint256"
            },
            {
              "internalType": "uint256",
              "name": "amtBMin",
              "type": "uint256"
            }
          ],
          "internalType": "struct UniswapV2SpellV1.Amounts",
          "name": "amt",
          "type": "tuple"
        },
        {
          "internalType": "address",
          "name": "wstaking",
          "type": "address"
        }
      ],
      "name": "addLiquidityWStakingRewards",
      "outputs": [],
      "stateMutability": "payable",
      "type": "function"
    },
    {
      "inputs": [
        {
          "internalType": "address",
          "name": "",
          "type": "address"
        },
        {
          "internalType": "address",
          "name": "",
          "type": "address"
        }
      ],
      "name": "approved",
      "outputs": [
        {
          "internalType": "bool",
          "name": "",
          "type": "bool"
        }
      ],
      "stateMutability": "view",
      "type": "function"
    },
    {
      "inputs": [],
      "name": "bank",
      "outputs": [
        {
          "internalType": "contract IBank",
          "name": "",
          "type": "address"
        }
      ],
      "stateMutability": "view",
      "type": "function"
    },
    {
      "inputs": [
        {
          "internalType": "address",
          "name": "token",
          "type": "address"
        },
        {
          "internalType": "uint256",
          "name": "amount",
          "type": "uint256"
        }
      ],
      "name": "doPutCollateral",
      "outputs": [],
      "stateMutability": "nonpayable",
      "type": "function"
    },
    {
      "inputs": [],
      "name": "factory",
      "outputs": [
        {
          "internalType": "contract IUniswapV2Factory",
          "name": "",
          "type": "address"
        }
      ],
      "stateMutability": "view",
      "type": "function"
    },
    {
      "inputs": [
        {
          "internalType": "address",
          "name": "tokenA",
          "type": "address"
        },
        {
          "internalType": "address",
          "name": "tokenB",
          "type": "address"
        }
      ],
      "name": "getAndApprovePair",
      "outputs": [
        {
          "internalType": "address",
          "name": "",
          "type": "address"
        }
      ],
      "stateMutability": "nonpayable",
      "type": "function"
    },
    {
      "inputs": [],
      "name": "governor",
      "outputs": [
        {
          "internalType": "address",
          "name": "",
          "type": "address"
        }
      ],
      "stateMutability": "view",
      "type": "function"
    },
    {
      "inputs": [
        {
          "internalType": "address",
          "name": "wstaking",
          "type": "address"
        }
      ],
      "name": "harvestWStakingRewards",
      "outputs": [],
      "stateMutability": "nonpayable",
      "type": "function"
    },
    {
      "inputs": [
        {
          "internalType": "address",
          "name": "",
          "type": "address"
        },
        {
          "internalType": "address",
          "name": "",
          "type": "address"
        },
        {
          "internalType": "uint256[]",
          "name": "",
          "type": "uint256[]"
        },
        {
          "internalType": "uint256[]",
          "name": "",
          "type": "uint256[]"
        },
        {
          "internalType": "bytes",
          "name": "",
          "type": "bytes"
        }
      ],
      "name": "onERC1155BatchReceived",
      "outputs": [
        {
          "internalType": "bytes4",
          "name": "",
          "type": "bytes4"
        }
      ],
      "stateMutability": "nonpayable",
      "type": "function"
    },
    {
      "inputs": [
        {
          "internalType": "address",
          "name": "",
          "type": "address"
        },
        {
          "internalType": "address",
          "name": "",
          "type": "address"
        },
        {
          "internalType": "uint256",
          "name": "",
          "type": "uint256"
        },
        {
          "internalType": "uint256",
          "name": "",
          "type": "uint256"
        },
        {
          "internalType": "bytes",
          "name": "",
          "type": "bytes"
        }
      ],
      "name": "onERC1155Received",
      "outputs": [
        {
          "internalType": "bytes4",
          "name": "",
          "type": "bytes4"
        }
      ],
      "stateMutability": "nonpayable",
      "type": "function"
    },
    {
      "inputs": [
        {
          "internalType": "address",
          "name": "",
          "type": "address"
        },
        {
          "internalType": "address",
          "name": "",
          "type": "address"
        }
      ],
      "name": "pairs",
      "outputs": [
        {
          "internalType": "address",
          "name": "",
          "type": "address"
        }
      ],
      "stateMutability": "view",
      "type": "function"
    },
    {
      "inputs": [],
      "name": "pendingGovernor",
      "outputs": [
        {
          "internalType": "address",
          "name": "",
          "type": "address"
        }
      ],
      "stateMutability": "view",
      "type": "function"
    },
    {
      "inputs": [
        {
          "internalType": "address",
          "name": "tokenA",
          "type": "address"
        },
        {
          "internalType": "address",
          "name": "tokenB",
          "type": "address"
        },
        {
          "components": [
            {
              "internalType": "uint256",
              "name": "amtLPTake",
              "type": "uint256"
            },
            {
              "internalType": "uint256",
              "name": "amtLPWithdraw",
              "type": "uint256"
            },
            {
              "internalType": "uint256",
              "name": "amtARepay",
              "type": "uint256"
            },
            {
              "internalType": "uint256",
              "name": "amtBRepay",
              "type": "uint256"
            },
            {
              "internalType": "uint256",
              "name": "amtLPRepay",
              "type": "uint256"
            },
            {
              "internalType": "uint256",
              "name": "amtAMin",
              "type": "uint256"
            },
            {
              "internalType": "uint256",
              "name": "amtBMin",
              "type": "uint256"
            }
          ],
          "internalType": "struct UniswapV2SpellV1.RepayAmounts",
          "name": "amt",
          "type": "tuple"
        }
      ],
      "name": "removeLiquidityWERC20",
      "outputs": [],
      "stateMutability": "nonpayable",
      "type": "function"
    },
    {
      "inputs": [
        {
          "internalType": "address",
          "name": "tokenA",
          "type": "address"
        },
        {
          "internalType": "address",
          "name": "tokenB",
          "type": "address"
        },
        {
          "components": [
            {
              "internalType": "uint256",
              "name": "amtLPTake",
              "type": "uint256"
            },
            {
              "internalType": "uint256",
              "name": "amtLPWithdraw",
              "type": "uint256"
            },
            {
              "internalType": "uint256",
              "name": "amtARepay",
              "type": "uint256"
            },
            {
              "internalType": "uint256",
              "name": "amtBRepay",
              "type": "uint256"
            },
            {
              "internalType": "uint256",
              "name": "amtLPRepay",
              "type": "uint256"
            },
            {
              "internalType": "uint256",
              "name": "amtAMin",
              "type": "uint256"
            },
            {
              "internalType": "uint256",
              "name": "amtBMin",
              "type": "uint256"
            }
          ],
          "internalType": "struct UniswapV2SpellV1.RepayAmounts",
          "name": "amt",
          "type": "tuple"
        },
        {
          "internalType": "address",
          "name": "wstaking",
          "type": "address"
        }
      ],
      "name": "removeLiquidityWStakingRewards",
      "outputs": [],
      "stateMutability": "nonpayable",
      "type": "function"
    },
    {
      "inputs": [],
      "name": "router",
      "outputs": [
        {
          "internalType": "contract IUniswapV2Router02",
          "name": "",
          "type": "address"
        }
      ],
      "stateMutability": "view",
      "type": "function"
    },
    {
      "inputs": [
        {
          "internalType": "address",
          "name": "_pendingGovernor",
          "type": "address"
        }
      ],
      "name": "setPendingGovernor",
      "outputs": [],
      "stateMutability": "nonpayable",
      "type": "function"
    },
    {
      "inputs": [
        {
          "internalType": "address[]",
          "name": "lpTokens",
          "type": "address[]"
        },
        {
          "internalType": "bool[]",
          "name": "statuses",
          "type": "bool[]"
        }
      ],
      "name": "setWhitelistLPTokens",
      "outputs": [],
      "stateMutability": "nonpayable",
      "type": "function"
    },
    {
      "inputs": [
        {
          "internalType": "bytes4",
          "name": "interfaceId",
          "type": "bytes4"
        }
      ],
      "name": "supportsInterface",
      "outputs": [
        {
          "internalType": "bool",
          "name": "",
          "type": "bool"
        }
      ],
      "stateMutability": "view",
      "type": "function"
    },
    {
      "inputs": [],
      "name": "werc20",
      "outputs": [
        {
          "internalType": "contract IWERC20",
          "name": "",
          "type": "address"
        }
      ],
      "stateMutability": "view",
      "type": "function"
    },
    {
      "inputs": [],
      "name": "weth",
      "outputs": [
        {
          "internalType": "address",
          "name": "",
          "type": "address"
        }
      ],
      "stateMutability": "view",
      "type": "function"
    },
    {
      "inputs": [
        {
          "internalType": "address",
          "name": "",
          "type": "address"
        }
      ],
      "name": "whitelistedLpTokens",
      "outputs": [
        {
          "internalType": "bool",
          "name": "",
          "type": "bool"
        }
      ],
      "stateMutability": "view",
      "type": "function"
    },
    {
      "stateMutability": "payable",
      "type": "receive"
    }
  ],
  "bytecode": "0x6101206040523480156200001257600080fd5b5060405162004ec738038062004ec7833981016040819052620000359162000690565b8282826001600160a01b031663ad5c46486040518163ffffffff1660e01b815260040160206040518083038186803b1580156200007157600080fd5b505afa15801562000086573d6000803e3d6000fd5b505050506040513d601f19601f82011682018060405250810190620000ac91906200064f565b6001600160601b0319606084811b821660805283811b821660a05282901b1660c052828282620000dd818462000205565b60405163a22cb46560e01b81526001600160a01b0383169063a22cb465906200010e90869060019060040162000748565b600060405180830381600087803b1580156200012957600080fd5b505af11580156200013e573d6000803e3d6000fd5b50505050505050620001556200028d60201b60201c565b505050806001600160a01b0316610100816001600160a01b031660601b81525050806001600160a01b031663c45a01556040518163ffffffff1660e01b815260040160206040518083038186803b158015620001b057600080fd5b505afa158015620001c5573d6000803e3d6000fd5b505050506040513d601f19601f82011682018060405250810190620001eb91906200064f565b60601b6001600160601b03191660e052506200096c915050565b6001600160a01b03808316600090815260406020818152818320938516835292909252205460ff1662000289576200025981600019846001600160a01b03166200037760201b62001acc179092919060201c565b6001600160a01b0380831660009081526040602081815281832093851683529290925220805460ff191660011790555b5050565b604154610100900460ff1680620002a7575060415460ff16155b620002cf5760405162461bcd60e51b8152600401620002c690620007f7565b60405180910390fd5b604154610100900460ff16158015620002fb576041805460ff1961ff0019909116610100171660011790555b6041805462010000600160b01b0319163362010000810291909117909155604280546001600160a01b03191690556040517fbce074c8369e26e70e1ae2f14fc944da352cfe6f52e2de9572f0c9942a24b7fc9162000359916200071a565b60405180910390a1801562000374576041805461ff00191690555b50565b801580620004065750604051636eb1769f60e11b81526001600160a01b0384169063dd62ed3e90620003b090309086906004016200072e565b60206040518083038186803b158015620003c957600080fd5b505afa158015620003de573d6000803e3d6000fd5b505050506040513d601f19601f82011682018060405250810190620004049190620006e3565b155b620004255760405162461bcd60e51b8152600401620002c690620008c6565b620004808363095ea7b360e01b84846040516024016200044792919062000763565b60408051808303601f190181529190526020810180516001600160e01b0319939093166001600160e01b03938416179052906200048516565b505050565b6000620004e1826040518060400160405280602081526020017f5361666545524332303a206c6f772d6c6576656c2063616c6c206661696c6564815250856001600160a01b03166200052160201b62001bcb179092919060201c565b8051909150156200048057808060200190518101906200050291906200066e565b620004805760405162461bcd60e51b8152600401620002c6906200087c565b60606200053284846000856200053c565b90505b9392505050565b606082471015620005615760405162461bcd60e51b8152600401620002c690620007b1565b6200056c856200060b565b6200058b5760405162461bcd60e51b8152600401620002c69062000845565b600080866001600160a01b03168587604051620005a99190620006fc565b60006040518083038185875af1925050503d8060008114620005e8576040519150601f19603f3d011682016040523d82523d6000602084013e620005ed565b606091505b5090925090506200060082828662000611565b979650505050505050565b3b151590565b606083156200062257508162000535565b825115620006335782518084602001fd5b8160405162461bcd60e51b8152600401620002c691906200077c565b60006020828403121562000661578081fd5b8151620005358162000956565b60006020828403121562000680578081fd5b8151801515811462000535578182fd5b600080600060608486031215620006a5578182fd5b8351620006b28162000956565b6020850151909350620006c58162000956565b6040850151909250620006d88162000956565b809150509250925092565b600060208284031215620006f5578081fd5b5051919050565b600082516200071081846020870162000923565b9190910192915050565b6001600160a01b0391909116815260200190565b6001600160a01b0392831681529116602082015260400190565b6001600160a01b039290921682521515602082015260400190565b6001600160a01b03929092168252602082015260400190565b60006020825282518060208401526200079d81604085016020870162000923565b601f01601f19169190910160400192915050565b60208082526026908201527f416464726573733a20696e73756666696369656e742062616c616e636520666f6040820152651c8818d85b1b60d21b606082015260800190565b6020808252602e908201527f496e697469616c697a61626c653a20636f6e747261637420697320616c72656160408201526d191e481a5b9a5d1a585b1a5e995960921b606082015260800190565b6020808252601d908201527f416464726573733a2063616c6c20746f206e6f6e2d636f6e7472616374000000604082015260600190565b6020808252602a908201527f5361666545524332303a204552433230206f7065726174696f6e20646964206e6040820152691bdd081cdd58d8d9595960b21b606082015260800190565b60208082526036908201527f5361666545524332303a20617070726f76652066726f6d206e6f6e2d7a65726f60408201527f20746f206e6f6e2d7a65726f20616c6c6f77616e636500000000000000000000606082015260800190565b60005b838110156200094057818101518382015260200162000926565b8381111562000950576000848401525b50505050565b6001600160a01b03811681146200037457600080fd5b60805160601c60a05160601c60c05160601c60e05160601c6101005160601c6143e162000ae6600039600081816107000152818161072a0152818161075401528181611aaa015281816121250152818161227f015281816123d501528181612c0e0152612dd201526000818161064b0152611055015260008181610154015281816107d501528181612e8901528181612f2f01526132c40152600081816104b8015281816104f3015281816105a101528181610cb301528181611ce70152611d5b0152600081816105710152818161087301528181610a0901528181610c1f01528181610cfd01528181610d3201528181610f32015281816111c30152818161135401528181611575015281816116150152818161168a0152818161185a01528181611c0d01528181611cb901528181611dd001528181611e9101528181611f3e01528181611feb0152818161278201528181612f9a0152818161322b015281816132660152818161335001526133a401526143e16000f3fe6080604052600436106101445760003560e01c8063b2cfde44116100b6578063e58bb6391161006f578063e58bb63914610395578063ee42c6f4146103aa578063f235757f146103ca578063f23a6e61146103ea578063f4b160451461040a578063f887ea401461042a5761019c565b8063b2cfde44146102f8578063bc197c8114610318578063c45a015514610345578063cc9b18801461035a578063d57cdec51461036d578063e3056a34146103805761019c565b80633fc8cef3116101085780633fc8cef31461025957806345174f181461026e5780634bab09f61461028e5780635741229c146102ae57806369454b86146102c357806376cdb03b146102e35761019c565b806301ffc9a7146101a15780630c340a24146101d75780631387d96d146101f95780631a37e2fc146102195780632185059f146102395761019c565b3661019c57336001600160a01b037f0000000000000000000000000000000000000000000000000000000000000000161461019a5760405162461bcd60e51b8152600401610191906140e5565b60405180910390fd5b005b600080fd5b3480156101ad57600080fd5b506101c16101bc366004613c63565b61043f565b6040516101ce9190613eac565b60405180910390f35b3480156101e357600080fd5b506101ec61046c565b6040516101ce9190613da0565b34801561020557600080fd5b5061019a61021436600461398c565b610481565b34801561022557600080fd5b5061019a610234366004613add565b6104ac565b34801561024557600080fd5b506101ec6102543660046137f5565b610605565b34801561026557600080fd5b506101ec6107d3565b34801561027a57600080fd5b5061019a6102893660046137bd565b6107f7565b34801561029a57600080fd5b506101c16102a93660046137bd565b610c9c565b3480156102ba57600080fd5b506101ec610cb1565b3480156102cf57600080fd5b506101ec6102de3660046137f5565b610cd5565b3480156102ef57600080fd5b506101ec610cfb565b34801561030457600080fd5b5061019a6103133660046139cb565b610d1f565b34801561032457600080fd5b5061033861033336600461382d565b61103f565b6040516101ce9190613eb7565b34801561035157600080fd5b506101ec611053565b61019a6103683660046138e8565b611077565b61019a61037b366004613930565b61112b565b34801561038c57600080fd5b506101ec611725565b3480156103a157600080fd5b5061019a611734565b3480156103b657600080fd5b5061019a6103c5366004613b08565b6117c4565b3480156103d657600080fd5b5061019a6103e53660046137bd565b6119f3565b3480156103f657600080fd5b50610338610405366004613a63565b611a79565b34801561041657600080fd5b506101c16104253660046137f5565b611a8b565b34801561043657600080fd5b506101ec611aa8565b60006001600160e01b03198216630271189760e51b1480610464575061046482611be2565b90505b919050565b6041546201000090046001600160a01b031681565b600061048d8484610605565b905061049a818335611bfb565b6104a684848484611d94565b50505050565b8015610601576104dc827f0000000000000000000000000000000000000000000000000000000000000000612681565b6040516340c10f1960e01b81526001600160a01b037f000000000000000000000000000000000000000000000000000000000000000016906340c10f199061052a9085908590600401613e72565b600060405180830381600087803b15801561054457600080fd5b505af1158015610558573d6000803e3d6000fd5b505060405163314568d960e01b81526001600160a01b037f00000000000000000000000000000000000000000000000000000000000000008116935063314568d992506105ce917f0000000000000000000000000000000000000000000000000000000000000000918716908690600401613e8b565b600060405180830381600087803b1580156105e857600080fd5b505af11580156105fc573d6000803e3d6000fd5b505050505b5050565b6001600160a01b0380831660009081526084602090815260408083208585168452909152812054909116806107cc5760405163e6a4390560e01b81526001600160a01b037f0000000000000000000000000000000000000000000000000000000000000000169063e6a43905906106829087908790600401613db4565b60206040518083038186803b15801561069a57600080fd5b505afa1580156106ae573d6000803e3d6000fd5b505050506040513d601f19601f820116820180604052508101906106d291906137d9565b90506001600160a01b0381166106fa5760405162461bcd60e51b81526004016101919061408e565b610724847f0000000000000000000000000000000000000000000000000000000000000000612681565b61074e837f0000000000000000000000000000000000000000000000000000000000000000612681565b610778817f0000000000000000000000000000000000000000000000000000000000000000612681565b6001600160a01b0380851660008181526084602081815260408084208987168552825280842080549688166001600160a01b0319978816811790915592825280842094845293905291902080549092161790555b9392505050565b7f000000000000000000000000000000000000000000000000000000000000000081565b6000816001600160a01b031663228cb7336040518163ffffffff1660e01b8152600401602060405180830381600087803b15801561083457600080fd5b505af1158015610848573d6000803e3d6000fd5b505050506040513d601f19601f8201168201806040525081019061086c91906137d9565b90506000807f00000000000000000000000000000000000000000000000000000000000000006001600160a01b031663f70aedd96040518163ffffffff1660e01b815260040160806040518083038186803b1580156108ca57600080fd5b505afa1580156108de573d6000803e3d6000fd5b505050506040513d601f19601f820116820180604052508101906109029190613a1c565b5092509250506000846001600160a01b031663a4775772836040518263ffffffff1660e01b8152600401610936919061423d565b60206040518083038186803b15801561094e57600080fd5b505afa158015610962573d6000803e3d6000fd5b505050506040513d601f19601f8201168201806040525081019061098691906137d9565b6001600160a01b03811660009081526083602052604090205490915060ff166109c15760405162461bcd60e51b8152600401610191906140b3565b846001600160a01b0316836001600160a01b0316146109f25760405162461bcd60e51b815260040161019190613f2a565b604051630d1d697560e31b81526001600160a01b037f000000000000000000000000000000000000000000000000000000000000000016906368eb4ba890610a44908890869060001990600401613e8b565b600060405180830381600087803b158015610a5e57600080fd5b505af1158015610a72573d6000803e3d6000fd5b505060405163b390c0ab60e01b81526001600160a01b038816925063b390c0ab9150610aa690859060001990600401614299565b602060405180830381600087803b158015610ac057600080fd5b505af1158015610ad4573d6000803e3d6000fd5b505050506040513d601f19601f82011682018060405250810190610af89190613cd9565b506040516370a0823160e01b81526000906001600160a01b038316906370a0823190610b28903090600401613da0565b60206040518083038186803b158015610b4057600080fd5b505afa158015610b54573d6000803e3d6000fd5b505050506040513d601f19601f82011682018060405250810190610b789190613cd9565b9050610b848287612681565b60405163140e25ad60e31b81526000906001600160a01b0388169063a0712d6890610bb390859060040161423d565b602060405180830381600087803b158015610bcd57600080fd5b505af1158015610be1573d6000803e3d6000fd5b505050506040513d601f19601f82011682018060405250810190610c059190613cd9565b60405163314568d960e01b81529091506001600160a01b037f0000000000000000000000000000000000000000000000000000000000000000169063314568d990610c58908a9085908790600401613e8b565b600060405180830381600087803b158015610c7257600080fd5b505af1158015610c86573d6000803e3d6000fd5b50505050610c93866126f6565b50505050505050565b60836020526000908152604090205460ff1681565b7f000000000000000000000000000000000000000000000000000000000000000081565b60846020908152600092835260408084209091529082529020546001600160a01b031681565b7f000000000000000000000000000000000000000000000000000000000000000081565b6000610d2b8585610605565b90506000807f00000000000000000000000000000000000000000000000000000000000000006001600160a01b031663f70aedd96040518163ffffffff1660e01b815260040160806040518083038186803b158015610d8957600080fd5b505afa158015610d9d573d6000803e3d6000fd5b505050506040513d601f19601f82011682018060405250810190610dc19190613a1c565b5092509250506000846001600160a01b031663228cb7336040518163ffffffff1660e01b8152600401602060405180830381600087803b158015610e0457600080fd5b505af1158015610e18573d6000803e3d6000fd5b505050506040513d601f19601f82011682018060405250810190610e3c91906137d9565b9050836001600160a01b0316836001600160a01b031663a4775772846040518263ffffffff1660e01b8152600401610e74919061423d565b60206040518083038186803b158015610e8c57600080fd5b505afa158015610ea0573d6000803e3d6000fd5b505050506040513d601f19601f82011682018060405250810190610ec491906137d9565b6001600160a01b031614610eea5760405162461bcd60e51b81526004016101919061416f565b846001600160a01b0316836001600160a01b031614610f1b5760405162461bcd60e51b815260040161019190613f2a565b604051630d1d697560e31b81526001600160a01b037f000000000000000000000000000000000000000000000000000000000000000016906368eb4ba890610f6c90889086908b3590600401613e8b565b600060405180830381600087803b158015610f8657600080fd5b505af1158015610f9a573d6000803e3d6000fd5b505060405163b390c0ab60e01b81526001600160a01b038816925063b390c0ab9150610fcd9085908a3590600401614299565b602060405180830381600087803b158015610fe757600080fd5b505af1158015610ffb573d6000803e3d6000fd5b505050506040513d601f19601f8201168201806040525081019061101f9190613cd9565b5061102c88888887611d94565b611035816126f6565b5050505050505050565b63bc197c8160e01b98975050505050505050565b7f000000000000000000000000000000000000000000000000000000000000000081565b60006110838484610605565b905061109184848484612822565b61111181826001600160a01b03166370a08231306040518263ffffffff1660e01b81526004016110c19190613da0565b60206040518083038186803b1580156110d957600080fd5b505afa1580156110ed573d6000803e3d6000fd5b505050506040513d601f19601f820116820180604052508101906102349190613cd9565b611119612e6f565b611122846126f6565b6104a6836126f6565b60006111378585610605565b90506000826001600160a01b031663228cb7336040518163ffffffff1660e01b8152600401602060405180830381600087803b15801561117657600080fd5b505af115801561118a573d6000803e3d6000fd5b505050506040513d601f19601f820116820180604052508101906111ae91906137d9565b90506111bc86868685612822565b60008060007f00000000000000000000000000000000000000000000000000000000000000006001600160a01b031663f70aedd96040518163ffffffff1660e01b815260040160806040518083038186803b15801561121a57600080fd5b505afa15801561122e573d6000803e3d6000fd5b505050506040513d601f19601f820116820180604052508101906112529190613a1c565b9195509350915050801561144157846001600160a01b0316836001600160a01b031663a4775772846040518263ffffffff1660e01b8152600401611296919061423d565b60206040518083038186803b1580156112ae57600080fd5b505afa1580156112c2573d6000803e3d6000fd5b505050506040513d601f19601f820116820180604052508101906112e691906137d9565b6001600160a01b03161461130c5760405162461bcd60e51b81526004016101919061416f565b856001600160a01b0316836001600160a01b03161461133d5760405162461bcd60e51b815260040161019190613f2a565b604051630d1d697560e31b81526001600160a01b037f000000000000000000000000000000000000000000000000000000000000000016906368eb4ba89061138d90899086908690600401613e8b565b600060405180830381600087803b1580156113a757600080fd5b505af11580156113bb573d6000803e3d6000fd5b505060405163b390c0ab60e01b81526001600160a01b038916925063b390c0ab91506113ed9085908590600401614299565b602060405180830381600087803b15801561140757600080fd5b505af115801561141b573d6000803e3d6000fd5b505050506040513d601f19601f8201168201806040525081019061143f9190613cd9565b505b61144b8587612681565b6040516370a0823160e01b81526000906001600160a01b038716906370a082319061147a903090600401613da0565b60206040518083038186803b15801561149257600080fd5b505afa1580156114a6573d6000803e3d6000fd5b505050506040513d601f19601f820116820180604052508101906114ca9190613cd9565b90506000876001600160a01b031663a0712d68836040518263ffffffff1660e01b81526004016114fa919061423d565b602060405180830381600087803b15801561151457600080fd5b505af1158015611528573d6000803e3d6000fd5b505050506040513d601f19601f8201168201806040525081019061154c9190613cd9565b60405163e985e9c560e01b81529091506001600160a01b0389169063e985e9c59061159d9030907f000000000000000000000000000000000000000000000000000000000000000090600401613db4565b60206040518083038186803b1580156115b557600080fd5b505afa1580156115c9573d6000803e3d6000fd5b505050506040513d601f19601f820116820180604052508101906115ed9190613c47565b6116735760405163a22cb46560e01b81526001600160a01b0389169063a22cb46590611640907f000000000000000000000000000000000000000000000000000000000000000090600190600401613e57565b600060405180830381600087803b15801561165a57600080fd5b505af115801561166e573d6000803e3d6000fd5b505050505b60405163314568d960e01b81526001600160a01b037f0000000000000000000000000000000000000000000000000000000000000000169063314568d9906116c3908b9085908790600401613e8b565b600060405180830381600087803b1580156116dd57600080fd5b505af11580156116f1573d6000803e3d6000fd5b505050506116fd612e6f565b6117068b6126f6565b61170f8a6126f6565b611718866126f6565b5050505050505050505050565b6042546001600160a01b031681565b6042546001600160a01b0316331461175e5760405162461bcd60e51b815260040161019190613f70565b604280546001600160a01b03191690556041805462010000600160b01b03191633620100008102919091179091556040517fd345d81ce68c70b119a17eee79dc1421700bd9cb21ca148a62dc90983964e82f916117ba91613da0565b60405180910390a1565b6041546201000090046001600160a01b031633146117f45760405162461bcd60e51b81526004016101919061401f565b8281146118135760405162461bcd60e51b815260040161019190614049565b60005b838110156119ec5782828281811061183e57634e487b7160e01b600052603260045260246000fd5b90506020020160208101906118539190613c2b565b15611944577f00000000000000000000000000000000000000000000000000000000000000006001600160a01b031663e660cc088686848181106118a757634e487b7160e01b600052603260045260246000fd5b90506020020160208101906118bc91906137bd565b6040518263ffffffff1660e01b81526004016118d89190613da0565b60206040518083038186803b1580156118f057600080fd5b505afa158015611904573d6000803e3d6000fd5b505050506040513d601f19601f820116820180604052508101906119289190613c47565b6119445760405162461bcd60e51b815260040161019190613fa2565b82828281811061196457634e487b7160e01b600052603260045260246000fd5b90506020020160208101906119799190613c2b565b6083600087878581811061199d57634e487b7160e01b600052603260045260246000fd5b90506020020160208101906119b291906137bd565b6001600160a01b031681526020810191909152604001600020805460ff1916911515919091179055806119e481614341565b915050611816565b5050505050565b6041546201000090046001600160a01b03163314611a235760405162461bcd60e51b81526004016101919061401f565b604280546001600160a01b0319166001600160a01b0383161790556040517f964dea888b00b2ab53f13dfe7ca334b46e99338c222ae232d98547a1da019f6090611a6e908390613da0565b60405180910390a150565b63f23a6e6160e01b9695505050505050565b604060208181526000938452818420905290825290205460ff1681565b7f000000000000000000000000000000000000000000000000000000000000000081565b801580611b545750604051636eb1769f60e11b81526001600160a01b0384169063dd62ed3e90611b029030908690600401613db4565b60206040518083038186803b158015611b1a57600080fd5b505afa158015611b2e573d6000803e3d6000fd5b505050506040513d601f19601f82011682018060405250810190611b529190613cd9565b155b611b705760405162461bcd60e51b8152600401610191906141e7565b611bc68363095ea7b360e01b8484604051602401611b8f929190613e72565b60408051601f198184030181529190526020810180516001600160e01b03166001600160e01b0319909316929092179091526130b8565b505050565b6060611bda8484600085613147565b949350505050565b6001600160e01b031981166301ffc9a760e01b14919050565b801561060157600019811415611ca2577f00000000000000000000000000000000000000000000000000000000000000006001600160a01b031663f70aedd96040518163ffffffff1660e01b815260040160806040518083038186803b158015611c6457600080fd5b505afa158015611c78573d6000803e3d6000fd5b505050506040513d601f19601f82011682018060405250810190611c9c9190613a1c565b93505050505b604051630d1d697560e31b81526001600160a01b037f00000000000000000000000000000000000000000000000000000000000000008116916368eb4ba891611d14917f0000000000000000000000000000000000000000000000000000000000000000918716908690600401613e8b565b600060405180830381600087803b158015611d2e57600080fd5b505af1158015611d42573d6000803e3d6000fd5b5050604051632770a7eb60e21b81526001600160a01b037f0000000000000000000000000000000000000000000000000000000000000000169250639dc29fac91506105ce9085908590600401613e72565b6001600160a01b03811660009081526083602052604090205460ff16611dcc5760405162461bcd60e51b8152600401610191906140b3565b60007f00000000000000000000000000000000000000000000000000000000000000006001600160a01b031663d7ac71ff6040518163ffffffff1660e01b815260040160206040518083038186803b158015611e2757600080fd5b505afa158015611e3b573d6000803e3d6000fd5b505050506040513d601f19601f82011682018060405250810190611e5f9190613cd9565b9050604083013560608401356080850135600019831415611f1d576040516320a8bee760e21b81526001600160a01b037f000000000000000000000000000000000000000000000000000000000000000016906382a2fb9c90611ec89087908c90600401614246565b602060405180830381600087803b158015611ee257600080fd5b505af1158015611ef6573d6000803e3d6000fd5b505050506040513d601f19601f82011682018060405250810190611f1a9190613cd9565b92505b600019821415611fca576040516320a8bee760e21b81526001600160a01b037f000000000000000000000000000000000000000000000000000000000000000016906382a2fb9c90611f759087908b90600401614246565b602060405180830381600087803b158015611f8f57600080fd5b505af1158015611fa3573d6000803e3d6000fd5b505050506040513d601f19601f82011682018060405250810190611fc79190613cd9565b91505b600019811415612077576040516320a8bee760e21b81526001600160a01b037f000000000000000000000000000000000000000000000000000000000000000016906382a2fb9c906120229087908990600401614246565b602060405180830381600087803b15801561203c57600080fd5b505af1158015612050573d6000803e3d6000fd5b505050506040513d601f19601f820116820180604052508101906120749190613cd9565b90505b60006121038760200135876001600160a01b03166370a08231306040518263ffffffff1660e01b81526004016120ad9190613da0565b60206040518083038186803b1580156120c557600080fd5b505afa1580156120d9573d6000803e3d6000fd5b505050506040513d601f19601f820116820180604052508101906120fd9190613cd9565b90613207565b905060008082156121be57604051635d5155ef60e11b81526001600160a01b037f0000000000000000000000000000000000000000000000000000000000000000169063baa2abde90612167908e908e908890600090819030904290600401613dce565b6040805180830381600087803b15801561218057600080fd5b505af1158015612194573d6000803e3d6000fd5b505050506040513d601f19601f820116820180604052508101906121b89190613cf1565b90925090505b60006121ce8760a08c0135613213565b905060006121e08760c08d0135613213565b905081841080156121f057508083115b15612338576040805160028082526060820183526000926020830190803683370190505090508c8e8260008151811061223957634e487b7160e01b600052603260045260246000fd5b602002602001018360018151811061226157634e487b7160e01b600052603260045260246000fd5b6001600160a01b0393841660209182029290920101529181169091527f000000000000000000000000000000000000000000000000000000000000000016638803dbee6122ae8588613207565b6122b88786613207565b8430426040518663ffffffff1660e01b81526004016122db95949392919061425d565b600060405180830381600087803b1580156122f557600080fd5b505af1158015612309573d6000803e3d6000fd5b505050506040513d6000823e601f3d908101601f191682016040526123319190810190613b71565b505061248a565b818411801561234657508083105b1561248a576040805160028082526060820183526000926020830190803683370190505090508d8d8260008151811061238f57634e487b7160e01b600052603260045260246000fd5b60200260200101836001815181106123b757634e487b7160e01b600052603260045260246000fd5b6001600160a01b0393841660209182029290920101529181169091527f000000000000000000000000000000000000000000000000000000000000000016638803dbee6124048487613207565b61240e8887613207565b8430426040518663ffffffff1660e01b815260040161243195949392919061425d565b600060405180830381600087803b15801561244b57600080fd5b505af115801561245f573d6000803e3d6000fd5b505050506040513d6000823e601f3d908101601f191682016040526124879190810190613b71565b50505b6124948d8961321f565b61249e8c8861321f565b6124a88a8761321f565b6040516370a0823160e01b815260a08c0135906001600160a01b038f16906370a08231906124da903090600401613da0565b60206040518083038186803b1580156124f257600080fd5b505afa158015612506573d6000803e3d6000fd5b505050506040513d601f19601f8201168201806040525081019061252a9190613cd9565b101561253557600080fd5b6040516370a0823160e01b815260c08c0135906001600160a01b038e16906370a0823190612567903090600401613da0565b60206040518083038186803b15801561257f57600080fd5b505afa158015612593573d6000803e3d6000fd5b505050506040513d601f19601f820116820180604052508101906125b79190613cd9565b10156125c257600080fd5b6040516370a0823160e01b815260208c0135906001600160a01b038c16906370a08231906125f4903090600401613da0565b60206040518083038186803b15801561260c57600080fd5b505afa158015612620573d6000803e3d6000fd5b505050506040513d601f19601f820116820180604052508101906126449190613cd9565b101561264f57600080fd5b612657612e6f565b6126608d6126f6565b6126698c6126f6565b6126728a6126f6565b50505050505050505050505050565b6001600160a01b03808316600090815260406020818152818320938516835292909252205460ff16610601576126c36001600160a01b03831682600019611acc565b6001600160a01b0380831660009081526040602081815281832093851683529290925220805460ff191660011790555050565b6040516370a0823160e01b81526000906001600160a01b038316906370a0823190612725903090600401613da0565b60206040518083038186803b15801561273d57600080fd5b505afa158015612751573d6000803e3d6000fd5b505050506040513d601f19601f820116820180604052508101906127759190613cd9565b90508015610601576106017f00000000000000000000000000000000000000000000000000000000000000006001600160a01b031663630dc7cb6040518163ffffffff1660e01b815260040160206040518083038186803b1580156127d957600080fd5b505afa1580156127ed573d6000803e3d6000fd5b505050506040513d601f19601f8201168201806040525081019061281191906137d9565b6001600160a01b038416908361329d565b6001600160a01b03811660009081526083602052604090205460ff1661285a5760405162461bcd60e51b8152600401610191906140b3565b6128626132bc565b61286d848335613333565b61287b838360200135613333565b612889818360400135613333565b612897848360600135613387565b6128a5838360800135613387565b6128b3818360a00135613387565b6000806000866001600160a01b03166370a08231306040518263ffffffff1660e01b81526004016128e49190613da0565b60206040518083038186803b1580156128fc57600080fd5b505afa158015612910573d6000803e3d6000fd5b505050506040513d601f19601f820116820180604052508101906129349190613cd9565b90506000866001600160a01b03166370a08231306040518263ffffffff1660e01b81526004016129649190613da0565b60206040518083038186803b15801561297c57600080fd5b505afa158015612990573d6000803e3d6000fd5b505050506040513d601f19601f820116820180604052508101906129b49190613cd9565b9050600080896001600160a01b0316876001600160a01b0316630dfe16816040518163ffffffff1660e01b815260040160206040518083038186803b1580156129fc57600080fd5b505afa158015612a10573d6000803e3d6000fd5b505050506040513d601f19601f82011682018060405250810190612a3491906137d9565b6001600160a01b03161415612aca57866001600160a01b0316630902f1ac6040518163ffffffff1660e01b815260040160606040518083038186803b158015612a7c57600080fd5b505afa158015612a90573d6000803e3d6000fd5b505050506040513d601f19601f82011682018060405250810190612ab49190613c8b565b506001600160701b039182169350169050612b4d565b866001600160a01b0316630902f1ac6040518163ffffffff1660e01b815260040160606040518083038186803b158015612b0357600080fd5b505afa158015612b17573d6000803e3d6000fd5b505050506040513d601f19601f82011682018060405250810190612b3b9190613c8b565b506001600160701b0390811693501690505b612b59848484846133db565b90965094505084159250612ca79150505760408051600280825260608201835260009260208301908036833701905050905081612b97578686612b9a565b85875b82600081518110612bbb57634e487b7160e01b600052603260045260246000fd5b6020026020010183600181518110612be357634e487b7160e01b600052603260045260246000fd5b6001600160a01b0393841660209182029290920101529181169091526040516338ed173960e01b81527f0000000000000000000000000000000000000000000000000000000000000000909116906338ed173990612c4e90869060009086903090429060040161425d565b600060405180830381600087803b158015612c6857600080fd5b505af1158015612c7c573d6000803e3d6000fd5b505050506040513d6000823e601f3d908101601f19168201604052612ca49190810190613b71565b50505b6040516370a0823160e01b81526000906001600160a01b038816906370a0823190612cd6903090600401613da0565b60206040518083038186803b158015612cee57600080fd5b505afa158015612d02573d6000803e3d6000fd5b505050506040513d601f19601f82011682018060405250810190612d269190613cd9565b90506000866001600160a01b03166370a08231306040518263ffffffff1660e01b8152600401612d569190613da0565b60206040518083038186803b158015612d6e57600080fd5b505afa158015612d82573d6000803e3d6000fd5b505050506040513d601f19601f82011682018060405250810190612da69190613cd9565b90506000821180612db75750600081115b156110355760405162e8e33760e81b81526001600160a01b037f0000000000000000000000000000000000000000000000000000000000000000169063e8e3370090612e1d908b908b908790879060c08e01359060e08f01359030904290600401613e0e565b606060405180830381600087803b158015612e3757600080fd5b505af1158015612e4b573d6000803e3d6000fd5b505050506040513d601f19601f820116820180604052508101906117189190613d14565b6040516370a0823160e01b81526000906001600160a01b037f000000000000000000000000000000000000000000000000000000000000000016906370a0823190612ebe903090600401613da0565b602060405180830381600087803b158015612ed857600080fd5b505af1158015612eec573d6000803e3d6000fd5b505050506040513d601f19601f82011682018060405250810190612f109190613cd9565b905080156130b557604051632e1a7d4d60e01b81526001600160a01b037f00000000000000000000000000000000000000000000000000000000000000001690632e1a7d4d90612f6490849060040161423d565b600060405180830381600087803b158015612f7e57600080fd5b505af1158015612f92573d6000803e3d6000fd5b5050505060007f00000000000000000000000000000000000000000000000000000000000000006001600160a01b031663630dc7cb6040518163ffffffff1660e01b815260040160206040518083038186803b158015612ff157600080fd5b505afa158015613005573d6000803e3d6000fd5b505050506040513d601f19601f8201168201806040525081019061302991906137d9565b604080516000815260208101918290526001600160a01b03929092169184916130529190613d84565b60006040518083038185875af1925050503d806000811461308f576040519150601f19603f3d011682016040523d82523d6000602084013e613094565b606091505b50509050806106015760405162461bcd60e51b815260040161019190613eff565b50565b600061310d826040518060400160405280602081526020017f5361666545524332303a206c6f772d6c6576656c2063616c6c206661696c6564815250856001600160a01b0316611bcb9092919063ffffffff16565b805190915015611bc6578080602001905181019061312b9190613c47565b611bc65760405162461bcd60e51b81526004016101919061419d565b6060824710156131695760405162461bcd60e51b815260040161019190613fd9565b6131728561342a565b61318e5760405162461bcd60e51b815260040161019190614138565b600080866001600160a01b031685876040516131aa9190613d84565b60006040518083038185875af1925050503d80600081146131e7576040519150601f19603f3d011682016040523d82523d6000602084013e6131ec565b606091505b50915091506131fc828286613430565b979650505050505050565b60006107cc82846142fe565b60006107cc82846142a7565b80156106015761324f827f0000000000000000000000000000000000000000000000000000000000000000612681565b604051630450cfaf60e31b81526001600160a01b037f000000000000000000000000000000000000000000000000000000000000000016906322867d78906105ce9085908590600401613e72565b611bc68363a9059cbb60e01b8484604051602401611b8f929190613e72565b3415613331577f00000000000000000000000000000000000000000000000000000000000000006001600160a01b031663d0e30db0346040518263ffffffff1660e01b81526004016000604051808303818588803b15801561331d57600080fd5b505af11580156119ec573d6000803e3d6000fd5b565b80156106015760405163246b5de160e11b81526001600160a01b037f000000000000000000000000000000000000000000000000000000000000000016906348d6bbc2906105ce9085908590600401613e72565b801561060157604051634b8a352960e01b81526001600160a01b037f00000000000000000000000000000000000000000000000000000000000000001690634b8a3529906105ce9085908590600401613e72565b6000806133e88585613469565b6133f28785613469565b1061340e5761340386868686613475565b915060009050613421565b61341a85878587613475565b9150600190505b94509492505050565b3b151590565b6060831561343f5750816107cc565b82511561344f5782518084602001fd5b8160405162461bcd60e51b81526004016101919190613ecc565b60006107cc82846142df565b60006134818484613469565b61348b8684613469565b10156134a95760405162461bcd60e51b815260040161019190614116565b6103e560006134ba6107cd86613469565b905060006134d56134cb8888613469565b6120fd8a88613469565b90506000613502876134fc6134ea8b8a613213565b6134f6866103e8613469565b9061356f565b90613469565b9050600061351560046134fc8785613469565b905060006135356135308361352a8880613469565b90613213565b61357b565b905060006135438287613207565b90506000613552886002613469565b905061355e828261356f565b9d9c50505050505050505050505050565b60006107cc82846142bf565b60008161358a57506000610467565b816001600160801b82106135a35760809190911c9060401b5b600160401b82106135b95760409190911c9060201b5b64010000000082106135d05760209190911c9060101b5b6201000082106135e55760109190911c9060081b5b61010082106135f95760089190911c9060041b5b6010821061360c5760049190911c9060021b5b600882106136185760011b5b600161362482866142bf565b61362e90836142a7565b901c9050600161363e82866142bf565b61364890836142a7565b901c9050600161365882866142bf565b61366290836142a7565b901c9050600161367282866142bf565b61367c90836142a7565b901c9050600161368c82866142bf565b61369690836142a7565b901c905060016136a682866142bf565b6136b090836142a7565b901c905060016136c082866142bf565b6136ca90836142a7565b901c905060006136da82866142bf565b90508082106136e957806136eb565b815b95945050505050565b60008083601f840112613705578081fd5b50813567ffffffffffffffff81111561371c578182fd5b602083019150836020808302850101111561373657600080fd5b9250929050565b60008083601f84011261374e578182fd5b50813567ffffffffffffffff811115613765578182fd5b60208301915083602082850101111561373657600080fd5b6000610100828403121561378f578081fd5b50919050565b600060e0828403121561378f578081fd5b80516001600160701b038116811461046757600080fd5b6000602082840312156137ce578081fd5b81356107cc81614388565b6000602082840312156137ea578081fd5b81516107cc81614388565b60008060408385031215613807578081fd5b823561381281614388565b9150602083013561382281614388565b809150509250929050565b60008060008060008060008060a0898b031215613848578384fd5b883561385381614388565b9750602089013561386381614388565b9650604089013567ffffffffffffffff8082111561387f578586fd5b61388b8c838d016136f4565b909850965060608b01359150808211156138a3578586fd5b6138af8c838d016136f4565b909650945060808b01359150808211156138c7578384fd5b506138d48b828c0161373d565b999c989b5096995094979396929594505050565b600080600061014084860312156138fd578283fd5b833561390881614388565b9250602084013561391881614388565b9150613927856040860161377d565b90509250925092565b6000806000806101608587031215613946578384fd5b843561395181614388565b9350602085013561396181614388565b9250613970866040870161377d565b915061014085013561398181614388565b939692955090935050565b600080600061012084860312156139a1578283fd5b83356139ac81614388565b925060208401356139bc81614388565b91506139278560408601613795565b60008060008061014085870312156139e1578182fd5b84356139ec81614388565b935060208501356139fc81614388565b9250613a0b8660408701613795565b915061012085013561398181614388565b60008060008060808587031215613a31578182fd5b8451613a3c81614388565b6020860151909450613a4d81614388565b6040860151606090960151949790965092505050565b60008060008060008060a08789031215613a7b578384fd5b8635613a8681614388565b95506020870135613a9681614388565b94506040870135935060608701359250608087013567ffffffffffffffff811115613abf578283fd5b613acb89828a0161373d565b979a9699509497509295939492505050565b60008060408385031215613aef578182fd5b8235613afa81614388565b946020939093013593505050565b60008060008060408587031215613b1d578182fd5b843567ffffffffffffffff80821115613b34578384fd5b613b40888389016136f4565b90965094506020870135915080821115613b58578384fd5b50613b65878288016136f4565b95989497509550505050565b60006020808385031215613b83578182fd5b825167ffffffffffffffff80821115613b9a578384fd5b818501915085601f830112613bad578384fd5b815181811115613bbf57613bbf614372565b83810260405185828201018181108582111715613bde57613bde614372565b604052828152858101935084860182860187018a1015613bfc578788fd5b8795505b83861015613c1e578051855260019590950194938601938601613c00565b5098975050505050505050565b600060208284031215613c3c578081fd5b81356107cc8161439d565b600060208284031215613c58578081fd5b81516107cc8161439d565b600060208284031215613c74578081fd5b81356001600160e01b0319811681146107cc578182fd5b600080600060608486031215613c9f578081fd5b613ca8846137a6565b9250613cb6602085016137a6565b9150604084015163ffffffff81168114613cce578182fd5b809150509250925092565b600060208284031215613cea578081fd5b5051919050565b60008060408385031215613d03578182fd5b505080516020909101519092909150565b600080600060608486031215613d28578081fd5b8351925060208401519150604084015190509250925092565b6000815180845260208085019450808401835b83811015613d795781516001600160a01b031687529582019590820190600101613d54565b509495945050505050565b60008251613d96818460208701614315565b9190910192915050565b6001600160a01b0391909116815260200190565b6001600160a01b0392831681529116602082015260400190565b6001600160a01b039788168152958716602087015260408601949094526060850192909252608084015290921660a082015260c081019190915260e00190565b6001600160a01b039889168152968816602088015260408701959095526060860193909352608085019190915260a084015290921660c082015260e08101919091526101000190565b6001600160a01b039290921682521515602082015260400190565b6001600160a01b03929092168252602082015260400190565b6001600160a01b039390931683526020830191909152604082015260600190565b901515815260200190565b6001600160e01b031991909116815260200190565b6000602082528251806020840152613eeb816040850160208701614315565b601f01601f19169190910160400192915050565b6020808252601190820152701c99599d5b99081155120819985a5b1959607a1b604082015260600190565b60208082526026908201527f636f6c6c61746572616c20746f6b656e202620777374616b696e67206d69736d604082015265185d18da195960d21b606082015260800190565b6020808252601890820152773737ba103a3432903832b73234b7339033b7bb32b93737b960411b604082015260600190565b6020808252601b908201527f6f7261636c65206e6f7420737570706f7274206c7020746f6b656e0000000000604082015260600190565b60208082526026908201527f416464726573733a20696e73756666696369656e742062616c616e636520666f6040820152651c8818d85b1b60d21b606082015260800190565b60208082526010908201526f3737ba103a34329033b7bb32b93737b960811b604082015260600190565b60208082526025908201527f6c70546f6b656e732026207374617475736573206c656e677468206d69736d616040820152641d18da195960da1b606082015260800190565b6020808252600b908201526a3737903638103a37b5b2b760a91b604082015260600190565b6020808252601890820152771b1c081d1bdad95b881b9bdd081dda1a5d195b1a5cdd195960421b604082015260600190565b60208082526017908201527608aa89040daeae6e840c6dedaca40cce4deda40ae8aa89604b1b604082015260600190565b60208082526008908201526714995d995c9cd95960c21b604082015260600190565b6020808252601d908201527f416464726573733a2063616c6c20746f206e6f6e2d636f6e7472616374000000604082015260600190565b602080825260149082015273696e636f727265637420756e6465726c79696e6760601b604082015260600190565b6020808252602a908201527f5361666545524332303a204552433230206f7065726174696f6e20646964206e6040820152691bdd081cdd58d8d9595960b21b606082015260800190565b60208082526036908201527f5361666545524332303a20617070726f76652066726f6d206e6f6e2d7a65726f60408201527520746f206e6f6e2d7a65726f20616c6c6f77616e636560501b606082015260800190565b90815260200190565b9182526001600160a01b0316602082015260400190565b600086825285602083015260a0604083015261427c60a0830186613d41565b6001600160a01b0394909416606083015250608001529392505050565b918252602082015260400190565b600082198211156142ba576142ba61435c565b500190565b6000826142da57634e487b7160e01b81526012600452602481fd5b500490565b60008160001904831182151516156142f9576142f961435c565b500290565b6000828210156143105761431061435c565b500390565b60005b83811015614330578181015183820152602001614318565b838111156104a65750506000910152565b60006000198214156143555761435561435c565b5060010190565b634e487b7160e01b600052601160045260246000fd5b634e487b7160e01b600052604160045260246000fd5b6001600160a01b03811681146130b557600080fd5b80151581146130b557600080fdfea2646970667358221220f92c7a6c46044ad31220830cd6393ad0e68a1b76eb3cbc45457911aaeb3bd36264736f6c63430008000033",
  "linkReferences": {},
  "deployedLinkReferences": {}
}