{
  "_format": "hh-sol-artifact-1",
  "contractName": "BandAdapterOracle",
  "sourceName": "contracts/oracle/BandAdapterOracle.sol",
  "abi": [
    {
      "inputs": [
        {
          "internalType": "contract IStdReference",
          "name": "_ref",
          "type": "address"
        }
      ],
      "stateMutability": "nonpayable",
      "type": "constructor"
    },
    {
      "anonymous": false,
      "inputs": [
        {
          "indexed": false,
          "internalType": "address",
          "name": "governor",
          "type": "address"
        }
      ],
      "name": "AcceptGovernor",
      "type": "event"
    },
    {
      "anonymous": false,
      "inputs": [
        {
          "indexed": false,
          "internalType": "address",
          "name": "governor",
          "type": "address"
        }
      ],
      "name": "SetGovernor",
      "type": "event"
    },
    {
      "anonymous": false,
      "inputs": [
        {
          "indexed": false,
          "internalType": "address",
          "name": "token",
          "type": "address"
        },
        {
          "indexed": false,
          "internalType": "uint256",
          "name": "maxDelayTime",
          "type": "uint256"
        }
      ],
      "name": "SetMaxDelayTime",
      "type": "event"
    },
    {
      "anonymous": false,
      "inputs": [
        {
          "indexed": false,
          "internalType": "address",
          "name": "pendingGovernor",
          "type": "address"
        }
      ],
      "name": "SetPendingGovernor",
      "type": "event"
    },
    {
      "anonymous": false,
      "inputs": [
        {
          "indexed": false,
          "internalType": "address",
          "name": "ref",
          "type": "address"
        }
      ],
      "name": "SetRef",
      "type": "event"
    },
    {
      "anonymous": false,
      "inputs": [
        {
          "indexed": false,
          "internalType": "address",
          "name": "token",
          "type": "address"
        },
        {
          "indexed": false,
          "internalType": "string",
          "name": "symbol",
          "type": "string"
        }
      ],
      "name": "SetSymbol",
      "type": "event"
    },
    {
      "inputs": [],
      "name": "ETH",
      "outputs": [
        {
          "internalType": "string",
          "name": "",
          "type": "string"
        }
      ],
      "stateMutability": "view",
      "type": "function"
    },
    {
      "inputs": [],
      "name": "WETH",
      "outputs": [
        {
          "internalType": "address",
          "name": "",
          "type": "address"
        }
      ],
      "stateMutability": "view",
      "type": "function"
    },
    {
      "inputs": [],
      "name": "acceptGovernor",
      "outputs": [],
      "stateMutability": "nonpayable",
      "type": "function"
    },
    {
      "inputs": [
        {
          "internalType": "address",
          "name": "token",
          "type": "address"
        }
      ],
      "name": "getETHPx",
      "outputs": [
        {
          "internalType": "uint256",
          "name": "",
          "type": "uint256"
        }
      ],
      "stateMutability": "view",
      "type": "function"
    },
    {
      "inputs": [],
      "name": "governor",
      "outputs": [
        {
          "internalType": "address",
          "name": "",
          "type": "address"
        }
      ],
      "stateMutability": "view",
      "type": "function"
    },
    {
      "inputs": [
        {
          "internalType": "address",
          "name": "",
          "type": "address"
        }
      ],
      "name": "maxDelayTimes",
      "outputs": [
        {
          "internalType": "uint256",
          "name": "",
          "type": "uint256"
        }
      ],
      "stateMutability": "view",
      "type": "function"
    },
    {
      "inputs": [],
      "name": "pendingGovernor",
      "outputs": [
        {
          "internalType": "address",
          "name": "",
          "type": "address"
        }
      ],
      "stateMutability": "view",
      "type": "function"
    },
    {
      "inputs": [],
      "name": "ref",
      "outputs": [
        {
          "internalType": "contract IStdReference",
          "name": "",
          "type": "address"
        }
      ],
      "stateMutability": "view",
      "type": "function"
    },
    {
      "inputs": [
        {
          "internalType": "address[]",
          "name": "tokens",
          "type": "address[]"
        },
        {
          "internalType": "uint256[]",
          "name": "maxDelays",
          "type": "uint256[]"
        }
      ],
      "name": "setMaxDelayTimes",
      "outputs": [],
      "stateMutability": "nonpayable",
      "type": "function"
    },
    {
      "inputs": [
        {
          "internalType": "address",
          "name": "_pendingGovernor",
          "type": "address"
        }
      ],
      "name": "setPendingGovernor",
      "outputs": [],
      "stateMutability": "nonpayable",
      "type": "function"
    },
    {
      "inputs": [
        {
          "internalType": "contract IStdReference",
          "name": "_ref",
          "type": "address"
        }
      ],
      "name": "setRef",
      "outputs": [],
      "stateMutability": "nonpayable",
      "type": "function"
    },
    {
      "inputs": [
        {
          "internalType": "address[]",
          "name": "tokens",
          "type": "address[]"
        },
        {
          "internalType": "string[]",
          "name": "syms",
          "type": "string[]"
        }
      ],
      "name": "setSymbols",
      "outputs": [],
      "stateMutability": "nonpayable",
      "type": "function"
    },
    {
      "inputs": [
        {
          "internalType": "address",
          "name": "",
          "type": "address"
        }
      ],
      "name": "symbols",
      "outputs": [
        {
          "internalType": "string",
          "name": "",
          "type": "string"
        }
      ],
      "stateMutability": "view",
      "type": "function"
    }
  ],
  "bytecode": "0x60806040523480156200001157600080fd5b50604051620014bb380380620014bb83398101604081905262000034916200014e565b6200003e62000064565b604280546001600160a01b0319166001600160a01b0392909216919091179055620001e0565b600054610100900460ff16806200007e575060005460ff16155b620000a65760405162461bcd60e51b81526004016200009d9062000192565b60405180910390fd5b600054610100900460ff16158015620000d2576000805460ff1961ff0019909116610100171660011790555b6000805462010000600160b01b0319163362010000810291909117909155600180546001600160a01b03191690556040517fbce074c8369e26e70e1ae2f14fc944da352cfe6f52e2de9572f0c9942a24b7fc9162000130916200017e565b60405180910390a180156200014b576000805461ff00191690555b50565b60006020828403121562000160578081fd5b81516001600160a01b038116811462000177578182fd5b9392505050565b6001600160a01b0391909116815260200190565b6020808252602e908201527f496e697469616c697a61626c653a20636f6e747261637420697320616c72656160408201526d191e481a5b9a5d1a585b1a5e995960921b606082015260800190565b6112cb80620001f06000396000f3fe608060405234801561001057600080fd5b50600436106100bf5760003560e01c80638322fff21161007c5780638322fff214610145578063ab9aadfe1461014d578063ad5c46481461016d578063ae23e6c714610175578063e3056a3414610188578063e58bb63914610190578063f235757f14610198576100bf565b80630c340a24146100c457806313b4b912146100e257806321a78f68146100f7578063500e5e98146100ff57806350695a02146101125780636bc855cc14610132575b600080fd5b6100cc6101ab565b6040516100d99190610e2a565b60405180910390f35b6100f56100f0366004610c3d565b6101c0565b005b6100cc610349565b6100f561010d366004610ca5565b610358565b610125610120366004610c21565b6104db565b6040516100d99190610e83565b6100f5610140366004610c21565b610575565b6101256105fb565b61016061015b366004610c21565b61061a565b6040516100d9919061103c565b6100cc610912565b610160610183366004610c21565b61092a565b6100cc61093c565b6100f561094b565b6100f56101a6366004610c21565b6109db565b6000546201000090046001600160a01b031681565b6000546201000090046001600160a01b031633146101f95760405162461bcd60e51b81526004016101f090610f21565b60405180910390fd5b8281146102185760405162461bcd60e51b81526004016101f090610fcb565b60005b838110156103425782828281811061024357634e487b7160e01b600052603260045260246000fd5b905060200201356044600087878581811061026e57634e487b7160e01b600052603260045260246000fd5b90506020020160208101906102839190610c21565b6001600160a01b031681526020810191909152604001600020557f5fe358b614d2e3423b34c6ee8a708b2784b1d624ebe8376e9154e9154667aea98585838181106102de57634e487b7160e01b600052603260045260246000fd5b90506020020160208101906102f39190610c21565b84848481811061031357634e487b7160e01b600052603260045260246000fd5b90506020020135604051610328929190610e6a565b60405180910390a18061033a81611236565b91505061021b565b5050505050565b6042546001600160a01b031681565b6000546201000090046001600160a01b031633146103885760405162461bcd60e51b81526004016101f090610f21565b81518151146103a95760405162461bcd60e51b81526004016101f09061100f565b60005b81518110156104d6578181815181106103d557634e487b7160e01b600052603260045260246000fd5b60200260200101516043600085848151811061040157634e487b7160e01b600052603260045260246000fd5b60200260200101516001600160a01b03166001600160a01b03168152602001908152602001600020908051906020019061043c929190610a81565b507f90e198cc0c7c55f9a3c77367e40b68385aaa8c5532af4f0c7ea6358376abd32783828151811061047e57634e487b7160e01b600052603260045260246000fd5b60200260200101518383815181106104a657634e487b7160e01b600052603260045260246000fd5b60200260200101516040516104bc929190610e3e565b60405180910390a1806104ce81611236565b9150506103ac565b505050565b604360205260009081526040902080546104f4906111fb565b80601f0160208091040260200160405190810160405280929190818152602001828054610520906111fb565b801561056d5780601f106105425761010080835404028352916020019161056d565b820191906000526020600020905b81548152906001019060200180831161055057829003601f168201915b505050505081565b6000546201000090046001600160a01b031633146105a55760405162461bcd60e51b81526004016101f090610f21565b604280546001600160a01b0319166001600160a01b0383161790556040517f52c58bc35ad304377331103d866ef96578de59fd825778cfc5de23d084e6052a906105f0908390610e2a565b60405180910390a150565b6040518060400160405280600381526020016208aa8960eb1b81525081565b60006001600160a01b03821673c02aaa39b223fe8d0a0e5c4f27ead9083c756cc21480610663575073eeeeeeeeeeeeeeeeeeeeeeeeeeeeeeeeeeeeeeee6001600160a01b038316145b156106735750600160701b61090d565b6001600160a01b03821660009081526043602052604081208054610696906111fb565b80601f01602080910402602001604051908101604052809291908181526020018280546106c2906111fb565b801561070f5780601f106106e45761010080835404028352916020019161070f565b820191906000526020600020905b8154815290600101906020018083116106f257829003601f168201915b505050506001600160a01b038516600090815260446020526040902054825192935091151590506107525760405162461bcd60e51b81526004016101f090610fa7565b8061076f5760405162461bcd60e51b81526004016101f090610f4b565b6000846001600160a01b031663313ce5676040518163ffffffff1660e01b815260040160206040518083038186803b1580156107aa57600080fd5b505afa1580156107be573d6000803e3d6000fd5b505050506040513d601f19601f820116820180604052508101906107e29190610dbe565b604254604080518082018252600381526208aa8960eb1b6020820152905163195556f360e21b815260ff9390931693506000926001600160a01b03909216916365555bcc9161083691889190600401610e96565b60606040518083038186803b15801561084e57600080fd5b505afa158015610862573d6000803e3d6000fd5b505050506040513d601f19601f820116820180604052508101906108869190610d64565b90506108924284610a56565b816020015110156108b55760405162461bcd60e51b81526004016101f090610ef6565b6108bf4284610a56565b816040015110156108e25760405162461bcd60e51b81526004016101f090610f7b565b6109066108f083600a6110f7565b825161090090600160701b610a69565b90610a75565b9450505050505b919050565b73c02aaa39b223fe8d0a0e5c4f27ead9083c756cc281565b60446020526000908152604090205481565b6001546001600160a01b031681565b6001546001600160a01b031633146109755760405162461bcd60e51b81526004016101f090610ec4565b600180546001600160a01b03191690556000805462010000600160b01b03191633620100008102919091179091556040517fd345d81ce68c70b119a17eee79dc1421700bd9cb21ca148a62dc90983964e82f916109d191610e2a565b60405180910390a1565b6000546201000090046001600160a01b03163314610a0b5760405162461bcd60e51b81526004016101f090610f21565b600180546001600160a01b0319166001600160a01b0383161790556040517f964dea888b00b2ab53f13dfe7ca334b46e99338c222ae232d98547a1da019f60906105f0908390610e2a565b6000610a6282846111e4565b9392505050565b6000610a6282846111c5565b6000610a628284611091565b828054610a8d906111fb565b90600052602060002090601f016020900481019282610aaf5760008555610af5565b82601f10610ac857805160ff1916838001178555610af5565b82800160010185558215610af5579182015b82811115610af5578251825591602001919060010190610ada565b50610b01929150610b05565b5090565b5b80821115610b015760008155600101610b06565b60008083601f840112610b2b578182fd5b5081356001600160401b03811115610b41578182fd5b6020830191508360208083028501011115610b5b57600080fd5b9250929050565b6000601f8381840112610b73578182fd5b82356020610b88610b838361106e565b611045565b82815281810190868301865b85811015610c1357813589018a603f820112610bae578889fd5b8581013560406001600160401b03821115610bcb57610bcb611267565b610bdc828b01601f19168901611045565b8281528d82848601011115610bef578b8cfd5b828285018a83013791820188018b9052508552509284019290840190600101610b94565b509098975050505050505050565b600060208284031215610c32578081fd5b8135610a628161127d565b60008060008060408587031215610c52578283fd5b84356001600160401b0380821115610c68578485fd5b610c7488838901610b1a565b90965094506020870135915080821115610c8c578384fd5b50610c9987828801610b1a565b95989497509550505050565b60008060408385031215610cb7578182fd5b82356001600160401b0380821115610ccd578384fd5b818501915085601f830112610ce0578384fd5b81356020610cf0610b838361106e565b82815281810190858301838502870184018b1015610d0c578889fd5b8896505b84871015610d37578035610d238161127d565b835260019690960195918301918301610d10565b5096505086013592505080821115610d4d578283fd5b50610d5a85828601610b62565b9150509250929050565b600060608284031215610d75578081fd5b604051606081018181106001600160401b0382111715610d9757610d97611267565b80604052508251815260208301516020820152604083015160408201528091505092915050565b600060208284031215610dcf578081fd5b815160ff81168114610a62578182fd5b60008151808452815b81811015610e0457602081850181015186830182015201610de8565b81811115610e155782602083870101525b50601f01601f19169290920160200192915050565b6001600160a01b0391909116815260200190565b6001600160a01b0383168152604060208201819052600090610e6290830184610ddf565b949350505050565b6001600160a01b03929092168252602082015260400190565b600060208252610a626020830184610ddf565b600060408252610ea96040830185610ddf565b8281036020840152610ebb8185610ddf565b95945050505050565b6020808252601890820152773737ba103a3432903832b73234b7339033b7bb32b93737b960411b604082015260600190565b60208082526011908201527064656c617965642062617365206461746160781b604082015260600190565b60208082526010908201526f3737ba103a34329033b7bb32b93737b960811b604082015260600190565b6020808252601690820152751b585e0819195b185e481d1a5b59481b9bdd081cd95d60521b604082015260600190565b60208082526012908201527164656c617965642071756f7465206461746160701b604082015260600190565b6020808252600a90820152696e6f206d617070696e6760b01b604082015260600190565b60208082526024908201527f746f6b656e732026206d617844656c617973206c656e677468206d69736d617460408201526318da195960e21b606082015260800190565b6020808252601390820152720d2dcc6dedce6d2e6e8cadce840d8cadccee8d606b1b604082015260600190565b90815260200190565b6040518181016001600160401b038111828210171561106657611066611267565b604052919050565b60006001600160401b0382111561108757611087611267565b5060209081020190565b6000826110ac57634e487b7160e01b81526012600452602481fd5b500490565b80825b60018086116110c357506110ee565b8187048211156110d5576110d5611251565b808616156110e257918102915b9490941c9380026110b4565b94509492505050565b6000610a62600019848460008261111057506001610a62565b8161111d57506000610a62565b8160018114611133576002811461113d5761116a565b6001915050610a62565b60ff84111561114e5761114e611251565b6001841b91508482111561116457611164611251565b50610a62565b5060208310610133831016604e8410600b841016171561119d575081810a8381111561119857611198611251565b610a62565b6111aa84848460016110b1565b8086048211156111bc576111bc611251565b02949350505050565b60008160001904831182151516156111df576111df611251565b500290565b6000828210156111f6576111f6611251565b500390565b60028104600182168061120f57607f821691505b6020821081141561123057634e487b7160e01b600052602260045260246000fd5b50919050565b600060001982141561124a5761124a611251565b5060010190565b634e487b7160e01b600052601160045260246000fd5b634e487b7160e01b600052604160045260246000fd5b6001600160a01b038116811461129257600080fd5b5056fea264697066735822122084f2f4d59050d2aa3946807adb4e7ff04c7cbc0c0754bd8134d82985192db7f664736f6c63430008000033",
  "linkReferences": {},
  "deployedLinkReferences": {}
}