{
  "_format": "hh-sol-artifact-1",
  "contractName": "CurveOracle",
  "sourceName": "contracts/oracle/CurveOracle.sol",
  "abi": [
    {
      "inputs": [
        {
          "internalType": "contract IBaseOracle",
          "name": "_base",
          "type": "address"
        },
        {
          "internalType": "contract ICurveRegistry",
          "name": "_registry",
          "type": "address"
        }
      ],
      "stateMutability": "nonpayable",
      "type": "constructor"
    },
    {
      "inputs": [],
      "name": "base",
      "outputs": [
        {
          "internalType": "contract IBaseOracle",
          "name": "",
          "type": "address"
        }
      ],
      "stateMutability": "view",
      "type": "function"
    },
    {
      "inputs": [
        {
          "internalType": "address",
          "name": "lp",
          "type": "address"
        }
      ],
      "name": "getETHPx",
      "outputs": [
        {
          "internalType": "uint256",
          "name": "",
          "type": "uint256"
        }
      ],
      "stateMutability": "view",
      "type": "function"
    },
    {
      "inputs": [
        {
          "internalType": "address",
          "name": "",
          "type": "address"
        }
      ],
      "name": "poolOf",
      "outputs": [
        {
          "internalType": "address",
          "name": "",
          "type": "address"
        }
      ],
      "stateMutability": "view",
      "type": "function"
    },
    {
      "inputs": [
        {
          "internalType": "address",
          "name": "lp",
          "type": "address"
        }
      ],
      "name": "registerPool",
      "outputs": [],
      "stateMutability": "nonpayable",
      "type": "function"
    },
    {
      "inputs": [],
      "name": "registry",
      "outputs": [
        {
          "internalType": "contract ICurveRegistry",
          "name": "",
          "type": "address"
        }
      ],
      "stateMutability": "view",
      "type": "function"
    },
    {
      "inputs": [
        {
          "internalType": "address",
          "name": "",
          "type": "address"
        },
        {
          "internalType": "uint256",
          "name": "",
          "type": "uint256"
        }
      ],
      "name": "ulTokens",
      "outputs": [
        {
          "internalType": "uint8",
          "name": "decimals",
          "type": "uint8"
        },
        {
          "internalType": "address",
          "name": "token",
          "type": "address"
        }
      ],
      "stateMutability": "view",
      "type": "function"
    }
  ],
  "bytecode": "0x60c060405234801561001057600080fd5b50604051610da8380380610da883398101604081905261002f9161004d565b6001600160601b0319606092831b8116608052911b1660a05261009e565b6000806040838503121561005f578182fd5b825161006a81610086565b602084015190925061007b81610086565b809150509250929050565b6001600160a01b038116811461009b57600080fd5b50565b60805160601c60a05160601c610cc46100e46000396000818161011c015281816104e0015281816105c8015261065301526000818160f801526102a20152610cc46000f3fe608060405234801561001057600080fd5b50600436106100625760003560e01c80635001f3b5146100675780637b10399914610085578063988b1fa71461008d578063a4052dec146100a0578063ab9aadfe146100c1578063abd90846146100e1575b600080fd5b61006f6100f6565b60405161007c91906109c7565b60405180910390f35b61006f61011a565b61006f61009b36600461087a565b61013e565b6100b36100ae3660046108b2565b610159565b60405161007c929190610aa9565b6100d46100cf36600461087a565b61019a565b60405161007c9190610aa0565b6100f46100ef36600461087a565b610490565b005b7f000000000000000000000000000000000000000000000000000000000000000081565b7f000000000000000000000000000000000000000000000000000000000000000081565b6001602052600090815260409020546001600160a01b031681565b6000602052816000526040600020818154811061017557600080fd5b60009182526020909120015460ff8116925061010090046001600160a01b0316905082565b6001600160a01b03808216600090815260016020526040812054909116806101dd5760405162461bcd60e51b81526004016101d490610a72565b60405180910390fd5b6001600160a01b03831660009081526020818152604080832080548251818502810185019093528083529192909190849084015b82821015610258576000848152602090819020604080518082019091529084015460ff8116825261010090046001600160a01b031681830152825260019092019101610211565b50508251929350600019929150600090505b818110156103d657600084828151811061029457634e487b7160e01b600052603260045260246000fd5b6020026020010151905060007f00000000000000000000000000000000000000000000000000000000000000006001600160a01b031663ab9aadfe83602001516040518263ffffffff1660e01b81526004016102f091906109c7565b60206040518083038186803b15801561030857600080fd5b505afa15801561031c573d6000803e3d6000fd5b505050506040513d601f19601f82011682018060405250810190610340919061096b565b90506012826000015160ff16101561037b578151610378906103669060ff166012610c18565b61037190600a610b2b565b829061085b565b90505b6012826000015160ff1611156103b55781516103b2906103a09060129060ff16610c18565b6103ab90600a610b2b565b829061086e565b90505b848110156103c1578094505b505080806103ce90610c2f565b91505061026a565b506000198214156103f95760405162461bcd60e51b81526004016101d490610a0d565b610486670de0b6b3a7640000610480866001600160a01b031663bb7b8b806040518163ffffffff1660e01b815260040160206040518083038186803b15801561044157600080fd5b505afa158015610455573d6000803e3d6000fd5b505050506040513d601f19601f82011682018060405250810190610479919061096b565b859061086e565b9061085b565b9695505050505050565b6001600160a01b038082166000908152600160205260409020541680156104c95760405162461bcd60e51b81526004016101d4906109db565b60405163bdf475c360e01b81526001600160a01b037f0000000000000000000000000000000000000000000000000000000000000000169063bdf475c3906105159085906004016109c7565b60206040518083038186803b15801561052d57600080fd5b505afa158015610541573d6000803e3d6000fd5b505050506040513d601f19601f820116820180604052508101906105659190610896565b90506001600160a01b03811661058d5760405162461bcd60e51b81526004016101d490610a30565b6001600160a01b0382811660009081526001602052604080822080546001600160a01b0319168585161790555163940494f160e01b815290917f0000000000000000000000000000000000000000000000000000000000000000169063940494f1906105fd9085906004016109c7565b604080518083038186803b15801561061457600080fd5b505afa158015610628573d6000803e3d6000fd5b505050506040513d601f19601f8201168201806040525081019061064c9190610983565b50905060007f00000000000000000000000000000000000000000000000000000000000000006001600160a01b0316639ac90d3d846040518263ffffffff1660e01b815260040161069d91906109c7565b6101006040518083038186803b1580156106b657600080fd5b505afa1580156106ca573d6000803e3d6000fd5b505050506040513d601f19601f820116820180604052508101906106ee91906108dd565b905060005b8281101561085457600080866001600160a01b03166001600160a01b03168152602001908152602001600020604051806040016040528084846008811061074a57634e487b7160e01b600052603260045260246000fd5b60200201516001600160a01b031663313ce5676040518163ffffffff1660e01b815260040160206040518083038186803b15801561078757600080fd5b505afa15801561079b573d6000803e3d6000fd5b505050506040513d601f19601f820116820180604052508101906107bf91906109a6565b60ff1681526020018484600881106107e757634e487b7160e01b600052603260045260246000fd5b602090810291909101516001600160a01b039081169092528354600181018555600094855293819020835194018054939091015190911661010002610100600160a81b031960ff90941660ff1990931692909217929092161790558061084c81610c2f565b9150506106f3565b5050505050565b60006108678284610ac5565b9392505050565b60006108678284610bf9565b60006020828403121561088b578081fd5b813561086781610c76565b6000602082840312156108a7578081fd5b815161086781610c76565b600080604083850312156108c4578081fd5b82356108cf81610c76565b946020939093013593505050565b60006101008083850312156108f0578182fd5b83601f8401126108fe578182fd5b60405181810181811067ffffffffffffffff8211171561092057610920610c60565b6040528084838101871015610933578485fd5b8493505b600884101561096057805161094b81610c76565b82526001939093019260209182019101610937565b509095945050505050565b60006020828403121561097c578081fd5b5051919050565b60008060408385031215610995578182fd5b505080516020909101519092909150565b6000602082840312156109b7578081fd5b815160ff81168114610867578182fd5b6001600160a01b0391909116815260200190565b6020808252601890820152771b1c081a5cc8185b1c9958591e481c9959da5cdd195c995960421b604082015260600190565b6020808252600990820152680dcde40dad2dc40e0f60bb1b604082015260600190565b60208082526022908201527f6e6f20636f72726573706f6e64696e6720706f6f6c20666f72206c7020746f6b60408201526132b760f11b606082015260800190565b6020808252601490820152731b1c081a5cc81b9bdd081c9959da5cdd195c995960621b604082015260600190565b90815260200190565b60ff9290921682526001600160a01b0316602082015260400190565b600082610ae057634e487b7160e01b81526012600452602481fd5b500490565b80825b6001808611610af75750610b22565b818704821115610b0957610b09610c4a565b80861615610b1657918102915b9490941c938002610ae8565b94509492505050565b60006108676000198484600082610b4457506001610867565b81610b5157506000610867565b8160018114610b675760028114610b7157610b9e565b6001915050610867565b60ff841115610b8257610b82610c4a565b6001841b915084821115610b9857610b98610c4a565b50610867565b5060208310610133831016604e8410600b8410161715610bd1575081810a83811115610bcc57610bcc610c4a565b610867565b610bde8484846001610ae5565b808604821115610bf057610bf0610c4a565b02949350505050565b6000816000190483118215151615610c1357610c13610c4a565b500290565b600082821015610c2a57610c2a610c4a565b500390565b6000600019821415610c4357610c43610c4a565b5060010190565b634e487b7160e01b600052601160045260246000fd5b634e487b7160e01b600052604160045260246000fd5b6001600160a01b0381168114610c8b57600080fd5b5056fea2646970667358221220f473f4ebb8d1640b00ce7200656de55802cc173af6565628dc0882971e8e2f6864736f6c63430008000033",
  "linkReferences": {},
  "deployedLinkReferences": {}
}