{
  "_format": "hh-sol-artifact-1",
  "contractName": "Governable",
  "sourceName": "contracts/Governable.sol",
  "abi": [
    {
      "anonymous": false,
      "inputs": [
        {
          "indexed": false,
          "internalType": "address",
          "name": "governor",
          "type": "address"
        }
      ],
      "name": "AcceptGovernor",
      "type": "event"
    },
    {
      "anonymous": false,
      "inputs": [
        {
          "indexed": false,
          "internalType": "address",
          "name": "governor",
          "type": "address"
        }
      ],
      "name": "SetGovernor",
      "type": "event"
    },
    {
      "anonymous": false,
      "inputs": [
        {
          "indexed": false,
          "internalType": "address",
          "name": "pendingGovernor",
          "type": "address"
        }
      ],
      "name": "SetPendingGovernor",
      "type": "event"
    },
    {
      "inputs": [],
      "name": "acceptGovernor",
      "outputs": [],
      "stateMutability": "nonpayable",
      "type": "function"
    },
    {
      "inputs": [],
      "name": "governor",
      "outputs": [
        {
          "internalType": "address",
          "name": "",
          "type": "address"
        }
      ],
      "stateMutability": "view",
      "type": "function"
    },
    {
      "inputs": [],
      "name": "pendingGovernor",
      "outputs": [
        {
          "internalType": "address",
          "name": "",
          "type": "address"
        }
      ],
      "stateMutability": "view",
      "type": "function"
    },
    {
      "inputs": [
        {
          "internalType": "address",
          "name": "_pendingGovernor",
          "type": "address"
        }
      ],
      "name": "setPendingGovernor",
      "outputs": [],
      "stateMutability": "nonpayable",
      "type": "function"
    }
  ],
  "bytecode": "0x608060405234801561001057600080fd5b506102ab806100206000396000f3fe608060405234801561001057600080fd5b506004361061004c5760003560e01c80630c340a2414610051578063e3056a341461006f578063e58bb63914610077578063f235757f14610081575b600080fd5b610059610094565b6040516100669190610205565b60405180910390f35b6100596100a9565b61007f6100b8565b005b61007f61008f3660046101d7565b610151565b6000546201000090046001600160a01b031681565b6001546001600160a01b031681565b6001546001600160a01b031633146100eb5760405162461bcd60e51b81526004016100e290610219565b60405180910390fd5b600180546001600160a01b03191690556000805462010000600160b01b03191633620100008102919091179091556040517fd345d81ce68c70b119a17eee79dc1421700bd9cb21ca148a62dc90983964e82f9161014791610205565b60405180910390a1565b6000546201000090046001600160a01b031633146101815760405162461bcd60e51b81526004016100e29061024b565b600180546001600160a01b0319166001600160a01b0383161790556040517f964dea888b00b2ab53f13dfe7ca334b46e99338c222ae232d98547a1da019f60906101cc908390610205565b60405180910390a150565b6000602082840312156101e8578081fd5b81356001600160a01b03811681146101fe578182fd5b9392505050565b6001600160a01b0391909116815260200190565b6020808252601890820152773737ba103a3432903832b73234b7339033b7bb32b93737b960411b604082015260600190565b60208082526010908201526f3737ba103a34329033b7bb32b93737b960811b60408201526060019056fea26469706673582212204e71e9fc515be01b89a0bd4332de2f0b0322df18a6c603e557f012223c622aed64736f6c63430008000033",
  "linkReferences": {},
  "deployedLinkReferences": {}
}