{
  "_format": "hh-sol-artifact-1",
  "contractName": "HomoraCaster",
  "sourceName": "contracts/HomoraBank.sol",
  "abi": [
    {
      "inputs": [
        {
          "internalType": "address",
          "name": "target",
          "type": "address"
        },
        {
          "internalType": "bytes",
          "name": "data",
          "type": "bytes"
        }
      ],
      "name": "cast",
      "outputs": [],
      "stateMutability": "payable",
      "type": "function"
    }
  ],
  "bytecode": "0x608060405234801561001057600080fd5b506101d2806100206000396000f3fe60806040526004361061001e5760003560e01c8063be2a1f7914610023575b600080fd5b6100366100313660046100da565b610038565b005b600080846001600160a01b0316348585604051610056929190610165565b60006040518083038185875af1925050503d8060008114610093576040519150601f19603f3d011682016040523d82523d6000602084013e610098565b606091505b5091509150816100d3578051156100b25780518082602001fd5b60405162461bcd60e51b81526004016100ca90610175565b60405180910390fd5b5050505050565b6000806000604084860312156100ee578283fd5b83356001600160a01b0381168114610104578384fd5b9250602084013567ffffffffffffffff80821115610120578384fd5b818601915086601f830112610133578384fd5b813581811115610141578485fd5b876020828501011115610152578485fd5b6020830194508093505050509250925092565b6000828483379101908152919050565b6020808252600d908201526c1898590818d85cdd0818d85b1b609a1b60408201526060019056fea2646970667358221220efb830bfb02a1b2c179813fa9997f42b39d9e632a24c0decdfd88bbe9b02d1a264736f6c63430008000033",
  "linkReferences": {},
  "deployedLinkReferences": {}
}