{
  "_format": "hh-sol-artifact-1",
  "contractName": "ERC20KP3ROracle",
  "sourceName": "contracts/oracle/ERC20KP3ROracle.sol",
  "abi": [
    {
      "inputs": [
        {
          "internalType": "contract IKeep3rV1Oracle",
          "name": "_kp3r",
          "type": "address"
        }
      ],
      "stateMutability": "nonpayable",
      "type": "constructor"
    },
    {
      "inputs": [],
      "name": "MAX_TWAP_TIME",
      "outputs": [
        {
          "internalType": "uint256",
          "name": "",
          "type": "uint256"
        }
      ],
      "stateMutability": "view",
      "type": "function"
    },
    {
      "inputs": [],
      "name": "MIN_TWAP_TIME",
      "outputs": [
        {
          "internalType": "uint256",
          "name": "",
          "type": "uint256"
        }
      ],
      "stateMutability": "view",
      "type": "function"
    },
    {
      "inputs": [
        {
          "internalType": "address",
          "name": "pair",
          "type": "address"
        }
      ],
      "name": "currentPx0Cumu",
      "outputs": [
        {
          "internalType": "uint256",
          "name": "px0Cumu",
          "type": "uint256"
        }
      ],
      "stateMutability": "view",
      "type": "function"
    },
    {
      "inputs": [
        {
          "internalType": "address",
          "name": "pair",
          "type": "address"
        }
      ],
      "name": "currentPx1Cumu",
      "outputs": [
        {
          "internalType": "uint256",
          "name": "px1Cumu",
          "type": "uint256"
        }
      ],
      "stateMutability": "view",
      "type": "function"
    },
    {
      "inputs": [],
      "name": "factory",
      "outputs": [
        {
          "internalType": "address",
          "name": "",
          "type": "address"
        }
      ],
      "stateMutability": "view",
      "type": "function"
    },
    {
      "inputs": [
        {
          "internalType": "address",
          "name": "token",
          "type": "address"
        }
      ],
      "name": "getETHPx",
      "outputs": [
        {
          "internalType": "uint256",
          "name": "",
          "type": "uint256"
        }
      ],
      "stateMutability": "view",
      "type": "function"
    },
    {
      "inputs": [],
      "name": "kp3r",
      "outputs": [
        {
          "internalType": "contract IKeep3rV1Oracle",
          "name": "",
          "type": "address"
        }
      ],
      "stateMutability": "view",
      "type": "function"
    },
    {
      "inputs": [
        {
          "internalType": "address",
          "name": "pair",
          "type": "address"
        }
      ],
      "name": "price0TWAP",
      "outputs": [
        {
          "internalType": "uint256",
          "name": "",
          "type": "uint256"
        }
      ],
      "stateMutability": "view",
      "type": "function"
    },
    {
      "inputs": [
        {
          "internalType": "address",
          "name": "pair",
          "type": "address"
        }
      ],
      "name": "price1TWAP",
      "outputs": [
        {
          "internalType": "uint256",
          "name": "",
          "type": "uint256"
        }
      ],
      "stateMutability": "view",
      "type": "function"
    },
    {
      "inputs": [],
      "name": "weth",
      "outputs": [
        {
          "internalType": "address",
          "name": "",
          "type": "address"
        }
      ],
      "stateMutability": "view",
      "type": "function"
    }
  ],
  "bytecode": "0x60e060405234801561001057600080fd5b5060405161101e38038061101e83398101604081905261002f91610163565b80806001600160a01b03166080816001600160a01b031660601b81525050806001600160a01b031663c45a01556040518163ffffffff1660e01b815260040160206040518083038186803b15801561008657600080fd5b505afa15801561009a573d6000803e3d6000fd5b505050506040513d601f19601f820116820180604052508101906100be9190610163565b6001600160a01b031660a0816001600160a01b031660601b81525050806001600160a01b031663ad5c46486040518163ffffffff1660e01b815260040160206040518083038186803b15801561011357600080fd5b505afa158015610127573d6000803e3d6000fd5b505050506040513d601f19601f8201168201806040525081019061014b9190610163565b60601b6001600160601b03191660c0525061019e9050565b600060208284031215610174578081fd5b815161017f81610186565b9392505050565b6001600160a01b038116811461019b57600080fd5b50565b60805160601c60a05160601c60c05160601c610e0261021c6000396000818161042a015281816108610152818161091401526109900152600081816108e501526109ea0152600081816101580152818161022a0152818161030c0152818161044e015281816104750152818161053e015261061f0152610e026000f3fe608060405234801561001057600080fd5b506004361061009e5760003560e01c8063a09c840411610066578063a09c840414610104578063ab9aadfe14610117578063af8a9ba51461012a578063c45a015514610132578063eb84b2f61461013a5761009e565b806309cd510e146100a35780630bbfeedd146100c15780633fc8cef3146100d457806359e25a94146100e9578063990ae00f146100f1575b600080fd5b6100ab61014d565b6040516100b89190610d02565b60405180910390f35b6100ab6100cf366004610b60565b610153565b6100dc610428565b6040516100b89190610c32565b6100dc61044c565b6100ab6100ff366004610b60565b610470565b6100ab610112366004610b60565b610709565b6100ab610125366004610b60565b61085d565b6100ab6109e2565b6100dc6109e8565b6100ab610148366004610b60565b610a0c565b610e1081565b6000807f00000000000000000000000000000000000000000000000000000000000000006001600160a01b03166381bfb885846040518263ffffffff1660e01b81526004016101a29190610c32565b60206040518083038186803b1580156101ba57600080fd5b505afa1580156101ce573d6000803e3d6000fd5b505050506040513d601f19601f820116820180604052508101906101f29190610bed565b90506000811161021d5760405162461bcd60e51b815260040161021490610cd1565b60405180910390fd5b6000806001600160a01b037f00000000000000000000000000000000000000000000000000000000000000001663024599668661025b600187610d62565b6040518363ffffffff1660e01b8152600401610278929190610c60565b60606040518083038186803b15801561029057600080fd5b505afa1580156102a4573d6000803e3d6000fd5b505050506040513d601f19601f820116820180604052508101906102c89190610c05565b9250509150610384426102db9190610d62565b8211156103b257600183116103025760405162461bcd60e51b815260040161021490610ca0565b6001600160a01b037f00000000000000000000000000000000000000000000000000000000000000001663024599668661033d600287610d62565b6040518363ffffffff1660e01b815260040161035a929190610c60565b60606040518083038186803b15801561037257600080fd5b505afa158015610386573d6000803e3d6000fd5b505050506040513d601f19601f820116820180604052508101906103aa9190610c05565b919350909150505b60006103be8342610d62565b905061038481101580156103d45750610e108111155b6103f05760405162461bcd60e51b815260040161021490610c79565b60006103fb87610a0c565b90506104078442610d62565b6104118483610d62565b61041b9190610d23565b955050505050505b919050565b7f000000000000000000000000000000000000000000000000000000000000000081565b7f000000000000000000000000000000000000000000000000000000000000000081565b6000807f00000000000000000000000000000000000000000000000000000000000000006001600160a01b03166381bfb885846040518263ffffffff1660e01b81526004016104bf9190610c32565b60206040518083038186803b1580156104d757600080fd5b505afa1580156104eb573d6000803e3d6000fd5b505050506040513d601f19601f8201168201806040525081019061050f9190610bed565b9050600081116105315760405162461bcd60e51b815260040161021490610cd1565b6000806001600160a01b037f00000000000000000000000000000000000000000000000000000000000000001663024599668661056f600187610d62565b6040518363ffffffff1660e01b815260040161058c929190610c60565b60606040518083038186803b1580156105a457600080fd5b505afa1580156105b8573d6000803e3d6000fd5b505050506040513d601f19601f820116820180604052508101906105dc9190610c05565b5090925090506105ee61038442610d62565b8211156106c457600183116106155760405162461bcd60e51b815260040161021490610ca0565b6001600160a01b037f000000000000000000000000000000000000000000000000000000000000000016630245996686610650600287610d62565b6040518363ffffffff1660e01b815260040161066d929190610c60565b60606040518083038186803b15801561068557600080fd5b505afa158015610699573d6000803e3d6000fd5b505050506040513d601f19601f820116820180604052508101906106bd9190610c05565b5090925090505b60006106d08342610d62565b905061038481101580156106e65750610e108111155b6107025760405162461bcd60e51b815260040161021490610c79565b60006103fb875b600080429050826001600160a01b0316635909c0d56040518163ffffffff1660e01b815260040160206040518083038186803b15801561074857600080fd5b505afa15801561075c573d6000803e3d6000fd5b505050506040513d601f19601f820116820180604052508101906107809190610bed565b91506000806000856001600160a01b0316630902f1ac6040518163ffffffff1660e01b815260040160606040518083038186803b1580156107c057600080fd5b505afa1580156107d4573d6000803e3d6000fd5b505050506040513d601f19601f820116820180604052508101906107f89190610b9f565b92506001600160701b031692506001600160701b03169250428163ffffffff16146108545760006108298286610d79565b905063ffffffff811661084085607086901b610d23565b61084a9190610d43565b61041b9087610d0b565b50505050919050565b60007f00000000000000000000000000000000000000000000000000000000000000006001600160a01b0316826001600160a01b031614806108bb575073eeeeeeeeeeeeeeeeeeeeeeeeeeeeeeeeeeeeeeee6001600160a01b038316145b156108cb5750600160701b610423565b60405163e6a4390560e01b81526000906001600160a01b037f0000000000000000000000000000000000000000000000000000000000000000169063e6a439059061093c9086907f000000000000000000000000000000000000000000000000000000000000000090600401610c46565b60206040518083038186803b15801561095457600080fd5b505afa158015610968573d6000803e3d6000fd5b505050506040513d601f19601f8201168201806040525081019061098c9190610b83565b90507f00000000000000000000000000000000000000000000000000000000000000006001600160a01b0316836001600160a01b031610156109d9576109d181610470565b915050610423565b6109d181610153565b61038481565b7f000000000000000000000000000000000000000000000000000000000000000081565b600080429050826001600160a01b0316635a3d54936040518163ffffffff1660e01b815260040160206040518083038186803b158015610a4b57600080fd5b505afa158015610a5f573d6000803e3d6000fd5b505050506040513d601f19601f82011682018060405250810190610a839190610bed565b91506000806000856001600160a01b0316630902f1ac6040518163ffffffff1660e01b815260040160606040518083038186803b158015610ac357600080fd5b505afa158015610ad7573d6000803e3d6000fd5b505050506040513d601f19601f82011682018060405250810190610afb9190610b9f565b92506001600160701b031692506001600160701b031692508363ffffffff168163ffffffff1614610854576000610b328286610d79565b905063ffffffff811661084084607087901b610d23565b80516001600160701b038116811461042357600080fd5b600060208284031215610b71578081fd5b8135610b7c81610db4565b9392505050565b600060208284031215610b94578081fd5b8151610b7c81610db4565b600080600060608486031215610bb3578182fd5b610bbc84610b49565b9250610bca60208501610b49565b9150604084015163ffffffff81168114610be2578182fd5b809150509250925092565b600060208284031215610bfe578081fd5b5051919050565b600080600060608486031215610c19578283fd5b8351925060208401519150604084015190509250925092565b6001600160a01b0391909116815260200190565b6001600160a01b0392831681529116602082015260400190565b6001600160a01b03929092168252602082015260400190565b6020808252600d908201526c62616420545741502074696d6560981b604082015260600190565b6020808252601790820152763737903632b733ba3416991037b139b2b93b30ba34b7b760491b604082015260600190565b6020808252601790820152763737903632b733ba3416989037b139b2b93b30ba34b7b760491b604082015260600190565b90815260200190565b60008219821115610d1e57610d1e610d9e565b500190565b600082610d3e57634e487b7160e01b81526012600452602481fd5b500490565b6000816000190483118215151615610d5d57610d5d610d9e565b500290565b600082821015610d7457610d74610d9e565b500390565b600063ffffffff83811690831681811015610d9657610d96610d9e565b039392505050565b634e487b7160e01b600052601160045260246000fd5b6001600160a01b0381168114610dc957600080fd5b5056fea26469706673582212202d7cbfc8f5706047497ec6dd19365eb012ae7ccd833af6ba5c2fec74917586fd64736f6c63430008000033",
  "linkReferences": {},
  "deployedLinkReferences": {}
}