{
  "_format": "hh-sol-artifact-1",
  "contractName": "SimpleOracle",
  "sourceName": "contracts/oracle/SimpleOracle.sol",
  "abi": [
    {
      "inputs": [],
      "stateMutability": "nonpayable",
      "type": "constructor"
    },
    {
      "anonymous": false,
      "inputs": [
        {
          "indexed": false,
          "internalType": "address",
          "name": "governor",
          "type": "address"
        }
      ],
      "name": "AcceptGovernor",
      "type": "event"
    },
    {
      "anonymous": false,
      "inputs": [
        {
          "indexed": false,
          "internalType": "address",
          "name": "token",
          "type": "address"
        },
        {
          "indexed": false,
          "internalType": "uint256",
          "name": "px",
          "type": "uint256"
        }
      ],
      "name": "SetETHPx",
      "type": "event"
    },
    {
      "anonymous": false,
      "inputs": [
        {
          "indexed": false,
          "internalType": "address",
          "name": "governor",
          "type": "address"
        }
      ],
      "name": "SetGovernor",
      "type": "event"
    },
    {
      "anonymous": false,
      "inputs": [
        {
          "indexed": false,
          "internalType": "address",
          "name": "pendingGovernor",
          "type": "address"
        }
      ],
      "name": "SetPendingGovernor",
      "type": "event"
    },
    {
      "inputs": [],
      "name": "acceptGovernor",
      "outputs": [],
      "stateMutability": "nonpayable",
      "type": "function"
    },
    {
      "inputs": [
        {
          "internalType": "address",
          "name": "token",
          "type": "address"
        }
      ],
      "name": "getETHPx",
      "outputs": [
        {
          "internalType": "uint256",
          "name": "",
          "type": "uint256"
        }
      ],
      "stateMutability": "view",
      "type": "function"
    },
    {
      "inputs": [],
      "name": "governor",
      "outputs": [
        {
          "internalType": "address",
          "name": "",
          "type": "address"
        }
      ],
      "stateMutability": "view",
      "type": "function"
    },
    {
      "inputs": [],
      "name": "pendingGovernor",
      "outputs": [
        {
          "internalType": "address",
          "name": "",
          "type": "address"
        }
      ],
      "stateMutability": "view",
      "type": "function"
    },
    {
      "inputs": [
        {
          "internalType": "address",
          "name": "",
          "type": "address"
        }
      ],
      "name": "prices",
      "outputs": [
        {
          "internalType": "uint256",
          "name": "",
          "type": "uint256"
        }
      ],
      "stateMutability": "view",
      "type": "function"
    },
    {
      "inputs": [
        {
          "internalType": "address[]",
          "name": "tokens",
          "type": "address[]"
        },
        {
          "internalType": "uint256[]",
          "name": "pxs",
          "type": "uint256[]"
        }
      ],
      "name": "setETHPx",
      "outputs": [],
      "stateMutability": "nonpayable",
      "type": "function"
    },
    {
      "inputs": [
        {
          "internalType": "address",
          "name": "_pendingGovernor",
          "type": "address"
        }
      ],
      "name": "setPendingGovernor",
      "outputs": [],
      "stateMutability": "nonpayable",
      "type": "function"
    }
  ],
  "bytecode": "0x608060405234801561001057600080fd5b5061001961001e565b610162565b600054610100900460ff1680610037575060005460ff16155b61005c5760405162461bcd60e51b815260040161005390610114565b60405180910390fd5b600054610100900460ff16158015610087576000805460ff1961ff0019909116610100171660011790555b6000805462010000600160b01b0319163362010000810291909117909155600180546001600160a01b03191690556040517fbce074c8369e26e70e1ae2f14fc944da352cfe6f52e2de9572f0c9942a24b7fc916100e391610100565b60405180910390a180156100fd576000805461ff00191690555b50565b6001600160a01b0391909116815260200190565b6020808252602e908201527f496e697469616c697a61626c653a20636f6e747261637420697320616c72656160408201526d191e481a5b9a5d1a585b1a5e995960921b606082015260800190565b610702806101716000396000f3fe608060405234801561001057600080fd5b506004361061006d5760003560e01c80630c340a241461007257806331f4ebcf14610090578063ab9aadfe146100a5578063cfed246b146100c5578063e3056a34146100d8578063e58bb639146100e0578063f235757f146100e8575b600080fd5b61007a6100fb565b6040516100879190610563565b60405180910390f35b6100a361009e3660046104a5565b610110565b005b6100b86100b3366004610484565b61028c565b6040516100879190610638565b6100b86100d3366004610484565b6102ca565b61007a6102dc565b6100a36102eb565b6100a36100f6366004610484565b61037b565b6000546201000090046001600160a01b031681565b6000546201000090046001600160a01b031633146101495760405162461bcd60e51b8152600401610140906105c2565b60405180910390fd5b805182511461016a5760405162461bcd60e51b81526004016101409061060b565b60005b82518110156102875781818151811061019657634e487b7160e01b600052603260045260246000fd5b6020026020010151604260008584815181106101c257634e487b7160e01b600052603260045260246000fd5b60200260200101516001600160a01b03166001600160a01b03168152602001908152602001600020819055507fced56f32dd0ea86ccae3f6689b9265dd4e25af47561151ff7168f4d5f7f6a0f783828151811061022f57634e487b7160e01b600052603260045260246000fd5b602002602001015183838151811061025757634e487b7160e01b600052603260045260246000fd5b602002602001015160405161026d929190610577565b60405180910390a18061027f8161068f565b91505061016d565b505050565b6001600160a01b038116600090815260426020526040812054806102c25760405162461bcd60e51b8152600401610140906105ec565b90505b919050565b60426020526000908152604090205481565b6001546001600160a01b031681565b6001546001600160a01b031633146103155760405162461bcd60e51b815260040161014090610590565b600180546001600160a01b03191690556000805462010000600160b01b03191633620100008102919091179091556040517fd345d81ce68c70b119a17eee79dc1421700bd9cb21ca148a62dc90983964e82f9161037191610563565b60405180910390a1565b6000546201000090046001600160a01b031633146103ab5760405162461bcd60e51b8152600401610140906105c2565b600180546001600160a01b0319166001600160a01b0383161790556040517f964dea888b00b2ab53f13dfe7ca334b46e99338c222ae232d98547a1da019f60906103f6908390610563565b60405180910390a150565b80356001600160a01b03811681146102c557600080fd5b600082601f830112610428578081fd5b8135602061043d6104388361066b565b610641565b8281528181019085830183850287018401881015610459578586fd5b855b858110156104775781358452928401929084019060010161045b565b5090979650505050505050565b600060208284031215610495578081fd5b61049e82610401565b9392505050565b600080604083850312156104b7578081fd5b823567ffffffffffffffff808211156104ce578283fd5b818501915085601f8301126104e1578283fd5b813560206104f16104388361066b565b82815281810190858301838502870184018b101561050d578788fd5b8796505b848710156105365761052281610401565b835260019690960195918301918301610511565b509650508601359250508082111561054c578283fd5b5061055985828601610418565b9150509250929050565b6001600160a01b0391909116815260200190565b6001600160a01b03929092168252602082015260400190565b6020808252601890820152773737ba103a3432903832b73234b7339033b7bb32b93737b960411b604082015260600190565b60208082526010908201526f3737ba103a34329033b7bb32b93737b960811b604082015260600190565b6020808252600590820152640dcde40e0f60db1b604082015260600190565b6020808252601390820152720d2dcc6dedce6d2e6e8cadce840d8cadccee8d606b1b604082015260600190565b90815260200190565b60405181810167ffffffffffffffff81118282101715610663576106636106b6565b604052919050565b600067ffffffffffffffff821115610685576106856106b6565b5060209081020190565b60006000198214156106af57634e487b7160e01b81526011600452602481fd5b5060010190565b634e487b7160e01b600052604160045260246000fdfea26469706673582212201bc01b9762562679b2e048e56263863689beb4c329584ecbb6da42618087b21364736f6c63430008000033",
  "linkReferences": {},
  "deployedLinkReferences": {}
}